{
  "_format": "hh-sol-artifact-1",
  "contractName": "TheBugs",
  "sourceName": "contracts/TheBugs.sol",
  "abi": [
    {
      "inputs": [],
      "stateMutability": "nonpayable",
      "type": "constructor"
    },
    {
      "inputs": [],
      "name": "AccessControlBadConfirmation",
      "type": "error"
    },
    {
      "inputs": [
        {
          "internalType": "address",
          "name": "account",
          "type": "address"
        },
        {
          "internalType": "bytes32",
          "name": "neededRole",
          "type": "bytes32"
        }
      ],
      "name": "AccessControlUnauthorizedAccount",
      "type": "error"
    },
    {
      "inputs": [
        {
          "internalType": "address",
          "name": "target",
          "type": "address"
        }
      ],
      "name": "AddressEmptyCode",
      "type": "error"
    },
    {
      "inputs": [
        {
          "internalType": "address",
          "name": "implementation",
          "type": "address"
        }
      ],
      "name": "ERC1967InvalidImplementation",
      "type": "error"
    },
    {
      "inputs": [],
      "name": "ERC1967NonPayable",
      "type": "error"
    },
    {
      "inputs": [],
      "name": "ERC721EnumerableForbiddenBatchMint",
      "type": "error"
    },
    {
      "inputs": [
        {
          "internalType": "address",
          "name": "sender",
          "type": "address"
        },
        {
          "internalType": "uint256",
          "name": "tokenId",
          "type": "uint256"
        },
        {
          "internalType": "address",
          "name": "owner",
          "type": "address"
        }
      ],
      "name": "ERC721IncorrectOwner",
      "type": "error"
    },
    {
      "inputs": [
        {
          "internalType": "address",
          "name": "operator",
          "type": "address"
        },
        {
          "internalType": "uint256",
          "name": "tokenId",
          "type": "uint256"
        }
      ],
      "name": "ERC721InsufficientApproval",
      "type": "error"
    },
    {
      "inputs": [
        {
          "internalType": "address",
          "name": "approver",
          "type": "address"
        }
      ],
      "name": "ERC721InvalidApprover",
      "type": "error"
    },
    {
      "inputs": [
        {
          "internalType": "address",
          "name": "operator",
          "type": "address"
        }
      ],
      "name": "ERC721InvalidOperator",
      "type": "error"
    },
    {
      "inputs": [
        {
          "internalType": "address",
          "name": "owner",
          "type": "address"
        }
      ],
      "name": "ERC721InvalidOwner",
      "type": "error"
    },
    {
      "inputs": [
        {
          "internalType": "address",
          "name": "receiver",
          "type": "address"
        }
      ],
      "name": "ERC721InvalidReceiver",
      "type": "error"
    },
    {
      "inputs": [
        {
          "internalType": "address",
          "name": "sender",
          "type": "address"
        }
      ],
      "name": "ERC721InvalidSender",
      "type": "error"
    },
    {
      "inputs": [
        {
          "internalType": "uint256",
          "name": "tokenId",
          "type": "uint256"
        }
      ],
      "name": "ERC721NonexistentToken",
      "type": "error"
    },
    {
      "inputs": [
        {
          "internalType": "address",
          "name": "owner",
          "type": "address"
        },
        {
          "internalType": "uint256",
          "name": "index",
          "type": "uint256"
        }
      ],
      "name": "ERC721OutOfBoundsIndex",
      "type": "error"
    },
    {
      "inputs": [],
      "name": "FailedCall",
      "type": "error"
    },
    {
      "inputs": [],
      "name": "InvalidInitialization",
      "type": "error"
    },
    {
      "inputs": [],
      "name": "NotInitializing",
      "type": "error"
    },
    {
      "inputs": [],
      "name": "UUPSUnauthorizedCallContext",
      "type": "error"
    },
    {
      "inputs": [
        {
          "internalType": "bytes32",
          "name": "slot",
          "type": "bytes32"
        }
      ],
      "name": "UUPSUnsupportedProxiableUUID",
      "type": "error"
    },
    {
      "anonymous": false,
      "inputs": [
        {
          "indexed": true,
          "internalType": "address",
          "name": "owner",
          "type": "address"
        },
        {
          "indexed": true,
          "internalType": "address",
          "name": "approved",
          "type": "address"
        },
        {
          "indexed": true,
          "internalType": "uint256",
          "name": "tokenId",
          "type": "uint256"
        }
      ],
      "name": "Approval",
      "type": "event"
    },
    {
      "anonymous": false,
      "inputs": [
        {
          "indexed": true,
          "internalType": "address",
          "name": "owner",
          "type": "address"
        },
        {
          "indexed": true,
          "internalType": "address",
          "name": "operator",
          "type": "address"
        },
        {
          "indexed": false,
          "internalType": "bool",
          "name": "approved",
          "type": "bool"
        }
      ],
      "name": "ApprovalForAll",
      "type": "event"
    },
    {
      "anonymous": false,
      "inputs": [
        {
          "indexed": false,
          "internalType": "uint64",
          "name": "version",
          "type": "uint64"
        }
      ],
      "name": "Initialized",
      "type": "event"
    },
    {
      "anonymous": false,
      "inputs": [
        {
          "indexed": true,
          "internalType": "bytes32",
          "name": "role",
          "type": "bytes32"
        },
        {
          "indexed": true,
          "internalType": "bytes32",
          "name": "previousAdminRole",
          "type": "bytes32"
        },
        {
          "indexed": true,
          "internalType": "bytes32",
          "name": "newAdminRole",
          "type": "bytes32"
        }
      ],
      "name": "RoleAdminChanged",
      "type": "event"
    },
    {
      "anonymous": false,
      "inputs": [
        {
          "indexed": true,
          "internalType": "bytes32",
          "name": "role",
          "type": "bytes32"
        },
        {
          "indexed": true,
          "internalType": "address",
          "name": "account",
          "type": "address"
        },
        {
          "indexed": true,
          "internalType": "address",
          "name": "sender",
          "type": "address"
        }
      ],
      "name": "RoleGranted",
      "type": "event"
    },
    {
      "anonymous": false,
      "inputs": [
        {
          "indexed": true,
          "internalType": "bytes32",
          "name": "role",
          "type": "bytes32"
        },
        {
          "indexed": true,
          "internalType": "address",
          "name": "account",
          "type": "address"
        },
        {
          "indexed": true,
          "internalType": "address",
          "name": "sender",
          "type": "address"
        }
      ],
      "name": "RoleRevoked",
      "type": "event"
    },
    {
      "anonymous": false,
      "inputs": [
        {
          "indexed": true,
          "internalType": "address",
          "name": "from",
          "type": "address"
        },
        {
          "indexed": true,
          "internalType": "address",
          "name": "to",
          "type": "address"
        },
        {
          "indexed": true,
          "internalType": "uint256",
          "name": "tokenId",
          "type": "uint256"
        }
      ],
      "name": "Transfer",
      "type": "event"
    },
    {
      "anonymous": false,
      "inputs": [
        {
          "indexed": true,
          "internalType": "address",
          "name": "implementation",
          "type": "address"
        }
      ],
      "name": "Upgraded",
      "type": "event"
    },
    {
      "inputs": [],
      "name": "COMPETITION_ROLE",
      "outputs": [
        {
          "internalType": "bytes32",
          "name": "",
          "type": "bytes32"
        }
      ],
      "stateMutability": "view",
      "type": "function"
    },
    {
      "inputs": [],
      "name": "DATA_SETTER_ROLE",
      "outputs": [
        {
          "internalType": "bytes32",
          "name": "",
          "type": "bytes32"
        }
      ],
      "stateMutability": "view",
      "type": "function"
    },
    {
      "inputs": [],
      "name": "DEFAULT_ADMIN_ROLE",
      "outputs": [
        {
          "internalType": "bytes32",
          "name": "",
          "type": "bytes32"
        }
      ],
      "stateMutability": "view",
      "type": "function"
    },
    {
      "inputs": [],
      "name": "MINTER_ROLE",
      "outputs": [
        {
          "internalType": "bytes32",
          "name": "",
          "type": "bytes32"
        }
      ],
      "stateMutability": "view",
      "type": "function"
    },
    {
      "inputs": [],
      "name": "SPECIES_COUNT",
      "outputs": [
        {
          "internalType": "uint256",
          "name": "",
          "type": "uint256"
        }
      ],
      "stateMutability": "view",
      "type": "function"
    },
    {
      "inputs": [],
      "name": "UPGRADER_ROLE",
      "outputs": [
        {
          "internalType": "bytes32",
          "name": "",
          "type": "bytes32"
        }
      ],
      "stateMutability": "view",
      "type": "function"
    },
    {
      "inputs": [],
      "name": "UPGRADE_INTERFACE_VERSION",
      "outputs": [
        {
          "internalType": "string",
          "name": "",
          "type": "string"
        }
      ],
      "stateMutability": "view",
      "type": "function"
    },
    {
      "inputs": [
        {
          "internalType": "address",
          "name": "to",
          "type": "address"
        },
        {
          "internalType": "uint256",
          "name": "tokenId",
          "type": "uint256"
        }
      ],
      "name": "approve",
      "outputs": [],
      "stateMutability": "nonpayable",
      "type": "function"
    },
    {
      "inputs": [
        {
          "internalType": "address",
          "name": "owner",
          "type": "address"
        }
      ],
      "name": "balanceOf",
      "outputs": [
        {
          "internalType": "uint256",
          "name": "",
          "type": "uint256"
        }
      ],
      "stateMutability": "view",
      "type": "function"
    },
    {
      "inputs": [
        {
          "internalType": "uint256",
          "name": "",
          "type": "uint256"
        }
      ],
      "name": "bugDatas",
      "outputs": [
        {
          "internalType": "string",
          "name": "name",
          "type": "string"
        },
        {
          "components": [
            {
              "internalType": "uint8",
              "name": "intelligence",
              "type": "uint8"
            },
            {
              "internalType": "uint8",
              "name": "nimbleness",
              "type": "uint8"
            },
            {
              "internalType": "uint8",
              "name": "strength",
              "type": "uint8"
            },
            {
              "internalType": "uint8",
              "name": "endurance",
              "type": "uint8"
            },
            {
              "internalType": "uint8",
              "name": "charisma",
              "type": "uint8"
            },
            {
              "internalType": "uint8",
              "name": "talent",
              "type": "uint8"
            }
          ],
          "internalType": "struct TheBugs.Attributes",
          "name": "attributes",
          "type": "tuple"
        }
      ],
      "stateMutability": "view",
      "type": "function"
    },
    {
      "inputs": [
        {
          "internalType": "uint256",
          "name": "tokenId",
          "type": "uint256"
        }
      ],
      "name": "calculateAttributes",
      "outputs": [
        {
          "components": [
            {
              "internalType": "uint8",
              "name": "intelligence",
              "type": "uint8"
            },
            {
              "internalType": "uint8",
              "name": "nimbleness",
              "type": "uint8"
            },
            {
              "internalType": "uint8",
              "name": "strength",
              "type": "uint8"
            },
            {
              "internalType": "uint8",
              "name": "endurance",
              "type": "uint8"
            },
            {
              "internalType": "uint8",
              "name": "charisma",
              "type": "uint8"
            },
            {
              "internalType": "uint8",
              "name": "talent",
              "type": "uint8"
            }
          ],
          "internalType": "struct TheBugs.Attributes",
          "name": "",
          "type": "tuple"
        }
      ],
      "stateMutability": "view",
      "type": "function"
    },
    {
      "inputs": [
        {
          "internalType": "uint256",
          "name": "tokenId",
          "type": "uint256"
        }
      ],
      "name": "calculateRarity",
      "outputs": [
        {
          "internalType": "enum TheBugs.Rarity",
          "name": "",
          "type": "uint8"
        }
      ],
      "stateMutability": "pure",
      "type": "function"
    },
    {
      "inputs": [
        {
          "internalType": "uint256",
          "name": "",
          "type": "uint256"
        }
      ],
      "name": "draws",
      "outputs": [
        {
          "internalType": "uint256",
          "name": "",
          "type": "uint256"
        }
      ],
      "stateMutability": "view",
      "type": "function"
    },
    {
      "inputs": [
        {
          "internalType": "uint256",
          "name": "tokenId",
          "type": "uint256"
        }
      ],
      "name": "getApproved",
      "outputs": [
        {
          "internalType": "address",
          "name": "",
          "type": "address"
        }
      ],
      "stateMutability": "view",
      "type": "function"
    },
    {
      "inputs": [
        {
          "internalType": "bytes32",
          "name": "role",
          "type": "bytes32"
        }
      ],
      "name": "getRoleAdmin",
      "outputs": [
        {
          "internalType": "bytes32",
          "name": "",
          "type": "bytes32"
        }
      ],
      "stateMutability": "view",
      "type": "function"
    },
    {
      "inputs": [
        {
          "internalType": "bytes32",
          "name": "role",
          "type": "bytes32"
        },
        {
          "internalType": "uint256",
          "name": "index",
          "type": "uint256"
        }
      ],
      "name": "getRoleMember",
      "outputs": [
        {
          "internalType": "address",
          "name": "",
          "type": "address"
        }
      ],
      "stateMutability": "view",
      "type": "function"
    },
    {
      "inputs": [
        {
          "internalType": "bytes32",
          "name": "role",
          "type": "bytes32"
        }
      ],
      "name": "getRoleMemberCount",
      "outputs": [
        {
          "internalType": "uint256",
          "name": "",
          "type": "uint256"
        }
      ],
      "stateMutability": "view",
      "type": "function"
    },
    {
      "inputs": [
        {
          "internalType": "bytes32",
          "name": "role",
          "type": "bytes32"
        }
      ],
      "name": "getRoleMembers",
      "outputs": [
        {
          "internalType": "address[]",
          "name": "",
          "type": "address[]"
        }
      ],
      "stateMutability": "view",
      "type": "function"
    },
    {
      "inputs": [
        {
          "internalType": "uint256",
          "name": "tokenId",
          "type": "uint256"
        }
      ],
      "name": "getSpeciesData",
      "outputs": [
        {
          "components": [
            {
              "internalType": "string",
              "name": "name",
              "type": "string"
            },
            {
              "internalType": "string",
              "name": "description",
              "type": "string"
            },
            {
              "internalType": "string",
              "name": "image",
              "type": "string"
            },
            {
              "components": [
                {
                  "internalType": "uint8",
                  "name": "intelligence",
                  "type": "uint8"
                },
                {
                  "internalType": "uint8",
                  "name": "nimbleness",
                  "type": "uint8"
                },
                {
                  "internalType": "uint8",
                  "name": "strength",
                  "type": "uint8"
                },
                {
                  "internalType": "uint8",
                  "name": "endurance",
                  "type": "uint8"
                },
                {
                  "internalType": "uint8",
                  "name": "charisma",
                  "type": "uint8"
                },
                {
                  "internalType": "uint8",
                  "name": "talent",
                  "type": "uint8"
                }
              ],
              "internalType": "struct TheBugs.Attributes",
              "name": "baseAttributes",
              "type": "tuple"
            }
          ],
          "internalType": "struct TheBugs.SpeciesData",
          "name": "",
          "type": "tuple"
        }
      ],
      "stateMutability": "view",
      "type": "function"
    },
    {
      "inputs": [
        {
          "internalType": "bytes32",
          "name": "role",
          "type": "bytes32"
        },
        {
          "internalType": "address",
          "name": "account",
          "type": "address"
        }
      ],
      "name": "grantRole",
      "outputs": [],
      "stateMutability": "nonpayable",
      "type": "function"
    },
    {
      "inputs": [
        {
          "internalType": "bytes32",
          "name": "role",
          "type": "bytes32"
        },
        {
          "internalType": "address",
          "name": "account",
          "type": "address"
        }
      ],
      "name": "hasRole",
      "outputs": [
        {
          "internalType": "bool",
          "name": "",
          "type": "bool"
        }
      ],
      "stateMutability": "view",
      "type": "function"
    },
    {
      "inputs": [
        {
          "internalType": "uint256",
          "name": "tokenId",
          "type": "uint256"
        }
      ],
      "name": "incrementDraws",
      "outputs": [],
      "stateMutability": "nonpayable",
      "type": "function"
    },
    {
      "inputs": [
        {
          "internalType": "uint256",
          "name": "tokenId",
          "type": "uint256"
        }
      ],
      "name": "incrementLosses",
      "outputs": [],
      "stateMutability": "nonpayable",
      "type": "function"
    },
    {
      "inputs": [
        {
          "internalType": "uint256",
          "name": "tokenId",
          "type": "uint256"
        }
      ],
      "name": "incrementWins",
      "outputs": [],
      "stateMutability": "nonpayable",
      "type": "function"
    },
    {
      "inputs": [],
      "name": "initialize",
      "outputs": [],
      "stateMutability": "nonpayable",
      "type": "function"
    },
    {
      "inputs": [
        {
          "internalType": "address",
          "name": "owner",
          "type": "address"
        },
        {
          "internalType": "address",
          "name": "operator",
          "type": "address"
        }
      ],
      "name": "isApprovedForAll",
      "outputs": [
        {
          "internalType": "bool",
          "name": "",
          "type": "bool"
        }
      ],
      "stateMutability": "view",
      "type": "function"
    },
    {
      "inputs": [
        {
          "internalType": "uint256",
          "name": "",
          "type": "uint256"
        }
      ],
      "name": "losses",
      "outputs": [
        {
          "internalType": "uint256",
          "name": "",
          "type": "uint256"
        }
      ],
      "stateMutability": "view",
      "type": "function"
    },
    {
      "inputs": [
        {
          "internalType": "address",
          "name": "to",
          "type": "address"
        },
        {
          "internalType": "uint256",
          "name": "tokenId",
          "type": "uint256"
        },
        {
          "internalType": "string",
          "name": "name",
          "type": "string"
        }
      ],
      "name": "mint",
      "outputs": [],
      "stateMutability": "nonpayable",
      "type": "function"
    },
    {
      "inputs": [],
      "name": "name",
      "outputs": [
        {
          "internalType": "string",
          "name": "",
          "type": "string"
        }
      ],
      "stateMutability": "view",
      "type": "function"
    },
    {
      "inputs": [
        {
          "internalType": "uint256",
          "name": "tokenId",
          "type": "uint256"
        }
      ],
      "name": "ownerOf",
      "outputs": [
        {
          "internalType": "address",
          "name": "",
          "type": "address"
        }
      ],
      "stateMutability": "view",
      "type": "function"
    },
    {
      "inputs": [],
      "name": "proxiableUUID",
      "outputs": [
        {
          "internalType": "bytes32",
          "name": "",
          "type": "bytes32"
        }
      ],
      "stateMutability": "view",
      "type": "function"
    },
    {
      "inputs": [
        {
          "internalType": "enum TheBugs.Rarity",
          "name": "rarity",
          "type": "uint8"
        }
      ],
      "name": "rarityToString",
      "outputs": [
        {
          "internalType": "string",
          "name": "",
          "type": "string"
        }
      ],
      "stateMutability": "pure",
      "type": "function"
    },
    {
      "inputs": [
        {
          "internalType": "bytes32",
          "name": "role",
          "type": "bytes32"
        },
        {
          "internalType": "address",
          "name": "callerConfirmation",
          "type": "address"
        }
      ],
      "name": "renounceRole",
      "outputs": [],
      "stateMutability": "nonpayable",
      "type": "function"
    },
    {
      "inputs": [
        {
          "internalType": "bytes32",
          "name": "role",
          "type": "bytes32"
        },
        {
          "internalType": "address",
          "name": "account",
          "type": "address"
        }
      ],
      "name": "revokeRole",
      "outputs": [],
      "stateMutability": "nonpayable",
      "type": "function"
    },
    {
      "inputs": [
        {
          "internalType": "address",
          "name": "from",
          "type": "address"
        },
        {
          "internalType": "address",
          "name": "to",
          "type": "address"
        },
        {
          "internalType": "uint256",
          "name": "tokenId",
          "type": "uint256"
        }
      ],
      "name": "safeTransferFrom",
      "outputs": [],
      "stateMutability": "nonpayable",
      "type": "function"
    },
    {
      "inputs": [
        {
          "internalType": "address",
          "name": "from",
          "type": "address"
        },
        {
          "internalType": "address",
          "name": "to",
          "type": "address"
        },
        {
          "internalType": "uint256",
          "name": "tokenId",
          "type": "uint256"
        },
        {
          "internalType": "bytes",
          "name": "data",
          "type": "bytes"
        }
      ],
      "name": "safeTransferFrom",
      "outputs": [],
      "stateMutability": "nonpayable",
      "type": "function"
    },
    {
      "inputs": [
        {
          "internalType": "address",
          "name": "operator",
          "type": "address"
        },
        {
          "internalType": "bool",
          "name": "approved",
          "type": "bool"
        }
      ],
      "name": "setApprovalForAll",
      "outputs": [],
      "stateMutability": "nonpayable",
      "type": "function"
    },
    {
      "inputs": [
        {
          "internalType": "uint256",
          "name": "speciesID",
          "type": "uint256"
        },
        {
          "components": [
            {
              "internalType": "string",
              "name": "name",
              "type": "string"
            },
            {
              "internalType": "string",
              "name": "description",
              "type": "string"
            },
            {
              "internalType": "string",
              "name": "image",
              "type": "string"
            },
            {
              "components": [
                {
                  "internalType": "uint8",
                  "name": "intelligence",
                  "type": "uint8"
                },
                {
                  "internalType": "uint8",
                  "name": "nimbleness",
                  "type": "uint8"
                },
                {
                  "internalType": "uint8",
                  "name": "strength",
                  "type": "uint8"
                },
                {
                  "internalType": "uint8",
                  "name": "endurance",
                  "type": "uint8"
                },
                {
                  "internalType": "uint8",
                  "name": "charisma",
                  "type": "uint8"
                },
                {
                  "internalType": "uint8",
                  "name": "talent",
                  "type": "uint8"
                }
              ],
              "internalType": "struct TheBugs.Attributes",
              "name": "baseAttributes",
              "type": "tuple"
            }
          ],
          "internalType": "struct TheBugs.SpeciesData",
          "name": "speciesData",
          "type": "tuple"
        }
      ],
      "name": "setSpeciesData",
      "outputs": [],
      "stateMutability": "nonpayable",
      "type": "function"
    },
    {
      "inputs": [
        {
          "internalType": "uint256",
          "name": "",
          "type": "uint256"
        }
      ],
      "name": "speciesDatas",
      "outputs": [
        {
          "internalType": "string",
          "name": "name",
          "type": "string"
        },
        {
          "internalType": "string",
          "name": "description",
          "type": "string"
        },
        {
          "internalType": "string",
          "name": "image",
          "type": "string"
        },
        {
          "components": [
            {
              "internalType": "uint8",
              "name": "intelligence",
              "type": "uint8"
            },
            {
              "internalType": "uint8",
              "name": "nimbleness",
              "type": "uint8"
            },
            {
              "internalType": "uint8",
              "name": "strength",
              "type": "uint8"
            },
            {
              "internalType": "uint8",
              "name": "endurance",
              "type": "uint8"
            },
            {
              "internalType": "uint8",
              "name": "charisma",
              "type": "uint8"
            },
            {
              "internalType": "uint8",
              "name": "talent",
              "type": "uint8"
            }
          ],
          "internalType": "struct TheBugs.Attributes",
          "name": "baseAttributes",
          "type": "tuple"
        }
      ],
      "stateMutability": "view",
      "type": "function"
    },
    {
      "inputs": [
        {
          "internalType": "bytes4",
          "name": "interfaceId",
          "type": "bytes4"
        }
      ],
      "name": "supportsInterface",
      "outputs": [
        {
          "internalType": "bool",
          "name": "",
          "type": "bool"
        }
      ],
      "stateMutability": "view",
      "type": "function"
    },
    {
      "inputs": [],
      "name": "symbol",
      "outputs": [
        {
          "internalType": "string",
          "name": "",
          "type": "string"
        }
      ],
      "stateMutability": "view",
      "type": "function"
    },
    {
      "inputs": [
        {
          "internalType": "uint256",
          "name": "index",
          "type": "uint256"
        }
      ],
      "name": "tokenByIndex",
      "outputs": [
        {
          "internalType": "uint256",
          "name": "",
          "type": "uint256"
        }
      ],
      "stateMutability": "view",
      "type": "function"
    },
    {
      "inputs": [
        {
          "internalType": "address",
          "name": "owner",
          "type": "address"
        },
        {
          "internalType": "uint256",
          "name": "index",
          "type": "uint256"
        }
      ],
      "name": "tokenOfOwnerByIndex",
      "outputs": [
        {
          "internalType": "uint256",
          "name": "",
          "type": "uint256"
        }
      ],
      "stateMutability": "view",
      "type": "function"
    },
    {
      "inputs": [
        {
          "internalType": "uint256",
          "name": "tokenId",
          "type": "uint256"
        }
      ],
      "name": "tokenURI",
      "outputs": [
        {
          "internalType": "string",
          "name": "",
          "type": "string"
        }
      ],
      "stateMutability": "view",
      "type": "function"
    },
    {
      "inputs": [
        {
          "internalType": "address",
          "name": "owner",
          "type": "address"
        },
        {
          "internalType": "uint256",
          "name": "fromIndex",
          "type": "uint256"
        },
        {
          "internalType": "uint256",
          "name": "toIndex",
          "type": "uint256"
        }
      ],
      "name": "tokenURIsByOwnerAndIndexRange",
      "outputs": [
        {
          "internalType": "string[]",
          "name": "",
          "type": "string[]"
        }
      ],
      "stateMutability": "view",
      "type": "function"
    },
    {
      "inputs": [],
      "name": "totalSupply",
      "outputs": [
        {
          "internalType": "uint256",
          "name": "",
          "type": "uint256"
        }
      ],
      "stateMutability": "view",
      "type": "function"
    },
    {
      "inputs": [
        {
          "internalType": "address",
          "name": "from",
          "type": "address"
        },
        {
          "internalType": "address",
          "name": "to",
          "type": "address"
        },
        {
          "internalType": "uint256",
          "name": "tokenId",
          "type": "uint256"
        }
      ],
      "name": "transferFrom",
      "outputs": [],
      "stateMutability": "nonpayable",
      "type": "function"
    },
    {
      "inputs": [
        {
          "internalType": "address",
          "name": "newImplementation",
          "type": "address"
        },
        {
          "internalType": "bytes",
          "name": "data",
          "type": "bytes"
        }
      ],
      "name": "upgradeToAndCall",
      "outputs": [],
      "stateMutability": "payable",
      "type": "function"
    },
    {
      "inputs": [
        {
          "internalType": "uint256",
          "name": "",
          "type": "uint256"
        }
      ],
      "name": "wins",
      "outputs": [
        {
          "internalType": "uint256",
          "name": "",
          "type": "uint256"
        }
      ],
      "stateMutability": "view",
      "type": "function"
    }
  ],
  "bytecode": "0x60a06040523060805234801561001457600080fd5b507ff0c57e16840df040f15088dc2f81fe391c3923bec73e23a9662efc9c229c6a00805468010000000000000000810460ff1615906001600160401b031660008115801561005f5750825b90506000826001600160401b0316600114801561007b5750303b155b905081158015610089575080155b156100a75760405163f92ee8a960e01b815260040160405180910390fd5b84546001600160401b031916600117855583156100d557845460ff60401b1916680100000000000000001785555b831561011b57845460ff60401b19168555604051600181527fc7f505b2f371ae2175ee4913f4499e1f2633a7b5936321eed1cdaeb6115181d29060200160405180910390a15b5050505050608051614beb61014960003960008181612284015281816122ad01526124120152614beb6000f3fe6080604052600436106102ad5760003560e01c806375e58d1611610175578063a3246ad3116100dc578063d3fc986411610095578063d956087d1161006f578063d956087d146108ef578063dfb638bf14610923578063e985e9c514610950578063f72c0d8b1461097057600080fd5b8063d3fc98641461087b578063d53913931461089b578063d547741f146108cf57600080fd5b8063a3246ad31461079d578063ad3cb1cc146107ca578063b88d4fde146107fb578063bbeff99a1461081b578063c87b56dd1461083b578063ca15c8731461085b57600080fd5b806395d89b411161012e57806395d89b41146106c957806399bb5215146106de578063a01413871461070b578063a2168d0714610738578063a217fddf14610768578063a22cb4651461077d57600080fd5b806375e58d16146106075780637b0e4ab41461062757806380bfe883146106475780638129fc1c146106745780639010d07c1461068957806391d14854146106a957600080fd5b80632f745c59116102195780634f6ccce7116101d25780634f6ccce71461054f57806352d1902d1461056f57806357edac821461058457806359797d8a146105995780636352211e146105c757806370a08231146105e757600080fd5b80632f745c591461048f57806336568abe146104af578063406091e3146104cf57806342842e0e146104ef5780634a167f6d1461050f5780634f1ef2861461053c57600080fd5b80630d89aeec1161026b5780630d89aeec146103c05780630e25272d146103e057806318160ddd1461040d57806323b872dd1461042f578063248a9ca31461044f5780632f2ff15d1461046f57600080fd5b8062508da7146102b257806301ffc9a7146102e757806306fdde0314610317578063081812fc14610339578063095ea7b3146103715780630cc36c3614610393575b600080fd5b3480156102be57600080fd5b506102d4600080516020614b5683398151915281565b6040519081526020015b60405180910390f35b3480156102f357600080fd5b50610307610302366004613969565b6109a4565b60405190151581526020016102de565b34801561032357600080fd5b5061032c6109b5565b6040516102de91906139d6565b34801561034557600080fd5b506103596103543660046139e9565b610a59565b6040516001600160a01b0390911681526020016102de565b34801561037d57600080fd5b5061039161038c366004613a1e565b610a6e565b005b34801561039f57600080fd5b506102d46103ae3660046139e9565b60046020526000908152604090205481565b3480156103cc57600080fd5b506103916103db3660046139e9565b610a7d565b3480156103ec57600080fd5b506104006103fb3660046139e9565b610ab8565b6040516102de9190613a5e565b34801561041957600080fd5b50600080516020614b76833981519152546102d4565b34801561043b57600080fd5b5061039161044a366004613a86565b610b5a565b34801561045b57600080fd5b506102d461046a3660046139e9565b610bea565b34801561047b57600080fd5b5061039161048a366004613ac3565b610c0c565b34801561049b57600080fd5b506102d46104aa366004613a1e565b610c28565b3480156104bb57600080fd5b506103916104ca366004613ac3565b610c9c565b3480156104db57600080fd5b506103916104ea3660046139e9565b610cd4565b3480156104fb57600080fd5b5061039161050a366004613a86565b610d06565b34801561051b57600080fd5b5061052f61052a366004613aef565b610d21565b6040516102de9190613b22565b61039161054a366004613c2a565b610dec565b34801561055b57600080fd5b506102d461056a3660046139e9565b610e07565b34801561057b57600080fd5b506102d4610e7f565b34801561059057600080fd5b506102d4600381565b3480156105a557600080fd5b506105b96105b43660046139e9565b610e9c565b6040516102de929190613cc3565b3480156105d357600080fd5b506103596105e23660046139e9565b610f98565b3480156105f357600080fd5b506102d4610602366004613ce5565b610fa3565b34801561061357600080fd5b50610391610622366004613d00565b610fff565b34801561063357600080fd5b506103916106423660046139e9565b611192565b34801561065357600080fd5b506102d46106623660046139e9565b60026020526000908152604090205481565b34801561068057600080fd5b506103916111c4565b34801561069557600080fd5b506103596106a4366004613d4e565b611365565b3480156106b557600080fd5b506103076106c4366004613ac3565b611394565b3480156106d557600080fd5b5061032c6113cc565b3480156106ea57600080fd5b506102d46106f93660046139e9565b60036020526000908152604090205481565b34801561071757600080fd5b5061072b6107263660046139e9565b61140b565b6040516102de9190613d70565b34801561074457600080fd5b506107586107533660046139e9565b611781565b6040516102de9493929190613d7e565b34801561077457600080fd5b506102d4600081565b34801561078957600080fd5b50610391610798366004613dc9565b611999565b3480156107a957600080fd5b506107bd6107b83660046139e9565b6119a4565b6040516102de9190613dfa565b3480156107d657600080fd5b5061032c604051806040016040528060058152602001640352e302e360dc1b81525081565b34801561080757600080fd5b50610391610816366004613e46565b6119cf565b34801561082757600080fd5b5061032c610836366004613ead565b6119e7565b34801561084757600080fd5b5061032c6108563660046139e9565b611b59565b34801561086757600080fd5b506102d46108763660046139e9565b611cff565b34801561088757600080fd5b50610391610896366004613ece565b611d25565b3480156108a757600080fd5b506102d47f9f2df0fed2c77648de5860a4cc508cd0818c85b8b8a1ab4ceeef8d981c8956a681565b3480156108db57600080fd5b506103916108ea366004613ac3565b611d99565b3480156108fb57600080fd5b506102d47f4ddd85e313b1db5c4144000907a5124c34f10d6a5ef9c2cddb8e5f4467c74b5381565b34801561092f57600080fd5b5061094361093e3660046139e9565b611db5565b6040516102de9190613f56565b34801561095c57600080fd5b5061030761096b366004613fc4565b612001565b34801561097c57600080fd5b506102d47f189ab7a9244df0848122154315af71fe140f3db0fe014031783b0946b8c9d2e381565b60006109af8261204e565b92915050565b600080516020614ad683398151915280546060919081906109d590613fee565b80601f0160208091040260200160405190810160405280929190818152602001828054610a0190613fee565b8015610a4e5780601f10610a2357610100808354040283529160200191610a4e565b820191906000526020600020905b815481529060010190602001808311610a3157829003601f168201915b505050505091505090565b6000610a6482612073565b506109af826120ab565b610a798282336120e5565b5050565b600080516020614b56833981519152610a95816120f2565b6000828152600360205260408120805491610aaf8361403e565b91905055505050565b60008061271083604051602001610ae09181526552415249545960d01b602082015260260190565b6040516020818303038152906040528051906020012060001c610b03919061406d565b9050611770811015610b185750600092915050565b612134811015610b2b5750600192915050565b61251c811015610b3e5750600292915050565b61267a811015610b515750600392915050565b50600492915050565b6001600160a01b038216610b8957604051633250574960e11b8152600060048201526024015b60405180910390fd5b6000610b968383336120ff565b9050836001600160a01b0316816001600160a01b031614610be4576040516364283d7b60e01b81526001600160a01b0380861660048301526024820184905282166044820152606401610b80565b50505050565b6000908152600080516020614b96833981519152602052604090206001015490565b610c1582610bea565b610c1e816120f2565b610be483836121f8565b6000600080516020614ab6833981519152610c4284610fa3565b8310610c735760405163295f44f760e21b81526001600160a01b038516600482015260248101849052604401610b80565b6001600160a01b0384166000908152602091825260408082208583529092522054905092915050565b6001600160a01b0381163314610cc55760405163334bd91960e11b815260040160405180910390fd5b610ccf828261223d565b505050565b600080516020614b56833981519152610cec816120f2565b6000828152600260205260408120805491610aaf8361403e565b610ccf838383604051806020016040528060008152506119cf565b60606000610d2f8484614081565b610d3a906001614094565b6001600160401b03811115610d5157610d51613b87565b604051908082528060200260200182016040528015610d8457816020015b6060815260200190600190039081610d6f5790505b509050835b838111610de1576000610d9c8783610c28565b9050610da781611b59565b83610db28885614081565b81518110610dc257610dc26140a7565b6020026020010181905250508080610dd99061403e565b915050610d89565b5090505b9392505050565b610df4612279565b610dfd82612320565b610a79828261234a565b6000600080516020614ab6833981519152610e2e600080516020614b768339815191525490565b8310610e575760405163295f44f760e21b81526000600482015260248101849052604401610b80565b806002018381548110610e6c57610e6c6140a7565b9060005260206000200154915050919050565b6000610e89612407565b50600080516020614af683398151915290565b600160205260009081526040902080548190610eb790613fee565b80601f0160208091040260200160405190810160405280929190818152602001828054610ee390613fee565b8015610f305780601f10610f0557610100808354040283529160200191610f30565b820191906000526020600020905b815481529060010190602001808311610f1357829003601f168201915b50506040805160c08101825260019096015460ff80821688526101008204811660208901526201000082048116928801929092526301000000810482166060880152640100000000810482166080880152600160281b90041660a08601525091929150839050565b60006109af82612073565b6000600080516020614ad68339815191526001600160a01b038316610fde576040516322718ad960e21b815260006004820152602401610b80565b6001600160a01b039092166000908152600390920160205250604090205490565b7f4ddd85e313b1db5c4144000907a5124c34f10d6a5ef9c2cddb8e5f4467c74b53611029816120f2565b600383106110795760405162461bcd60e51b815260206004820152601b60248201527f546865427567733a20696e76616c6964207370657369657320494400000000006044820152606401610b80565b6060820161108f610120840161010085016140cc565b61109f60a08301608084016140cc565b6110af60808401606085016140cc565b6110bf60608501604086016140cc565b6110cf60408601602087016140cc565b6110dc60208701876140cc565b6110e691906140e9565b6110f091906140e9565b6110fa91906140e9565b61110491906140e9565b61110e91906140e9565b60ff166019146111705760405162461bcd60e51b815260206004820152602760248201527f54686520427567733a20696e76616c69642062617365206174747269627574656044820152661cc81d1bdd185b60ca1b6064820152608401610b80565b6000848152602081905260409020839061118a8282614359565b505050505050565b600080516020614b568339815191526111aa816120f2565b6000828152600460205260408120805491610aaf8361403e565b7ff0c57e16840df040f15088dc2f81fe391c3923bec73e23a9662efc9c229c6a008054600160401b810460ff1615906001600160401b03166000811580156112095750825b90506000826001600160401b031660011480156112255750303b155b905081158015611233575080155b156112515760405163f92ee8a960e01b815260040160405180910390fd5b845467ffffffffffffffff19166001178555831561127b57845460ff60401b1916600160401b1785555b611283612450565b61128b612450565b6112d160405180604001604052806008815260200167546865204275677360c01b815250604051806040016040528060048152602001634255475360e01b815250612458565b6112d9612450565b6112e1612450565b6112ec6000336121f8565b506113177f4ddd85e313b1db5c4144000907a5124c34f10d6a5ef9c2cddb8e5f4467c74b53336121f8565b50831561135e57845460ff60401b19168555604051600181527fc7f505b2f371ae2175ee4913f4499e1f2633a7b5936321eed1cdaeb6115181d29060200160405180910390a15b5050505050565b6000828152600080516020614a9683398151915260208190526040822061138c908461246a565b949350505050565b6000918252600080516020614b96833981519152602090815260408084206001600160a01b0393909316845291905290205460ff1690565b7f80bb2b638cc20bc4d0a60d66940f3ab4a00c1d7b313497ca82fb0b4ab00793018054606091600080516020614ad6833981519152916109d590613fee565b6040805160c081018252600080825260208201819052918101829052606081018290526080810182905260a081018290529061144683610ab8565b905060008082600481111561145d5761145d613a48565b0361146a575060056114ea565b600182600481111561147e5761147e613a48565b0361148b575060086114ea565b600282600481111561149f5761149f613a48565b036114ac5750600b6114ea565b60038260048111156114c0576114c0613a48565b036114cd5750600e6114ea565b60048260048111156114e1576114e1613a48565b036114ea575060115b600084604051602001611512918152694154545249425554455360b01b6020820152602a0190565b60408051601f198184030181528282528051602091820120600680855260e0850190935293506000929190820160c08036833701905050905060005b838110156115c157600061156360068561406d565b9050828181518110611577576115776140a7565b60200260200101805180919061158c90614464565b60ff1690525060408051602081018690520160408051601f19818403018152919052805160209091012093505060010161154e565b5060008060006115d089612476565b815260208082019290925260409081016000908120825160c0808201855260039092015460ff808216835261010082048116968301969096526201000081048616828601526301000000810486166060830152640100000000810486166080830152600160281b900490941660a085015282519081019092528451929350909182918591611660576116606140a7565b6020026020010151836000015161167791906140e9565b60ff16815260200183600181518110611692576116926140a7565b602002602001015183602001516116a991906140e9565b60ff168152602001836002815181106116c4576116c46140a7565b602002602001015183604001516116db91906140e9565b60ff168152602001836003815181106116f6576116f66140a7565b6020026020010151836060015161170d91906140e9565b60ff16815260200183600481518110611728576117286140a7565b6020026020010151836080015161173f91906140e9565b60ff1681526020018360058151811061175a5761175a6140a7565b60200260200101518360a0015161177191906140e9565b60ff169052979650505050505050565b60006020819052908152604090208054819061179c90613fee565b80601f01602080910402602001604051908101604052809291908181526020018280546117c890613fee565b80156118155780601f106117ea57610100808354040283529160200191611815565b820191906000526020600020905b8154815290600101906020018083116117f857829003601f168201915b50505050509080600101805461182a90613fee565b80601f016020809104026020016040519081016040528092919081815260200182805461185690613fee565b80156118a35780601f10611878576101008083540402835291602001916118a3565b820191906000526020600020905b81548152906001019060200180831161188657829003601f168201915b5050505050908060020180546118b890613fee565b80601f01602080910402602001604051908101604052809291908181526020018280546118e490613fee565b80156119315780601f1061190657610100808354040283529160200191611931565b820191906000526020600020905b81548152906001019060200180831161191457829003601f168201915b50506040805160c08101825260039096015460ff80821688526101008204811660208901526201000082048116928801929092526301000000810482166060880152640100000000810482166080880152600160281b90041660a08601525091929150859050565b610a793383836124c0565b6000818152600080516020614a968339815191526020819052604090912060609190610de590612571565b6119da848484610b5a565b610be4338585858561257e565b606060008260048111156119fd576119fd613a48565b03611a2457505060408051808201909152600681526521b7b6b6b7b760d11b602082015290565b6001826004811115611a3857611a38613a48565b03611a615750506040805180820190915260088152672ab731b7b6b6b7b760c11b602082015290565b6002826004811115611a7557611a75613a48565b03611a9a5750506040805180820190915260048152635261726560e01b602082015290565b6003826004811115611aae57611aae613a48565b03611ad35750506040805180820190915260048152634570696360e01b602082015290565b6004826004811115611ae757611ae7613a48565b03611b115750506040805180820190915260098152684c6567656e6461727960b81b602082015290565b60405162461bcd60e51b815260206004820152601760248201527f546865427567733a20696e76616c6964207261726974790000000000000000006044820152606401610b80565b60606000611b6683611db5565b60008481526001602052604081209192506060908190611b8861083688610ab8565b9050836000018054611b9990613fee565b9050600003611bd2578451604051611bb591839160200161449f565b604051602081830303815290604052925084602001519150611c8c565b83548490611bdf90613fee565b80601f0160208091040260200160405190810160405280929190818152602001828054611c0b90613fee565b8015611c585780601f10611c2d57610100808354040283529160200191611c58565b820191906000526020600020905b815481529060010190602001808311611c3b57829003601f168201915b5050505050925084600001518560200151604051602001611c7a9291906144db565b60405160208183030381529060405291505b6000838660000151848860400151611ca589878e6126a0565b604051602001611cb9959493929190614518565b6040516020818303038152906040529050611cd3816128d9565b604051602001611ce39190614615565b6040516020818303038152906040529650505050505050919050565b6000818152600080516020614a96833981519152602081905260408220610de5906128ff565b7f9f2df0fed2c77648de5860a4cc508cd0818c85b8b8a1ab4ceeef8d981c8956a6611d4f816120f2565b611d8f8484848080601f01602080910402602001604051908101604052809392919081815260200183838082843760009201919091525061290992505050565b61135e85856129f3565b611da282610bea565b611dab816120f2565b610be4838361223d565b611dbd6138f6565b600080611dc984612476565b8152602001908152602001600020604051806080016040529081600082018054611df290613fee565b80601f0160208091040260200160405190810160405280929190818152602001828054611e1e90613fee565b8015611e6b5780601f10611e4057610100808354040283529160200191611e6b565b820191906000526020600020905b815481529060010190602001808311611e4e57829003601f168201915b50505050508152602001600182018054611e8490613fee565b80601f0160208091040260200160405190810160405280929190818152602001828054611eb090613fee565b8015611efd5780601f10611ed257610100808354040283529160200191611efd565b820191906000526020600020905b815481529060010190602001808311611ee057829003601f168201915b50505050508152602001600282018054611f1690613fee565b80601f0160208091040260200160405190810160405280929190818152602001828054611f4290613fee565b8015611f8f5780601f10611f6457610100808354040283529160200191611f8f565b820191906000526020600020905b815481529060010190602001808311611f7257829003601f168201915b50505091835250506040805160c0810182526003939093015460ff8082168552610100820481166020868101919091526201000083048216938601939093526301000000820481166060860152640100000000820481166080860152600160281b9091041660a0840152015292915050565b6001600160a01b0391821660009081527f80bb2b638cc20bc4d0a60d66940f3ab4a00c1d7b313497ca82fb0b4ab00793056020908152604080832093909416825291909152205460ff1690565b60006001600160e01b0319821663780e9d6360e01b14806109af57506109af82612a0d565b60008061207f83612a4d565b90506001600160a01b0381166109af57604051637e27328960e01b815260048101849052602401610b80565b60009081527f80bb2b638cc20bc4d0a60d66940f3ab4a00c1d7b313497ca82fb0b4ab007930460205260409020546001600160a01b031690565b610ccf8383836001612a87565b6120fc8133612b9d565b50565b60008061210d858585612bd6565b90506001600160a01b0381166121965761219184600080516020614b76833981519152805460008381527f645e039705490088daad89bae25049a34f4a9072d398537b1ab2425f24cbed0360205260408120829055600182018355919091527fa42f15e5d656f8155fd7419d740a6073999f19cd6e061449ce4a257150545bf20155565b6121b9565b846001600160a01b0316816001600160a01b0316146121b9576121b98185612ce0565b6001600160a01b0385166121d5576121d084612d7c565b61138c565b846001600160a01b0316816001600160a01b03161461138c5761138c8585612e53565b6000600080516020614a96833981519152816122148585612eae565b9050801561138c5760008581526020839052604090206122349085612f53565b50949350505050565b6000600080516020614a96833981519152816122598585612f68565b9050801561138c5760008581526020839052604090206122349085612fe4565b306001600160a01b037f000000000000000000000000000000000000000000000000000000000000000016148061230057507f00000000000000000000000000000000000000000000000000000000000000006001600160a01b03166122f4600080516020614af6833981519152546001600160a01b031690565b6001600160a01b031614155b1561231e5760405163703e46dd60e11b815260040160405180910390fd5b565b7f189ab7a9244df0848122154315af71fe140f3db0fe014031783b0946b8c9d2e3610a79816120f2565b816001600160a01b03166352d1902d6040518163ffffffff1660e01b8152600401602060405180830381865afa9250505080156123a4575060408051601f3d908101601f191682019092526123a19181019061465a565b60015b6123cc57604051634c9c8ce360e01b81526001600160a01b0383166004820152602401610b80565b600080516020614af683398151915281146123fd57604051632a87526960e21b815260048101829052602401610b80565b610ccf8383612ff9565b306001600160a01b037f0000000000000000000000000000000000000000000000000000000000000000161461231e5760405163703e46dd60e11b815260040160405180910390fd5b61231e61304f565b61246061304f565b610a798282613098565b6000610de583836130c9565b600060038260405160200161249d918152665350454349455360c81b602082015260270190565b6040516020818303038152906040528051906020012060001c6109af919061406d565b600080516020614ad68339815191526001600160a01b03831661250157604051630b61174360e31b81526001600160a01b0384166004820152602401610b80565b6001600160a01b038481166000818152600584016020908152604080832094881680845294825291829020805460ff191687151590811790915591519182527f17307eab39ab6107e8899845ad3d59bd9653f200f220920489ca2b5937696c31910160405180910390a350505050565b60606000610de5836130f3565b6001600160a01b0383163b1561135e57604051630a85bd0160e11b81526001600160a01b0384169063150b7a02906125c0908890889087908790600401614673565b6020604051808303816000875af19250505080156125fb575060408051601f3d908101601f191682019092526125f8918101906146b0565b60015b612664573d808015612629576040519150601f19603f3d011682016040523d82523d6000602084013e61262e565b606091505b50805160000361265c57604051633250574960e11b81526001600160a01b0385166004820152602401610b80565b805181602001fd5b6001600160e01b03198116630a85bd0160e11b1461118a57604051633250574960e11b81526001600160a01b0385166004820152602401610b80565b60606126ca6040518060400160405280600681526020016552617269747960d01b8152508461314f565b60408051808201909152600c81526b496e74656c6c6967656e636560a01b602082015260018601546126ff919060ff1661317b565b60408051808201909152600a8152694e696d626c656e65737360b01b602082015260018701546127379190610100900460ff1661317b565b6040805180820190915260088152670a6e8e4cadccee8d60c31b6020820152600188015461276e919062010000900460ff1661317b565b604080518082019091526009815268456e647572616e636560b81b602082015260018901546127a791906301000000900460ff1661317b565b6040805180820190915260088152674368617269736d6160c01b602082015260018a01546127e09190640100000000900460ff1661317b565b60408051808201909152600681526515185b195b9d60d21b602082015260018b01546128169190600160281b900460ff1661317b565b60408051808201825260048082526352756e7360e01b60208084019190915260008d815291815283822054600382528483205460029092529390912054612870939161286191614094565b61286b9190614094565b613198565b6128a96040518060400160405280600481526020016357696e7360e01b815250600260008d815260200190815260200160002054613198565b6040516020016128c1999897969594939291906146cd565b60405160208183030381529060405290509392505050565b60606109af82604051806060016040528060408152602001614b166040913960016131b5565b60006109af825490565b60006129148361140b565b6040805180820182528481526020808201849052600087815260019091529190912081519293509091819061294990826147c8565b50602091820151805160019290920180549382015160408301516060840151608085015160a09095015160ff96871661ffff1990981697909717610100938716939093029290921763ffff00001916620100009186169190910263ff0000001916176301000000918516919091021765ffff0000000019166401000000009284169290920265ff0000000000191691909117600160281b9290931691909102919091179055505050565b610a79828260405180602001604052806000815250613334565b60006001600160e01b031982166380ac58cd60e01b1480612a3e57506001600160e01b03198216635b5e139f60e01b145b806109af57506109af8261334c565b60009081527f80bb2b638cc20bc4d0a60d66940f3ab4a00c1d7b313497ca82fb0b4ab007930260205260409020546001600160a01b031690565b600080516020614ad68339815191528180612aaa57506001600160a01b03831615155b15612b6c576000612aba85612073565b90506001600160a01b03841615801590612ae65750836001600160a01b0316816001600160a01b031614155b8015612af95750612af78185612001565b155b15612b225760405163a9fbf51f60e01b81526001600160a01b0385166004820152602401610b80565b8215612b6a5784866001600160a01b0316826001600160a01b03167f8c5be1e5ebec7d5bd14f71427d1e84f3dd0314c0f7b2291e5b200ac8c7c3b92560405160405180910390a45b505b600093845260040160205250506040902080546001600160a01b0319166001600160a01b0392909216919091179055565b612ba78282611394565b610a795760405163e2517d3f60e01b81526001600160a01b038216600482015260248101839052604401610b80565b6000600080516020614ad683398151915281612bf185612a4d565b90506001600160a01b03841615612c0d57612c0d818587613371565b6001600160a01b03811615612c4d57612c2a600086600080612a87565b6001600160a01b0381166000908152600383016020526040902080546000190190555b6001600160a01b03861615612c7e576001600160a01b03861660009081526003830160205260409020805460010190555b600085815260028301602052604080822080546001600160a01b0319166001600160a01b038a811691821790925591518893918516917fddf252ad1be2c89b69c2b068fc378daa952ba7f163c4a11628f55a4df523b3ef91a495945050505050565b600080516020614ab68339815191526000612cfa84610fa3565b60008481526001840160209081526040808320546001600160a01b03891684529186905290912091925090818314612d54576000838152602082815260408083205485845281842081905583526001870190915290208290555b6000948552600190930160209081526040808620869055928552929092528220919091555050565b600080516020614b7683398151915254600080516020614ab683398151915290600090612dab90600190614081565b6000848152600384016020526040812054600285018054939450909284908110612dd757612dd76140a7565b9060005260206000200154905080846002018381548110612dfa57612dfa6140a7565b600091825260208083209091019290925582815260038601909152604080822084905586825281205560028401805480612e3657612e36614880565b600190038181906000526020600020016000905590555050505050565b600080516020614ab683398151915260006001612e6f85610fa3565b612e799190614081565b6001600160a01b0390941660009081526020838152604080832087845282528083208690559482526001909301909252502055565b6000600080516020614b96833981519152612ec98484611394565b612f49576000848152602082815260408083206001600160a01b03871684529091529020805460ff19166001179055612eff3390565b6001600160a01b0316836001600160a01b0316857f2f8788117e7eff1d82e926ec794901d17c78024a50270940304540a733656f0d60405160405180910390a460019150506109af565b60009150506109af565b6000610de5836001600160a01b0384166133d5565b6000600080516020614b96833981519152612f838484611394565b15612f49576000848152602082815260408083206001600160a01b0387168085529252808320805460ff1916905551339287917ff6391f5c32d9c69d2a47ea670b442974b53935d1edc7fd64eb21e047a839171b9190a460019150506109af565b6000610de5836001600160a01b038416613424565b6130028261350d565b6040516001600160a01b038316907fbc7cd75a20ee27fd9adebab32041f755214dbc6bffa90cc0225b39da2e5c2d3b90600090a280511561304757610ccf8282613572565b610a796135e8565b7ff0c57e16840df040f15088dc2f81fe391c3923bec73e23a9662efc9c229c6a0054600160401b900460ff1661231e57604051631afcd79f60e31b815260040160405180910390fd5b6130a061304f565b600080516020614ad6833981519152806130ba84826147c8565b5060018101610be483826147c8565b60008260000182815481106130e0576130e06140a7565b9060005260206000200154905092915050565b60608160000180548060200260200160405190810160405280929190818152602001828054801561314357602002820191906000526020600020905b81548152602001906001019080831161312f575b50505050509050919050565b60608282604051602001613164929190614896565b604051602081830303815290604052905092915050565b60608261318783613607565b604051602001613164929190614924565b6060826131a483613607565b6040516020016131649291906149a6565b606083516000036131d55750604080516020810190915260008152610de5565b600082613206576003855160046131ec9190614a4e565b6131f7906002614094565b6132019190614a65565b61322b565b6003855160026132169190614094565b6132209190614a65565b61322b906004614a4e565b90506000816001600160401b0381111561324757613247613b87565b6040519080825280601f01601f191660200182016040528015613271576020820181803683370190505b50905060018501602082018788518901602081018051600082525b828410156132e7576003840193508351603f8160121c168701518653600186019550603f81600c1c168701518653600186019550603f8160061c168701518653600186019550603f811687015186535060018501945061328c565b9052505085156133285760038851066001811461330b576002811461331e57613326565b603d6001830353603d6002830353613326565b603d60018303535b505b50909695505050505050565b61333e838361369a565b610ccf33600085858561257e565b60006001600160e01b03198216635a05180f60e01b14806109af57506109af826136ff565b61337c838383613734565b610ccf576001600160a01b0383166133aa57604051637e27328960e01b815260048101829052602401610b80565b60405163177e802f60e01b81526001600160a01b038316600482015260248101829052604401610b80565b600081815260018301602052604081205461341c575081546001818101845560008481526020808220909301849055845484825282860190935260409020919091556109af565b5060006109af565b60008181526001830160205260408120548015612f49576000613448600183614081565b855490915060009061345c90600190614081565b90508082146134c157600086600001828154811061347c5761347c6140a7565b906000526020600020015490508087600001848154811061349f5761349f6140a7565b6000918252602080832090910192909255918252600188019052604090208390555b85548690806134d2576134d2614880565b6001900381819060005260206000200160009055905585600101600086815260200190815260200160002060009055600193505050506109af565b806001600160a01b03163b60000361354357604051634c9c8ce360e01b81526001600160a01b0382166004820152602401610b80565b600080516020614af683398151915280546001600160a01b0319166001600160a01b0392909216919091179055565b6060600080846001600160a01b03168460405161358f9190614a79565b600060405180830381855af49150503d80600081146135ca576040519150601f19603f3d011682016040523d82523d6000602084013e6135cf565b606091505b50915091506135df858383613799565b95945050505050565b341561231e5760405163b398979f60e01b815260040160405180910390fd5b60606000613614836137f5565b60010190506000816001600160401b0381111561363357613633613b87565b6040519080825280601f01601f19166020018201604052801561365d576020820181803683370190505b5090508181016020015b600019016f181899199a1a9b1b9c1cb0b131b232b360811b600a86061a8153600a8504945084613667575b509392505050565b6001600160a01b0382166136c457604051633250574960e11b815260006004820152602401610b80565b60006136d2838360006120ff565b90506001600160a01b03811615610ccf576040516339e3563760e11b815260006004820152602401610b80565b60006001600160e01b03198216637965db0b60e01b14806109af57506301ffc9a760e01b6001600160e01b03198316146109af565b60006001600160a01b0383161580159061138c5750826001600160a01b0316846001600160a01b0316148061376e575061376e8484612001565b8061138c5750826001600160a01b0316613787836120ab565b6001600160a01b031614949350505050565b6060826137ae576137a9826138cd565b610de5565b81511580156137c557506001600160a01b0384163b155b156137ee57604051639996b31560e01b81526001600160a01b0385166004820152602401610b80565b5080610de5565b60008072184f03e93ff9f4daa797ed6e38ed64bf6a1f0160401b83106138345772184f03e93ff9f4daa797ed6e38ed64bf6a1f0160401b830492506040015b6d04ee2d6d415b85acef81000000008310613860576d04ee2d6d415b85acef8100000000830492506020015b662386f26fc10000831061387e57662386f26fc10000830492506010015b6305f5e1008310613896576305f5e100830492506008015b61271083106138aa57612710830492506004015b606483106138bc576064830492506002015b600a83106109af5760010192915050565b8051156138dd5780518082602001fd5b60405163d6bda27560e01b815260040160405180910390fd5b604051806080016040528060608152602001606081526020016060815260200161394e6040805160c081018252600080825260208201819052918101829052606081018290526080810182905260a081019190915290565b905290565b6001600160e01b0319811681146120fc57600080fd5b60006020828403121561397b57600080fd5b8135610de581613953565b60005b838110156139a1578181015183820152602001613989565b50506000910152565b600081518084526139c2816020860160208601613986565b601f01601f19169290920160200192915050565b602081526000610de560208301846139aa565b6000602082840312156139fb57600080fd5b5035919050565b80356001600160a01b0381168114613a1957600080fd5b919050565b60008060408385031215613a3157600080fd5b613a3a83613a02565b946020939093013593505050565b634e487b7160e01b600052602160045260246000fd5b6020810160058310613a8057634e487b7160e01b600052602160045260246000fd5b91905290565b600080600060608486031215613a9b57600080fd5b613aa484613a02565b9250613ab260208501613a02565b929592945050506040919091013590565b60008060408385031215613ad657600080fd5b82359150613ae660208401613a02565b90509250929050565b600080600060608486031215613b0457600080fd5b613b0d84613a02565b95602085013595506040909401359392505050565b6000602082016020835280845180835260408501915060408160051b86010192506020860160005b82811015613b7b57603f19878603018452613b668583516139aa565b94506020938401939190910190600101613b4a565b50929695505050505050565b634e487b7160e01b600052604160045260246000fd5b600082601f830112613bae57600080fd5b81356001600160401b03811115613bc757613bc7613b87565b604051601f8201601f19908116603f011681016001600160401b0381118282101715613bf557613bf5613b87565b604052818152838201602001851015613c0d57600080fd5b816020850160208301376000918101602001919091529392505050565b60008060408385031215613c3d57600080fd5b613c4683613a02565b915060208301356001600160401b03811115613c6157600080fd5b613c6d85828601613b9d565b9150509250929050565b60ff815116825260ff602082015116602083015260ff604082015116604083015260ff606082015116606083015260ff608082015116608083015260ff60a08201511660a08301525050565b60e081526000613cd660e08301856139aa565b9050610de56020830184613c77565b600060208284031215613cf757600080fd5b610de582613a02565b60008060408385031215613d1357600080fd5b8235915060208301356001600160401b03811115613d3057600080fd5b83016101208186031215613d4357600080fd5b809150509250929050565b60008060408385031215613d6157600080fd5b50508035926020909101359150565b60c081016109af8284613c77565b61012081526000613d936101208301876139aa565b8281036020840152613da581876139aa565b90508281036040840152613db981866139aa565b9150506135df6060830184613c77565b60008060408385031215613ddc57600080fd5b613de583613a02565b915060208301358015158114613d4357600080fd5b602080825282518282018190526000918401906040840190835b81811015613e3b5783516001600160a01b0316835260209384019390920191600101613e14565b509095945050505050565b60008060008060808587031215613e5c57600080fd5b613e6585613a02565b9350613e7360208601613a02565b92506040850135915060608501356001600160401b03811115613e9557600080fd5b613ea187828801613b9d565b91505092959194509250565b600060208284031215613ebf57600080fd5b813560058110610de557600080fd5b60008060008060608587031215613ee457600080fd5b613eed85613a02565b93506020850135925060408501356001600160401b03811115613f0f57600080fd5b8501601f81018713613f2057600080fd5b80356001600160401b03811115613f3657600080fd5b876020828401011115613f4857600080fd5b949793965060200194505050565b60208152600082516101206020840152613f746101408401826139aa565b90506020840151601f19848303016040850152613f9182826139aa565b9150506040840151601f19848303016060850152613faf82826139aa565b91505060608401516136926080850182613c77565b60008060408385031215613fd757600080fd5b613fe083613a02565b9150613ae660208401613a02565b600181811c9082168061400257607f821691505b60208210810361402257634e487b7160e01b600052602260045260246000fd5b50919050565b634e487b7160e01b600052601160045260246000fd5b60006001820161405057614050614028565b5060010190565b634e487b7160e01b600052601260045260246000fd5b60008261407c5761407c614057565b500690565b818103818111156109af576109af614028565b808201808211156109af576109af614028565b634e487b7160e01b600052603260045260246000fd5b60ff811681146120fc57600080fd5b6000602082840312156140de57600080fd5b8135610de5816140bd565b60ff81811683821601908111156109af576109af614028565b6000808335601e1984360301811261411957600080fd5b8301803591506001600160401b0382111561413357600080fd5b60200191503681900382131561414857600080fd5b9250929050565b601f821115610ccf57806000526020600020601f840160051c810160208510156141765750805b601f840160051c820191505b8181101561135e5760008155600101614182565b600019600383901b1c191660019190911b1790565b6001600160401b038311156141c2576141c2613b87565b6141d6836141d08354613fee565b8361414f565b6000601f84116001811461420457600085156141f25750838201355b6141fc8682614196565b84555061135e565b600083815260209020601f19861690835b828110156142355786850135825560209485019460019092019101614215565b50868210156142525760001960f88860031b161c19848701351681555b505060018560011b0183555050505050565b600081356109af816140bd565b813561427c816140bd565b60ff8116905081548160ff198216178355602084013561429b816140bd565b61ff008160081b168361ffff19841617178455505050600060408301356142c1816140bd565b825462ff0000191660109190911b62ff000016178255506143016142e760608401614264565b825463ff000000191660189190911b63ff00000016178255565b61432c61431060808401614264565b825464ff00000000191660209190911b64ff0000000016178255565b610a7961433b60a08401614264565b825465ff0000000000191660289190911b65ff000000000016178255565b6143638283614102565b6001600160401b0381111561437a5761437a613b87565b61438e816143888554613fee565b8561414f565b6000601f8211600181146143bc57600083156143aa5750838201355b6143b48482614196565b865550614416565b600085815260209020601f19841690835b828110156143ed57868501358255602094850194600190920191016143cd565b508482101561440a5760001960f88660031b161c19848701351681555b505060018360011b0185555b505050506144276020830183614102565b6144358183600186016141ab565b50506144446040830183614102565b6144528183600286016141ab565b5050610a796060830160038301614271565b600060ff821660ff810361447a5761447a614028565b60010192915050565b60008151614495818560208601613986565b9290920192915050565b600083516144b1818460208801613986565b600160fd1b90830190815283516144cf816001840160208801613986565b01600101949350505050565b600083516144ed818460208801613986565b6101d160f51b908301908152835161450c816002840160208801613986565b01600201949350505050565b607b60f81b815268113730b6b2911d101160b91b6001820152855160009061454781600a850160208b01613986565b61088b60f21b600a918401918201526b1139b832b1b4b2b9911d101160a11b600c8201526145786018820188614483565b61088b60f21b815290506f113232b9b1b934b83a34b7b7111d101160811b60028201526145a86012820187614483565b61088b60f21b81529050691134b6b0b3b2911d101160b11b60028201526145d2600c820186614483565b61088b60f21b815290506c1130ba3a3934b13aba32b9911d60991b60028201526145ff600f820185614483565b607d60f81b815260010198975050505050505050565b7f646174613a6170706c69636174696f6e2f6a736f6e3b6261736536342c00000081526000825161464d81601d850160208701613986565b91909101601d0192915050565b60006020828403121561466c57600080fd5b5051919050565b6001600160a01b03858116825284166020820152604081018390526080606082018190526000906146a6908301846139aa565b9695505050505050565b6000602082840312156146c257600080fd5b8151610de581613953565b605b60f81b815260008a516146e9816001850160208f01613986565b600b60fa1b6001918401918201528a5161470a816002840160208f01613986565b600181830101915050600b60fa1b600182015261472a600282018b614483565b600b60fa1b81529050614740600182018a614483565b600b60fa1b815290506147566001820189614483565b600b60fa1b8152905061476c6001820188614483565b600b60fa1b815290506147826001820187614483565b600b60fa1b815290506147986001820186614483565b600b60fa1b815290506147ae6001820185614483565b605d60f81b81526001019c9b505050505050505050505050565b81516001600160401b038111156147e1576147e1613b87565b6147f5816147ef8454613fee565b8461414f565b6020601f82116001811461482357600083156148115750848201515b61481b8482614196565b85555061135e565b600084815260208120601f198516915b828110156148535787850151825560209485019460019092019101614833565b50848210156148715786840151600019600387901b60f8161c191681555b50505050600190811b01905550565b634e487b7160e01b600052603160045260246000fd5b607b60f81b81526e113a3930b4ba2fba3cb832911d101160891b600182015282516000906148cb816010850160208801613986565b61088b60f21b60109184019182015269113b30b63ab2911d101160b11b6012820152835161490081601c840160208801613986565b601160f91b601c9290910191820152607d60f81b601d820152601e01949350505050565b607b60f81b81526e113a3930b4ba2fba3cb832911d101160891b60018201528251600090614959816010850160208801613986565b61088b60f21b60109184019182015267113b30b63ab2911d60c11b6012820152835161498c81601a840160208801613986565b607d60f81b601a9290910191820152601b01949350505050565b607b60f81b81527f22646973706c61795f74797065223a20226e756d626572222c0000000000000060018201526e113a3930b4ba2fba3cb832911d101160891b601a8201528251600090614a01816029850160208801613986565b61088b60f21b60299184019182015267113b30b63ab2911d60c11b602b8201528351614a34816033840160208801613986565b607d60f81b60339290910191820152603401949350505050565b80820281158282048414176109af576109af614028565b600082614a7457614a74614057565b500490565b60008251614a8b818460208701613986565b919091019291505056fec1f6fe24621ce81ec5827caf0253cadb74709b061630e6b55e82371705932000645e039705490088daad89bae25049a34f4a9072d398537b1ab2425f24cbed0080bb2b638cc20bc4d0a60d66940f3ab4a00c1d7b313497ca82fb0b4ab0079300360894a13ba1a3210667c828492db98dca3e2076cc3735a920a3ca505d382bbc4142434445464748494a4b4c4d4e4f505152535455565758595a6162636465666768696a6b6c6d6e6f707172737475767778797a303132333435363738392b2f9a1bd8d81ac0ba42ed118addea0a540ed617421043f1e9ed44197db296fd3d49645e039705490088daad89bae25049a34f4a9072d398537b1ab2425f24cbed0202dd7bc7dec4dceedda775e58dd541e08a116c6c53815c0bd028192f7b626800a2646970667358221220ea8d66cc54def6fe9ff5c71871add8d6ece974a7d02090a52c72c09cc2d5ded864736f6c634300081c0033",
  "linkReferences": {},
  "deployedLinkReferences": {}
}