{
  "_format": "hh-sol-artifact-1",
  "contractName": "TheBugs",
  "sourceName": "contracts/TheBugs.sol",
  "abi": [
    {
      "inputs": [],
      "stateMutability": "nonpayable",
      "type": "constructor"
    },
    {
      "inputs": [],
      "name": "AccessControlBadConfirmation",
      "type": "error"
    },
    {
      "inputs": [
        {
          "internalType": "address",
          "name": "account",
          "type": "address"
        },
        {
          "internalType": "bytes32",
          "name": "neededRole",
          "type": "bytes32"
        }
      ],
      "name": "AccessControlUnauthorizedAccount",
      "type": "error"
    },
    {
      "inputs": [
        {
          "internalType": "address",
          "name": "target",
          "type": "address"
        }
      ],
      "name": "AddressEmptyCode",
      "type": "error"
    },
    {
      "inputs": [
        {
          "internalType": "address",
          "name": "implementation",
          "type": "address"
        }
      ],
      "name": "ERC1967InvalidImplementation",
      "type": "error"
    },
    {
      "inputs": [],
      "name": "ERC1967NonPayable",
      "type": "error"
    },
    {
      "inputs": [],
      "name": "ERC721EnumerableForbiddenBatchMint",
      "type": "error"
    },
    {
      "inputs": [
        {
          "internalType": "address",
          "name": "sender",
          "type": "address"
        },
        {
          "internalType": "uint256",
          "name": "tokenId",
          "type": "uint256"
        },
        {
          "internalType": "address",
          "name": "owner",
          "type": "address"
        }
      ],
      "name": "ERC721IncorrectOwner",
      "type": "error"
    },
    {
      "inputs": [
        {
          "internalType": "address",
          "name": "operator",
          "type": "address"
        },
        {
          "internalType": "uint256",
          "name": "tokenId",
          "type": "uint256"
        }
      ],
      "name": "ERC721InsufficientApproval",
      "type": "error"
    },
    {
      "inputs": [
        {
          "internalType": "address",
          "name": "approver",
          "type": "address"
        }
      ],
      "name": "ERC721InvalidApprover",
      "type": "error"
    },
    {
      "inputs": [
        {
          "internalType": "address",
          "name": "operator",
          "type": "address"
        }
      ],
      "name": "ERC721InvalidOperator",
      "type": "error"
    },
    {
      "inputs": [
        {
          "internalType": "address",
          "name": "owner",
          "type": "address"
        }
      ],
      "name": "ERC721InvalidOwner",
      "type": "error"
    },
    {
      "inputs": [
        {
          "internalType": "address",
          "name": "receiver",
          "type": "address"
        }
      ],
      "name": "ERC721InvalidReceiver",
      "type": "error"
    },
    {
      "inputs": [
        {
          "internalType": "address",
          "name": "sender",
          "type": "address"
        }
      ],
      "name": "ERC721InvalidSender",
      "type": "error"
    },
    {
      "inputs": [
        {
          "internalType": "uint256",
          "name": "tokenId",
          "type": "uint256"
        }
      ],
      "name": "ERC721NonexistentToken",
      "type": "error"
    },
    {
      "inputs": [
        {
          "internalType": "address",
          "name": "owner",
          "type": "address"
        },
        {
          "internalType": "uint256",
          "name": "index",
          "type": "uint256"
        }
      ],
      "name": "ERC721OutOfBoundsIndex",
      "type": "error"
    },
    {
      "inputs": [],
      "name": "FailedInnerCall",
      "type": "error"
    },
    {
      "inputs": [],
      "name": "InvalidInitialization",
      "type": "error"
    },
    {
      "inputs": [],
      "name": "NotInitializing",
      "type": "error"
    },
    {
      "inputs": [],
      "name": "UUPSUnauthorizedCallContext",
      "type": "error"
    },
    {
      "inputs": [
        {
          "internalType": "bytes32",
          "name": "slot",
          "type": "bytes32"
        }
      ],
      "name": "UUPSUnsupportedProxiableUUID",
      "type": "error"
    },
    {
      "anonymous": false,
      "inputs": [
        {
          "indexed": true,
          "internalType": "address",
          "name": "owner",
          "type": "address"
        },
        {
          "indexed": true,
          "internalType": "address",
          "name": "approved",
          "type": "address"
        },
        {
          "indexed": true,
          "internalType": "uint256",
          "name": "tokenId",
          "type": "uint256"
        }
      ],
      "name": "Approval",
      "type": "event"
    },
    {
      "anonymous": false,
      "inputs": [
        {
          "indexed": true,
          "internalType": "address",
          "name": "owner",
          "type": "address"
        },
        {
          "indexed": true,
          "internalType": "address",
          "name": "operator",
          "type": "address"
        },
        {
          "indexed": false,
          "internalType": "bool",
          "name": "approved",
          "type": "bool"
        }
      ],
      "name": "ApprovalForAll",
      "type": "event"
    },
    {
      "anonymous": false,
      "inputs": [
        {
          "indexed": false,
          "internalType": "uint64",
          "name": "version",
          "type": "uint64"
        }
      ],
      "name": "Initialized",
      "type": "event"
    },
    {
      "anonymous": false,
      "inputs": [
        {
          "indexed": true,
          "internalType": "bytes32",
          "name": "role",
          "type": "bytes32"
        },
        {
          "indexed": true,
          "internalType": "bytes32",
          "name": "previousAdminRole",
          "type": "bytes32"
        },
        {
          "indexed": true,
          "internalType": "bytes32",
          "name": "newAdminRole",
          "type": "bytes32"
        }
      ],
      "name": "RoleAdminChanged",
      "type": "event"
    },
    {
      "anonymous": false,
      "inputs": [
        {
          "indexed": true,
          "internalType": "bytes32",
          "name": "role",
          "type": "bytes32"
        },
        {
          "indexed": true,
          "internalType": "address",
          "name": "account",
          "type": "address"
        },
        {
          "indexed": true,
          "internalType": "address",
          "name": "sender",
          "type": "address"
        }
      ],
      "name": "RoleGranted",
      "type": "event"
    },
    {
      "anonymous": false,
      "inputs": [
        {
          "indexed": true,
          "internalType": "bytes32",
          "name": "role",
          "type": "bytes32"
        },
        {
          "indexed": true,
          "internalType": "address",
          "name": "account",
          "type": "address"
        },
        {
          "indexed": true,
          "internalType": "address",
          "name": "sender",
          "type": "address"
        }
      ],
      "name": "RoleRevoked",
      "type": "event"
    },
    {
      "anonymous": false,
      "inputs": [
        {
          "indexed": true,
          "internalType": "address",
          "name": "from",
          "type": "address"
        },
        {
          "indexed": true,
          "internalType": "address",
          "name": "to",
          "type": "address"
        },
        {
          "indexed": true,
          "internalType": "uint256",
          "name": "tokenId",
          "type": "uint256"
        }
      ],
      "name": "Transfer",
      "type": "event"
    },
    {
      "anonymous": false,
      "inputs": [
        {
          "indexed": true,
          "internalType": "address",
          "name": "implementation",
          "type": "address"
        }
      ],
      "name": "Upgraded",
      "type": "event"
    },
    {
      "inputs": [],
      "name": "DATA_SETTER_ROLE",
      "outputs": [
        {
          "internalType": "bytes32",
          "name": "",
          "type": "bytes32"
        }
      ],
      "stateMutability": "view",
      "type": "function"
    },
    {
      "inputs": [],
      "name": "DEFAULT_ADMIN_ROLE",
      "outputs": [
        {
          "internalType": "bytes32",
          "name": "",
          "type": "bytes32"
        }
      ],
      "stateMutability": "view",
      "type": "function"
    },
    {
      "inputs": [],
      "name": "MINTER_ROLE",
      "outputs": [
        {
          "internalType": "bytes32",
          "name": "",
          "type": "bytes32"
        }
      ],
      "stateMutability": "view",
      "type": "function"
    },
    {
      "inputs": [],
      "name": "SPECIES_COUNT",
      "outputs": [
        {
          "internalType": "uint256",
          "name": "",
          "type": "uint256"
        }
      ],
      "stateMutability": "view",
      "type": "function"
    },
    {
      "inputs": [],
      "name": "UPGRADER_ROLE",
      "outputs": [
        {
          "internalType": "bytes32",
          "name": "",
          "type": "bytes32"
        }
      ],
      "stateMutability": "view",
      "type": "function"
    },
    {
      "inputs": [],
      "name": "UPGRADE_INTERFACE_VERSION",
      "outputs": [
        {
          "internalType": "string",
          "name": "",
          "type": "string"
        }
      ],
      "stateMutability": "view",
      "type": "function"
    },
    {
      "inputs": [
        {
          "internalType": "uint256",
          "name": "",
          "type": "uint256"
        }
      ],
      "name": "_speciesDatas",
      "outputs": [
        {
          "internalType": "string",
          "name": "name",
          "type": "string"
        },
        {
          "internalType": "string",
          "name": "description",
          "type": "string"
        },
        {
          "internalType": "string",
          "name": "image",
          "type": "string"
        }
      ],
      "stateMutability": "view",
      "type": "function"
    },
    {
      "inputs": [
        {
          "internalType": "address",
          "name": "to",
          "type": "address"
        },
        {
          "internalType": "uint256",
          "name": "tokenId",
          "type": "uint256"
        }
      ],
      "name": "approve",
      "outputs": [],
      "stateMutability": "nonpayable",
      "type": "function"
    },
    {
      "inputs": [
        {
          "internalType": "address",
          "name": "owner",
          "type": "address"
        }
      ],
      "name": "balanceOf",
      "outputs": [
        {
          "internalType": "uint256",
          "name": "",
          "type": "uint256"
        }
      ],
      "stateMutability": "view",
      "type": "function"
    },
    {
      "inputs": [
        {
          "internalType": "uint256",
          "name": "tokenId",
          "type": "uint256"
        }
      ],
      "name": "getApproved",
      "outputs": [
        {
          "internalType": "address",
          "name": "",
          "type": "address"
        }
      ],
      "stateMutability": "view",
      "type": "function"
    },
    {
      "inputs": [
        {
          "internalType": "bytes32",
          "name": "role",
          "type": "bytes32"
        }
      ],
      "name": "getRoleAdmin",
      "outputs": [
        {
          "internalType": "bytes32",
          "name": "",
          "type": "bytes32"
        }
      ],
      "stateMutability": "view",
      "type": "function"
    },
    {
      "inputs": [
        {
          "internalType": "bytes32",
          "name": "role",
          "type": "bytes32"
        },
        {
          "internalType": "uint256",
          "name": "index",
          "type": "uint256"
        }
      ],
      "name": "getRoleMember",
      "outputs": [
        {
          "internalType": "address",
          "name": "",
          "type": "address"
        }
      ],
      "stateMutability": "view",
      "type": "function"
    },
    {
      "inputs": [
        {
          "internalType": "bytes32",
          "name": "role",
          "type": "bytes32"
        }
      ],
      "name": "getRoleMemberCount",
      "outputs": [
        {
          "internalType": "uint256",
          "name": "",
          "type": "uint256"
        }
      ],
      "stateMutability": "view",
      "type": "function"
    },
    {
      "inputs": [
        {
          "internalType": "uint256",
          "name": "tokenId",
          "type": "uint256"
        }
      ],
      "name": "getSpeciesData",
      "outputs": [
        {
          "components": [
            {
              "internalType": "string",
              "name": "name",
              "type": "string"
            },
            {
              "internalType": "string",
              "name": "description",
              "type": "string"
            },
            {
              "internalType": "string",
              "name": "image",
              "type": "string"
            }
          ],
          "internalType": "struct TheBugs.SpeciesData",
          "name": "",
          "type": "tuple"
        }
      ],
      "stateMutability": "view",
      "type": "function"
    },
    {
      "inputs": [
        {
          "internalType": "uint256",
          "name": "tokenId",
          "type": "uint256"
        }
      ],
      "name": "getSpeciesId",
      "outputs": [
        {
          "internalType": "uint256",
          "name": "",
          "type": "uint256"
        }
      ],
      "stateMutability": "pure",
      "type": "function"
    },
    {
      "inputs": [
        {
          "internalType": "bytes32",
          "name": "role",
          "type": "bytes32"
        },
        {
          "internalType": "address",
          "name": "account",
          "type": "address"
        }
      ],
      "name": "grantRole",
      "outputs": [],
      "stateMutability": "nonpayable",
      "type": "function"
    },
    {
      "inputs": [
        {
          "internalType": "bytes32",
          "name": "role",
          "type": "bytes32"
        },
        {
          "internalType": "address",
          "name": "account",
          "type": "address"
        }
      ],
      "name": "hasRole",
      "outputs": [
        {
          "internalType": "bool",
          "name": "",
          "type": "bool"
        }
      ],
      "stateMutability": "view",
      "type": "function"
    },
    {
      "inputs": [],
      "name": "initialize",
      "outputs": [],
      "stateMutability": "nonpayable",
      "type": "function"
    },
    {
      "inputs": [
        {
          "internalType": "address",
          "name": "owner",
          "type": "address"
        },
        {
          "internalType": "address",
          "name": "operator",
          "type": "address"
        }
      ],
      "name": "isApprovedForAll",
      "outputs": [
        {
          "internalType": "bool",
          "name": "",
          "type": "bool"
        }
      ],
      "stateMutability": "view",
      "type": "function"
    },
    {
      "inputs": [],
      "name": "name",
      "outputs": [
        {
          "internalType": "string",
          "name": "",
          "type": "string"
        }
      ],
      "stateMutability": "view",
      "type": "function"
    },
    {
      "inputs": [
        {
          "internalType": "uint256",
          "name": "tokenId",
          "type": "uint256"
        }
      ],
      "name": "ownerOf",
      "outputs": [
        {
          "internalType": "address",
          "name": "",
          "type": "address"
        }
      ],
      "stateMutability": "view",
      "type": "function"
    },
    {
      "inputs": [],
      "name": "proxiableUUID",
      "outputs": [
        {
          "internalType": "bytes32",
          "name": "",
          "type": "bytes32"
        }
      ],
      "stateMutability": "view",
      "type": "function"
    },
    {
      "inputs": [
        {
          "internalType": "bytes32",
          "name": "role",
          "type": "bytes32"
        },
        {
          "internalType": "address",
          "name": "callerConfirmation",
          "type": "address"
        }
      ],
      "name": "renounceRole",
      "outputs": [],
      "stateMutability": "nonpayable",
      "type": "function"
    },
    {
      "inputs": [
        {
          "internalType": "bytes32",
          "name": "role",
          "type": "bytes32"
        },
        {
          "internalType": "address",
          "name": "account",
          "type": "address"
        }
      ],
      "name": "revokeRole",
      "outputs": [],
      "stateMutability": "nonpayable",
      "type": "function"
    },
    {
      "inputs": [
        {
          "internalType": "address",
          "name": "to",
          "type": "address"
        },
        {
          "internalType": "uint256",
          "name": "tokenId",
          "type": "uint256"
        }
      ],
      "name": "safeMint",
      "outputs": [],
      "stateMutability": "nonpayable",
      "type": "function"
    },
    {
      "inputs": [
        {
          "internalType": "address",
          "name": "from",
          "type": "address"
        },
        {
          "internalType": "address",
          "name": "to",
          "type": "address"
        },
        {
          "internalType": "uint256",
          "name": "tokenId",
          "type": "uint256"
        }
      ],
      "name": "safeTransferFrom",
      "outputs": [],
      "stateMutability": "nonpayable",
      "type": "function"
    },
    {
      "inputs": [
        {
          "internalType": "address",
          "name": "from",
          "type": "address"
        },
        {
          "internalType": "address",
          "name": "to",
          "type": "address"
        },
        {
          "internalType": "uint256",
          "name": "tokenId",
          "type": "uint256"
        },
        {
          "internalType": "bytes",
          "name": "data",
          "type": "bytes"
        }
      ],
      "name": "safeTransferFrom",
      "outputs": [],
      "stateMutability": "nonpayable",
      "type": "function"
    },
    {
      "inputs": [
        {
          "internalType": "address",
          "name": "operator",
          "type": "address"
        },
        {
          "internalType": "bool",
          "name": "approved",
          "type": "bool"
        }
      ],
      "name": "setApprovalForAll",
      "outputs": [],
      "stateMutability": "nonpayable",
      "type": "function"
    },
    {
      "inputs": [
        {
          "internalType": "uint256",
          "name": "speciesID",
          "type": "uint256"
        },
        {
          "components": [
            {
              "internalType": "string",
              "name": "name",
              "type": "string"
            },
            {
              "internalType": "string",
              "name": "description",
              "type": "string"
            },
            {
              "internalType": "string",
              "name": "image",
              "type": "string"
            }
          ],
          "internalType": "struct TheBugs.SpeciesData",
          "name": "speciesData",
          "type": "tuple"
        }
      ],
      "name": "setSpeciesData",
      "outputs": [],
      "stateMutability": "nonpayable",
      "type": "function"
    },
    {
      "inputs": [
        {
          "internalType": "bytes4",
          "name": "interfaceId",
          "type": "bytes4"
        }
      ],
      "name": "supportsInterface",
      "outputs": [
        {
          "internalType": "bool",
          "name": "",
          "type": "bool"
        }
      ],
      "stateMutability": "view",
      "type": "function"
    },
    {
      "inputs": [],
      "name": "symbol",
      "outputs": [
        {
          "internalType": "string",
          "name": "",
          "type": "string"
        }
      ],
      "stateMutability": "view",
      "type": "function"
    },
    {
      "inputs": [
        {
          "internalType": "uint256",
          "name": "index",
          "type": "uint256"
        }
      ],
      "name": "tokenByIndex",
      "outputs": [
        {
          "internalType": "uint256",
          "name": "",
          "type": "uint256"
        }
      ],
      "stateMutability": "view",
      "type": "function"
    },
    {
      "inputs": [
        {
          "internalType": "address",
          "name": "owner",
          "type": "address"
        },
        {
          "internalType": "uint256",
          "name": "index",
          "type": "uint256"
        }
      ],
      "name": "tokenOfOwnerByIndex",
      "outputs": [
        {
          "internalType": "uint256",
          "name": "",
          "type": "uint256"
        }
      ],
      "stateMutability": "view",
      "type": "function"
    },
    {
      "inputs": [
        {
          "internalType": "uint256",
          "name": "tokenId",
          "type": "uint256"
        }
      ],
      "name": "tokenURI",
      "outputs": [
        {
          "internalType": "string",
          "name": "",
          "type": "string"
        }
      ],
      "stateMutability": "view",
      "type": "function"
    },
    {
      "inputs": [],
      "name": "totalSupply",
      "outputs": [
        {
          "internalType": "uint256",
          "name": "",
          "type": "uint256"
        }
      ],
      "stateMutability": "view",
      "type": "function"
    },
    {
      "inputs": [
        {
          "internalType": "address",
          "name": "from",
          "type": "address"
        },
        {
          "internalType": "address",
          "name": "to",
          "type": "address"
        },
        {
          "internalType": "uint256",
          "name": "tokenId",
          "type": "uint256"
        }
      ],
      "name": "transferFrom",
      "outputs": [],
      "stateMutability": "nonpayable",
      "type": "function"
    },
    {
      "inputs": [
        {
          "internalType": "address",
          "name": "newImplementation",
          "type": "address"
        },
        {
          "internalType": "bytes",
          "name": "data",
          "type": "bytes"
        }
      ],
      "name": "upgradeToAndCall",
      "outputs": [],
      "stateMutability": "payable",
      "type": "function"
    }
  ],
  "bytecode": "0x60a06040523060805234801561001457600080fd5b507ff0c57e16840df040f15088dc2f81fe391c3923bec73e23a9662efc9c229c6a00805468010000000000000000810460ff1615906001600160401b031660008115801561005f5750825b90506000826001600160401b0316600114801561007b5750303b155b905081158015610089575080155b156100a75760405163f92ee8a960e01b815260040160405180910390fd5b84546001600160401b031916600117855583156100d557845460ff60401b1916680100000000000000001785555b831561011b57845460ff60401b19168555604051600181527fc7f505b2f371ae2175ee4913f4499e1f2633a7b5936321eed1cdaeb6115181d29060200160405180910390a15b5050505050608051613241610149600039600081816114ee01528181611517015261167c01526132416000f3fe60806040526004361061021a5760003560e01c80638129fc1c11610123578063b88d4fde116100ab578063d956087d1161006f578063d956087d1461063d578063dfb638bf14610671578063e985e9c51461069e578063eb44c19c146106be578063f72c0d8b146106ed57600080fd5b8063b88d4fde14610589578063c87b56dd146105a9578063ca15c873146105c9578063d5391393146105e9578063d547741f1461061d57600080fd5b8063a1448194116100f2578063a1448194146104e3578063a217fddf14610503578063a22cb46514610518578063ad2d833114610538578063ad3cb1cc1461055857600080fd5b80638129fc1c146104795780639010d07c1461048e57806391d14854146104ae57806395d89b41146104ce57600080fd5b80632f745c59116101a65780634f6ccce7116101755780634f6ccce7146103ef57806352d1902d1461040f57806357edac82146104245780636352211e1461043957806370a082311461045957600080fd5b80632f745c591461037c57806336568abe1461039c57806342842e0e146103bc5780634f1ef286146103dc57600080fd5b806318160ddd116101ed57806318160ddd146102d057806322c7a2da146102fc57806323b872dd1461031c578063248a9ca31461033c5780632f2ff15d1461035c57600080fd5b806301ffc9a71461021f57806306fdde0314610254578063081812fc14610276578063095ea7b3146102ae575b600080fd5b34801561022b57600080fd5b5061023f61023a3660046126fa565b610721565b60405190151581526020015b60405180910390f35b34801561026057600080fd5b50610269610732565b60405161024b9190612767565b34801561028257600080fd5b5061029661029136600461277a565b6107d6565b6040516001600160a01b03909116815260200161024b565b3480156102ba57600080fd5b506102ce6102c93660046127af565b6107eb565b005b3480156102dc57600080fd5b506000805160206131cc833981519152545b60405190815260200161024b565b34801561030857600080fd5b506102ce6103173660046127d9565b6107fa565b34801561032857600080fd5b506102ce610337366004612826565b61089a565b34801561034857600080fd5b506102ee61035736600461277a565b610925565b34801561036857600080fd5b506102ce610377366004612863565b610947565b34801561038857600080fd5b506102ee6103973660046127af565b610963565b3480156103a857600080fd5b506102ce6103b7366004612863565b6109d7565b3480156103c857600080fd5b506102ce6103d7366004612826565b610a0f565b6102ce6103ea366004612932565b610a2a565b3480156103fb57600080fd5b506102ee61040a36600461277a565b610a45565b34801561041b57600080fd5b506102ee610abd565b34801561043057600080fd5b506102ee600c81565b34801561044557600080fd5b5061029661045436600461277a565b610ada565b34801561046557600080fd5b506102ee61047436600461297f565b610ae5565b34801561048557600080fd5b506102ce610b41565b34801561049a57600080fd5b506102966104a936600461299a565b610ce1565b3480156104ba57600080fd5b5061023f6104c9366004612863565b610d10565b3480156104da57600080fd5b50610269610d48565b3480156104ef57600080fd5b506102ce6104fe3660046127af565b610d87565b34801561050f57600080fd5b506102ee600081565b34801561052457600080fd5b506102ce6105333660046129bc565b610dbb565b34801561054457600080fd5b506102ee61055336600461277a565b610dc6565b34801561056457600080fd5b50610269604051806040016040528060058152602001640352e302e360dc1b81525081565b34801561059557600080fd5b506102ce6105a43660046129ed565b610dd3565b3480156105b557600080fd5b506102696105c436600461277a565b610dea565b3480156105d557600080fd5b506102ee6105e436600461277a565b610e62565b3480156105f557600080fd5b506102ee7f9f2df0fed2c77648de5860a4cc508cd0818c85b8b8a1ab4ceeef8d981c8956a681565b34801561062957600080fd5b506102ce610638366004612863565b610e8f565b34801561064957600080fd5b506102ee7f4ddd85e313b1db5c4144000907a5124c34f10d6a5ef9c2cddb8e5f4467c74b5381565b34801561067d57600080fd5b5061069161068c36600461277a565b610eab565b60405161024b9190612a54565b3480156106aa57600080fd5b5061023f6106b9366004612aab565b6110b1565b3480156106ca57600080fd5b506106de6106d936600461277a565b6110fe565b60405161024b93929190612ad5565b3480156106f957600080fd5b506102ee7f189ab7a9244df0848122154315af71fe140f3db0fe014031783b0946b8c9d2e381565b600061072c826112b8565b92915050565b60008051602061314c833981519152805460609190819061075290612b18565b80601f016020809104026020016040519081016040528092919081815260200182805461077e90612b18565b80156107cb5780601f106107a0576101008083540402835291602001916107cb565b820191906000526020600020905b8154815290600101906020018083116107ae57829003601f168201915b505050505091505090565b60006107e1826112dd565b5061072c82611315565b6107f682823361134f565b5050565b7f4ddd85e313b1db5c4144000907a5124c34f10d6a5ef9c2cddb8e5f4467c74b536108248161135c565b600c83106108795760405162461bcd60e51b815260206004820152601b60248201527f546865427567733a20696e76616c69642073706573696573204944000000000060448201526064015b60405180910390fd5b600083815260208190526040902082906108938282612cb4565b5050505050565b6001600160a01b0382166108c457604051633250574960e11b815260006004820152602401610870565b60006108d1838333611369565b9050836001600160a01b0316816001600160a01b03161461091f576040516364283d7b60e01b81526001600160a01b0380861660048301526024820184905282166044820152606401610870565b50505050565b60009081526000805160206131ec833981519152602052604090206001015490565b61095082610925565b6109598161135c565b61091f8383611462565b600060008051602061312c83398151915261097d84610ae5565b83106109ae5760405163295f44f760e21b81526001600160a01b038516600482015260248101849052604401610870565b6001600160a01b0384166000908152602091825260408082208583529092522054905092915050565b6001600160a01b0381163314610a005760405163334bd91960e11b815260040160405180910390fd5b610a0a82826114a7565b505050565b610a0a83838360405180602001604052806000815250610dd3565b610a326114e3565b610a3b8261158a565b6107f682826115b4565b600060008051602061312c833981519152610a6c6000805160206131cc8339815191525490565b8310610a955760405163295f44f760e21b81526000600482015260248101849052604401610870565b806002018381548110610aaa57610aaa612dad565b9060005260206000200154915050919050565b6000610ac7611671565b5060008051602061316c83398151915290565b600061072c826112dd565b600060008051602061314c8339815191526001600160a01b038316610b20576040516322718ad960e21b815260006004820152602401610870565b6001600160a01b039092166000908152600390920160205250604090205490565b7ff0c57e16840df040f15088dc2f81fe391c3923bec73e23a9662efc9c229c6a008054600160401b810460ff1615906001600160401b0316600081158015610b865750825b90506000826001600160401b03166001148015610ba25750303b155b905081158015610bb0575080155b15610bce5760405163f92ee8a960e01b815260040160405180910390fd5b845467ffffffffffffffff191660011785558315610bf857845460ff60401b1916600160401b1785555b610c006116ba565b610c086116ba565b610c4e60405180604001604052806008815260200167546865204275677360c01b815250604051806040016040528060048152602001634255475360e01b8152506116c2565b610c566116ba565b610c5e6116ba565b610c69600033611462565b50610c947f4ddd85e313b1db5c4144000907a5124c34f10d6a5ef9c2cddb8e5f4467c74b5333611462565b50831561089357845460ff60401b19168555604051600181527fc7f505b2f371ae2175ee4913f4499e1f2633a7b5936321eed1cdaeb6115181d29060200160405180910390a15050505050565b600082815260008051602061310c833981519152602081905260408220610d0890846116d4565b949350505050565b60009182526000805160206131ec833981519152602090815260408084206001600160a01b0393909316845291905290205460ff1690565b7f80bb2b638cc20bc4d0a60d66940f3ab4a00c1d7b313497ca82fb0b4ab0079301805460609160008051602061314c8339815191529161075290612b18565b7f9f2df0fed2c77648de5860a4cc508cd0818c85b8b8a1ab4ceeef8d981c8956a6610db18161135c565b610a0a83836116e0565b6107f63383836116fa565b600061072c600c83612dd9565b610dde84848461089a565b61091f848484846117ab565b60606000610df783610eab565b90506000610e04846118cd565b82516020808501516040808701519051610e2095949301612e09565b6040516020818303038152906040529050610e3a8161195f565b604051602001610e4a9190612f0c565b60405160208183030381529060405292505050919050565b600081815260008051602061310c833981519152602081905260408220610e8890611abe565b9392505050565b610e9882610925565b610ea18161135c565b61091f83836114a7565b610ecf60405180606001604052806060815260200160608152602001606081525090565b600080610edb84610dc6565b8152602001908152602001600020604051806060016040529081600082018054610f0490612b18565b80601f0160208091040260200160405190810160405280929190818152602001828054610f3090612b18565b8015610f7d5780601f10610f5257610100808354040283529160200191610f7d565b820191906000526020600020905b815481529060010190602001808311610f6057829003601f168201915b50505050508152602001600182018054610f9690612b18565b80601f0160208091040260200160405190810160405280929190818152602001828054610fc290612b18565b801561100f5780601f10610fe45761010080835404028352916020019161100f565b820191906000526020600020905b815481529060010190602001808311610ff257829003601f168201915b5050505050815260200160028201805461102890612b18565b80601f016020809104026020016040519081016040528092919081815260200182805461105490612b18565b80156110a15780601f10611076576101008083540402835291602001916110a1565b820191906000526020600020905b81548152906001019060200180831161108457829003601f168201915b5050505050815250509050919050565b6001600160a01b0391821660009081527f80bb2b638cc20bc4d0a60d66940f3ab4a00c1d7b313497ca82fb0b4ab00793056020908152604080832093909416825291909152205460ff1690565b60006020819052908152604090208054819061111990612b18565b80601f016020809104026020016040519081016040528092919081815260200182805461114590612b18565b80156111925780601f1061116757610100808354040283529160200191611192565b820191906000526020600020905b81548152906001019060200180831161117557829003601f168201915b5050505050908060010180546111a790612b18565b80601f01602080910402602001604051908101604052809291908181526020018280546111d390612b18565b80156112205780601f106111f557610100808354040283529160200191611220565b820191906000526020600020905b81548152906001019060200180831161120357829003601f168201915b50505050509080600201805461123590612b18565b80601f016020809104026020016040519081016040528092919081815260200182805461126190612b18565b80156112ae5780601f10611283576101008083540402835291602001916112ae565b820191906000526020600020905b81548152906001019060200180831161129157829003601f168201915b5050505050905083565b60006001600160e01b0319821663780e9d6360e01b148061072c575061072c82611ac8565b6000806112e983611b08565b90506001600160a01b03811661072c57604051637e27328960e01b815260048101849052602401610870565b60009081527f80bb2b638cc20bc4d0a60d66940f3ab4a00c1d7b313497ca82fb0b4ab007930460205260409020546001600160a01b031690565b610a0a8383836001611b42565b6113668133611c58565b50565b600080611377858585611c91565b90506001600160a01b038116611400576113fb846000805160206131cc833981519152805460008381527f645e039705490088daad89bae25049a34f4a9072d398537b1ab2425f24cbed0360205260408120829055600182018355919091527fa42f15e5d656f8155fd7419d740a6073999f19cd6e061449ce4a257150545bf20155565b611423565b846001600160a01b0316816001600160a01b031614611423576114238185611d9b565b6001600160a01b03851661143f5761143a84611e3f565b610d08565b846001600160a01b0316816001600160a01b031614610d0857610d088585611f16565b600060008051602061310c8339815191528161147e8585611f71565b90508015610d0857600085815260208390526040902061149e9085612016565b50949350505050565b600060008051602061310c833981519152816114c3858561202b565b90508015610d0857600085815260208390526040902061149e90856120a7565b306001600160a01b037f000000000000000000000000000000000000000000000000000000000000000016148061156a57507f00000000000000000000000000000000000000000000000000000000000000006001600160a01b031661155e60008051602061316c833981519152546001600160a01b031690565b6001600160a01b031614155b156115885760405163703e46dd60e11b815260040160405180910390fd5b565b7f189ab7a9244df0848122154315af71fe140f3db0fe014031783b0946b8c9d2e36107f68161135c565b816001600160a01b03166352d1902d6040518163ffffffff1660e01b8152600401602060405180830381865afa92505050801561160e575060408051601f3d908101601f1916820190925261160b91810190612f51565b60015b61163657604051634c9c8ce360e01b81526001600160a01b0383166004820152602401610870565b60008051602061316c833981519152811461166757604051632a87526960e21b815260048101829052602401610870565b610a0a83836120bc565b306001600160a01b037f000000000000000000000000000000000000000000000000000000000000000016146115885760405163703e46dd60e11b815260040160405180910390fd5b611588612112565b6116ca612112565b6107f6828261215b565b6000610e88838361218c565b6107f68282604051806020016040528060008152506121b6565b60008051602061314c8339815191526001600160a01b03831661173b57604051630b61174360e31b81526001600160a01b0384166004820152602401610870565b6001600160a01b038481166000818152600584016020908152604080832094881680845294825291829020805460ff191687151590811790915591519182527f17307eab39ab6107e8899845ad3d59bd9653f200f220920489ca2b5937696c31910160405180910390a350505050565b6001600160a01b0383163b1561091f57604051630a85bd0160e11b81526001600160a01b0384169063150b7a02906117ed903390889087908790600401612f6a565b6020604051808303816000875af1925050508015611828575060408051601f3d908101601f1916820190925261182591810190612f9d565b60015b611891573d808015611856576040519150601f19603f3d011682016040523d82523d6000602084013e61185b565b606091505b50805160000361188957604051633250574960e11b81526001600160a01b0385166004820152602401610870565b805181602001fd5b6001600160e01b03198116630a85bd0160e11b1461089357604051633250574960e11b81526001600160a01b0385166004820152602401610870565b606060006118da836121cd565b60010190506000816001600160401b038111156118f9576118f961288f565b6040519080825280601f01601f191660200182016040528015611923576020820181803683370190505b5090508181016020015b600019016f181899199a1a9b1b9c1cb0b131b232b360811b600a86061a8153600a850494508461192d57509392505050565b6060815160000361197e57505060408051602081019091526000815290565b600060405180606001604052806040815260200161318c60409139905060006003845160026119ad9190612fd0565b6119b79190612fe3565b6119c2906004612ff7565b6001600160401b038111156119d9576119d961288f565b6040519080825280601f01601f191660200182016040528015611a03576020820181803683370190505b50905060018201602082018586518701602081018051600082525b82841015611a79576003840193508351603f8160121c168701518653600186019550603f81600c1c168701518653600186019550603f8160061c168701518653600186019550603f8116870151865350600185019450611a1e565b9052505085516003900660018114611a985760028114611aab57611ab3565b603d6001830353603d6002830353611ab3565b603d60018303535b509195945050505050565b600061072c825490565b60006001600160e01b031982166380ac58cd60e01b1480611af957506001600160e01b03198216635b5e139f60e01b145b8061072c575061072c826122a5565b60009081527f80bb2b638cc20bc4d0a60d66940f3ab4a00c1d7b313497ca82fb0b4ab007930260205260409020546001600160a01b031690565b60008051602061314c8339815191528180611b6557506001600160a01b03831615155b15611c27576000611b75856112dd565b90506001600160a01b03841615801590611ba15750836001600160a01b0316816001600160a01b031614155b8015611bb45750611bb281856110b1565b155b15611bdd5760405163a9fbf51f60e01b81526001600160a01b0385166004820152602401610870565b8215611c255784866001600160a01b0316826001600160a01b03167f8c5be1e5ebec7d5bd14f71427d1e84f3dd0314c0f7b2291e5b200ac8c7c3b92560405160405180910390a45b505b600093845260040160205250506040902080546001600160a01b0319166001600160a01b0392909216919091179055565b611c628282610d10565b6107f65760405163e2517d3f60e01b81526001600160a01b038216600482015260248101839052604401610870565b600060008051602061314c83398151915281611cac85611b08565b90506001600160a01b03841615611cc857611cc88185876122ca565b6001600160a01b03811615611d0857611ce5600086600080611b42565b6001600160a01b0381166000908152600383016020526040902080546000190190555b6001600160a01b03861615611d39576001600160a01b03861660009081526003830160205260409020805460010190555b600085815260028301602052604080822080546001600160a01b0319166001600160a01b038a811691821790925591518893918516917fddf252ad1be2c89b69c2b068fc378daa952ba7f163c4a11628f55a4df523b3ef91a495945050505050565b60008051602061312c8339815191526000611db584610ae5565b6000848152600184016020526040902054909150808214611e0a576001600160a01b03851660009081526020848152604080832085845282528083205484845281842081905583526001860190915290208190555b50600092835260018201602090815260408085208590556001600160a01b039095168452918252838320908352905290812055565b6000805160206131cc8339815191525460008051602061312c83398151915290600090611e6e9060019061300e565b6000848152600384016020526040812054600285018054939450909284908110611e9a57611e9a612dad565b9060005260206000200154905080846002018381548110611ebd57611ebd612dad565b600091825260208083209091019290925582815260038601909152604080822084905586825281205560028401805480611ef957611ef9613021565b600190038181906000526020600020016000905590555050505050565b60008051602061312c83398151915260006001611f3285610ae5565b611f3c919061300e565b6001600160a01b0390941660009081526020838152604080832087845282528083208690559482526001909301909252502055565b60006000805160206131ec833981519152611f8c8484610d10565b61200c576000848152602082815260408083206001600160a01b03871684529091529020805460ff19166001179055611fc23390565b6001600160a01b0316836001600160a01b0316857f2f8788117e7eff1d82e926ec794901d17c78024a50270940304540a733656f0d60405160405180910390a4600191505061072c565b600091505061072c565b6000610e88836001600160a01b03841661232e565b60006000805160206131ec8339815191526120468484610d10565b1561200c576000848152602082815260408083206001600160a01b0387168085529252808320805460ff1916905551339287917ff6391f5c32d9c69d2a47ea670b442974b53935d1edc7fd64eb21e047a839171b9190a4600191505061072c565b6000610e88836001600160a01b03841661237d565b6120c582612466565b6040516001600160a01b038316907fbc7cd75a20ee27fd9adebab32041f755214dbc6bffa90cc0225b39da2e5c2d3b90600090a280511561210a57610a0a82826124cb565b6107f6612541565b7ff0c57e16840df040f15088dc2f81fe391c3923bec73e23a9662efc9c229c6a0054600160401b900460ff1661158857604051631afcd79f60e31b815260040160405180910390fd5b612163612112565b60008051602061314c8339815191528061217d8482613037565b506001810161091f8382613037565b60008260000182815481106121a3576121a3612dad565b9060005260206000200154905092915050565b6121c08383612560565b610a0a60008484846117ab565b60008072184f03e93ff9f4daa797ed6e38ed64bf6a1f0160401b831061220c5772184f03e93ff9f4daa797ed6e38ed64bf6a1f0160401b830492506040015b6d04ee2d6d415b85acef81000000008310612238576d04ee2d6d415b85acef8100000000830492506020015b662386f26fc10000831061225657662386f26fc10000830492506010015b6305f5e100831061226e576305f5e100830492506008015b612710831061228257612710830492506004015b60648310612294576064830492506002015b600a831061072c5760010192915050565b60006001600160e01b03198216635a05180f60e01b148061072c575061072c826125c5565b6122d58383836125fa565b610a0a576001600160a01b03831661230357604051637e27328960e01b815260048101829052602401610870565b60405163177e802f60e01b81526001600160a01b038316600482015260248101829052604401610870565b60008181526001830160205260408120546123755750815460018181018455600084815260208082209093018490558454848252828601909352604090209190915561072c565b50600061072c565b6000818152600183016020526040812054801561200c5760006123a160018361300e565b85549091506000906123b59060019061300e565b905080821461241a5760008660000182815481106123d5576123d5612dad565b90600052602060002001549050808760000184815481106123f8576123f8612dad565b6000918252602080832090910192909255918252600188019052604090208390555b855486908061242b5761242b613021565b60019003818190600052602060002001600090559055856001016000868152602001908152602001600020600090556001935050505061072c565b806001600160a01b03163b60000361249c57604051634c9c8ce360e01b81526001600160a01b0382166004820152602401610870565b60008051602061316c83398151915280546001600160a01b0319166001600160a01b0392909216919091179055565b6060600080846001600160a01b0316846040516124e891906130ef565b600060405180830381855af49150503d8060008114612523576040519150601f19603f3d011682016040523d82523d6000602084013e612528565b606091505b509150915061253885838361265f565b95945050505050565b34156115885760405163b398979f60e01b815260040160405180910390fd5b6001600160a01b03821661258a57604051633250574960e11b815260006004820152602401610870565b600061259883836000611369565b90506001600160a01b03811615610a0a576040516339e3563760e11b815260006004820152602401610870565b60006001600160e01b03198216637965db0b60e01b148061072c57506301ffc9a760e01b6001600160e01b031983161461072c565b60006001600160a01b03831615801590610d085750826001600160a01b0316846001600160a01b03161480612634575061263484846110b1565b80610d085750826001600160a01b031661264d83611315565b6001600160a01b031614949350505050565b6060826126745761266f826126bb565b610e88565b815115801561268b57506001600160a01b0384163b155b156126b457604051639996b31560e01b81526001600160a01b0385166004820152602401610870565b5080610e88565b8051156126cb5780518082602001fd5b604051630a12f52160e11b815260040160405180910390fd5b6001600160e01b03198116811461136657600080fd5b60006020828403121561270c57600080fd5b8135610e88816126e4565b60005b8381101561273257818101518382015260200161271a565b50506000910152565b60008151808452612753816020860160208601612717565b601f01601f19169290920160200192915050565b602081526000610e88602083018461273b565b60006020828403121561278c57600080fd5b5035919050565b80356001600160a01b03811681146127aa57600080fd5b919050565b600080604083850312156127c257600080fd5b6127cb83612793565b946020939093013593505050565b600080604083850312156127ec57600080fd5b8235915060208301356001600160401b0381111561280957600080fd5b83016060818603121561281b57600080fd5b809150509250929050565b60008060006060848603121561283b57600080fd5b61284484612793565b925061285260208501612793565b929592945050506040919091013590565b6000806040838503121561287657600080fd5b8235915061288660208401612793565b90509250929050565b634e487b7160e01b600052604160045260246000fd5b600082601f8301126128b657600080fd5b81356001600160401b038111156128cf576128cf61288f565b604051601f8201601f19908116603f011681016001600160401b03811182821017156128fd576128fd61288f565b60405281815283820160200185101561291557600080fd5b816020850160208301376000918101602001919091529392505050565b6000806040838503121561294557600080fd5b61294e83612793565b915060208301356001600160401b0381111561296957600080fd5b612975858286016128a5565b9150509250929050565b60006020828403121561299157600080fd5b610e8882612793565b600080604083850312156129ad57600080fd5b50508035926020909101359150565b600080604083850312156129cf57600080fd5b6129d883612793565b91506020830135801515811461281b57600080fd5b60008060008060808587031215612a0357600080fd5b612a0c85612793565b9350612a1a60208601612793565b92506040850135915060608501356001600160401b03811115612a3c57600080fd5b612a48878288016128a5565b91505092959194509250565b602081526000825160606020840152612a70608084018261273b565b90506020840151601f19848303016040850152612a8d828261273b565b9150506040840151601f19848303016060850152612538828261273b565b60008060408385031215612abe57600080fd5b612ac783612793565b915061288660208401612793565b606081526000612ae8606083018661273b565b8281036020840152612afa818661273b565b90508281036040840152612b0e818561273b565b9695505050505050565b600181811c90821680612b2c57607f821691505b602082108103612b4c57634e487b7160e01b600052602260045260246000fd5b50919050565b6000808335601e19843603018112612b6957600080fd5b8301803591506001600160401b03821115612b8357600080fd5b602001915036819003821315612b9857600080fd5b9250929050565b601f821115610a0a57806000526020600020601f840160051c81016020851015612bc65750805b601f840160051c820191505b818110156108935760008155600101612bd2565b600019600383901b1c191660019190911b1790565b6001600160401b03831115612c1257612c1261288f565b612c2683612c208354612b18565b83612b9f565b6000601f841160018114612c545760008515612c425750838201355b612c4c8682612be6565b845550610893565b600083815260209020601f19861690835b82811015612c855786850135825560209485019460019092019101612c65565b5086821015612ca25760001960f88860031b161c19848701351681555b505060018560011b0183555050505050565b612cbe8283612b52565b6001600160401b03811115612cd557612cd561288f565b612ce981612ce38554612b18565b85612b9f565b6000601f821160018114612d175760008315612d055750838201355b612d0f8482612be6565b865550612d71565b600085815260209020601f19841690835b82811015612d485786850135825560209485019460019092019101612d28565b5084821015612d655760001960f88660031b161c19848701351681555b505060018360011b0185555b50505050612d826020830183612b52565b612d90818360018601612bfb565b5050612d9f6040830183612b52565b61091f818360028601612bfb565b634e487b7160e01b600052603260045260246000fd5b634e487b7160e01b600052601260045260246000fd5b600082612de857612de8612dc3565b500690565b60008151612dff818560208601612717565b9290920192915050565b607b60f81b81526d226e616d65223a2022427567202360901b60018201528451600090612e3d81600f850160208a01612717565b61088b60f21b600f918401918201526b1139b832b1b4b2b9911d101160a11b60118201528551612e7481601d840160208a01612717565b600f8183010191505061088b60f21b600e8201526f113232b9b1b934b83a34b7b7111d101160811b6010820152612f01612ef4612ee7612ee1612ecb612ebd602087018b612ded565b61088b60f21b815260020190565b691134b6b0b3b2911d101160b11b8152600a0190565b87612ded565b601160f91b815260010190565b607d60f81b815260010190565b979650505050505050565b7f646174613a6170706c69636174696f6e2f6a736f6e3b6261736536342c000000815260008251612f4481601d850160208701612717565b91909101601d0192915050565b600060208284031215612f6357600080fd5b5051919050565b6001600160a01b0385811682528416602082015260408101839052608060608201819052600090612b0e9083018461273b565b600060208284031215612faf57600080fd5b8151610e88816126e4565b634e487b7160e01b600052601160045260246000fd5b8082018082111561072c5761072c612fba565b600082612ff257612ff2612dc3565b500490565b808202811582820484141761072c5761072c612fba565b8181038181111561072c5761072c612fba565b634e487b7160e01b600052603160045260246000fd5b81516001600160401b038111156130505761305061288f565b6130648161305e8454612b18565b84612b9f565b6020601f82116001811461309257600083156130805750848201515b61308a8482612be6565b855550610893565b600084815260208120601f198516915b828110156130c257878501518255602094850194600190920191016130a2565b50848210156130e05786840151600019600387901b60f8161c191681555b50505050600190811b01905550565b60008251613101818460208701612717565b919091019291505056fec1f6fe24621ce81ec5827caf0253cadb74709b061630e6b55e82371705932000645e039705490088daad89bae25049a34f4a9072d398537b1ab2425f24cbed0080bb2b638cc20bc4d0a60d66940f3ab4a00c1d7b313497ca82fb0b4ab0079300360894a13ba1a3210667c828492db98dca3e2076cc3735a920a3ca505d382bbc4142434445464748494a4b4c4d4e4f505152535455565758595a6162636465666768696a6b6c6d6e6f707172737475767778797a303132333435363738392b2f645e039705490088daad89bae25049a34f4a9072d398537b1ab2425f24cbed0202dd7bc7dec4dceedda775e58dd541e08a116c6c53815c0bd028192f7b626800a2646970667358221220454fb1612d7a8d3f0d3ad3c17e3671e1cd20fa6df1a909484d727209ee9702fd64736f6c634300081a0033",
  "linkReferences": {},
  "deployedLinkReferences": {}
}