{
  "_format": "hh-sol-artifact-1",
  "contractName": "TheBugs",
  "sourceName": "contracts/TheBugs.sol",
  "abi": [
    {
      "inputs": [],
      "stateMutability": "nonpayable",
      "type": "constructor"
    },
    {
      "inputs": [],
      "name": "AccessControlBadConfirmation",
      "type": "error"
    },
    {
      "inputs": [
        {
          "internalType": "address",
          "name": "account",
          "type": "address"
        },
        {
          "internalType": "bytes32",
          "name": "neededRole",
          "type": "bytes32"
        }
      ],
      "name": "AccessControlUnauthorizedAccount",
      "type": "error"
    },
    {
      "inputs": [
        {
          "internalType": "address",
          "name": "target",
          "type": "address"
        }
      ],
      "name": "AddressEmptyCode",
      "type": "error"
    },
    {
      "inputs": [
        {
          "internalType": "address",
          "name": "implementation",
          "type": "address"
        }
      ],
      "name": "ERC1967InvalidImplementation",
      "type": "error"
    },
    {
      "inputs": [],
      "name": "ERC1967NonPayable",
      "type": "error"
    },
    {
      "inputs": [],
      "name": "ERC721EnumerableForbiddenBatchMint",
      "type": "error"
    },
    {
      "inputs": [
        {
          "internalType": "address",
          "name": "sender",
          "type": "address"
        },
        {
          "internalType": "uint256",
          "name": "tokenId",
          "type": "uint256"
        },
        {
          "internalType": "address",
          "name": "owner",
          "type": "address"
        }
      ],
      "name": "ERC721IncorrectOwner",
      "type": "error"
    },
    {
      "inputs": [
        {
          "internalType": "address",
          "name": "operator",
          "type": "address"
        },
        {
          "internalType": "uint256",
          "name": "tokenId",
          "type": "uint256"
        }
      ],
      "name": "ERC721InsufficientApproval",
      "type": "error"
    },
    {
      "inputs": [
        {
          "internalType": "address",
          "name": "approver",
          "type": "address"
        }
      ],
      "name": "ERC721InvalidApprover",
      "type": "error"
    },
    {
      "inputs": [
        {
          "internalType": "address",
          "name": "operator",
          "type": "address"
        }
      ],
      "name": "ERC721InvalidOperator",
      "type": "error"
    },
    {
      "inputs": [
        {
          "internalType": "address",
          "name": "owner",
          "type": "address"
        }
      ],
      "name": "ERC721InvalidOwner",
      "type": "error"
    },
    {
      "inputs": [
        {
          "internalType": "address",
          "name": "receiver",
          "type": "address"
        }
      ],
      "name": "ERC721InvalidReceiver",
      "type": "error"
    },
    {
      "inputs": [
        {
          "internalType": "address",
          "name": "sender",
          "type": "address"
        }
      ],
      "name": "ERC721InvalidSender",
      "type": "error"
    },
    {
      "inputs": [
        {
          "internalType": "uint256",
          "name": "tokenId",
          "type": "uint256"
        }
      ],
      "name": "ERC721NonexistentToken",
      "type": "error"
    },
    {
      "inputs": [
        {
          "internalType": "address",
          "name": "owner",
          "type": "address"
        },
        {
          "internalType": "uint256",
          "name": "index",
          "type": "uint256"
        }
      ],
      "name": "ERC721OutOfBoundsIndex",
      "type": "error"
    },
    {
      "inputs": [],
      "name": "FailedCall",
      "type": "error"
    },
    {
      "inputs": [],
      "name": "InvalidInitialization",
      "type": "error"
    },
    {
      "inputs": [],
      "name": "NotInitializing",
      "type": "error"
    },
    {
      "inputs": [],
      "name": "UUPSUnauthorizedCallContext",
      "type": "error"
    },
    {
      "inputs": [
        {
          "internalType": "bytes32",
          "name": "slot",
          "type": "bytes32"
        }
      ],
      "name": "UUPSUnsupportedProxiableUUID",
      "type": "error"
    },
    {
      "anonymous": false,
      "inputs": [
        {
          "indexed": true,
          "internalType": "address",
          "name": "owner",
          "type": "address"
        },
        {
          "indexed": true,
          "internalType": "address",
          "name": "approved",
          "type": "address"
        },
        {
          "indexed": true,
          "internalType": "uint256",
          "name": "tokenId",
          "type": "uint256"
        }
      ],
      "name": "Approval",
      "type": "event"
    },
    {
      "anonymous": false,
      "inputs": [
        {
          "indexed": true,
          "internalType": "address",
          "name": "owner",
          "type": "address"
        },
        {
          "indexed": true,
          "internalType": "address",
          "name": "operator",
          "type": "address"
        },
        {
          "indexed": false,
          "internalType": "bool",
          "name": "approved",
          "type": "bool"
        }
      ],
      "name": "ApprovalForAll",
      "type": "event"
    },
    {
      "anonymous": false,
      "inputs": [
        {
          "indexed": false,
          "internalType": "uint64",
          "name": "version",
          "type": "uint64"
        }
      ],
      "name": "Initialized",
      "type": "event"
    },
    {
      "anonymous": false,
      "inputs": [
        {
          "indexed": true,
          "internalType": "bytes32",
          "name": "role",
          "type": "bytes32"
        },
        {
          "indexed": true,
          "internalType": "bytes32",
          "name": "previousAdminRole",
          "type": "bytes32"
        },
        {
          "indexed": true,
          "internalType": "bytes32",
          "name": "newAdminRole",
          "type": "bytes32"
        }
      ],
      "name": "RoleAdminChanged",
      "type": "event"
    },
    {
      "anonymous": false,
      "inputs": [
        {
          "indexed": true,
          "internalType": "bytes32",
          "name": "role",
          "type": "bytes32"
        },
        {
          "indexed": true,
          "internalType": "address",
          "name": "account",
          "type": "address"
        },
        {
          "indexed": true,
          "internalType": "address",
          "name": "sender",
          "type": "address"
        }
      ],
      "name": "RoleGranted",
      "type": "event"
    },
    {
      "anonymous": false,
      "inputs": [
        {
          "indexed": true,
          "internalType": "bytes32",
          "name": "role",
          "type": "bytes32"
        },
        {
          "indexed": true,
          "internalType": "address",
          "name": "account",
          "type": "address"
        },
        {
          "indexed": true,
          "internalType": "address",
          "name": "sender",
          "type": "address"
        }
      ],
      "name": "RoleRevoked",
      "type": "event"
    },
    {
      "anonymous": false,
      "inputs": [
        {
          "indexed": true,
          "internalType": "address",
          "name": "from",
          "type": "address"
        },
        {
          "indexed": true,
          "internalType": "address",
          "name": "to",
          "type": "address"
        },
        {
          "indexed": true,
          "internalType": "uint256",
          "name": "tokenId",
          "type": "uint256"
        }
      ],
      "name": "Transfer",
      "type": "event"
    },
    {
      "anonymous": false,
      "inputs": [
        {
          "indexed": true,
          "internalType": "address",
          "name": "implementation",
          "type": "address"
        }
      ],
      "name": "Upgraded",
      "type": "event"
    },
    {
      "inputs": [],
      "name": "COMPETITION_ROLE",
      "outputs": [
        {
          "internalType": "bytes32",
          "name": "",
          "type": "bytes32"
        }
      ],
      "stateMutability": "view",
      "type": "function"
    },
    {
      "inputs": [],
      "name": "DATA_SETTER_ROLE",
      "outputs": [
        {
          "internalType": "bytes32",
          "name": "",
          "type": "bytes32"
        }
      ],
      "stateMutability": "view",
      "type": "function"
    },
    {
      "inputs": [],
      "name": "DEFAULT_ADMIN_ROLE",
      "outputs": [
        {
          "internalType": "bytes32",
          "name": "",
          "type": "bytes32"
        }
      ],
      "stateMutability": "view",
      "type": "function"
    },
    {
      "inputs": [],
      "name": "MINTER_ROLE",
      "outputs": [
        {
          "internalType": "bytes32",
          "name": "",
          "type": "bytes32"
        }
      ],
      "stateMutability": "view",
      "type": "function"
    },
    {
      "inputs": [],
      "name": "SPECIES_COUNT",
      "outputs": [
        {
          "internalType": "uint256",
          "name": "",
          "type": "uint256"
        }
      ],
      "stateMutability": "view",
      "type": "function"
    },
    {
      "inputs": [],
      "name": "UPGRADER_ROLE",
      "outputs": [
        {
          "internalType": "bytes32",
          "name": "",
          "type": "bytes32"
        }
      ],
      "stateMutability": "view",
      "type": "function"
    },
    {
      "inputs": [],
      "name": "UPGRADE_INTERFACE_VERSION",
      "outputs": [
        {
          "internalType": "string",
          "name": "",
          "type": "string"
        }
      ],
      "stateMutability": "view",
      "type": "function"
    },
    {
      "inputs": [
        {
          "internalType": "address",
          "name": "to",
          "type": "address"
        },
        {
          "internalType": "uint256",
          "name": "tokenId",
          "type": "uint256"
        }
      ],
      "name": "approve",
      "outputs": [],
      "stateMutability": "nonpayable",
      "type": "function"
    },
    {
      "inputs": [
        {
          "internalType": "address",
          "name": "owner",
          "type": "address"
        }
      ],
      "name": "balanceOf",
      "outputs": [
        {
          "internalType": "uint256",
          "name": "",
          "type": "uint256"
        }
      ],
      "stateMutability": "view",
      "type": "function"
    },
    {
      "inputs": [
        {
          "internalType": "uint256",
          "name": "",
          "type": "uint256"
        }
      ],
      "name": "bugDatas",
      "outputs": [
        {
          "internalType": "string",
          "name": "name",
          "type": "string"
        },
        {
          "components": [
            {
              "internalType": "uint8",
              "name": "intelligence",
              "type": "uint8"
            },
            {
              "internalType": "uint8",
              "name": "nimbleness",
              "type": "uint8"
            },
            {
              "internalType": "uint8",
              "name": "strength",
              "type": "uint8"
            },
            {
              "internalType": "uint8",
              "name": "endurance",
              "type": "uint8"
            },
            {
              "internalType": "uint8",
              "name": "charisma",
              "type": "uint8"
            },
            {
              "internalType": "uint8",
              "name": "talent",
              "type": "uint8"
            }
          ],
          "internalType": "struct TheBugs.Stats",
          "name": "stats",
          "type": "tuple"
        }
      ],
      "stateMutability": "view",
      "type": "function"
    },
    {
      "inputs": [
        {
          "internalType": "uint256",
          "name": "tokenId",
          "type": "uint256"
        }
      ],
      "name": "calculateRarity",
      "outputs": [
        {
          "internalType": "enum TheBugs.Rarity",
          "name": "",
          "type": "uint8"
        }
      ],
      "stateMutability": "pure",
      "type": "function"
    },
    {
      "inputs": [
        {
          "internalType": "uint256",
          "name": "tokenId",
          "type": "uint256"
        }
      ],
      "name": "calculateStats",
      "outputs": [
        {
          "components": [
            {
              "internalType": "uint8",
              "name": "intelligence",
              "type": "uint8"
            },
            {
              "internalType": "uint8",
              "name": "nimbleness",
              "type": "uint8"
            },
            {
              "internalType": "uint8",
              "name": "strength",
              "type": "uint8"
            },
            {
              "internalType": "uint8",
              "name": "endurance",
              "type": "uint8"
            },
            {
              "internalType": "uint8",
              "name": "charisma",
              "type": "uint8"
            },
            {
              "internalType": "uint8",
              "name": "talent",
              "type": "uint8"
            }
          ],
          "internalType": "struct TheBugs.Stats",
          "name": "",
          "type": "tuple"
        }
      ],
      "stateMutability": "view",
      "type": "function"
    },
    {
      "inputs": [
        {
          "internalType": "uint256",
          "name": "",
          "type": "uint256"
        }
      ],
      "name": "draws",
      "outputs": [
        {
          "internalType": "uint256",
          "name": "",
          "type": "uint256"
        }
      ],
      "stateMutability": "view",
      "type": "function"
    },
    {
      "inputs": [
        {
          "internalType": "uint256",
          "name": "tokenId",
          "type": "uint256"
        }
      ],
      "name": "getApproved",
      "outputs": [
        {
          "internalType": "address",
          "name": "",
          "type": "address"
        }
      ],
      "stateMutability": "view",
      "type": "function"
    },
    {
      "inputs": [
        {
          "internalType": "bytes32",
          "name": "role",
          "type": "bytes32"
        }
      ],
      "name": "getRoleAdmin",
      "outputs": [
        {
          "internalType": "bytes32",
          "name": "",
          "type": "bytes32"
        }
      ],
      "stateMutability": "view",
      "type": "function"
    },
    {
      "inputs": [
        {
          "internalType": "bytes32",
          "name": "role",
          "type": "bytes32"
        },
        {
          "internalType": "uint256",
          "name": "index",
          "type": "uint256"
        }
      ],
      "name": "getRoleMember",
      "outputs": [
        {
          "internalType": "address",
          "name": "",
          "type": "address"
        }
      ],
      "stateMutability": "view",
      "type": "function"
    },
    {
      "inputs": [
        {
          "internalType": "bytes32",
          "name": "role",
          "type": "bytes32"
        }
      ],
      "name": "getRoleMemberCount",
      "outputs": [
        {
          "internalType": "uint256",
          "name": "",
          "type": "uint256"
        }
      ],
      "stateMutability": "view",
      "type": "function"
    },
    {
      "inputs": [
        {
          "internalType": "bytes32",
          "name": "role",
          "type": "bytes32"
        }
      ],
      "name": "getRoleMembers",
      "outputs": [
        {
          "internalType": "address[]",
          "name": "",
          "type": "address[]"
        }
      ],
      "stateMutability": "view",
      "type": "function"
    },
    {
      "inputs": [
        {
          "internalType": "uint256",
          "name": "tokenId",
          "type": "uint256"
        }
      ],
      "name": "getSpeciesData",
      "outputs": [
        {
          "components": [
            {
              "internalType": "string",
              "name": "name",
              "type": "string"
            },
            {
              "internalType": "string",
              "name": "description",
              "type": "string"
            },
            {
              "internalType": "string",
              "name": "image",
              "type": "string"
            },
            {
              "components": [
                {
                  "internalType": "uint8",
                  "name": "intelligence",
                  "type": "uint8"
                },
                {
                  "internalType": "uint8",
                  "name": "nimbleness",
                  "type": "uint8"
                },
                {
                  "internalType": "uint8",
                  "name": "strength",
                  "type": "uint8"
                },
                {
                  "internalType": "uint8",
                  "name": "endurance",
                  "type": "uint8"
                },
                {
                  "internalType": "uint8",
                  "name": "charisma",
                  "type": "uint8"
                },
                {
                  "internalType": "uint8",
                  "name": "talent",
                  "type": "uint8"
                }
              ],
              "internalType": "struct TheBugs.Stats",
              "name": "baseStats",
              "type": "tuple"
            }
          ],
          "internalType": "struct TheBugs.SpeciesData",
          "name": "",
          "type": "tuple"
        }
      ],
      "stateMutability": "view",
      "type": "function"
    },
    {
      "inputs": [
        {
          "internalType": "bytes32",
          "name": "role",
          "type": "bytes32"
        },
        {
          "internalType": "address",
          "name": "account",
          "type": "address"
        }
      ],
      "name": "grantRole",
      "outputs": [],
      "stateMutability": "nonpayable",
      "type": "function"
    },
    {
      "inputs": [
        {
          "internalType": "bytes32",
          "name": "role",
          "type": "bytes32"
        },
        {
          "internalType": "address",
          "name": "account",
          "type": "address"
        }
      ],
      "name": "hasRole",
      "outputs": [
        {
          "internalType": "bool",
          "name": "",
          "type": "bool"
        }
      ],
      "stateMutability": "view",
      "type": "function"
    },
    {
      "inputs": [
        {
          "internalType": "uint256",
          "name": "tokenId",
          "type": "uint256"
        }
      ],
      "name": "incrementDraws",
      "outputs": [],
      "stateMutability": "nonpayable",
      "type": "function"
    },
    {
      "inputs": [
        {
          "internalType": "uint256",
          "name": "tokenId",
          "type": "uint256"
        }
      ],
      "name": "incrementLosses",
      "outputs": [],
      "stateMutability": "nonpayable",
      "type": "function"
    },
    {
      "inputs": [
        {
          "internalType": "uint256",
          "name": "tokenId",
          "type": "uint256"
        }
      ],
      "name": "incrementWins",
      "outputs": [],
      "stateMutability": "nonpayable",
      "type": "function"
    },
    {
      "inputs": [],
      "name": "initialize",
      "outputs": [],
      "stateMutability": "nonpayable",
      "type": "function"
    },
    {
      "inputs": [
        {
          "internalType": "address",
          "name": "owner",
          "type": "address"
        },
        {
          "internalType": "address",
          "name": "operator",
          "type": "address"
        }
      ],
      "name": "isApprovedForAll",
      "outputs": [
        {
          "internalType": "bool",
          "name": "",
          "type": "bool"
        }
      ],
      "stateMutability": "view",
      "type": "function"
    },
    {
      "inputs": [
        {
          "internalType": "uint256",
          "name": "tokenId",
          "type": "uint256"
        }
      ],
      "name": "isPremium",
      "outputs": [
        {
          "internalType": "bool",
          "name": "",
          "type": "bool"
        }
      ],
      "stateMutability": "pure",
      "type": "function"
    },
    {
      "inputs": [
        {
          "internalType": "uint256",
          "name": "",
          "type": "uint256"
        }
      ],
      "name": "losses",
      "outputs": [
        {
          "internalType": "uint256",
          "name": "",
          "type": "uint256"
        }
      ],
      "stateMutability": "view",
      "type": "function"
    },
    {
      "inputs": [
        {
          "internalType": "address",
          "name": "to",
          "type": "address"
        },
        {
          "internalType": "uint256",
          "name": "tokenId",
          "type": "uint256"
        },
        {
          "internalType": "string",
          "name": "name",
          "type": "string"
        }
      ],
      "name": "mint",
      "outputs": [],
      "stateMutability": "nonpayable",
      "type": "function"
    },
    {
      "inputs": [],
      "name": "name",
      "outputs": [
        {
          "internalType": "string",
          "name": "",
          "type": "string"
        }
      ],
      "stateMutability": "view",
      "type": "function"
    },
    {
      "inputs": [
        {
          "internalType": "uint256",
          "name": "tokenId",
          "type": "uint256"
        }
      ],
      "name": "ownerOf",
      "outputs": [
        {
          "internalType": "address",
          "name": "",
          "type": "address"
        }
      ],
      "stateMutability": "view",
      "type": "function"
    },
    {
      "inputs": [],
      "name": "proxiableUUID",
      "outputs": [
        {
          "internalType": "bytes32",
          "name": "",
          "type": "bytes32"
        }
      ],
      "stateMutability": "view",
      "type": "function"
    },
    {
      "inputs": [
        {
          "internalType": "enum TheBugs.Rarity",
          "name": "rarity",
          "type": "uint8"
        }
      ],
      "name": "rarityToString",
      "outputs": [
        {
          "internalType": "string",
          "name": "",
          "type": "string"
        }
      ],
      "stateMutability": "pure",
      "type": "function"
    },
    {
      "inputs": [
        {
          "internalType": "bytes32",
          "name": "role",
          "type": "bytes32"
        },
        {
          "internalType": "address",
          "name": "callerConfirmation",
          "type": "address"
        }
      ],
      "name": "renounceRole",
      "outputs": [],
      "stateMutability": "nonpayable",
      "type": "function"
    },
    {
      "inputs": [
        {
          "internalType": "bytes32",
          "name": "role",
          "type": "bytes32"
        },
        {
          "internalType": "address",
          "name": "account",
          "type": "address"
        }
      ],
      "name": "revokeRole",
      "outputs": [],
      "stateMutability": "nonpayable",
      "type": "function"
    },
    {
      "inputs": [
        {
          "internalType": "address",
          "name": "from",
          "type": "address"
        },
        {
          "internalType": "address",
          "name": "to",
          "type": "address"
        },
        {
          "internalType": "uint256",
          "name": "tokenId",
          "type": "uint256"
        }
      ],
      "name": "safeTransferFrom",
      "outputs": [],
      "stateMutability": "nonpayable",
      "type": "function"
    },
    {
      "inputs": [
        {
          "internalType": "address",
          "name": "from",
          "type": "address"
        },
        {
          "internalType": "address",
          "name": "to",
          "type": "address"
        },
        {
          "internalType": "uint256",
          "name": "tokenId",
          "type": "uint256"
        },
        {
          "internalType": "bytes",
          "name": "data",
          "type": "bytes"
        }
      ],
      "name": "safeTransferFrom",
      "outputs": [],
      "stateMutability": "nonpayable",
      "type": "function"
    },
    {
      "inputs": [
        {
          "internalType": "address",
          "name": "operator",
          "type": "address"
        },
        {
          "internalType": "bool",
          "name": "approved",
          "type": "bool"
        }
      ],
      "name": "setApprovalForAll",
      "outputs": [],
      "stateMutability": "nonpayable",
      "type": "function"
    },
    {
      "inputs": [
        {
          "internalType": "uint256",
          "name": "speciesID",
          "type": "uint256"
        },
        {
          "components": [
            {
              "internalType": "string",
              "name": "name",
              "type": "string"
            },
            {
              "internalType": "string",
              "name": "description",
              "type": "string"
            },
            {
              "internalType": "string",
              "name": "image",
              "type": "string"
            },
            {
              "components": [
                {
                  "internalType": "uint8",
                  "name": "intelligence",
                  "type": "uint8"
                },
                {
                  "internalType": "uint8",
                  "name": "nimbleness",
                  "type": "uint8"
                },
                {
                  "internalType": "uint8",
                  "name": "strength",
                  "type": "uint8"
                },
                {
                  "internalType": "uint8",
                  "name": "endurance",
                  "type": "uint8"
                },
                {
                  "internalType": "uint8",
                  "name": "charisma",
                  "type": "uint8"
                },
                {
                  "internalType": "uint8",
                  "name": "talent",
                  "type": "uint8"
                }
              ],
              "internalType": "struct TheBugs.Stats",
              "name": "baseStats",
              "type": "tuple"
            }
          ],
          "internalType": "struct TheBugs.SpeciesData",
          "name": "speciesData",
          "type": "tuple"
        }
      ],
      "name": "setSpeciesData",
      "outputs": [],
      "stateMutability": "nonpayable",
      "type": "function"
    },
    {
      "inputs": [
        {
          "internalType": "uint256",
          "name": "",
          "type": "uint256"
        }
      ],
      "name": "speciesDatas",
      "outputs": [
        {
          "internalType": "string",
          "name": "name",
          "type": "string"
        },
        {
          "internalType": "string",
          "name": "description",
          "type": "string"
        },
        {
          "internalType": "string",
          "name": "image",
          "type": "string"
        },
        {
          "components": [
            {
              "internalType": "uint8",
              "name": "intelligence",
              "type": "uint8"
            },
            {
              "internalType": "uint8",
              "name": "nimbleness",
              "type": "uint8"
            },
            {
              "internalType": "uint8",
              "name": "strength",
              "type": "uint8"
            },
            {
              "internalType": "uint8",
              "name": "endurance",
              "type": "uint8"
            },
            {
              "internalType": "uint8",
              "name": "charisma",
              "type": "uint8"
            },
            {
              "internalType": "uint8",
              "name": "talent",
              "type": "uint8"
            }
          ],
          "internalType": "struct TheBugs.Stats",
          "name": "baseStats",
          "type": "tuple"
        }
      ],
      "stateMutability": "view",
      "type": "function"
    },
    {
      "inputs": [
        {
          "internalType": "bytes4",
          "name": "interfaceId",
          "type": "bytes4"
        }
      ],
      "name": "supportsInterface",
      "outputs": [
        {
          "internalType": "bool",
          "name": "",
          "type": "bool"
        }
      ],
      "stateMutability": "view",
      "type": "function"
    },
    {
      "inputs": [],
      "name": "symbol",
      "outputs": [
        {
          "internalType": "string",
          "name": "",
          "type": "string"
        }
      ],
      "stateMutability": "view",
      "type": "function"
    },
    {
      "inputs": [
        {
          "internalType": "uint256",
          "name": "index",
          "type": "uint256"
        }
      ],
      "name": "tokenByIndex",
      "outputs": [
        {
          "internalType": "uint256",
          "name": "",
          "type": "uint256"
        }
      ],
      "stateMutability": "view",
      "type": "function"
    },
    {
      "inputs": [
        {
          "internalType": "address",
          "name": "owner",
          "type": "address"
        },
        {
          "internalType": "uint256",
          "name": "index",
          "type": "uint256"
        }
      ],
      "name": "tokenOfOwnerByIndex",
      "outputs": [
        {
          "internalType": "uint256",
          "name": "",
          "type": "uint256"
        }
      ],
      "stateMutability": "view",
      "type": "function"
    },
    {
      "inputs": [
        {
          "internalType": "uint256",
          "name": "tokenId",
          "type": "uint256"
        }
      ],
      "name": "tokenURI",
      "outputs": [
        {
          "internalType": "string",
          "name": "",
          "type": "string"
        }
      ],
      "stateMutability": "view",
      "type": "function"
    },
    {
      "inputs": [
        {
          "internalType": "address",
          "name": "owner",
          "type": "address"
        },
        {
          "internalType": "uint256",
          "name": "fromIndex",
          "type": "uint256"
        },
        {
          "internalType": "uint256",
          "name": "toIndex",
          "type": "uint256"
        }
      ],
      "name": "tokenURIsByOwnerAndIndexRange",
      "outputs": [
        {
          "internalType": "string[]",
          "name": "",
          "type": "string[]"
        }
      ],
      "stateMutability": "view",
      "type": "function"
    },
    {
      "inputs": [],
      "name": "totalSupply",
      "outputs": [
        {
          "internalType": "uint256",
          "name": "",
          "type": "uint256"
        }
      ],
      "stateMutability": "view",
      "type": "function"
    },
    {
      "inputs": [
        {
          "internalType": "address",
          "name": "from",
          "type": "address"
        },
        {
          "internalType": "address",
          "name": "to",
          "type": "address"
        },
        {
          "internalType": "uint256",
          "name": "tokenId",
          "type": "uint256"
        }
      ],
      "name": "transferFrom",
      "outputs": [],
      "stateMutability": "nonpayable",
      "type": "function"
    },
    {
      "inputs": [
        {
          "internalType": "address",
          "name": "newImplementation",
          "type": "address"
        },
        {
          "internalType": "bytes",
          "name": "data",
          "type": "bytes"
        }
      ],
      "name": "upgradeToAndCall",
      "outputs": [],
      "stateMutability": "payable",
      "type": "function"
    },
    {
      "inputs": [
        {
          "internalType": "uint256",
          "name": "",
          "type": "uint256"
        }
      ],
      "name": "wins",
      "outputs": [
        {
          "internalType": "uint256",
          "name": "",
          "type": "uint256"
        }
      ],
      "stateMutability": "view",
      "type": "function"
    }
  ],
  "bytecode": "0x60a06040523060805234801561001457600080fd5b507ff0c57e16840df040f15088dc2f81fe391c3923bec73e23a9662efc9c229c6a00805468010000000000000000810460ff1615906001600160401b031660008115801561005f5750825b90506000826001600160401b0316600114801561007b5750303b155b905081158015610089575080155b156100a75760405163f92ee8a960e01b815260040160405180910390fd5b84546001600160401b031916600117855583156100d557845460ff60401b1916680100000000000000001785555b831561011b57845460ff60401b19168555604051600181527fc7f505b2f371ae2175ee4913f4499e1f2633a7b5936321eed1cdaeb6115181d29060200160405180910390a15b5050505050608051614e0f610149600039600081816122e10152818161230a015261246f0152614e0f6000f3fe6080604052600436106102c85760003560e01c806375e58d1611610175578063ad3cb1cc116100dc578063d539139311610095578063dfb638bf1161006f578063dfb638bf14610935578063e985e9c514610962578063f72c0d8b14610982578063fd2aec34146109b657600080fd5b8063d5391393146108ad578063d547741f146108e1578063d956087d1461090157600080fd5b8063ad3cb1cc146107dc578063b88d4fde1461080d578063bbeff99a1461082d578063c87b56dd1461084d578063ca15c8731461086d578063d3fc98641461088d57600080fd5b806395d89b411161012e57806395d89b411461070857806399bb52151461071d578063a2168d071461074a578063a217fddf1461077a578063a22cb4651461078f578063a3246ad3146107af57600080fd5b806375e58d16146106465780637b0e4ab41461066657806380bfe883146106865780638129fc1c146106b35780639010d07c146106c857806391d14854146106e857600080fd5b80632f2ff15d116102345780634f1ef286116101ed57806357edac82116101c757806357edac82146105c357806359797d8a146105d85780636352211e1461060657806370a082311461062657600080fd5b80634f1ef2861461057b5780634f6ccce71461058e57806352d1902d146105ae57600080fd5b80632f2ff15d146104ae5780632f745c59146104ce57806336568abe146104ee578063406091e31461050e57806342842e0e1461052e5780634a167f6d1461054e57600080fd5b80630cc36c36116102865780630cc36c36146103d25780630d89aeec146103ff5780630e25272d1461041f57806318160ddd1461044c57806323b872dd1461046e578063248a9ca31461048e57600080fd5b8062508da7146102cd57806301ffc9a714610302578063029bca781461033257806306fdde0314610356578063081812fc14610378578063095ea7b3146103b0575b600080fd5b3480156102d957600080fd5b506102ef600080516020614d7a83398151915281565b6040519081526020015b60405180910390f35b34801561030e57600080fd5b5061032261031d366004613b02565b6109e3565b60405190151581526020016102f9565b34801561033e57600080fd5b5061032261034d366004613b1f565b60ff1c60011490565b34801561036257600080fd5b5061036b6109f4565b6040516102f99190613b88565b34801561038457600080fd5b50610398610393366004613b1f565b610a98565b6040516001600160a01b0390911681526020016102f9565b3480156103bc57600080fd5b506103d06103cb366004613bb7565b610aad565b005b3480156103de57600080fd5b506102ef6103ed366004613b1f565b60046020526000908152604090205481565b34801561040b57600080fd5b506103d061041a366004613b1f565b610abc565b34801561042b57600080fd5b5061043f61043a366004613b1f565b610af7565b6040516102f99190613bf7565b34801561045857600080fd5b50600080516020614d9a833981519152546102ef565b34801561047a57600080fd5b506103d0610489366004613c1f565b610be4565b34801561049a57600080fd5b506102ef6104a9366004613b1f565b610c74565b3480156104ba57600080fd5b506103d06104c9366004613c5c565b610c96565b3480156104da57600080fd5b506102ef6104e9366004613bb7565b610cb2565b3480156104fa57600080fd5b506103d0610509366004613c5c565b610d26565b34801561051a57600080fd5b506103d0610529366004613b1f565b610d5e565b34801561053a57600080fd5b506103d0610549366004613c1f565b610d90565b34801561055a57600080fd5b5061056e610569366004613c88565b610dab565b6040516102f99190613cbb565b6103d0610589366004613dc3565b610e76565b34801561059a57600080fd5b506102ef6105a9366004613b1f565b610e91565b3480156105ba57600080fd5b506102ef610f09565b3480156105cf57600080fd5b506102ef600381565b3480156105e457600080fd5b506105f86105f3366004613b1f565b610f26565b6040516102f9929190613e5c565b34801561061257600080fd5b50610398610621366004613b1f565b611022565b34801561063257600080fd5b506102ef610641366004613e7e565b61102d565b34801561065257600080fd5b506103d0610661366004613e99565b611089565b34801561067257600080fd5b506103d0610681366004613b1f565b611217565b34801561069257600080fd5b506102ef6106a1366004613b1f565b60026020526000908152604090205481565b3480156106bf57600080fd5b506103d0611249565b3480156106d457600080fd5b506103986106e3366004613ee7565b6113ea565b3480156106f457600080fd5b50610322610703366004613c5c565b611419565b34801561071457600080fd5b5061036b611451565b34801561072957600080fd5b506102ef610738366004613b1f565b60036020526000908152604090205481565b34801561075657600080fd5b5061076a610765366004613b1f565b611490565b6040516102f99493929190613f09565b34801561078657600080fd5b506102ef600081565b34801561079b57600080fd5b506103d06107aa366004613f54565b6116a8565b3480156107bb57600080fd5b506107cf6107ca366004613b1f565b6116b3565b6040516102f99190613f85565b3480156107e857600080fd5b5061036b604051806040016040528060058152602001640352e302e360dc1b81525081565b34801561081957600080fd5b506103d0610828366004613fd1565b6116de565b34801561083957600080fd5b5061036b610848366004614038565b6116f6565b34801561085957600080fd5b5061036b610868366004613b1f565b611868565b34801561087957600080fd5b506102ef610888366004613b1f565b611a0e565b34801561089957600080fd5b506103d06108a8366004614059565b611a34565b3480156108b957600080fd5b506102ef7f9f2df0fed2c77648de5860a4cc508cd0818c85b8b8a1ab4ceeef8d981c8956a681565b3480156108ed57600080fd5b506103d06108fc366004613c5c565b611aa8565b34801561090d57600080fd5b506102ef7f4ddd85e313b1db5c4144000907a5124c34f10d6a5ef9c2cddb8e5f4467c74b5381565b34801561094157600080fd5b50610955610950366004613b1f565b611ac4565b6040516102f991906140e1565b34801561096e57600080fd5b5061032261097d36600461414f565b611d10565b34801561098e57600080fd5b506102ef7f189ab7a9244df0848122154315af71fe140f3db0fe014031783b0946b8c9d2e381565b3480156109c257600080fd5b506109d66109d1366004613b1f565b611d5d565b6040516102f99190614179565b60006109ee826120ab565b92915050565b600080516020614cfa8339815191528054606091908190610a1490614187565b80601f0160208091040260200160405190810160405280929190818152602001828054610a4090614187565b8015610a8d5780601f10610a6257610100808354040283529160200191610a8d565b820191906000526020600020905b815481529060010190602001808311610a7057829003601f168201915b505050505091505090565b6000610aa3826120d0565b506109ee82612108565b610ab8828233612142565b5050565b600080516020614d7a833981519152610ad48161214f565b6000828152600360205260408120805491610aee836141d1565b91905055505050565b60008061271083604051602001610b1f9181526552415249545960d01b602082015260260190565b6040516020818303038152906040528051906020012060001c610b429190614200565b905060ff83901c600103610b9257611388811015610b635750600192915050565b612328811015610b765750600292915050565b6125e4811015610b895750600392915050565b50600492915050565b611770811015610ba55750600092915050565b612134811015610bb85750600192915050565b61251c811015610bcb5750600292915050565b61267a811015610b895750600392915050565b50919050565b6001600160a01b038216610c1357604051633250574960e11b8152600060048201526024015b60405180910390fd5b6000610c2083833361215c565b9050836001600160a01b0316816001600160a01b031614610c6e576040516364283d7b60e01b81526001600160a01b0380861660048301526024820184905282166044820152606401610c0a565b50505050565b6000908152600080516020614dba833981519152602052604090206001015490565b610c9f82610c74565b610ca88161214f565b610c6e8383612255565b6000600080516020614cda833981519152610ccc8461102d565b8310610cfd5760405163295f44f760e21b81526001600160a01b038516600482015260248101849052604401610c0a565b6001600160a01b0384166000908152602091825260408082208583529092522054905092915050565b6001600160a01b0381163314610d4f5760405163334bd91960e11b815260040160405180910390fd5b610d59828261229a565b505050565b600080516020614d7a833981519152610d768161214f565b6000828152600260205260408120805491610aee836141d1565b610d59838383604051806020016040528060008152506116de565b60606000610db98484614214565b610dc4906001614227565b6001600160401b03811115610ddb57610ddb613d20565b604051908082528060200260200182016040528015610e0e57816020015b6060815260200190600190039081610df95790505b509050835b838111610e6b576000610e268783610cb2565b9050610e3181611868565b83610e3c8885614214565b81518110610e4c57610e4c61423a565b6020026020010181905250508080610e63906141d1565b915050610e13565b5090505b9392505050565b610e7e6122d6565b610e878261237d565b610ab882826123a7565b6000600080516020614cda833981519152610eb8600080516020614d9a8339815191525490565b8310610ee15760405163295f44f760e21b81526000600482015260248101849052604401610c0a565b806002018381548110610ef657610ef661423a565b9060005260206000200154915050919050565b6000610f13612464565b50600080516020614d1a83398151915290565b600160205260009081526040902080548190610f4190614187565b80601f0160208091040260200160405190810160405280929190818152602001828054610f6d90614187565b8015610fba5780601f10610f8f57610100808354040283529160200191610fba565b820191906000526020600020905b815481529060010190602001808311610f9d57829003601f168201915b50506040805160c08101825260019096015460ff80821688526101008204811660208901526201000082048116928801929092526301000000810482166060880152640100000000810482166080880152600160281b90041660a08601525091929150839050565b60006109ee826120d0565b6000600080516020614cfa8339815191526001600160a01b038316611068576040516322718ad960e21b815260006004820152602401610c0a565b6001600160a01b039092166000908152600390920160205250604090205490565b7f4ddd85e313b1db5c4144000907a5124c34f10d6a5ef9c2cddb8e5f4467c74b536110b38161214f565b600383106111035760405162461bcd60e51b815260206004820152601b60248201527f546865427567733a20696e76616c6964207370657369657320494400000000006044820152606401610c0a565b606082016111196101208401610100850161425f565b61112960a083016080840161425f565b611139608084016060850161425f565b611149606085016040860161425f565b611159604086016020870161425f565b611166602087018761425f565b611170919061427c565b61117a919061427c565b611184919061427c565b61118e919061427c565b611198919061427c565b60ff166019146111f55760405162461bcd60e51b815260206004820152602260248201527f54686520427567733a20696e76616c6964206261736520737461747320746f74604482015261185b60f21b6064820152608401610c0a565b6000848152602081905260409020839061120f82826144ec565b505050505050565b600080516020614d7a83398151915261122f8161214f565b6000828152600460205260408120805491610aee836141d1565b7ff0c57e16840df040f15088dc2f81fe391c3923bec73e23a9662efc9c229c6a008054600160401b810460ff1615906001600160401b031660008115801561128e5750825b90506000826001600160401b031660011480156112aa5750303b155b9050811580156112b8575080155b156112d65760405163f92ee8a960e01b815260040160405180910390fd5b845467ffffffffffffffff19166001178555831561130057845460ff60401b1916600160401b1785555b6113086124ad565b6113106124ad565b61135660405180604001604052806008815260200167546865204275677360c01b815250604051806040016040528060048152602001634255475360e01b8152506124b5565b61135e6124ad565b6113666124ad565b611371600033612255565b5061139c7f4ddd85e313b1db5c4144000907a5124c34f10d6a5ef9c2cddb8e5f4467c74b5333612255565b5083156113e357845460ff60401b19168555604051600181527fc7f505b2f371ae2175ee4913f4499e1f2633a7b5936321eed1cdaeb6115181d29060200160405180910390a15b5050505050565b6000828152600080516020614cba83398151915260208190526040822061141190846124c7565b949350505050565b6000918252600080516020614dba833981519152602090815260408084206001600160a01b0393909316845291905290205460ff1690565b7f80bb2b638cc20bc4d0a60d66940f3ab4a00c1d7b313497ca82fb0b4ab00793018054606091600080516020614cfa83398151915291610a1490614187565b6000602081905290815260409020805481906114ab90614187565b80601f01602080910402602001604051908101604052809291908181526020018280546114d790614187565b80156115245780601f106114f957610100808354040283529160200191611524565b820191906000526020600020905b81548152906001019060200180831161150757829003601f168201915b50505050509080600101805461153990614187565b80601f016020809104026020016040519081016040528092919081815260200182805461156590614187565b80156115b25780601f10611587576101008083540402835291602001916115b2565b820191906000526020600020905b81548152906001019060200180831161159557829003601f168201915b5050505050908060020180546115c790614187565b80601f01602080910402602001604051908101604052809291908181526020018280546115f390614187565b80156116405780601f1061161557610100808354040283529160200191611640565b820191906000526020600020905b81548152906001019060200180831161162357829003601f168201915b50506040805160c08101825260039096015460ff80821688526101008204811660208901526201000082048116928801929092526301000000810482166060880152640100000000810482166080880152600160281b90041660a08601525091929150859050565b610ab83383836124d3565b6000818152600080516020614cba8339815191526020819052604090912060609190610e6f90612584565b6116e9848484610be4565b610c6e3385858585612591565b6060600082600481111561170c5761170c613be1565b0361173357505060408051808201909152600681526521b7b6b6b7b760d11b602082015290565b600182600481111561174757611747613be1565b036117705750506040805180820190915260088152672ab731b7b6b6b7b760c11b602082015290565b600282600481111561178457611784613be1565b036117a95750506040805180820190915260048152635261726560e01b602082015290565b60038260048111156117bd576117bd613be1565b036117e25750506040805180820190915260048152634570696360e01b602082015290565b60048260048111156117f6576117f6613be1565b036118205750506040805180820190915260098152684c6567656e6461727960b81b602082015290565b60405162461bcd60e51b815260206004820152601760248201527f546865427567733a20696e76616c6964207261726974790000000000000000006044820152606401610c0a565b6060600061187583611ac4565b6000848152600160205260408120919250606090819061189761084888610af7565b90508360000180546118a890614187565b90506000036118e15784516040516118c4918391602001614613565b60405160208183030381529060405292508460200151915061199b565b835484906118ee90614187565b80601f016020809104026020016040519081016040528092919081815260200182805461191a90614187565b80156119675780601f1061193c57610100808354040283529160200191611967565b820191906000526020600020905b81548152906001019060200180831161194a57829003601f168201915b505050505092508460000151856020015160405160200161198992919061464f565b60405160208183030381529060405291505b60008386600001518488604001516119b489878e6126b3565b6040516020016119c895949392919061468c565b60405160208183030381529060405290506119e281612858565b6040516020016119f2919061478b565b6040516020818303038152906040529650505050505050919050565b6000818152600080516020614cba833981519152602081905260408220610e6f9061287e565b7f9f2df0fed2c77648de5860a4cc508cd0818c85b8b8a1ab4ceeef8d981c8956a6611a5e8161214f565b611a9e8484848080601f01602080910402602001604051908101604052809392919081815260200183838082843760009201919091525061288892505050565b6113e38585612972565b611ab182610c74565b611aba8161214f565b610c6e838361229a565b611acc613a8a565b600080611ad88461298c565b8152602001908152602001600020604051806080016040529081600082018054611b0190614187565b80601f0160208091040260200160405190810160405280929190818152602001828054611b2d90614187565b8015611b7a5780601f10611b4f57610100808354040283529160200191611b7a565b820191906000526020600020905b815481529060010190602001808311611b5d57829003601f168201915b50505050508152602001600182018054611b9390614187565b80601f0160208091040260200160405190810160405280929190818152602001828054611bbf90614187565b8015611c0c5780601f10611be157610100808354040283529160200191611c0c565b820191906000526020600020905b815481529060010190602001808311611bef57829003601f168201915b50505050508152602001600282018054611c2590614187565b80601f0160208091040260200160405190810160405280929190818152602001828054611c5190614187565b8015611c9e5780601f10611c7357610100808354040283529160200191611c9e565b820191906000526020600020905b815481529060010190602001808311611c8157829003601f168201915b50505091835250506040805160c0810182526003939093015460ff8082168552610100820481166020868101919091526201000083048216938601939093526301000000820481166060860152640100000000820481166080860152600160281b9091041660a0840152015292915050565b6001600160a01b0391821660009081527f80bb2b638cc20bc4d0a60d66940f3ab4a00c1d7b313497ca82fb0b4ab00793056020908152604080832093909416825291909152205460ff1690565b611d65613ab7565b6000611d7083610af7565b9050600080826004811115611d8757611d87613be1565b03611d9457506005611e14565b6001826004811115611da857611da8613be1565b03611db557506008611e14565b6002826004811115611dc957611dc9613be1565b03611dd65750600b611e14565b6003826004811115611dea57611dea613be1565b03611df75750600e611e14565b6004826004811115611e0b57611e0b613be1565b03611e14575060115b600084604051602001611e3c918152694154545249425554455360b01b6020820152602a0190565b60408051601f198184030181528282528051602091820120600680855260e0850190935293506000929190820160c08036833701905050905060005b83811015611eeb576000611e8d600685614200565b9050828181518110611ea157611ea161423a565b602002602001018051809190611eb6906147d0565b60ff1690525060408051602081018690520160408051601f198184030181529190528051602090910120935050600101611e78565b506000806000611efa8961298c565b815260208082019290925260409081016000908120825160c0808201855260039092015460ff808216835261010082048116968301969096526201000081048616828601526301000000810486166060830152640100000000810486166080830152600160281b900490941660a085015282519081019092528451929350909182918591611f8a57611f8a61423a565b60200260200101518360000151611fa1919061427c565b60ff16815260200183600181518110611fbc57611fbc61423a565b60200260200101518360200151611fd3919061427c565b60ff16815260200183600281518110611fee57611fee61423a565b60200260200101518360400151612005919061427c565b60ff168152602001836003815181106120205761202061423a565b60200260200101518360600151612037919061427c565b60ff168152602001836004815181106120525761205261423a565b60200260200101518360800151612069919061427c565b60ff168152602001836005815181106120845761208461423a565b60200260200101518360a0015161209b919061427c565b60ff169052979650505050505050565b60006001600160e01b0319821663780e9d6360e01b14806109ee57506109ee826129d6565b6000806120dc83612a16565b90506001600160a01b0381166109ee57604051637e27328960e01b815260048101849052602401610c0a565b60009081527f80bb2b638cc20bc4d0a60d66940f3ab4a00c1d7b313497ca82fb0b4ab007930460205260409020546001600160a01b031690565b610d598383836001612a50565b6121598133612b66565b50565b60008061216a858585612b9f565b90506001600160a01b0381166121f3576121ee84600080516020614d9a833981519152805460008381527f645e039705490088daad89bae25049a34f4a9072d398537b1ab2425f24cbed0360205260408120829055600182018355919091527fa42f15e5d656f8155fd7419d740a6073999f19cd6e061449ce4a257150545bf20155565b612216565b846001600160a01b0316816001600160a01b031614612216576122168185612ca9565b6001600160a01b0385166122325761222d84612d45565b611411565b846001600160a01b0316816001600160a01b031614611411576114118585612e1c565b6000600080516020614cba833981519152816122718585612e77565b905080156114115760008581526020839052604090206122919085612f1c565b50949350505050565b6000600080516020614cba833981519152816122b68585612f31565b905080156114115760008581526020839052604090206122919085612fad565b306001600160a01b037f000000000000000000000000000000000000000000000000000000000000000016148061235d57507f00000000000000000000000000000000000000000000000000000000000000006001600160a01b0316612351600080516020614d1a833981519152546001600160a01b031690565b6001600160a01b031614155b1561237b5760405163703e46dd60e11b815260040160405180910390fd5b565b7f189ab7a9244df0848122154315af71fe140f3db0fe014031783b0946b8c9d2e3610ab88161214f565b816001600160a01b03166352d1902d6040518163ffffffff1660e01b8152600401602060405180830381865afa925050508015612401575060408051601f3d908101601f191682019092526123fe918101906147ef565b60015b61242957604051634c9c8ce360e01b81526001600160a01b0383166004820152602401610c0a565b600080516020614d1a833981519152811461245a57604051632a87526960e21b815260048101829052602401610c0a565b610d598383612fc2565b306001600160a01b037f0000000000000000000000000000000000000000000000000000000000000000161461237b5760405163703e46dd60e11b815260040160405180910390fd5b61237b613018565b6124bd613018565b610ab88282613061565b6000610e6f8383613092565b600080516020614cfa8339815191526001600160a01b03831661251457604051630b61174360e31b81526001600160a01b0384166004820152602401610c0a565b6001600160a01b038481166000818152600584016020908152604080832094881680845294825291829020805460ff191687151590811790915591519182527f17307eab39ab6107e8899845ad3d59bd9653f200f220920489ca2b5937696c31910160405180910390a350505050565b60606000610e6f836130bc565b6001600160a01b0383163b156113e357604051630a85bd0160e11b81526001600160a01b0384169063150b7a02906125d3908890889087908790600401614808565b6020604051808303816000875af192505050801561260e575060408051601f3d908101601f1916820190925261260b91810190614845565b60015b612677573d80801561263c576040519150601f19603f3d011682016040523d82523d6000602084013e612641565b606091505b50805160000361266f57604051633250574960e11b81526001600160a01b0385166004820152602401610c0a565b805181602001fd5b6001600160e01b03198116630a85bd0160e11b1461120f57604051633250574960e11b81526001600160a01b0385166004820152602401610c0a565b60606126bd613ab7565b805160ff166000036126d9576126d283611d5d565b9050612738565b506040805160c081018252600186015460ff80821683526101008204811660208401526201000082048116938301939093526301000000810483166060830152640100000000810483166080830152600160281b900490911660a08201525b6127606040518060400160405280600681526020016552617269747960d01b81525085613118565b61276982613144565b60408051808201825260048082526352756e7360e01b6020808401919091526000898152918152838220546003825284832054600290925293909120546127c393916127b491614227565b6127be9190614227565b61329c565b6127fc6040518060400160405280600481526020016357696e7360e01b815250600260008981526020019081526020016000205461329c565b6040805180820190915260078152665072656d69756d60c81b602082015261282b9060ff89901c6001146132b9565b60405160200161283f959493929190614862565b6040516020818303038152906040529150509392505050565b60606109ee82604051806060016040528060408152602001614d3a60409139600161332c565b60006109ee825490565b600061289383611d5d565b604080518082018252848152602080820184905260008781526001909152919091208151929350909181906128c8908261491c565b50602091820151805160019290920180549382015160408301516060840151608085015160a09095015160ff96871661ffff1990981697909717610100938716939093029290921763ffff00001916620100009186169190910263ff0000001916176301000000918516919091021765ffff0000000019166401000000009284169290920265ff0000000000191691909117600160281b9290931691909102919091179055505050565b610ab88282604051806020016040528060008152506134ab565b60006003826040516020016129b3918152665350454349455360c81b602082015260270190565b6040516020818303038152906040528051906020012060001c6109ee9190614200565b60006001600160e01b031982166380ac58cd60e01b1480612a0757506001600160e01b03198216635b5e139f60e01b145b806109ee57506109ee826134c3565b60009081527f80bb2b638cc20bc4d0a60d66940f3ab4a00c1d7b313497ca82fb0b4ab007930260205260409020546001600160a01b031690565b600080516020614cfa8339815191528180612a7357506001600160a01b03831615155b15612b35576000612a83856120d0565b90506001600160a01b03841615801590612aaf5750836001600160a01b0316816001600160a01b031614155b8015612ac25750612ac08185611d10565b155b15612aeb5760405163a9fbf51f60e01b81526001600160a01b0385166004820152602401610c0a565b8215612b335784866001600160a01b0316826001600160a01b03167f8c5be1e5ebec7d5bd14f71427d1e84f3dd0314c0f7b2291e5b200ac8c7c3b92560405160405180910390a45b505b600093845260040160205250506040902080546001600160a01b0319166001600160a01b0392909216919091179055565b612b708282611419565b610ab85760405163e2517d3f60e01b81526001600160a01b038216600482015260248101839052604401610c0a565b6000600080516020614cfa83398151915281612bba85612a16565b90506001600160a01b03841615612bd657612bd68185876134e8565b6001600160a01b03811615612c1657612bf3600086600080612a50565b6001600160a01b0381166000908152600383016020526040902080546000190190555b6001600160a01b03861615612c47576001600160a01b03861660009081526003830160205260409020805460010190555b600085815260028301602052604080822080546001600160a01b0319166001600160a01b038a811691821790925591518893918516917fddf252ad1be2c89b69c2b068fc378daa952ba7f163c4a11628f55a4df523b3ef91a495945050505050565b600080516020614cda8339815191526000612cc38461102d565b60008481526001840160209081526040808320546001600160a01b03891684529186905290912091925090818314612d1d576000838152602082815260408083205485845281842081905583526001870190915290208290555b6000948552600190930160209081526040808620869055928552929092528220919091555050565b600080516020614d9a83398151915254600080516020614cda83398151915290600090612d7490600190614214565b6000848152600384016020526040812054600285018054939450909284908110612da057612da061423a565b9060005260206000200154905080846002018381548110612dc357612dc361423a565b600091825260208083209091019290925582815260038601909152604080822084905586825281205560028401805480612dff57612dff6149d4565b600190038181906000526020600020016000905590555050505050565b600080516020614cda83398151915260006001612e388561102d565b612e429190614214565b6001600160a01b0390941660009081526020838152604080832087845282528083208690559482526001909301909252502055565b6000600080516020614dba833981519152612e928484611419565b612f12576000848152602082815260408083206001600160a01b03871684529091529020805460ff19166001179055612ec83390565b6001600160a01b0316836001600160a01b0316857f2f8788117e7eff1d82e926ec794901d17c78024a50270940304540a733656f0d60405160405180910390a460019150506109ee565b60009150506109ee565b6000610e6f836001600160a01b03841661354c565b6000600080516020614dba833981519152612f4c8484611419565b15612f12576000848152602082815260408083206001600160a01b0387168085529252808320805460ff1916905551339287917ff6391f5c32d9c69d2a47ea670b442974b53935d1edc7fd64eb21e047a839171b9190a460019150506109ee565b6000610e6f836001600160a01b03841661359b565b612fcb82613684565b6040516001600160a01b038316907fbc7cd75a20ee27fd9adebab32041f755214dbc6bffa90cc0225b39da2e5c2d3b90600090a280511561301057610d5982826136e9565b610ab861375f565b7ff0c57e16840df040f15088dc2f81fe391c3923bec73e23a9662efc9c229c6a0054600160401b900460ff1661237b57604051631afcd79f60e31b815260040160405180910390fd5b613069613018565b600080516020614cfa83398151915280613083848261491c565b5060018101610c6e838261491c565b60008260000182815481106130a9576130a961423a565b9060005260206000200154905092915050565b60608160000180548060200260200160405190810160405280929190818152602001828054801561310c57602002820191906000526020600020905b8154815260200190600101908083116130f8575b50505050509050919050565b6060828260405160200161312d9291906149ea565b604051602081830303815290604052905092915050565b606061317b6040518060400160405280600c81526020016b496e74656c6c6967656e636560a01b815250836000015160ff1661377e565b6131ae6040518060400160405280600a8152602001694e696d626c656e65737360b01b815250846020015160ff1661377e565b6131df604051806040016040528060088152602001670a6e8e4cadccee8d60c31b815250856040015160ff1661377e565b61321160405180604001604052806009815260200168456e647572616e636560b81b815250866060015160ff1661377e565b613242604051806040016040528060088152602001674368617269736d6160c01b815250876080015160ff1661377e565b6132716040518060400160405280600681526020016515185b195b9d60d21b8152508860a0015160ff1661377e565b60405160200161328696959493929190614a78565b6040516020818303038152906040529050919050565b6060826132a88361379b565b60405160200161312d929190614b46565b60608082156132e357506040805180820190915260048152637472756560e01b6020820152613301565b5060408051808201909152600581526466616c736560d81b60208201525b8381604051602001613314929190614bef565b60405160208183030381529060405291505092915050565b6060835160000361334c5750604080516020810190915260008152610e6f565b60008261337d576003855160046133639190614c72565b61336e906002614227565b6133789190614c89565b6133a2565b60038551600261338d9190614227565b6133979190614c89565b6133a2906004614c72565b90506000816001600160401b038111156133be576133be613d20565b6040519080825280601f01601f1916602001820160405280156133e8576020820181803683370190505b50905060018501602082018788518901602081018051600082525b8284101561345e576003840193508351603f8160121c168701518653600186019550603f81600c1c168701518653600186019550603f8160061c168701518653600186019550603f8116870151865350600185019450613403565b90525050851561349f5760038851066001811461348257600281146134955761349d565b603d6001830353603d600283035361349d565b603d60018303535b505b50909695505050505050565b6134b5838361382e565b610d59336000858585612591565b60006001600160e01b03198216635a05180f60e01b14806109ee57506109ee82613893565b6134f38383836138c8565b610d59576001600160a01b03831661352157604051637e27328960e01b815260048101829052602401610c0a565b60405163177e802f60e01b81526001600160a01b038316600482015260248101829052604401610c0a565b6000818152600183016020526040812054613593575081546001818101845560008481526020808220909301849055845484825282860190935260409020919091556109ee565b5060006109ee565b60008181526001830160205260408120548015612f125760006135bf600183614214565b85549091506000906135d390600190614214565b90508082146136385760008660000182815481106135f3576135f361423a565b90600052602060002001549050808760000184815481106136165761361661423a565b6000918252602080832090910192909255918252600188019052604090208390555b8554869080613649576136496149d4565b6001900381819060005260206000200160009055905585600101600086815260200190815260200160002060009055600193505050506109ee565b806001600160a01b03163b6000036136ba57604051634c9c8ce360e01b81526001600160a01b0382166004820152602401610c0a565b600080516020614d1a83398151915280546001600160a01b0319166001600160a01b0392909216919091179055565b6060600080846001600160a01b0316846040516137069190614c9d565b600060405180830381855af49150503d8060008114613741576040519150601f19603f3d011682016040523d82523d6000602084013e613746565b606091505b509150915061375685838361392d565b95945050505050565b341561237b5760405163b398979f60e01b815260040160405180910390fd5b60608261378a8361379b565b60405160200161312d929190614bef565b606060006137a883613989565b60010190506000816001600160401b038111156137c7576137c7613d20565b6040519080825280601f01601f1916602001820160405280156137f1576020820181803683370190505b5090508181016020015b600019016f181899199a1a9b1b9c1cb0b131b232b360811b600a86061a8153600a85049450846137fb575b509392505050565b6001600160a01b03821661385857604051633250574960e11b815260006004820152602401610c0a565b60006138668383600061215c565b90506001600160a01b03811615610d59576040516339e3563760e11b815260006004820152602401610c0a565b60006001600160e01b03198216637965db0b60e01b14806109ee57506301ffc9a760e01b6001600160e01b03198316146109ee565b60006001600160a01b038316158015906114115750826001600160a01b0316846001600160a01b0316148061390257506139028484611d10565b806114115750826001600160a01b031661391b83612108565b6001600160a01b031614949350505050565b6060826139425761393d82613a61565b610e6f565b815115801561395957506001600160a01b0384163b155b1561398257604051639996b31560e01b81526001600160a01b0385166004820152602401610c0a565b5080610e6f565b60008072184f03e93ff9f4daa797ed6e38ed64bf6a1f0160401b83106139c85772184f03e93ff9f4daa797ed6e38ed64bf6a1f0160401b830492506040015b6d04ee2d6d415b85acef810000000083106139f4576d04ee2d6d415b85acef8100000000830492506020015b662386f26fc100008310613a1257662386f26fc10000830492506010015b6305f5e1008310613a2a576305f5e100830492506008015b6127108310613a3e57612710830492506004015b60648310613a50576064830492506002015b600a83106109ee5760010192915050565b805115613a715780518082602001fd5b60405163d6bda27560e01b815260040160405180910390fd5b6040518060800160405280606081526020016060815260200160608152602001613ab2613ab7565b905290565b6040805160c081018252600080825260208201819052918101829052606081018290526080810182905260a081019190915290565b6001600160e01b03198116811461215957600080fd5b600060208284031215613b1457600080fd5b8135610e6f81613aec565b600060208284031215613b3157600080fd5b5035919050565b60005b83811015613b53578181015183820152602001613b3b565b50506000910152565b60008151808452613b74816020860160208601613b38565b601f01601f19169290920160200192915050565b602081526000610e6f6020830184613b5c565b80356001600160a01b0381168114613bb257600080fd5b919050565b60008060408385031215613bca57600080fd5b613bd383613b9b565b946020939093013593505050565b634e487b7160e01b600052602160045260246000fd5b6020810160058310613c1957634e487b7160e01b600052602160045260246000fd5b91905290565b600080600060608486031215613c3457600080fd5b613c3d84613b9b565b9250613c4b60208501613b9b565b929592945050506040919091013590565b60008060408385031215613c6f57600080fd5b82359150613c7f60208401613b9b565b90509250929050565b600080600060608486031215613c9d57600080fd5b613ca684613b9b565b95602085013595506040909401359392505050565b6000602082016020835280845180835260408501915060408160051b86010192506020860160005b82811015613d1457603f19878603018452613cff858351613b5c565b94506020938401939190910190600101613ce3565b50929695505050505050565b634e487b7160e01b600052604160045260246000fd5b600082601f830112613d4757600080fd5b81356001600160401b03811115613d6057613d60613d20565b604051601f8201601f19908116603f011681016001600160401b0381118282101715613d8e57613d8e613d20565b604052818152838201602001851015613da657600080fd5b816020850160208301376000918101602001919091529392505050565b60008060408385031215613dd657600080fd5b613ddf83613b9b565b915060208301356001600160401b03811115613dfa57600080fd5b613e0685828601613d36565b9150509250929050565b60ff815116825260ff602082015116602083015260ff604082015116604083015260ff606082015116606083015260ff608082015116608083015260ff60a08201511660a08301525050565b60e081526000613e6f60e0830185613b5c565b9050610e6f6020830184613e10565b600060208284031215613e9057600080fd5b610e6f82613b9b565b60008060408385031215613eac57600080fd5b8235915060208301356001600160401b03811115613ec957600080fd5b83016101208186031215613edc57600080fd5b809150509250929050565b60008060408385031215613efa57600080fd5b50508035926020909101359150565b61012081526000613f1e610120830187613b5c565b8281036020840152613f308187613b5c565b90508281036040840152613f448186613b5c565b9150506137566060830184613e10565b60008060408385031215613f6757600080fd5b613f7083613b9b565b915060208301358015158114613edc57600080fd5b602080825282518282018190526000918401906040840190835b81811015613fc65783516001600160a01b0316835260209384019390920191600101613f9f565b509095945050505050565b60008060008060808587031215613fe757600080fd5b613ff085613b9b565b9350613ffe60208601613b9b565b92506040850135915060608501356001600160401b0381111561402057600080fd5b61402c87828801613d36565b91505092959194509250565b60006020828403121561404a57600080fd5b813560058110610e6f57600080fd5b6000806000806060858703121561406f57600080fd5b61407885613b9b565b93506020850135925060408501356001600160401b0381111561409a57600080fd5b8501601f810187136140ab57600080fd5b80356001600160401b038111156140c157600080fd5b8760208284010111156140d357600080fd5b949793965060200194505050565b602081526000825161012060208401526140ff610140840182613b5c565b90506020840151601f1984830301604085015261411c8282613b5c565b9150506040840151601f1984830301606085015261413a8282613b5c565b91505060608401516138266080850182613e10565b6000806040838503121561416257600080fd5b61416b83613b9b565b9150613c7f60208401613b9b565b60c081016109ee8284613e10565b600181811c9082168061419b57607f821691505b602082108103610bde57634e487b7160e01b600052602260045260246000fd5b634e487b7160e01b600052601160045260246000fd5b6000600182016141e3576141e36141bb565b5060010190565b634e487b7160e01b600052601260045260246000fd5b60008261420f5761420f6141ea565b500690565b818103818111156109ee576109ee6141bb565b808201808211156109ee576109ee6141bb565b634e487b7160e01b600052603260045260246000fd5b60ff8116811461215957600080fd5b60006020828403121561427157600080fd5b8135610e6f81614250565b60ff81811683821601908111156109ee576109ee6141bb565b6000808335601e198436030181126142ac57600080fd5b8301803591506001600160401b038211156142c657600080fd5b6020019150368190038213156142db57600080fd5b9250929050565b601f821115610d5957806000526020600020601f840160051c810160208510156143095750805b601f840160051c820191505b818110156113e35760008155600101614315565b600019600383901b1c191660019190911b1790565b6001600160401b0383111561435557614355613d20565b614369836143638354614187565b836142e2565b6000601f84116001811461439757600085156143855750838201355b61438f8682614329565b8455506113e3565b600083815260209020601f19861690835b828110156143c857868501358255602094850194600190920191016143a8565b50868210156143e55760001960f88860031b161c19848701351681555b505060018560011b0183555050505050565b600081356109ee81614250565b813561440f81614250565b60ff8116905081548160ff198216178355602084013561442e81614250565b61ff008160081b168361ffff198416171784555050506000604083013561445481614250565b825462ff0000191660109190911b62ff0000161782555061449461447a606084016143f7565b825463ff000000191660189190911b63ff00000016178255565b6144bf6144a3608084016143f7565b825464ff00000000191660209190911b64ff0000000016178255565b610ab86144ce60a084016143f7565b825465ff0000000000191660289190911b65ff000000000016178255565b6144f68283614295565b6001600160401b0381111561450d5761450d613d20565b6145218161451b8554614187565b856142e2565b6000601f82116001811461454f576000831561453d5750838201355b6145478482614329565b8655506145a9565b600085815260209020601f19841690835b828110156145805786850135825560209485019460019092019101614560565b508482101561459d5760001960f88660031b161c19848701351681555b505060018360011b0185555b505050506145ba6020830183614295565b6145c881836001860161433e565b50506145d76040830183614295565b6145e581836002860161433e565b5050610ab86060830160038301614404565b60008151614609818560208601613b38565b9290920192915050565b60008351614625818460208801613b38565b600160fd1b9083019081528351614643816001840160208801613b38565b01600101949350505050565b60008351614661818460208801613b38565b6101d160f51b9083019081528351614680816002840160208801613b38565b01600201949350505050565b607b60f81b815268113730b6b2911d101160b91b600182015285516000906146bb81600a850160208b01613b38565b61088b60f21b600a918401918201526b1139b832b1b4b2b9911d101160a11b600c8201526146ec60188201886145f7565b61088b60f21b815290506f113232b9b1b934b83a34b7b7111d101160811b600282015261471c60128201876145f7565b61088b60f21b81529050691134b6b0b3b2911d101160b11b6002820152614746600c8201866145f7565b61088b60f21b815290506c1130ba3a3934b13aba32b9911d60991b6002820152614773600f8201856145f7565b607d60f81b815290505b600101979650505050505050565b7f646174613a6170706c69636174696f6e2f6a736f6e3b6261736536342c0000008152600082516147c381601d850160208701613b38565b91909101601d0192915050565b600060ff821660ff81036147e6576147e66141bb565b60010192915050565b60006020828403121561480157600080fd5b5051919050565b6001600160a01b038581168252841660208201526040810183905260806060820181905260009061483b90830184613b5c565b9695505050505050565b60006020828403121561485757600080fd5b8151610e6f81613aec565b605b60f81b81526000865161487e816001850160208b01613b38565b600b60fa1b600191840191820152865161489f816002840160208b01613b38565b600181830101915050600b60fa1b600182015285516148c5816002840160208a01613b38565b600181830101915050600b60fa1b600182015284516148eb816002840160208901613b38565b01600181019061490190600201600b60fa1b9052565b61490e60028201856145f7565b605d60f81b8152905061477d565b81516001600160401b0381111561493557614935613d20565b614949816149438454614187565b846142e2565b6020601f82116001811461497757600083156149655750848201515b61496f8482614329565b8555506113e3565b600084815260208120601f198516915b828110156149a75787850151825560209485019460019092019101614987565b50848210156149c55786840151600019600387901b60f8161c191681555b50505050600190811b01905550565b634e487b7160e01b600052603160045260246000fd5b607b60f81b81526e113a3930b4ba2fba3cb832911d101160891b60018201528251600090614a1f816010850160208801613b38565b61088b60f21b60109184019182015269113b30b63ab2911d101160b11b60128201528351614a5481601c840160208801613b38565b601160f91b601c9290910191820152607d60f81b601d820152601e01949350505050565b60008751614a8a818460208c01613b38565b600b60fa1b9083019081528751614aa8816001840160208c01613b38565b600b60fa1b600192909101918201528651614aca816002840160208b01613b38565b600181830101915050600b60fa1b60018201528551614af0816002840160208a01613b38565b600181830101915050600b60fa1b60018201528451614b16816002840160208901613b38565b016001810190614b2c90600201600b60fa1b9052565b614b3960028201856145f7565b9998505050505050505050565b607b60f81b81527f22646973706c61795f74797065223a20226e756d626572222c0000000000000060018201526e113a3930b4ba2fba3cb832911d101160891b601a8201528251600090614ba1816029850160208801613b38565b61088b60f21b602991840191820152680113b30b63ab2911d160bd1b602b8201528351614bd5816034840160208801613b38565b607d60f81b60349290910191820152603501949350505050565b607b60f81b81526e113a3930b4ba2fba3cb832911d101160891b60018201528251600090614c24816010850160208801613b38565b61088b60f21b601091840191820152680113b30b63ab2911d160bd1b60128201528351614c5881601b840160208801613b38565b607d60f81b601b9290910191820152601c01949350505050565b80820281158282048414176109ee576109ee6141bb565b600082614c9857614c986141ea565b500490565b60008251614caf818460208701613b38565b919091019291505056fec1f6fe24621ce81ec5827caf0253cadb74709b061630e6b55e82371705932000645e039705490088daad89bae25049a34f4a9072d398537b1ab2425f24cbed0080bb2b638cc20bc4d0a60d66940f3ab4a00c1d7b313497ca82fb0b4ab0079300360894a13ba1a3210667c828492db98dca3e2076cc3735a920a3ca505d382bbc4142434445464748494a4b4c4d4e4f505152535455565758595a6162636465666768696a6b6c6d6e6f707172737475767778797a303132333435363738392b2f9a1bd8d81ac0ba42ed118addea0a540ed617421043f1e9ed44197db296fd3d49645e039705490088daad89bae25049a34f4a9072d398537b1ab2425f24cbed0202dd7bc7dec4dceedda775e58dd541e08a116c6c53815c0bd028192f7b626800a2646970667358221220a6b0c0e71471b5bd00b679184560a52eb49c50920d63fcc964fc71c9e4a5a1d664736f6c634300081c0033",
  "linkReferences": {},
  "deployedLinkReferences": {}
}