{
  "_format": "hh-sol-artifact-1",
  "contractName": "TheBugs",
  "sourceName": "contracts/TheBugs.sol",
  "abi": [
    {
      "inputs": [],
      "stateMutability": "nonpayable",
      "type": "constructor"
    },
    {
      "inputs": [],
      "name": "AccessControlBadConfirmation",
      "type": "error"
    },
    {
      "inputs": [
        {
          "internalType": "address",
          "name": "account",
          "type": "address"
        },
        {
          "internalType": "bytes32",
          "name": "neededRole",
          "type": "bytes32"
        }
      ],
      "name": "AccessControlUnauthorizedAccount",
      "type": "error"
    },
    {
      "inputs": [
        {
          "internalType": "address",
          "name": "target",
          "type": "address"
        }
      ],
      "name": "AddressEmptyCode",
      "type": "error"
    },
    {
      "inputs": [
        {
          "internalType": "address",
          "name": "implementation",
          "type": "address"
        }
      ],
      "name": "ERC1967InvalidImplementation",
      "type": "error"
    },
    {
      "inputs": [],
      "name": "ERC1967NonPayable",
      "type": "error"
    },
    {
      "inputs": [],
      "name": "ERC721EnumerableForbiddenBatchMint",
      "type": "error"
    },
    {
      "inputs": [
        {
          "internalType": "address",
          "name": "sender",
          "type": "address"
        },
        {
          "internalType": "uint256",
          "name": "tokenId",
          "type": "uint256"
        },
        {
          "internalType": "address",
          "name": "owner",
          "type": "address"
        }
      ],
      "name": "ERC721IncorrectOwner",
      "type": "error"
    },
    {
      "inputs": [
        {
          "internalType": "address",
          "name": "operator",
          "type": "address"
        },
        {
          "internalType": "uint256",
          "name": "tokenId",
          "type": "uint256"
        }
      ],
      "name": "ERC721InsufficientApproval",
      "type": "error"
    },
    {
      "inputs": [
        {
          "internalType": "address",
          "name": "approver",
          "type": "address"
        }
      ],
      "name": "ERC721InvalidApprover",
      "type": "error"
    },
    {
      "inputs": [
        {
          "internalType": "address",
          "name": "operator",
          "type": "address"
        }
      ],
      "name": "ERC721InvalidOperator",
      "type": "error"
    },
    {
      "inputs": [
        {
          "internalType": "address",
          "name": "owner",
          "type": "address"
        }
      ],
      "name": "ERC721InvalidOwner",
      "type": "error"
    },
    {
      "inputs": [
        {
          "internalType": "address",
          "name": "receiver",
          "type": "address"
        }
      ],
      "name": "ERC721InvalidReceiver",
      "type": "error"
    },
    {
      "inputs": [
        {
          "internalType": "address",
          "name": "sender",
          "type": "address"
        }
      ],
      "name": "ERC721InvalidSender",
      "type": "error"
    },
    {
      "inputs": [
        {
          "internalType": "uint256",
          "name": "tokenId",
          "type": "uint256"
        }
      ],
      "name": "ERC721NonexistentToken",
      "type": "error"
    },
    {
      "inputs": [
        {
          "internalType": "address",
          "name": "owner",
          "type": "address"
        },
        {
          "internalType": "uint256",
          "name": "index",
          "type": "uint256"
        }
      ],
      "name": "ERC721OutOfBoundsIndex",
      "type": "error"
    },
    {
      "inputs": [],
      "name": "FailedCall",
      "type": "error"
    },
    {
      "inputs": [],
      "name": "InvalidInitialization",
      "type": "error"
    },
    {
      "inputs": [],
      "name": "NotInitializing",
      "type": "error"
    },
    {
      "inputs": [],
      "name": "UUPSUnauthorizedCallContext",
      "type": "error"
    },
    {
      "inputs": [
        {
          "internalType": "bytes32",
          "name": "slot",
          "type": "bytes32"
        }
      ],
      "name": "UUPSUnsupportedProxiableUUID",
      "type": "error"
    },
    {
      "anonymous": false,
      "inputs": [
        {
          "indexed": true,
          "internalType": "address",
          "name": "owner",
          "type": "address"
        },
        {
          "indexed": true,
          "internalType": "address",
          "name": "approved",
          "type": "address"
        },
        {
          "indexed": true,
          "internalType": "uint256",
          "name": "tokenId",
          "type": "uint256"
        }
      ],
      "name": "Approval",
      "type": "event"
    },
    {
      "anonymous": false,
      "inputs": [
        {
          "indexed": true,
          "internalType": "address",
          "name": "owner",
          "type": "address"
        },
        {
          "indexed": true,
          "internalType": "address",
          "name": "operator",
          "type": "address"
        },
        {
          "indexed": false,
          "internalType": "bool",
          "name": "approved",
          "type": "bool"
        }
      ],
      "name": "ApprovalForAll",
      "type": "event"
    },
    {
      "anonymous": false,
      "inputs": [
        {
          "indexed": false,
          "internalType": "uint64",
          "name": "version",
          "type": "uint64"
        }
      ],
      "name": "Initialized",
      "type": "event"
    },
    {
      "anonymous": false,
      "inputs": [
        {
          "indexed": true,
          "internalType": "bytes32",
          "name": "role",
          "type": "bytes32"
        },
        {
          "indexed": true,
          "internalType": "bytes32",
          "name": "previousAdminRole",
          "type": "bytes32"
        },
        {
          "indexed": true,
          "internalType": "bytes32",
          "name": "newAdminRole",
          "type": "bytes32"
        }
      ],
      "name": "RoleAdminChanged",
      "type": "event"
    },
    {
      "anonymous": false,
      "inputs": [
        {
          "indexed": true,
          "internalType": "bytes32",
          "name": "role",
          "type": "bytes32"
        },
        {
          "indexed": true,
          "internalType": "address",
          "name": "account",
          "type": "address"
        },
        {
          "indexed": true,
          "internalType": "address",
          "name": "sender",
          "type": "address"
        }
      ],
      "name": "RoleGranted",
      "type": "event"
    },
    {
      "anonymous": false,
      "inputs": [
        {
          "indexed": true,
          "internalType": "bytes32",
          "name": "role",
          "type": "bytes32"
        },
        {
          "indexed": true,
          "internalType": "address",
          "name": "account",
          "type": "address"
        },
        {
          "indexed": true,
          "internalType": "address",
          "name": "sender",
          "type": "address"
        }
      ],
      "name": "RoleRevoked",
      "type": "event"
    },
    {
      "anonymous": false,
      "inputs": [
        {
          "indexed": true,
          "internalType": "address",
          "name": "from",
          "type": "address"
        },
        {
          "indexed": true,
          "internalType": "address",
          "name": "to",
          "type": "address"
        },
        {
          "indexed": true,
          "internalType": "uint256",
          "name": "tokenId",
          "type": "uint256"
        }
      ],
      "name": "Transfer",
      "type": "event"
    },
    {
      "anonymous": false,
      "inputs": [
        {
          "indexed": true,
          "internalType": "address",
          "name": "implementation",
          "type": "address"
        }
      ],
      "name": "Upgraded",
      "type": "event"
    },
    {
      "inputs": [],
      "name": "DATA_SETTER_ROLE",
      "outputs": [
        {
          "internalType": "bytes32",
          "name": "",
          "type": "bytes32"
        }
      ],
      "stateMutability": "view",
      "type": "function"
    },
    {
      "inputs": [],
      "name": "DEFAULT_ADMIN_ROLE",
      "outputs": [
        {
          "internalType": "bytes32",
          "name": "",
          "type": "bytes32"
        }
      ],
      "stateMutability": "view",
      "type": "function"
    },
    {
      "inputs": [],
      "name": "MINTER_ROLE",
      "outputs": [
        {
          "internalType": "bytes32",
          "name": "",
          "type": "bytes32"
        }
      ],
      "stateMutability": "view",
      "type": "function"
    },
    {
      "inputs": [],
      "name": "SPECIES_COUNT",
      "outputs": [
        {
          "internalType": "uint256",
          "name": "",
          "type": "uint256"
        }
      ],
      "stateMutability": "view",
      "type": "function"
    },
    {
      "inputs": [],
      "name": "UPGRADER_ROLE",
      "outputs": [
        {
          "internalType": "bytes32",
          "name": "",
          "type": "bytes32"
        }
      ],
      "stateMutability": "view",
      "type": "function"
    },
    {
      "inputs": [],
      "name": "UPGRADE_INTERFACE_VERSION",
      "outputs": [
        {
          "internalType": "string",
          "name": "",
          "type": "string"
        }
      ],
      "stateMutability": "view",
      "type": "function"
    },
    {
      "inputs": [
        {
          "internalType": "address",
          "name": "to",
          "type": "address"
        },
        {
          "internalType": "uint256",
          "name": "tokenId",
          "type": "uint256"
        }
      ],
      "name": "approve",
      "outputs": [],
      "stateMutability": "nonpayable",
      "type": "function"
    },
    {
      "inputs": [
        {
          "internalType": "address",
          "name": "owner",
          "type": "address"
        }
      ],
      "name": "balanceOf",
      "outputs": [
        {
          "internalType": "uint256",
          "name": "",
          "type": "uint256"
        }
      ],
      "stateMutability": "view",
      "type": "function"
    },
    {
      "inputs": [
        {
          "internalType": "uint256",
          "name": "",
          "type": "uint256"
        }
      ],
      "name": "bugDatas",
      "outputs": [
        {
          "internalType": "string",
          "name": "name",
          "type": "string"
        },
        {
          "components": [
            {
              "internalType": "uint8",
              "name": "intelligence",
              "type": "uint8"
            },
            {
              "internalType": "uint8",
              "name": "nimbleness",
              "type": "uint8"
            },
            {
              "internalType": "uint8",
              "name": "strength",
              "type": "uint8"
            },
            {
              "internalType": "uint8",
              "name": "endurance",
              "type": "uint8"
            },
            {
              "internalType": "uint8",
              "name": "charisma",
              "type": "uint8"
            },
            {
              "internalType": "uint8",
              "name": "talent",
              "type": "uint8"
            }
          ],
          "internalType": "struct TheBugs.Attributes",
          "name": "attributes",
          "type": "tuple"
        }
      ],
      "stateMutability": "view",
      "type": "function"
    },
    {
      "inputs": [
        {
          "internalType": "uint256",
          "name": "tokenId",
          "type": "uint256"
        }
      ],
      "name": "calculateAttributes",
      "outputs": [
        {
          "components": [
            {
              "internalType": "uint8",
              "name": "intelligence",
              "type": "uint8"
            },
            {
              "internalType": "uint8",
              "name": "nimbleness",
              "type": "uint8"
            },
            {
              "internalType": "uint8",
              "name": "strength",
              "type": "uint8"
            },
            {
              "internalType": "uint8",
              "name": "endurance",
              "type": "uint8"
            },
            {
              "internalType": "uint8",
              "name": "charisma",
              "type": "uint8"
            },
            {
              "internalType": "uint8",
              "name": "talent",
              "type": "uint8"
            }
          ],
          "internalType": "struct TheBugs.Attributes",
          "name": "",
          "type": "tuple"
        }
      ],
      "stateMutability": "view",
      "type": "function"
    },
    {
      "inputs": [
        {
          "internalType": "uint256",
          "name": "tokenId",
          "type": "uint256"
        }
      ],
      "name": "calculateRarity",
      "outputs": [
        {
          "internalType": "enum TheBugs.Rarity",
          "name": "",
          "type": "uint8"
        }
      ],
      "stateMutability": "pure",
      "type": "function"
    },
    {
      "inputs": [
        {
          "internalType": "uint256",
          "name": "tokenId",
          "type": "uint256"
        }
      ],
      "name": "getApproved",
      "outputs": [
        {
          "internalType": "address",
          "name": "",
          "type": "address"
        }
      ],
      "stateMutability": "view",
      "type": "function"
    },
    {
      "inputs": [
        {
          "internalType": "bytes32",
          "name": "role",
          "type": "bytes32"
        }
      ],
      "name": "getRoleAdmin",
      "outputs": [
        {
          "internalType": "bytes32",
          "name": "",
          "type": "bytes32"
        }
      ],
      "stateMutability": "view",
      "type": "function"
    },
    {
      "inputs": [
        {
          "internalType": "bytes32",
          "name": "role",
          "type": "bytes32"
        },
        {
          "internalType": "uint256",
          "name": "index",
          "type": "uint256"
        }
      ],
      "name": "getRoleMember",
      "outputs": [
        {
          "internalType": "address",
          "name": "",
          "type": "address"
        }
      ],
      "stateMutability": "view",
      "type": "function"
    },
    {
      "inputs": [
        {
          "internalType": "bytes32",
          "name": "role",
          "type": "bytes32"
        }
      ],
      "name": "getRoleMemberCount",
      "outputs": [
        {
          "internalType": "uint256",
          "name": "",
          "type": "uint256"
        }
      ],
      "stateMutability": "view",
      "type": "function"
    },
    {
      "inputs": [
        {
          "internalType": "bytes32",
          "name": "role",
          "type": "bytes32"
        }
      ],
      "name": "getRoleMembers",
      "outputs": [
        {
          "internalType": "address[]",
          "name": "",
          "type": "address[]"
        }
      ],
      "stateMutability": "view",
      "type": "function"
    },
    {
      "inputs": [
        {
          "internalType": "uint256",
          "name": "tokenId",
          "type": "uint256"
        }
      ],
      "name": "getSpeciesData",
      "outputs": [
        {
          "components": [
            {
              "internalType": "string",
              "name": "name",
              "type": "string"
            },
            {
              "internalType": "string",
              "name": "description",
              "type": "string"
            },
            {
              "internalType": "string",
              "name": "image",
              "type": "string"
            },
            {
              "components": [
                {
                  "internalType": "uint8",
                  "name": "intelligence",
                  "type": "uint8"
                },
                {
                  "internalType": "uint8",
                  "name": "nimbleness",
                  "type": "uint8"
                },
                {
                  "internalType": "uint8",
                  "name": "strength",
                  "type": "uint8"
                },
                {
                  "internalType": "uint8",
                  "name": "endurance",
                  "type": "uint8"
                },
                {
                  "internalType": "uint8",
                  "name": "charisma",
                  "type": "uint8"
                },
                {
                  "internalType": "uint8",
                  "name": "talent",
                  "type": "uint8"
                }
              ],
              "internalType": "struct TheBugs.Attributes",
              "name": "baseAttributes",
              "type": "tuple"
            }
          ],
          "internalType": "struct TheBugs.SpeciesData",
          "name": "",
          "type": "tuple"
        }
      ],
      "stateMutability": "view",
      "type": "function"
    },
    {
      "inputs": [
        {
          "internalType": "bytes32",
          "name": "role",
          "type": "bytes32"
        },
        {
          "internalType": "address",
          "name": "account",
          "type": "address"
        }
      ],
      "name": "grantRole",
      "outputs": [],
      "stateMutability": "nonpayable",
      "type": "function"
    },
    {
      "inputs": [
        {
          "internalType": "bytes32",
          "name": "role",
          "type": "bytes32"
        },
        {
          "internalType": "address",
          "name": "account",
          "type": "address"
        }
      ],
      "name": "hasRole",
      "outputs": [
        {
          "internalType": "bool",
          "name": "",
          "type": "bool"
        }
      ],
      "stateMutability": "view",
      "type": "function"
    },
    {
      "inputs": [],
      "name": "initialize",
      "outputs": [],
      "stateMutability": "nonpayable",
      "type": "function"
    },
    {
      "inputs": [
        {
          "internalType": "address",
          "name": "owner",
          "type": "address"
        },
        {
          "internalType": "address",
          "name": "operator",
          "type": "address"
        }
      ],
      "name": "isApprovedForAll",
      "outputs": [
        {
          "internalType": "bool",
          "name": "",
          "type": "bool"
        }
      ],
      "stateMutability": "view",
      "type": "function"
    },
    {
      "inputs": [
        {
          "internalType": "address",
          "name": "to",
          "type": "address"
        },
        {
          "internalType": "uint256",
          "name": "tokenId",
          "type": "uint256"
        },
        {
          "internalType": "string",
          "name": "name",
          "type": "string"
        }
      ],
      "name": "mint",
      "outputs": [],
      "stateMutability": "nonpayable",
      "type": "function"
    },
    {
      "inputs": [],
      "name": "name",
      "outputs": [
        {
          "internalType": "string",
          "name": "",
          "type": "string"
        }
      ],
      "stateMutability": "view",
      "type": "function"
    },
    {
      "inputs": [
        {
          "internalType": "uint256",
          "name": "tokenId",
          "type": "uint256"
        }
      ],
      "name": "ownerOf",
      "outputs": [
        {
          "internalType": "address",
          "name": "",
          "type": "address"
        }
      ],
      "stateMutability": "view",
      "type": "function"
    },
    {
      "inputs": [],
      "name": "proxiableUUID",
      "outputs": [
        {
          "internalType": "bytes32",
          "name": "",
          "type": "bytes32"
        }
      ],
      "stateMutability": "view",
      "type": "function"
    },
    {
      "inputs": [
        {
          "internalType": "enum TheBugs.Rarity",
          "name": "rarity",
          "type": "uint8"
        }
      ],
      "name": "rarityToString",
      "outputs": [
        {
          "internalType": "string",
          "name": "",
          "type": "string"
        }
      ],
      "stateMutability": "pure",
      "type": "function"
    },
    {
      "inputs": [
        {
          "internalType": "bytes32",
          "name": "role",
          "type": "bytes32"
        },
        {
          "internalType": "address",
          "name": "callerConfirmation",
          "type": "address"
        }
      ],
      "name": "renounceRole",
      "outputs": [],
      "stateMutability": "nonpayable",
      "type": "function"
    },
    {
      "inputs": [
        {
          "internalType": "bytes32",
          "name": "role",
          "type": "bytes32"
        },
        {
          "internalType": "address",
          "name": "account",
          "type": "address"
        }
      ],
      "name": "revokeRole",
      "outputs": [],
      "stateMutability": "nonpayable",
      "type": "function"
    },
    {
      "inputs": [
        {
          "internalType": "address",
          "name": "from",
          "type": "address"
        },
        {
          "internalType": "address",
          "name": "to",
          "type": "address"
        },
        {
          "internalType": "uint256",
          "name": "tokenId",
          "type": "uint256"
        }
      ],
      "name": "safeTransferFrom",
      "outputs": [],
      "stateMutability": "nonpayable",
      "type": "function"
    },
    {
      "inputs": [
        {
          "internalType": "address",
          "name": "from",
          "type": "address"
        },
        {
          "internalType": "address",
          "name": "to",
          "type": "address"
        },
        {
          "internalType": "uint256",
          "name": "tokenId",
          "type": "uint256"
        },
        {
          "internalType": "bytes",
          "name": "data",
          "type": "bytes"
        }
      ],
      "name": "safeTransferFrom",
      "outputs": [],
      "stateMutability": "nonpayable",
      "type": "function"
    },
    {
      "inputs": [
        {
          "internalType": "address",
          "name": "operator",
          "type": "address"
        },
        {
          "internalType": "bool",
          "name": "approved",
          "type": "bool"
        }
      ],
      "name": "setApprovalForAll",
      "outputs": [],
      "stateMutability": "nonpayable",
      "type": "function"
    },
    {
      "inputs": [
        {
          "internalType": "uint256",
          "name": "speciesID",
          "type": "uint256"
        },
        {
          "components": [
            {
              "internalType": "string",
              "name": "name",
              "type": "string"
            },
            {
              "internalType": "string",
              "name": "description",
              "type": "string"
            },
            {
              "internalType": "string",
              "name": "image",
              "type": "string"
            },
            {
              "components": [
                {
                  "internalType": "uint8",
                  "name": "intelligence",
                  "type": "uint8"
                },
                {
                  "internalType": "uint8",
                  "name": "nimbleness",
                  "type": "uint8"
                },
                {
                  "internalType": "uint8",
                  "name": "strength",
                  "type": "uint8"
                },
                {
                  "internalType": "uint8",
                  "name": "endurance",
                  "type": "uint8"
                },
                {
                  "internalType": "uint8",
                  "name": "charisma",
                  "type": "uint8"
                },
                {
                  "internalType": "uint8",
                  "name": "talent",
                  "type": "uint8"
                }
              ],
              "internalType": "struct TheBugs.Attributes",
              "name": "baseAttributes",
              "type": "tuple"
            }
          ],
          "internalType": "struct TheBugs.SpeciesData",
          "name": "speciesData",
          "type": "tuple"
        }
      ],
      "name": "setSpeciesData",
      "outputs": [],
      "stateMutability": "nonpayable",
      "type": "function"
    },
    {
      "inputs": [
        {
          "internalType": "uint256",
          "name": "",
          "type": "uint256"
        }
      ],
      "name": "speciesDatas",
      "outputs": [
        {
          "internalType": "string",
          "name": "name",
          "type": "string"
        },
        {
          "internalType": "string",
          "name": "description",
          "type": "string"
        },
        {
          "internalType": "string",
          "name": "image",
          "type": "string"
        },
        {
          "components": [
            {
              "internalType": "uint8",
              "name": "intelligence",
              "type": "uint8"
            },
            {
              "internalType": "uint8",
              "name": "nimbleness",
              "type": "uint8"
            },
            {
              "internalType": "uint8",
              "name": "strength",
              "type": "uint8"
            },
            {
              "internalType": "uint8",
              "name": "endurance",
              "type": "uint8"
            },
            {
              "internalType": "uint8",
              "name": "charisma",
              "type": "uint8"
            },
            {
              "internalType": "uint8",
              "name": "talent",
              "type": "uint8"
            }
          ],
          "internalType": "struct TheBugs.Attributes",
          "name": "baseAttributes",
          "type": "tuple"
        }
      ],
      "stateMutability": "view",
      "type": "function"
    },
    {
      "inputs": [
        {
          "internalType": "bytes4",
          "name": "interfaceId",
          "type": "bytes4"
        }
      ],
      "name": "supportsInterface",
      "outputs": [
        {
          "internalType": "bool",
          "name": "",
          "type": "bool"
        }
      ],
      "stateMutability": "view",
      "type": "function"
    },
    {
      "inputs": [],
      "name": "symbol",
      "outputs": [
        {
          "internalType": "string",
          "name": "",
          "type": "string"
        }
      ],
      "stateMutability": "view",
      "type": "function"
    },
    {
      "inputs": [
        {
          "internalType": "uint256",
          "name": "index",
          "type": "uint256"
        }
      ],
      "name": "tokenByIndex",
      "outputs": [
        {
          "internalType": "uint256",
          "name": "",
          "type": "uint256"
        }
      ],
      "stateMutability": "view",
      "type": "function"
    },
    {
      "inputs": [
        {
          "internalType": "address",
          "name": "owner",
          "type": "address"
        },
        {
          "internalType": "uint256",
          "name": "index",
          "type": "uint256"
        }
      ],
      "name": "tokenOfOwnerByIndex",
      "outputs": [
        {
          "internalType": "uint256",
          "name": "",
          "type": "uint256"
        }
      ],
      "stateMutability": "view",
      "type": "function"
    },
    {
      "inputs": [
        {
          "internalType": "uint256",
          "name": "tokenId",
          "type": "uint256"
        }
      ],
      "name": "tokenURI",
      "outputs": [
        {
          "internalType": "string",
          "name": "",
          "type": "string"
        }
      ],
      "stateMutability": "view",
      "type": "function"
    },
    {
      "inputs": [],
      "name": "totalSupply",
      "outputs": [
        {
          "internalType": "uint256",
          "name": "",
          "type": "uint256"
        }
      ],
      "stateMutability": "view",
      "type": "function"
    },
    {
      "inputs": [
        {
          "internalType": "address",
          "name": "from",
          "type": "address"
        },
        {
          "internalType": "address",
          "name": "to",
          "type": "address"
        },
        {
          "internalType": "uint256",
          "name": "tokenId",
          "type": "uint256"
        }
      ],
      "name": "transferFrom",
      "outputs": [],
      "stateMutability": "nonpayable",
      "type": "function"
    },
    {
      "inputs": [
        {
          "internalType": "address",
          "name": "newImplementation",
          "type": "address"
        },
        {
          "internalType": "bytes",
          "name": "data",
          "type": "bytes"
        }
      ],
      "name": "upgradeToAndCall",
      "outputs": [],
      "stateMutability": "payable",
      "type": "function"
    }
  ],
  "bytecode": "0x60a06040523060805234801561001457600080fd5b507ff0c57e16840df040f15088dc2f81fe391c3923bec73e23a9662efc9c229c6a00805468010000000000000000810460ff1615906001600160401b031660008115801561005f5750825b90506000826001600160401b0316600114801561007b5750303b155b905081158015610089575080155b156100a75760405163f92ee8a960e01b815260040160405180910390fd5b84546001600160401b031916600117855583156100d557845460ff60401b1916680100000000000000001785555b831561011b57845460ff60401b19168555604051600181527fc7f505b2f371ae2175ee4913f4499e1f2633a7b5936321eed1cdaeb6115181d29060200160405180910390a15b505050505060805161468561014960003960008181611f7f01528181611fa8015261210d01526146856000f3fe6080604052600436106102465760003560e01c80638129fc1c11610139578063b88d4fde116100b6578063d53913931161007a578063d5391393146106fa578063d547741f1461072e578063d956087d1461074e578063dfb638bf14610782578063e985e9c5146107af578063f72c0d8b146107cf57600080fd5b8063b88d4fde1461065a578063bbeff99a1461067a578063c87b56dd1461069a578063ca15c873146106ba578063d3fc9864146106da57600080fd5b8063a2168d07116100fd578063a2168d0714610597578063a217fddf146105c7578063a22cb465146105dc578063a3246ad3146105fc578063ad3cb1cc1461062957600080fd5b80638129fc1c146105005780639010d07c1461051557806391d148541461053557806395d89b4114610555578063a01413871461056a57600080fd5b806336568abe116101c757806357edac821161018b57806357edac821461045d57806359797d8a146104725780636352211e146104a057806370a08231146104c057806375e58d16146104e057600080fd5b806336568abe146103d557806342842e0e146103f55780634f1ef286146104155780634f6ccce71461042857806352d1902d1461044857600080fd5b806318160ddd1161020e57806318160ddd1461032957806323b872dd14610355578063248a9ca3146103755780632f2ff15d146103955780632f745c59146103b557600080fd5b806301ffc9a71461024b57806306fdde0314610280578063081812fc146102a2578063095ea7b3146102da5780630e25272d146102fc575b600080fd5b34801561025757600080fd5b5061026b61026636600461359a565b610803565b60405190151581526020015b60405180910390f35b34801561028c57600080fd5b50610295610814565b6040516102779190613607565b3480156102ae57600080fd5b506102c26102bd36600461361a565b6108b8565b6040516001600160a01b039091168152602001610277565b3480156102e657600080fd5b506102fa6102f536600461364f565b6108cd565b005b34801561030857600080fd5b5061031c61031736600461361a565b6108dc565b604051610277919061368f565b34801561033557600080fd5b50600080516020614610833981519152545b604051908152602001610277565b34801561036157600080fd5b506102fa6103703660046136b7565b61097e565b34801561038157600080fd5b5061034761039036600461361a565b610a0e565b3480156103a157600080fd5b506102fa6103b03660046136f4565b610a30565b3480156103c157600080fd5b506103476103d036600461364f565b610a4c565b3480156103e157600080fd5b506102fa6103f03660046136f4565b610ac0565b34801561040157600080fd5b506102fa6104103660046136b7565b610af8565b6102fa6104233660046137c3565b610b13565b34801561043457600080fd5b5061034761044336600461361a565b610b2e565b34801561045457600080fd5b50610347610ba6565b34801561046957600080fd5b50610347600381565b34801561047e57600080fd5b5061049261048d36600461361a565b610bc3565b60405161027792919061385c565b3480156104ac57600080fd5b506102c26104bb36600461361a565b610cbf565b3480156104cc57600080fd5b506103476104db36600461387e565b610cca565b3480156104ec57600080fd5b506102fa6104fb366004613899565b610d26565b34801561050c57600080fd5b506102fa610eb9565b34801561052157600080fd5b506102c26105303660046138e7565b61105a565b34801561054157600080fd5b5061026b6105503660046136f4565b611089565b34801561056157600080fd5b506102956110c1565b34801561057657600080fd5b5061058a61058536600461361a565b611100565b6040516102779190613909565b3480156105a357600080fd5b506105b76105b236600461361a565b611476565b6040516102779493929190613917565b3480156105d357600080fd5b50610347600081565b3480156105e857600080fd5b506102fa6105f7366004613962565b61168e565b34801561060857600080fd5b5061061c61061736600461361a565b611699565b6040516102779190613993565b34801561063557600080fd5b50610295604051806040016040528060058152602001640352e302e360dc1b81525081565b34801561066657600080fd5b506102fa6106753660046139df565b6116cb565b34801561068657600080fd5b50610295610695366004613a46565b6116e3565b3480156106a657600080fd5b506102956106b536600461361a565b611855565b3480156106c657600080fd5b506103476106d536600461361a565b6119fa565b3480156106e657600080fd5b506102fa6106f5366004613a67565b611a20565b34801561070657600080fd5b506103477f9f2df0fed2c77648de5860a4cc508cd0818c85b8b8a1ab4ceeef8d981c8956a681565b34801561073a57600080fd5b506102fa6107493660046136f4565b611a94565b34801561075a57600080fd5b506103477f4ddd85e313b1db5c4144000907a5124c34f10d6a5ef9c2cddb8e5f4467c74b5381565b34801561078e57600080fd5b506107a261079d36600461361a565b611ab0565b6040516102779190613aef565b3480156107bb57600080fd5b5061026b6107ca366004613b5d565b611cfc565b3480156107db57600080fd5b506103477f189ab7a9244df0848122154315af71fe140f3db0fe014031783b0946b8c9d2e381565b600061080e82611d49565b92915050565b600080516020614590833981519152805460609190819061083490613b87565b80601f016020809104026020016040519081016040528092919081815260200182805461086090613b87565b80156108ad5780601f10610882576101008083540402835291602001916108ad565b820191906000526020600020905b81548152906001019060200180831161089057829003601f168201915b505050505091505090565b60006108c382611d6e565b5061080e82611da6565b6108d8828233611de0565b5050565b600080612710836040516020016109049181526552415249545960d01b602082015260260190565b6040516020818303038152906040528051906020012060001c6109279190613bd7565b905061177081101561093c5750600092915050565b61213481101561094f5750600192915050565b61251c8110156109625750600292915050565b61267a8110156109755750600392915050565b50600492915050565b6001600160a01b0382166109ad57604051633250574960e11b8152600060048201526024015b60405180910390fd5b60006109ba838333611ded565b9050836001600160a01b0316816001600160a01b031614610a08576040516364283d7b60e01b81526001600160a01b03808616600483015260248201849052821660448201526064016109a4565b50505050565b6000908152600080516020614630833981519152602052604090206001015490565b610a3982610a0e565b610a4281611ee6565b610a088383611ef3565b6000600080516020614570833981519152610a6684610cca565b8310610a975760405163295f44f760e21b81526001600160a01b0385166004820152602481018490526044016109a4565b6001600160a01b0384166000908152602091825260408082208583529092522054905092915050565b6001600160a01b0381163314610ae95760405163334bd91960e11b815260040160405180910390fd5b610af38282611f38565b505050565b610af3838383604051806020016040528060008152506116cb565b610b1b611f74565b610b248261201b565b6108d88282612045565b6000600080516020614570833981519152610b556000805160206146108339815191525490565b8310610b7e5760405163295f44f760e21b815260006004820152602481018490526044016109a4565b806002018381548110610b9357610b93613beb565b9060005260206000200154915050919050565b6000610bb0612102565b506000805160206145b083398151915290565b600160205260009081526040902080548190610bde90613b87565b80601f0160208091040260200160405190810160405280929190818152602001828054610c0a90613b87565b8015610c575780601f10610c2c57610100808354040283529160200191610c57565b820191906000526020600020905b815481529060010190602001808311610c3a57829003601f168201915b50506040805160c08101825260019096015460ff80821688526101008204811660208901526201000082048116928801929092526301000000810482166060880152640100000000810482166080880152600160281b90041660a08601525091929150839050565b600061080e82611d6e565b60006000805160206145908339815191526001600160a01b038316610d05576040516322718ad960e21b8152600060048201526024016109a4565b6001600160a01b039092166000908152600390920160205250604090205490565b7f4ddd85e313b1db5c4144000907a5124c34f10d6a5ef9c2cddb8e5f4467c74b53610d5081611ee6565b60038310610da05760405162461bcd60e51b815260206004820152601b60248201527f546865427567733a20696e76616c69642073706573696573204944000000000060448201526064016109a4565b60608201610db661012084016101008501613c10565b610dc660a0830160808401613c10565b610dd66080840160608501613c10565b610de66060850160408601613c10565b610df66040860160208701613c10565b610e036020870187613c10565b610e0d9190613c43565b610e179190613c43565b610e219190613c43565b610e2b9190613c43565b610e359190613c43565b60ff16601914610e975760405162461bcd60e51b815260206004820152602760248201527f54686520427567733a20696e76616c69642062617365206174747269627574656044820152661cc81d1bdd185b60ca1b60648201526084016109a4565b60008481526020819052604090208390610eb18282613eb3565b505050505050565b7ff0c57e16840df040f15088dc2f81fe391c3923bec73e23a9662efc9c229c6a008054600160401b810460ff1615906001600160401b0316600081158015610efe5750825b90506000826001600160401b03166001148015610f1a5750303b155b905081158015610f28575080155b15610f465760405163f92ee8a960e01b815260040160405180910390fd5b845467ffffffffffffffff191660011785558315610f7057845460ff60401b1916600160401b1785555b610f7861214b565b610f8061214b565b610fc660405180604001604052806008815260200167546865204275677360c01b815250604051806040016040528060048152602001634255475360e01b815250612153565b610fce61214b565b610fd661214b565b610fe1600033611ef3565b5061100c7f4ddd85e313b1db5c4144000907a5124c34f10d6a5ef9c2cddb8e5f4467c74b5333611ef3565b50831561105357845460ff60401b19168555604051600181527fc7f505b2f371ae2175ee4913f4499e1f2633a7b5936321eed1cdaeb6115181d29060200160405180910390a15b5050505050565b60008281526000805160206145508339815191526020819052604082206110819084612165565b949350505050565b6000918252600080516020614630833981519152602090815260408084206001600160a01b0393909316845291905290205460ff1690565b7f80bb2b638cc20bc4d0a60d66940f3ab4a00c1d7b313497ca82fb0b4ab007930180546060916000805160206145908339815191529161083490613b87565b6040805160c081018252600080825260208201819052918101829052606081018290526080810182905260a081018290529061113b836108dc565b905060008082600481111561115257611152613679565b0361115f575060056111df565b600182600481111561117357611173613679565b03611180575060086111df565b600282600481111561119457611194613679565b036111a15750600b6111df565b60038260048111156111b5576111b5613679565b036111c25750600e6111df565b60048260048111156111d6576111d6613679565b036111df575060115b600084604051602001611207918152694154545249425554455360b01b6020820152602a0190565b60408051601f198184030181528282528051602091820120600680855260e0850190935293506000929190820160c08036833701905050905060005b838110156112b6576000611258600685613bd7565b905082818151811061126c5761126c613beb565b60200260200101805180919061128190613fbe565b60ff1690525060408051602081018690520160408051601f198184030181529190528051602090910120935050600101611243565b5060008060006112c589612171565b815260208082019290925260409081016000908120825160c0808201855260039092015460ff808216835261010082048116968301969096526201000081048616828601526301000000810486166060830152640100000000810486166080830152600160281b900490941660a08501528251908101909252845192935090918291859161135557611355613beb565b6020026020010151836000015161136c9190613c43565b60ff1681526020018360018151811061138757611387613beb565b6020026020010151836020015161139e9190613c43565b60ff168152602001836002815181106113b9576113b9613beb565b602002602001015183604001516113d09190613c43565b60ff168152602001836003815181106113eb576113eb613beb565b602002602001015183606001516114029190613c43565b60ff1681526020018360048151811061141d5761141d613beb565b602002602001015183608001516114349190613c43565b60ff1681526020018360058151811061144f5761144f613beb565b60200260200101518360a001516114669190613c43565b60ff169052979650505050505050565b60006020819052908152604090208054819061149190613b87565b80601f01602080910402602001604051908101604052809291908181526020018280546114bd90613b87565b801561150a5780601f106114df5761010080835404028352916020019161150a565b820191906000526020600020905b8154815290600101906020018083116114ed57829003601f168201915b50505050509080600101805461151f90613b87565b80601f016020809104026020016040519081016040528092919081815260200182805461154b90613b87565b80156115985780601f1061156d57610100808354040283529160200191611598565b820191906000526020600020905b81548152906001019060200180831161157b57829003601f168201915b5050505050908060020180546115ad90613b87565b80601f01602080910402602001604051908101604052809291908181526020018280546115d990613b87565b80156116265780601f106115fb57610100808354040283529160200191611626565b820191906000526020600020905b81548152906001019060200180831161160957829003601f168201915b50506040805160c08101825260039096015460ff80821688526101008204811660208901526201000082048116928801929092526301000000810482166060880152640100000000810482166080880152600160281b90041660a08601525091929150859050565b6108d83383836121bb565b600081815260008051602061455083398151915260208190526040909120606091906116c49061226c565b9392505050565b6116d684848461097e565b610a083385858585612279565b606060008260048111156116f9576116f9613679565b0361172057505060408051808201909152600681526521b7b6b6b7b760d11b602082015290565b600182600481111561173457611734613679565b0361175d5750506040805180820190915260088152672ab731b7b6b6b7b760c11b602082015290565b600282600481111561177157611771613679565b036117965750506040805180820190915260048152635261726560e01b602082015290565b60038260048111156117aa576117aa613679565b036117cf5750506040805180820190915260048152634570696360e01b602082015290565b60048260048111156117e3576117e3613679565b0361180d5750506040805180820190915260098152684c6567656e6461727960b81b602082015290565b60405162461bcd60e51b815260206004820152601760248201527f546865427567733a20696e76616c69642072617269747900000000000000000060448201526064016109a4565b6060600061186283611ab0565b60008481526001602052604081209192506060908190611884610695886108dc565b905083600001805461189590613b87565b90506000036118ce5784516040516118b1918391602001613ff9565b604051602081830303815290604052925084602001519150611988565b835484906118db90613b87565b80601f016020809104026020016040519081016040528092919081815260200182805461190790613b87565b80156119545780601f1061192957610100808354040283529160200191611954565b820191906000526020600020905b81548152906001019060200180831161193757829003601f168201915b5050505050925084600001518560200151604051602001611976929190614035565b60405160208183030381529060405291505b60008386600001518488604001516119a0898761239b565b6040516020016119b4959493929190614072565b60405160208183030381529060405290506119ce8161253e565b6040516020016119de919061416f565b6040516020818303038152906040529650505050505050919050565b60008181526000805160206145508339815191526020819052604082206116c490612564565b7f9f2df0fed2c77648de5860a4cc508cd0818c85b8b8a1ab4ceeef8d981c8956a6611a4a81611ee6565b611a8a8484848080601f01602080910402602001604051908101604052809392919081815260200183838082843760009201919091525061256e92505050565b6110538585612658565b611a9d82610a0e565b611aa681611ee6565b610a088383611f38565b611ab8613527565b600080611ac484612171565b8152602001908152602001600020604051806080016040529081600082018054611aed90613b87565b80601f0160208091040260200160405190810160405280929190818152602001828054611b1990613b87565b8015611b665780601f10611b3b57610100808354040283529160200191611b66565b820191906000526020600020905b815481529060010190602001808311611b4957829003601f168201915b50505050508152602001600182018054611b7f90613b87565b80601f0160208091040260200160405190810160405280929190818152602001828054611bab90613b87565b8015611bf85780601f10611bcd57610100808354040283529160200191611bf8565b820191906000526020600020905b815481529060010190602001808311611bdb57829003601f168201915b50505050508152602001600282018054611c1190613b87565b80601f0160208091040260200160405190810160405280929190818152602001828054611c3d90613b87565b8015611c8a5780601f10611c5f57610100808354040283529160200191611c8a565b820191906000526020600020905b815481529060010190602001808311611c6d57829003601f168201915b50505091835250506040805160c0810182526003939093015460ff8082168552610100820481166020868101919091526201000083048216938601939093526301000000820481166060860152640100000000820481166080860152600160281b9091041660a0840152015292915050565b6001600160a01b0391821660009081527f80bb2b638cc20bc4d0a60d66940f3ab4a00c1d7b313497ca82fb0b4ab00793056020908152604080832093909416825291909152205460ff1690565b60006001600160e01b0319821663780e9d6360e01b148061080e575061080e82612672565b600080611d7a836126b2565b90506001600160a01b03811661080e57604051637e27328960e01b8152600481018490526024016109a4565b60009081527f80bb2b638cc20bc4d0a60d66940f3ab4a00c1d7b313497ca82fb0b4ab007930460205260409020546001600160a01b031690565b610af383838360016126ec565b600080611dfb858585612802565b90506001600160a01b038116611e8457611e7f84600080516020614610833981519152805460008381527f645e039705490088daad89bae25049a34f4a9072d398537b1ab2425f24cbed0360205260408120829055600182018355919091527fa42f15e5d656f8155fd7419d740a6073999f19cd6e061449ce4a257150545bf20155565b611ea7565b846001600160a01b0316816001600160a01b031614611ea757611ea7818561290c565b6001600160a01b038516611ec357611ebe846129a8565b611081565b846001600160a01b0316816001600160a01b031614611081576110818585612a7f565b611ef08133612ada565b50565b600060008051602061455083398151915281611f0f8585612b13565b90508015611081576000858152602083905260409020611f2f9085612bb8565b50949350505050565b600060008051602061455083398151915281611f548585612bcd565b90508015611081576000858152602083905260409020611f2f9085612c49565b306001600160a01b037f0000000000000000000000000000000000000000000000000000000000000000161480611ffb57507f00000000000000000000000000000000000000000000000000000000000000006001600160a01b0316611fef6000805160206145b0833981519152546001600160a01b031690565b6001600160a01b031614155b156120195760405163703e46dd60e11b815260040160405180910390fd5b565b7f189ab7a9244df0848122154315af71fe140f3db0fe014031783b0946b8c9d2e36108d881611ee6565b816001600160a01b03166352d1902d6040518163ffffffff1660e01b8152600401602060405180830381865afa92505050801561209f575060408051601f3d908101601f1916820190925261209c918101906141b4565b60015b6120c757604051634c9c8ce360e01b81526001600160a01b03831660048201526024016109a4565b6000805160206145b083398151915281146120f857604051632a87526960e21b8152600481018290526024016109a4565b610af38383612c5e565b306001600160a01b037f000000000000000000000000000000000000000000000000000000000000000016146120195760405163703e46dd60e11b815260040160405180910390fd5b612019612cb4565b61215b612cb4565b6108d88282612cfd565b60006116c48383612d2e565b6000600382604051602001612198918152665350454349455360c81b602082015260270190565b6040516020818303038152906040528051906020012060001c61080e9190613bd7565b6000805160206145908339815191526001600160a01b0383166121fc57604051630b61174360e31b81526001600160a01b03841660048201526024016109a4565b6001600160a01b038481166000818152600584016020908152604080832094881680845294825291829020805460ff191687151590811790915591519182527f17307eab39ab6107e8899845ad3d59bd9653f200f220920489ca2b5937696c31910160405180910390a350505050565b606060006116c483612d58565b6001600160a01b0383163b1561105357604051630a85bd0160e11b81526001600160a01b0384169063150b7a02906122bb9088908890879087906004016141cd565b6020604051808303816000875af19250505080156122f6575060408051601f3d908101601f191682019092526122f39181019061420a565b60015b61235f573d808015612324576040519150601f19603f3d011682016040523d82523d6000602084013e612329565b606091505b50805160000361235757604051633250574960e11b81526001600160a01b03851660048201526024016109a4565b805181602001fd5b6001600160e01b03198116630a85bd0160e11b14610eb157604051633250574960e11b81526001600160a01b03851660048201526024016109a4565b60606123c56040518060400160405280600681526020016552617269747960d01b81525083612db4565b60408051808201909152600c81526b496e74656c6c6967656e636560a01b602082015260018501546123fa919060ff16612dc9565b60408051808201909152600a8152694e696d626c656e65737360b01b602082015260018601546124329190610100900460ff16612dc9565b6040805180820190915260088152670a6e8e4cadccee8d60c31b60208201526001870154612469919062010000900460ff16612dc9565b604080518082019091526009815268456e647572616e636560b81b602082015260018801546124a291906301000000900460ff16612dc9565b6040805180820190915260088152674368617269736d6160c01b602082015260018901546124db9190640100000000900460ff16612dc9565b60408051808201909152600681526515185b195b9d60d21b602082015260018a01546125119190600160281b900460ff16612dc9565b6040516020016125279796959493929190614227565b604051602081830303815290604052905092915050565b606061080e826040518060600160405280604081526020016145d0604091396001612de6565b600061080e825490565b600061257983611100565b604080518082018252848152602080820184905260008781526001909152919091208151929350909181906125ae9082614304565b50602091820151805160019290920180549382015160408301516060840151608085015160a09095015160ff96871661ffff1990981697909717610100938716939093029290921763ffff00001916620100009186169190910263ff0000001916176301000000918516919091021765ffff0000000019166401000000009284169290920265ff0000000000191691909117600160281b9290931691909102919091179055505050565b6108d8828260405180602001604052806000815250612f65565b60006001600160e01b031982166380ac58cd60e01b14806126a357506001600160e01b03198216635b5e139f60e01b145b8061080e575061080e82612f7d565b60009081527f80bb2b638cc20bc4d0a60d66940f3ab4a00c1d7b313497ca82fb0b4ab007930260205260409020546001600160a01b031690565b600080516020614590833981519152818061270f57506001600160a01b03831615155b156127d157600061271f85611d6e565b90506001600160a01b0384161580159061274b5750836001600160a01b0316816001600160a01b031614155b801561275e575061275c8185611cfc565b155b156127875760405163a9fbf51f60e01b81526001600160a01b03851660048201526024016109a4565b82156127cf5784866001600160a01b0316826001600160a01b03167f8c5be1e5ebec7d5bd14f71427d1e84f3dd0314c0f7b2291e5b200ac8c7c3b92560405160405180910390a45b505b600093845260040160205250506040902080546001600160a01b0319166001600160a01b0392909216919091179055565b60006000805160206145908339815191528161281d856126b2565b90506001600160a01b0384161561283957612839818587612fa2565b6001600160a01b03811615612879576128566000866000806126ec565b6001600160a01b0381166000908152600383016020526040902080546000190190555b6001600160a01b038616156128aa576001600160a01b03861660009081526003830160205260409020805460010190555b600085815260028301602052604080822080546001600160a01b0319166001600160a01b038a811691821790925591518893918516917fddf252ad1be2c89b69c2b068fc378daa952ba7f163c4a11628f55a4df523b3ef91a495945050505050565b600080516020614570833981519152600061292684610cca565b60008481526001840160209081526040808320546001600160a01b03891684529186905290912091925090818314612980576000838152602082815260408083205485845281842081905583526001870190915290208290555b6000948552600190930160209081526040808620869055928552929092528220919091555050565b60008051602061461083398151915254600080516020614570833981519152906000906129d7906001906143bc565b6000848152600384016020526040812054600285018054939450909284908110612a0357612a03613beb565b9060005260206000200154905080846002018381548110612a2657612a26613beb565b600091825260208083209091019290925582815260038601909152604080822084905586825281205560028401805480612a6257612a626143cf565b600190038181906000526020600020016000905590555050505050565b60008051602061457083398151915260006001612a9b85610cca565b612aa591906143bc565b6001600160a01b0390941660009081526020838152604080832087845282528083208690559482526001909301909252502055565b612ae48282611089565b6108d85760405163e2517d3f60e01b81526001600160a01b0382166004820152602481018390526044016109a4565b6000600080516020614630833981519152612b2e8484611089565b612bae576000848152602082815260408083206001600160a01b03871684529091529020805460ff19166001179055612b643390565b6001600160a01b0316836001600160a01b0316857f2f8788117e7eff1d82e926ec794901d17c78024a50270940304540a733656f0d60405160405180910390a4600191505061080e565b600091505061080e565b60006116c4836001600160a01b038416613006565b6000600080516020614630833981519152612be88484611089565b15612bae576000848152602082815260408083206001600160a01b0387168085529252808320805460ff1916905551339287917ff6391f5c32d9c69d2a47ea670b442974b53935d1edc7fd64eb21e047a839171b9190a4600191505061080e565b60006116c4836001600160a01b038416613055565b612c678261313e565b6040516001600160a01b038316907fbc7cd75a20ee27fd9adebab32041f755214dbc6bffa90cc0225b39da2e5c2d3b90600090a2805115612cac57610af382826131a3565b6108d8613219565b7ff0c57e16840df040f15088dc2f81fe391c3923bec73e23a9662efc9c229c6a0054600160401b900460ff1661201957604051631afcd79f60e31b815260040160405180910390fd5b612d05612cb4565b60008051602061459083398151915280612d1f8482614304565b5060018101610a088382614304565b6000826000018281548110612d4557612d45613beb565b9060005260206000200154905092915050565b606081600001805480602002602001604051908101604052809291908181526020018280548015612da857602002820191906000526020600020905b815481526020019060010190808311612d94575b50505050509050919050565b606082826040516020016125279291906143e5565b606082612dd583613238565b604051602001612527929190614473565b60608351600003612e0657506040805160208101909152600081526116c4565b600082612e3757600385516004612e1d91906144f5565b612e2890600261450c565b612e32919061451f565b612e5c565b600385516002612e47919061450c565b612e51919061451f565b612e5c9060046144f5565b90506000816001600160401b03811115612e7857612e78613720565b6040519080825280601f01601f191660200182016040528015612ea2576020820181803683370190505b50905060018501602082018788518901602081018051600082525b82841015612f18576003840193508351603f8160121c168701518653600186019550603f81600c1c168701518653600186019550603f8160061c168701518653600186019550603f8116870151865350600185019450612ebd565b905250508515612f5957600388510660018114612f3c5760028114612f4f57612f57565b603d6001830353603d6002830353612f57565b603d60018303535b505b50909695505050505050565b612f6f83836132cb565b610af3336000858585612279565b60006001600160e01b03198216635a05180f60e01b148061080e575061080e82613330565b612fad838383613365565b610af3576001600160a01b038316612fdb57604051637e27328960e01b8152600481018290526024016109a4565b60405163177e802f60e01b81526001600160a01b0383166004820152602481018290526044016109a4565b600081815260018301602052604081205461304d5750815460018181018455600084815260208082209093018490558454848252828601909352604090209190915561080e565b50600061080e565b60008181526001830160205260408120548015612bae5760006130796001836143bc565b855490915060009061308d906001906143bc565b90508082146130f25760008660000182815481106130ad576130ad613beb565b90600052602060002001549050808760000184815481106130d0576130d0613beb565b6000918252602080832090910192909255918252600188019052604090208390555b8554869080613103576131036143cf565b60019003818190600052602060002001600090559055856001016000868152602001908152602001600020600090556001935050505061080e565b806001600160a01b03163b60000361317457604051634c9c8ce360e01b81526001600160a01b03821660048201526024016109a4565b6000805160206145b083398151915280546001600160a01b0319166001600160a01b0392909216919091179055565b6060600080846001600160a01b0316846040516131c09190614533565b600060405180830381855af49150503d80600081146131fb576040519150601f19603f3d011682016040523d82523d6000602084013e613200565b606091505b50915091506132108583836133ca565b95945050505050565b34156120195760405163b398979f60e01b815260040160405180910390fd5b6060600061324583613426565b60010190506000816001600160401b0381111561326457613264613720565b6040519080825280601f01601f19166020018201604052801561328e576020820181803683370190505b5090508181016020015b600019016f181899199a1a9b1b9c1cb0b131b232b360811b600a86061a8153600a8504945084613298575b509392505050565b6001600160a01b0382166132f557604051633250574960e11b8152600060048201526024016109a4565b600061330383836000611ded565b90506001600160a01b03811615610af3576040516339e3563760e11b8152600060048201526024016109a4565b60006001600160e01b03198216637965db0b60e01b148061080e57506301ffc9a760e01b6001600160e01b031983161461080e565b60006001600160a01b038316158015906110815750826001600160a01b0316846001600160a01b0316148061339f575061339f8484611cfc565b806110815750826001600160a01b03166133b883611da6565b6001600160a01b031614949350505050565b6060826133df576133da826134fe565b6116c4565b81511580156133f657506001600160a01b0384163b155b1561341f57604051639996b31560e01b81526001600160a01b03851660048201526024016109a4565b50806116c4565b60008072184f03e93ff9f4daa797ed6e38ed64bf6a1f0160401b83106134655772184f03e93ff9f4daa797ed6e38ed64bf6a1f0160401b830492506040015b6d04ee2d6d415b85acef81000000008310613491576d04ee2d6d415b85acef8100000000830492506020015b662386f26fc1000083106134af57662386f26fc10000830492506010015b6305f5e10083106134c7576305f5e100830492506008015b61271083106134db57612710830492506004015b606483106134ed576064830492506002015b600a831061080e5760010192915050565b80511561350e5780518082602001fd5b60405163d6bda27560e01b815260040160405180910390fd5b604051806080016040528060608152602001606081526020016060815260200161357f6040805160c081018252600080825260208201819052918101829052606081018290526080810182905260a081019190915290565b905290565b6001600160e01b031981168114611ef057600080fd5b6000602082840312156135ac57600080fd5b81356116c481613584565b60005b838110156135d25781810151838201526020016135ba565b50506000910152565b600081518084526135f38160208601602086016135b7565b601f01601f19169290920160200192915050565b6020815260006116c460208301846135db565b60006020828403121561362c57600080fd5b5035919050565b80356001600160a01b038116811461364a57600080fd5b919050565b6000806040838503121561366257600080fd5b61366b83613633565b946020939093013593505050565b634e487b7160e01b600052602160045260246000fd5b60208101600583106136b157634e487b7160e01b600052602160045260246000fd5b91905290565b6000806000606084860312156136cc57600080fd5b6136d584613633565b92506136e360208501613633565b929592945050506040919091013590565b6000806040838503121561370757600080fd5b8235915061371760208401613633565b90509250929050565b634e487b7160e01b600052604160045260246000fd5b600082601f83011261374757600080fd5b81356001600160401b0381111561376057613760613720565b604051601f8201601f19908116603f011681016001600160401b038111828210171561378e5761378e613720565b6040528181528382016020018510156137a657600080fd5b816020850160208301376000918101602001919091529392505050565b600080604083850312156137d657600080fd5b6137df83613633565b915060208301356001600160401b038111156137fa57600080fd5b61380685828601613736565b9150509250929050565b60ff815116825260ff602082015116602083015260ff604082015116604083015260ff606082015116606083015260ff608082015116608083015260ff60a08201511660a08301525050565b60e08152600061386f60e08301856135db565b90506116c46020830184613810565b60006020828403121561389057600080fd5b6116c482613633565b600080604083850312156138ac57600080fd5b8235915060208301356001600160401b038111156138c957600080fd5b830161012081860312156138dc57600080fd5b809150509250929050565b600080604083850312156138fa57600080fd5b50508035926020909101359150565b60c0810161080e8284613810565b6101208152600061392c6101208301876135db565b828103602084015261393e81876135db565b9050828103604084015261395281866135db565b9150506132106060830184613810565b6000806040838503121561397557600080fd5b61397e83613633565b9150602083013580151581146138dc57600080fd5b602080825282518282018190526000918401906040840190835b818110156139d45783516001600160a01b03168352602093840193909201916001016139ad565b509095945050505050565b600080600080608085870312156139f557600080fd5b6139fe85613633565b9350613a0c60208601613633565b92506040850135915060608501356001600160401b03811115613a2e57600080fd5b613a3a87828801613736565b91505092959194509250565b600060208284031215613a5857600080fd5b8135600581106116c457600080fd5b60008060008060608587031215613a7d57600080fd5b613a8685613633565b93506020850135925060408501356001600160401b03811115613aa857600080fd5b8501601f81018713613ab957600080fd5b80356001600160401b03811115613acf57600080fd5b876020828401011115613ae157600080fd5b949793965060200194505050565b60208152600082516101206020840152613b0d6101408401826135db565b90506020840151601f19848303016040850152613b2a82826135db565b9150506040840151601f19848303016060850152613b4882826135db565b91505060608401516132c36080850182613810565b60008060408385031215613b7057600080fd5b613b7983613633565b915061371760208401613633565b600181811c90821680613b9b57607f821691505b602082108103613bbb57634e487b7160e01b600052602260045260246000fd5b50919050565b634e487b7160e01b600052601260045260246000fd5b600082613be657613be6613bc1565b500690565b634e487b7160e01b600052603260045260246000fd5b60ff81168114611ef057600080fd5b600060208284031215613c2257600080fd5b81356116c481613c01565b634e487b7160e01b600052601160045260246000fd5b60ff818116838216019081111561080e5761080e613c2d565b6000808335601e19843603018112613c7357600080fd5b8301803591506001600160401b03821115613c8d57600080fd5b602001915036819003821315613ca257600080fd5b9250929050565b601f821115610af357806000526020600020601f840160051c81016020851015613cd05750805b601f840160051c820191505b818110156110535760008155600101613cdc565b600019600383901b1c191660019190911b1790565b6001600160401b03831115613d1c57613d1c613720565b613d3083613d2a8354613b87565b83613ca9565b6000601f841160018114613d5e5760008515613d4c5750838201355b613d568682613cf0565b845550611053565b600083815260209020601f19861690835b82811015613d8f5786850135825560209485019460019092019101613d6f565b5086821015613dac5760001960f88860031b161c19848701351681555b505060018560011b0183555050505050565b6000813561080e81613c01565b8135613dd681613c01565b60ff8116905081548160ff1982161783556020840135613df581613c01565b61ff008160081b168361ffff1984161717845550505060006040830135613e1b81613c01565b825462ff0000191660109190911b62ff00001617825550613e5b613e4160608401613dbe565b825463ff000000191660189190911b63ff00000016178255565b613e86613e6a60808401613dbe565b825464ff00000000191660209190911b64ff0000000016178255565b6108d8613e9560a08401613dbe565b825465ff0000000000191660289190911b65ff000000000016178255565b613ebd8283613c5c565b6001600160401b03811115613ed457613ed4613720565b613ee881613ee28554613b87565b85613ca9565b6000601f821160018114613f165760008315613f045750838201355b613f0e8482613cf0565b865550613f70565b600085815260209020601f19841690835b82811015613f475786850135825560209485019460019092019101613f27565b5084821015613f645760001960f88660031b161c19848701351681555b505060018360011b0185555b50505050613f816020830183613c5c565b613f8f818360018601613d05565b5050613f9e6040830183613c5c565b613fac818360028601613d05565b50506108d86060830160038301613dcb565b600060ff821660ff8103613fd457613fd4613c2d565b60010192915050565b60008151613fef8185602086016135b7565b9290920192915050565b6000835161400b8184602088016135b7565b600160fd1b90830190815283516140298160018401602088016135b7565b01600101949350505050565b600083516140478184602088016135b7565b6101d160f51b90830190815283516140668160028401602088016135b7565b01600201949350505050565b607b60f81b815268113730b6b2911d101160b91b600182015285516000906140a181600a850160208b016135b7565b61088b60f21b600a918401918201526b1139b832b1b4b2b9911d101160a11b600c8201526140d26018820188613fdd565b61088b60f21b815290506f113232b9b1b934b83a34b7b7111d101160811b60028201526141026012820187613fdd565b61088b60f21b81529050691134b6b0b3b2911d101160b11b600282015261412c600c820186613fdd565b61088b60f21b815290506c1130ba3a3934b13aba32b9911d60991b6002820152614159600f820185613fdd565b607d60f81b815260010198975050505050505050565b7f646174613a6170706c69636174696f6e2f6a736f6e3b6261736536342c0000008152600082516141a781601d8501602087016135b7565b91909101601d0192915050565b6000602082840312156141c657600080fd5b5051919050565b6001600160a01b0385811682528416602082015260408101839052608060608201819052600090614200908301846135db565b9695505050505050565b60006020828403121561421c57600080fd5b81516116c481613584565b605b60f81b815260008851614243816001850160208d016135b7565b600b60fa1b6001918401918201528851614264816002840160208d016135b7565b600181830101915050600b60fa1b6001820152875161428a816002840160208c016135b7565b600181830101915050600b60fa1b60018201526142aa6002820188613fdd565b600b60fa1b815290506142c06001820187613fdd565b600b60fa1b815290506142d66001820186613fdd565b600b60fa1b815290506142ec6001820185613fdd565b605d60f81b81526001019a9950505050505050505050565b81516001600160401b0381111561431d5761431d613720565b6143318161432b8454613b87565b84613ca9565b6020601f82116001811461435f576000831561434d5750848201515b6143578482613cf0565b855550611053565b600084815260208120601f198516915b8281101561438f578785015182556020948501946001909201910161436f565b50848210156143ad5786840151600019600387901b60f8161c191681555b50505050600190811b01905550565b8181038181111561080e5761080e613c2d565b634e487b7160e01b600052603160045260246000fd5b607b60f81b81526e113a3930b4ba2fba3cb832911d101160891b6001820152825160009061441a8160108501602088016135b7565b61088b60f21b60109184019182015269113b30b63ab2911d101160b11b6012820152835161444f81601c8401602088016135b7565b601160f91b601c9290910191820152607d60f81b601d820152601e01949350505050565b607b60f81b81526e113a3930b4ba2fba3cb832911d101160891b600182015282516000906144a88160108501602088016135b7565b61088b60f21b60109184019182015267113b30b63ab2911d60c11b601282015283516144db81601a8401602088016135b7565b607d60f81b601a9290910191820152601b01949350505050565b808202811582820484141761080e5761080e613c2d565b8082018082111561080e5761080e613c2d565b60008261452e5761452e613bc1565b500490565b600082516145458184602087016135b7565b919091019291505056fec1f6fe24621ce81ec5827caf0253cadb74709b061630e6b55e82371705932000645e039705490088daad89bae25049a34f4a9072d398537b1ab2425f24cbed0080bb2b638cc20bc4d0a60d66940f3ab4a00c1d7b313497ca82fb0b4ab0079300360894a13ba1a3210667c828492db98dca3e2076cc3735a920a3ca505d382bbc4142434445464748494a4b4c4d4e4f505152535455565758595a6162636465666768696a6b6c6d6e6f707172737475767778797a303132333435363738392b2f645e039705490088daad89bae25049a34f4a9072d398537b1ab2425f24cbed0202dd7bc7dec4dceedda775e58dd541e08a116c6c53815c0bd028192f7b626800a26469706673582212205c1b91e7576f09ff3e8e84c9a7a22a6b445ffe4dd8a394ccaf393dc34733372264736f6c634300081c0033",
  "linkReferences": {},
  "deployedLinkReferences": {}
}