{
  "_format": "hh-sol-artifact-1",
  "contractName": "TheBugs",
  "sourceName": "contracts/TheBugs.sol",
  "abi": [
    {
      "inputs": [],
      "stateMutability": "nonpayable",
      "type": "constructor"
    },
    {
      "inputs": [],
      "name": "AccessControlBadConfirmation",
      "type": "error"
    },
    {
      "inputs": [
        {
          "internalType": "address",
          "name": "account",
          "type": "address"
        },
        {
          "internalType": "bytes32",
          "name": "neededRole",
          "type": "bytes32"
        }
      ],
      "name": "AccessControlUnauthorizedAccount",
      "type": "error"
    },
    {
      "inputs": [
        {
          "internalType": "address",
          "name": "target",
          "type": "address"
        }
      ],
      "name": "AddressEmptyCode",
      "type": "error"
    },
    {
      "inputs": [
        {
          "internalType": "address",
          "name": "implementation",
          "type": "address"
        }
      ],
      "name": "ERC1967InvalidImplementation",
      "type": "error"
    },
    {
      "inputs": [],
      "name": "ERC1967NonPayable",
      "type": "error"
    },
    {
      "inputs": [],
      "name": "ERC721EnumerableForbiddenBatchMint",
      "type": "error"
    },
    {
      "inputs": [
        {
          "internalType": "address",
          "name": "sender",
          "type": "address"
        },
        {
          "internalType": "uint256",
          "name": "tokenId",
          "type": "uint256"
        },
        {
          "internalType": "address",
          "name": "owner",
          "type": "address"
        }
      ],
      "name": "ERC721IncorrectOwner",
      "type": "error"
    },
    {
      "inputs": [
        {
          "internalType": "address",
          "name": "operator",
          "type": "address"
        },
        {
          "internalType": "uint256",
          "name": "tokenId",
          "type": "uint256"
        }
      ],
      "name": "ERC721InsufficientApproval",
      "type": "error"
    },
    {
      "inputs": [
        {
          "internalType": "address",
          "name": "approver",
          "type": "address"
        }
      ],
      "name": "ERC721InvalidApprover",
      "type": "error"
    },
    {
      "inputs": [
        {
          "internalType": "address",
          "name": "operator",
          "type": "address"
        }
      ],
      "name": "ERC721InvalidOperator",
      "type": "error"
    },
    {
      "inputs": [
        {
          "internalType": "address",
          "name": "owner",
          "type": "address"
        }
      ],
      "name": "ERC721InvalidOwner",
      "type": "error"
    },
    {
      "inputs": [
        {
          "internalType": "address",
          "name": "receiver",
          "type": "address"
        }
      ],
      "name": "ERC721InvalidReceiver",
      "type": "error"
    },
    {
      "inputs": [
        {
          "internalType": "address",
          "name": "sender",
          "type": "address"
        }
      ],
      "name": "ERC721InvalidSender",
      "type": "error"
    },
    {
      "inputs": [
        {
          "internalType": "uint256",
          "name": "tokenId",
          "type": "uint256"
        }
      ],
      "name": "ERC721NonexistentToken",
      "type": "error"
    },
    {
      "inputs": [
        {
          "internalType": "address",
          "name": "owner",
          "type": "address"
        },
        {
          "internalType": "uint256",
          "name": "index",
          "type": "uint256"
        }
      ],
      "name": "ERC721OutOfBoundsIndex",
      "type": "error"
    },
    {
      "inputs": [],
      "name": "FailedCall",
      "type": "error"
    },
    {
      "inputs": [],
      "name": "InvalidInitialization",
      "type": "error"
    },
    {
      "inputs": [],
      "name": "NotInitializing",
      "type": "error"
    },
    {
      "inputs": [],
      "name": "UUPSUnauthorizedCallContext",
      "type": "error"
    },
    {
      "inputs": [
        {
          "internalType": "bytes32",
          "name": "slot",
          "type": "bytes32"
        }
      ],
      "name": "UUPSUnsupportedProxiableUUID",
      "type": "error"
    },
    {
      "anonymous": false,
      "inputs": [
        {
          "indexed": true,
          "internalType": "address",
          "name": "owner",
          "type": "address"
        },
        {
          "indexed": true,
          "internalType": "address",
          "name": "approved",
          "type": "address"
        },
        {
          "indexed": true,
          "internalType": "uint256",
          "name": "tokenId",
          "type": "uint256"
        }
      ],
      "name": "Approval",
      "type": "event"
    },
    {
      "anonymous": false,
      "inputs": [
        {
          "indexed": true,
          "internalType": "address",
          "name": "owner",
          "type": "address"
        },
        {
          "indexed": true,
          "internalType": "address",
          "name": "operator",
          "type": "address"
        },
        {
          "indexed": false,
          "internalType": "bool",
          "name": "approved",
          "type": "bool"
        }
      ],
      "name": "ApprovalForAll",
      "type": "event"
    },
    {
      "anonymous": false,
      "inputs": [
        {
          "indexed": false,
          "internalType": "uint64",
          "name": "version",
          "type": "uint64"
        }
      ],
      "name": "Initialized",
      "type": "event"
    },
    {
      "anonymous": false,
      "inputs": [
        {
          "indexed": true,
          "internalType": "bytes32",
          "name": "role",
          "type": "bytes32"
        },
        {
          "indexed": true,
          "internalType": "bytes32",
          "name": "previousAdminRole",
          "type": "bytes32"
        },
        {
          "indexed": true,
          "internalType": "bytes32",
          "name": "newAdminRole",
          "type": "bytes32"
        }
      ],
      "name": "RoleAdminChanged",
      "type": "event"
    },
    {
      "anonymous": false,
      "inputs": [
        {
          "indexed": true,
          "internalType": "bytes32",
          "name": "role",
          "type": "bytes32"
        },
        {
          "indexed": true,
          "internalType": "address",
          "name": "account",
          "type": "address"
        },
        {
          "indexed": true,
          "internalType": "address",
          "name": "sender",
          "type": "address"
        }
      ],
      "name": "RoleGranted",
      "type": "event"
    },
    {
      "anonymous": false,
      "inputs": [
        {
          "indexed": true,
          "internalType": "bytes32",
          "name": "role",
          "type": "bytes32"
        },
        {
          "indexed": true,
          "internalType": "address",
          "name": "account",
          "type": "address"
        },
        {
          "indexed": true,
          "internalType": "address",
          "name": "sender",
          "type": "address"
        }
      ],
      "name": "RoleRevoked",
      "type": "event"
    },
    {
      "anonymous": false,
      "inputs": [
        {
          "indexed": true,
          "internalType": "address",
          "name": "from",
          "type": "address"
        },
        {
          "indexed": true,
          "internalType": "address",
          "name": "to",
          "type": "address"
        },
        {
          "indexed": true,
          "internalType": "uint256",
          "name": "tokenId",
          "type": "uint256"
        }
      ],
      "name": "Transfer",
      "type": "event"
    },
    {
      "anonymous": false,
      "inputs": [
        {
          "indexed": true,
          "internalType": "address",
          "name": "implementation",
          "type": "address"
        }
      ],
      "name": "Upgraded",
      "type": "event"
    },
    {
      "inputs": [],
      "name": "COMPETITION_ROLE",
      "outputs": [
        {
          "internalType": "bytes32",
          "name": "",
          "type": "bytes32"
        }
      ],
      "stateMutability": "view",
      "type": "function"
    },
    {
      "inputs": [],
      "name": "DATA_SETTER_ROLE",
      "outputs": [
        {
          "internalType": "bytes32",
          "name": "",
          "type": "bytes32"
        }
      ],
      "stateMutability": "view",
      "type": "function"
    },
    {
      "inputs": [],
      "name": "DEFAULT_ADMIN_ROLE",
      "outputs": [
        {
          "internalType": "bytes32",
          "name": "",
          "type": "bytes32"
        }
      ],
      "stateMutability": "view",
      "type": "function"
    },
    {
      "inputs": [],
      "name": "MINTER_ROLE",
      "outputs": [
        {
          "internalType": "bytes32",
          "name": "",
          "type": "bytes32"
        }
      ],
      "stateMutability": "view",
      "type": "function"
    },
    {
      "inputs": [],
      "name": "SPECIES_COUNT",
      "outputs": [
        {
          "internalType": "uint256",
          "name": "",
          "type": "uint256"
        }
      ],
      "stateMutability": "view",
      "type": "function"
    },
    {
      "inputs": [],
      "name": "UPGRADER_ROLE",
      "outputs": [
        {
          "internalType": "bytes32",
          "name": "",
          "type": "bytes32"
        }
      ],
      "stateMutability": "view",
      "type": "function"
    },
    {
      "inputs": [],
      "name": "UPGRADE_INTERFACE_VERSION",
      "outputs": [
        {
          "internalType": "string",
          "name": "",
          "type": "string"
        }
      ],
      "stateMutability": "view",
      "type": "function"
    },
    {
      "inputs": [
        {
          "internalType": "address",
          "name": "to",
          "type": "address"
        },
        {
          "internalType": "uint256",
          "name": "tokenId",
          "type": "uint256"
        }
      ],
      "name": "approve",
      "outputs": [],
      "stateMutability": "nonpayable",
      "type": "function"
    },
    {
      "inputs": [
        {
          "internalType": "address",
          "name": "owner",
          "type": "address"
        }
      ],
      "name": "balanceOf",
      "outputs": [
        {
          "internalType": "uint256",
          "name": "",
          "type": "uint256"
        }
      ],
      "stateMutability": "view",
      "type": "function"
    },
    {
      "inputs": [
        {
          "internalType": "uint256",
          "name": "",
          "type": "uint256"
        }
      ],
      "name": "bugDatas",
      "outputs": [
        {
          "internalType": "string",
          "name": "name",
          "type": "string"
        },
        {
          "components": [
            {
              "internalType": "uint8",
              "name": "intelligence",
              "type": "uint8"
            },
            {
              "internalType": "uint8",
              "name": "nimbleness",
              "type": "uint8"
            },
            {
              "internalType": "uint8",
              "name": "strength",
              "type": "uint8"
            },
            {
              "internalType": "uint8",
              "name": "endurance",
              "type": "uint8"
            },
            {
              "internalType": "uint8",
              "name": "charisma",
              "type": "uint8"
            },
            {
              "internalType": "uint8",
              "name": "talent",
              "type": "uint8"
            }
          ],
          "internalType": "struct TheBugs.Stats",
          "name": "stats",
          "type": "tuple"
        }
      ],
      "stateMutability": "view",
      "type": "function"
    },
    {
      "inputs": [
        {
          "internalType": "uint256",
          "name": "tokenId",
          "type": "uint256"
        }
      ],
      "name": "calculateRarity",
      "outputs": [
        {
          "internalType": "enum TheBugs.Rarity",
          "name": "",
          "type": "uint8"
        }
      ],
      "stateMutability": "pure",
      "type": "function"
    },
    {
      "inputs": [
        {
          "internalType": "uint256",
          "name": "tokenId",
          "type": "uint256"
        }
      ],
      "name": "calculateStats",
      "outputs": [
        {
          "components": [
            {
              "internalType": "uint8",
              "name": "intelligence",
              "type": "uint8"
            },
            {
              "internalType": "uint8",
              "name": "nimbleness",
              "type": "uint8"
            },
            {
              "internalType": "uint8",
              "name": "strength",
              "type": "uint8"
            },
            {
              "internalType": "uint8",
              "name": "endurance",
              "type": "uint8"
            },
            {
              "internalType": "uint8",
              "name": "charisma",
              "type": "uint8"
            },
            {
              "internalType": "uint8",
              "name": "talent",
              "type": "uint8"
            }
          ],
          "internalType": "struct TheBugs.Stats",
          "name": "",
          "type": "tuple"
        }
      ],
      "stateMutability": "view",
      "type": "function"
    },
    {
      "inputs": [
        {
          "internalType": "uint256",
          "name": "",
          "type": "uint256"
        }
      ],
      "name": "draws",
      "outputs": [
        {
          "internalType": "uint256",
          "name": "",
          "type": "uint256"
        }
      ],
      "stateMutability": "view",
      "type": "function"
    },
    {
      "inputs": [
        {
          "internalType": "uint256",
          "name": "tokenId",
          "type": "uint256"
        }
      ],
      "name": "getApproved",
      "outputs": [
        {
          "internalType": "address",
          "name": "",
          "type": "address"
        }
      ],
      "stateMutability": "view",
      "type": "function"
    },
    {
      "inputs": [
        {
          "internalType": "bytes32",
          "name": "role",
          "type": "bytes32"
        }
      ],
      "name": "getRoleAdmin",
      "outputs": [
        {
          "internalType": "bytes32",
          "name": "",
          "type": "bytes32"
        }
      ],
      "stateMutability": "view",
      "type": "function"
    },
    {
      "inputs": [
        {
          "internalType": "bytes32",
          "name": "role",
          "type": "bytes32"
        },
        {
          "internalType": "uint256",
          "name": "index",
          "type": "uint256"
        }
      ],
      "name": "getRoleMember",
      "outputs": [
        {
          "internalType": "address",
          "name": "",
          "type": "address"
        }
      ],
      "stateMutability": "view",
      "type": "function"
    },
    {
      "inputs": [
        {
          "internalType": "bytes32",
          "name": "role",
          "type": "bytes32"
        }
      ],
      "name": "getRoleMemberCount",
      "outputs": [
        {
          "internalType": "uint256",
          "name": "",
          "type": "uint256"
        }
      ],
      "stateMutability": "view",
      "type": "function"
    },
    {
      "inputs": [
        {
          "internalType": "bytes32",
          "name": "role",
          "type": "bytes32"
        }
      ],
      "name": "getRoleMembers",
      "outputs": [
        {
          "internalType": "address[]",
          "name": "",
          "type": "address[]"
        }
      ],
      "stateMutability": "view",
      "type": "function"
    },
    {
      "inputs": [
        {
          "internalType": "uint256",
          "name": "tokenId",
          "type": "uint256"
        }
      ],
      "name": "getSpeciesData",
      "outputs": [
        {
          "components": [
            {
              "internalType": "string",
              "name": "name",
              "type": "string"
            },
            {
              "internalType": "string",
              "name": "description",
              "type": "string"
            },
            {
              "internalType": "string",
              "name": "image",
              "type": "string"
            },
            {
              "components": [
                {
                  "internalType": "uint8",
                  "name": "intelligence",
                  "type": "uint8"
                },
                {
                  "internalType": "uint8",
                  "name": "nimbleness",
                  "type": "uint8"
                },
                {
                  "internalType": "uint8",
                  "name": "strength",
                  "type": "uint8"
                },
                {
                  "internalType": "uint8",
                  "name": "endurance",
                  "type": "uint8"
                },
                {
                  "internalType": "uint8",
                  "name": "charisma",
                  "type": "uint8"
                },
                {
                  "internalType": "uint8",
                  "name": "talent",
                  "type": "uint8"
                }
              ],
              "internalType": "struct TheBugs.Stats",
              "name": "baseStats",
              "type": "tuple"
            }
          ],
          "internalType": "struct TheBugs.SpeciesData",
          "name": "",
          "type": "tuple"
        }
      ],
      "stateMutability": "view",
      "type": "function"
    },
    {
      "inputs": [
        {
          "internalType": "bytes32",
          "name": "role",
          "type": "bytes32"
        },
        {
          "internalType": "address",
          "name": "account",
          "type": "address"
        }
      ],
      "name": "grantRole",
      "outputs": [],
      "stateMutability": "nonpayable",
      "type": "function"
    },
    {
      "inputs": [
        {
          "internalType": "bytes32",
          "name": "role",
          "type": "bytes32"
        },
        {
          "internalType": "address",
          "name": "account",
          "type": "address"
        }
      ],
      "name": "hasRole",
      "outputs": [
        {
          "internalType": "bool",
          "name": "",
          "type": "bool"
        }
      ],
      "stateMutability": "view",
      "type": "function"
    },
    {
      "inputs": [
        {
          "internalType": "uint256",
          "name": "tokenId",
          "type": "uint256"
        }
      ],
      "name": "incrementDraws",
      "outputs": [],
      "stateMutability": "nonpayable",
      "type": "function"
    },
    {
      "inputs": [
        {
          "internalType": "uint256",
          "name": "tokenId",
          "type": "uint256"
        }
      ],
      "name": "incrementLosses",
      "outputs": [],
      "stateMutability": "nonpayable",
      "type": "function"
    },
    {
      "inputs": [
        {
          "internalType": "uint256",
          "name": "tokenId",
          "type": "uint256"
        }
      ],
      "name": "incrementWins",
      "outputs": [],
      "stateMutability": "nonpayable",
      "type": "function"
    },
    {
      "inputs": [],
      "name": "initialize",
      "outputs": [],
      "stateMutability": "nonpayable",
      "type": "function"
    },
    {
      "inputs": [
        {
          "internalType": "address",
          "name": "owner",
          "type": "address"
        },
        {
          "internalType": "address",
          "name": "operator",
          "type": "address"
        }
      ],
      "name": "isApprovedForAll",
      "outputs": [
        {
          "internalType": "bool",
          "name": "",
          "type": "bool"
        }
      ],
      "stateMutability": "view",
      "type": "function"
    },
    {
      "inputs": [
        {
          "internalType": "uint256",
          "name": "tokenId",
          "type": "uint256"
        }
      ],
      "name": "isPremium",
      "outputs": [
        {
          "internalType": "bool",
          "name": "",
          "type": "bool"
        }
      ],
      "stateMutability": "pure",
      "type": "function"
    },
    {
      "inputs": [
        {
          "internalType": "uint256",
          "name": "",
          "type": "uint256"
        }
      ],
      "name": "losses",
      "outputs": [
        {
          "internalType": "uint256",
          "name": "",
          "type": "uint256"
        }
      ],
      "stateMutability": "view",
      "type": "function"
    },
    {
      "inputs": [
        {
          "internalType": "address",
          "name": "to",
          "type": "address"
        },
        {
          "internalType": "uint256",
          "name": "tokenId",
          "type": "uint256"
        },
        {
          "internalType": "string",
          "name": "name",
          "type": "string"
        }
      ],
      "name": "mint",
      "outputs": [],
      "stateMutability": "nonpayable",
      "type": "function"
    },
    {
      "inputs": [],
      "name": "name",
      "outputs": [
        {
          "internalType": "string",
          "name": "",
          "type": "string"
        }
      ],
      "stateMutability": "view",
      "type": "function"
    },
    {
      "inputs": [
        {
          "internalType": "uint256",
          "name": "tokenId",
          "type": "uint256"
        }
      ],
      "name": "ownerOf",
      "outputs": [
        {
          "internalType": "address",
          "name": "",
          "type": "address"
        }
      ],
      "stateMutability": "view",
      "type": "function"
    },
    {
      "inputs": [],
      "name": "proxiableUUID",
      "outputs": [
        {
          "internalType": "bytes32",
          "name": "",
          "type": "bytes32"
        }
      ],
      "stateMutability": "view",
      "type": "function"
    },
    {
      "inputs": [
        {
          "internalType": "enum TheBugs.Rarity",
          "name": "rarity",
          "type": "uint8"
        }
      ],
      "name": "rarityToString",
      "outputs": [
        {
          "internalType": "string",
          "name": "",
          "type": "string"
        }
      ],
      "stateMutability": "pure",
      "type": "function"
    },
    {
      "inputs": [
        {
          "internalType": "bytes32",
          "name": "role",
          "type": "bytes32"
        },
        {
          "internalType": "address",
          "name": "callerConfirmation",
          "type": "address"
        }
      ],
      "name": "renounceRole",
      "outputs": [],
      "stateMutability": "nonpayable",
      "type": "function"
    },
    {
      "inputs": [
        {
          "internalType": "bytes32",
          "name": "role",
          "type": "bytes32"
        },
        {
          "internalType": "address",
          "name": "account",
          "type": "address"
        }
      ],
      "name": "revokeRole",
      "outputs": [],
      "stateMutability": "nonpayable",
      "type": "function"
    },
    {
      "inputs": [
        {
          "internalType": "address",
          "name": "from",
          "type": "address"
        },
        {
          "internalType": "address",
          "name": "to",
          "type": "address"
        },
        {
          "internalType": "uint256",
          "name": "tokenId",
          "type": "uint256"
        }
      ],
      "name": "safeTransferFrom",
      "outputs": [],
      "stateMutability": "nonpayable",
      "type": "function"
    },
    {
      "inputs": [
        {
          "internalType": "address",
          "name": "from",
          "type": "address"
        },
        {
          "internalType": "address",
          "name": "to",
          "type": "address"
        },
        {
          "internalType": "uint256",
          "name": "tokenId",
          "type": "uint256"
        },
        {
          "internalType": "bytes",
          "name": "data",
          "type": "bytes"
        }
      ],
      "name": "safeTransferFrom",
      "outputs": [],
      "stateMutability": "nonpayable",
      "type": "function"
    },
    {
      "inputs": [
        {
          "internalType": "address",
          "name": "operator",
          "type": "address"
        },
        {
          "internalType": "bool",
          "name": "approved",
          "type": "bool"
        }
      ],
      "name": "setApprovalForAll",
      "outputs": [],
      "stateMutability": "nonpayable",
      "type": "function"
    },
    {
      "inputs": [
        {
          "internalType": "uint256",
          "name": "speciesID",
          "type": "uint256"
        },
        {
          "components": [
            {
              "internalType": "string",
              "name": "name",
              "type": "string"
            },
            {
              "internalType": "string",
              "name": "description",
              "type": "string"
            },
            {
              "internalType": "string",
              "name": "image",
              "type": "string"
            },
            {
              "components": [
                {
                  "internalType": "uint8",
                  "name": "intelligence",
                  "type": "uint8"
                },
                {
                  "internalType": "uint8",
                  "name": "nimbleness",
                  "type": "uint8"
                },
                {
                  "internalType": "uint8",
                  "name": "strength",
                  "type": "uint8"
                },
                {
                  "internalType": "uint8",
                  "name": "endurance",
                  "type": "uint8"
                },
                {
                  "internalType": "uint8",
                  "name": "charisma",
                  "type": "uint8"
                },
                {
                  "internalType": "uint8",
                  "name": "talent",
                  "type": "uint8"
                }
              ],
              "internalType": "struct TheBugs.Stats",
              "name": "baseStats",
              "type": "tuple"
            }
          ],
          "internalType": "struct TheBugs.SpeciesData",
          "name": "speciesData",
          "type": "tuple"
        }
      ],
      "name": "setSpeciesData",
      "outputs": [],
      "stateMutability": "nonpayable",
      "type": "function"
    },
    {
      "inputs": [
        {
          "internalType": "uint256",
          "name": "",
          "type": "uint256"
        }
      ],
      "name": "speciesDatas",
      "outputs": [
        {
          "internalType": "string",
          "name": "name",
          "type": "string"
        },
        {
          "internalType": "string",
          "name": "description",
          "type": "string"
        },
        {
          "internalType": "string",
          "name": "image",
          "type": "string"
        },
        {
          "components": [
            {
              "internalType": "uint8",
              "name": "intelligence",
              "type": "uint8"
            },
            {
              "internalType": "uint8",
              "name": "nimbleness",
              "type": "uint8"
            },
            {
              "internalType": "uint8",
              "name": "strength",
              "type": "uint8"
            },
            {
              "internalType": "uint8",
              "name": "endurance",
              "type": "uint8"
            },
            {
              "internalType": "uint8",
              "name": "charisma",
              "type": "uint8"
            },
            {
              "internalType": "uint8",
              "name": "talent",
              "type": "uint8"
            }
          ],
          "internalType": "struct TheBugs.Stats",
          "name": "baseStats",
          "type": "tuple"
        }
      ],
      "stateMutability": "view",
      "type": "function"
    },
    {
      "inputs": [
        {
          "internalType": "bytes4",
          "name": "interfaceId",
          "type": "bytes4"
        }
      ],
      "name": "supportsInterface",
      "outputs": [
        {
          "internalType": "bool",
          "name": "",
          "type": "bool"
        }
      ],
      "stateMutability": "view",
      "type": "function"
    },
    {
      "inputs": [],
      "name": "symbol",
      "outputs": [
        {
          "internalType": "string",
          "name": "",
          "type": "string"
        }
      ],
      "stateMutability": "view",
      "type": "function"
    },
    {
      "inputs": [
        {
          "internalType": "uint256",
          "name": "index",
          "type": "uint256"
        }
      ],
      "name": "tokenByIndex",
      "outputs": [
        {
          "internalType": "uint256",
          "name": "",
          "type": "uint256"
        }
      ],
      "stateMutability": "view",
      "type": "function"
    },
    {
      "inputs": [
        {
          "internalType": "address",
          "name": "owner",
          "type": "address"
        },
        {
          "internalType": "uint256",
          "name": "index",
          "type": "uint256"
        }
      ],
      "name": "tokenOfOwnerByIndex",
      "outputs": [
        {
          "internalType": "uint256",
          "name": "",
          "type": "uint256"
        }
      ],
      "stateMutability": "view",
      "type": "function"
    },
    {
      "inputs": [
        {
          "internalType": "uint256",
          "name": "tokenId",
          "type": "uint256"
        }
      ],
      "name": "tokenURI",
      "outputs": [
        {
          "internalType": "string",
          "name": "",
          "type": "string"
        }
      ],
      "stateMutability": "view",
      "type": "function"
    },
    {
      "inputs": [
        {
          "internalType": "address",
          "name": "owner",
          "type": "address"
        },
        {
          "internalType": "uint256",
          "name": "fromIndex",
          "type": "uint256"
        },
        {
          "internalType": "uint256",
          "name": "toIndex",
          "type": "uint256"
        }
      ],
      "name": "tokenURIsByOwnerAndIndexRange",
      "outputs": [
        {
          "internalType": "string[]",
          "name": "",
          "type": "string[]"
        }
      ],
      "stateMutability": "view",
      "type": "function"
    },
    {
      "inputs": [],
      "name": "totalSupply",
      "outputs": [
        {
          "internalType": "uint256",
          "name": "",
          "type": "uint256"
        }
      ],
      "stateMutability": "view",
      "type": "function"
    },
    {
      "inputs": [
        {
          "internalType": "address",
          "name": "from",
          "type": "address"
        },
        {
          "internalType": "address",
          "name": "to",
          "type": "address"
        },
        {
          "internalType": "uint256",
          "name": "tokenId",
          "type": "uint256"
        }
      ],
      "name": "transferFrom",
      "outputs": [],
      "stateMutability": "nonpayable",
      "type": "function"
    },
    {
      "inputs": [
        {
          "internalType": "address",
          "name": "newImplementation",
          "type": "address"
        },
        {
          "internalType": "bytes",
          "name": "data",
          "type": "bytes"
        }
      ],
      "name": "upgradeToAndCall",
      "outputs": [],
      "stateMutability": "payable",
      "type": "function"
    },
    {
      "inputs": [
        {
          "internalType": "uint256",
          "name": "",
          "type": "uint256"
        }
      ],
      "name": "wins",
      "outputs": [
        {
          "internalType": "uint256",
          "name": "",
          "type": "uint256"
        }
      ],
      "stateMutability": "view",
      "type": "function"
    }
  ],
  "bytecode": "0x60a06040523060805234801561001457600080fd5b507ff0c57e16840df040f15088dc2f81fe391c3923bec73e23a9662efc9c229c6a00805468010000000000000000810460ff1615906001600160401b031660008115801561005f5750825b90506000826001600160401b0316600114801561007b5750303b155b905081158015610089575080155b156100a75760405163f92ee8a960e01b815260040160405180910390fd5b84546001600160401b031916600117855583156100d557845460ff60401b1916680100000000000000001785555b831561011b57845460ff60401b19168555604051600181527fc7f505b2f371ae2175ee4913f4499e1f2633a7b5936321eed1cdaeb6115181d29060200160405180910390a15b5050505050608051614dc0610149600039600081816123090152818161233201526124970152614dc06000f3fe6080604052600436106102c85760003560e01c806375e58d1611610175578063ad3cb1cc116100dc578063d539139311610095578063dfb638bf1161006f578063dfb638bf14610935578063e985e9c514610962578063f72c0d8b14610982578063fd2aec34146109b657600080fd5b8063d5391393146108ad578063d547741f146108e1578063d956087d1461090157600080fd5b8063ad3cb1cc146107dc578063b88d4fde1461080d578063bbeff99a1461082d578063c87b56dd1461084d578063ca15c8731461086d578063d3fc98641461088d57600080fd5b806395d89b411161012e57806395d89b411461070857806399bb52151461071d578063a2168d071461074a578063a217fddf1461077a578063a22cb4651461078f578063a3246ad3146107af57600080fd5b806375e58d16146106465780637b0e4ab41461066657806380bfe883146106865780638129fc1c146106b35780639010d07c146106c857806391d14854146106e857600080fd5b80632f2ff15d116102345780634f1ef286116101ed57806357edac82116101c757806357edac82146105c357806359797d8a146105d85780636352211e1461060657806370a082311461062657600080fd5b80634f1ef2861461057b5780634f6ccce71461058e57806352d1902d146105ae57600080fd5b80632f2ff15d146104ae5780632f745c59146104ce57806336568abe146104ee578063406091e31461050e57806342842e0e1461052e5780634a167f6d1461054e57600080fd5b80630cc36c36116102865780630cc36c36146103d25780630d89aeec146103ff5780630e25272d1461041f57806318160ddd1461044c57806323b872dd1461046e578063248a9ca31461048e57600080fd5b8062508da7146102cd57806301ffc9a714610302578063029bca781461033257806306fdde0314610356578063081812fc14610378578063095ea7b3146103b0575b600080fd5b3480156102d957600080fd5b506102ef600080516020614d2b83398151915281565b6040519081526020015b60405180910390f35b34801561030e57600080fd5b5061032261031d366004613ab3565b6109e3565b60405190151581526020016102f9565b34801561033e57600080fd5b5061032261034d366004613ad0565b60ff1c60011490565b34801561036257600080fd5b5061036b6109f4565b6040516102f99190613b39565b34801561038457600080fd5b50610398610393366004613ad0565b610a98565b6040516001600160a01b0390911681526020016102f9565b3480156103bc57600080fd5b506103d06103cb366004613b68565b610aad565b005b3480156103de57600080fd5b506102ef6103ed366004613ad0565b60046020526000908152604090205481565b34801561040b57600080fd5b506103d061041a366004613ad0565b610abc565b34801561042b57600080fd5b5061043f61043a366004613ad0565b610af7565b6040516102f99190613ba8565b34801561045857600080fd5b50600080516020614d4b833981519152546102ef565b34801561047a57600080fd5b506103d0610489366004613bd0565b610be4565b34801561049a57600080fd5b506102ef6104a9366004613ad0565b610c74565b3480156104ba57600080fd5b506103d06104c9366004613c0d565b610c96565b3480156104da57600080fd5b506102ef6104e9366004613b68565b610cb2565b3480156104fa57600080fd5b506103d0610509366004613c0d565b610d26565b34801561051a57600080fd5b506103d0610529366004613ad0565b610d5e565b34801561053a57600080fd5b506103d0610549366004613bd0565b610d90565b34801561055a57600080fd5b5061056e610569366004613c39565b610dab565b6040516102f99190613c6c565b6103d0610589366004613d74565b610e76565b34801561059a57600080fd5b506102ef6105a9366004613ad0565b610e91565b3480156105ba57600080fd5b506102ef610f09565b3480156105cf57600080fd5b506102ef600381565b3480156105e457600080fd5b506105f86105f3366004613ad0565b610f26565b6040516102f9929190613e0d565b34801561061257600080fd5b50610398610621366004613ad0565b611022565b34801561063257600080fd5b506102ef610641366004613e2f565b61102d565b34801561065257600080fd5b506103d0610661366004613e4a565b611089565b34801561067257600080fd5b506103d0610681366004613ad0565b611217565b34801561069257600080fd5b506102ef6106a1366004613ad0565b60026020526000908152604090205481565b3480156106bf57600080fd5b506103d0611249565b3480156106d457600080fd5b506103986106e3366004613e98565b6113ea565b3480156106f457600080fd5b50610322610703366004613c0d565b611419565b34801561071457600080fd5b5061036b611451565b34801561072957600080fd5b506102ef610738366004613ad0565b60036020526000908152604090205481565b34801561075657600080fd5b5061076a610765366004613ad0565b611490565b6040516102f99493929190613eba565b34801561078657600080fd5b506102ef600081565b34801561079b57600080fd5b506103d06107aa366004613f05565b6116a8565b3480156107bb57600080fd5b506107cf6107ca366004613ad0565b6116b3565b6040516102f99190613f36565b3480156107e857600080fd5b5061036b604051806040016040528060058152602001640352e302e360dc1b81525081565b34801561081957600080fd5b506103d0610828366004613f82565b6116de565b34801561083957600080fd5b5061036b610848366004613fe9565b6116f6565b34801561085957600080fd5b5061036b610868366004613ad0565b611868565b34801561087957600080fd5b506102ef610888366004613ad0565b611a0e565b34801561089957600080fd5b506103d06108a836600461400a565b611a34565b3480156108b957600080fd5b506102ef7f9f2df0fed2c77648de5860a4cc508cd0818c85b8b8a1ab4ceeef8d981c8956a681565b3480156108ed57600080fd5b506103d06108fc366004613c0d565b611aa8565b34801561090d57600080fd5b506102ef7f4ddd85e313b1db5c4144000907a5124c34f10d6a5ef9c2cddb8e5f4467c74b5381565b34801561094157600080fd5b50610955610950366004613ad0565b611ac4565b6040516102f99190614092565b34801561096e57600080fd5b5061032261097d366004614100565b611d10565b34801561098e57600080fd5b506102ef7f189ab7a9244df0848122154315af71fe140f3db0fe014031783b0946b8c9d2e381565b3480156109c257600080fd5b506109d66109d1366004613ad0565b611d5d565b6040516102f9919061412a565b60006109ee826120d3565b92915050565b600080516020614cab8339815191528054606091908190610a1490614138565b80601f0160208091040260200160405190810160405280929190818152602001828054610a4090614138565b8015610a8d5780601f10610a6257610100808354040283529160200191610a8d565b820191906000526020600020905b815481529060010190602001808311610a7057829003601f168201915b505050505091505090565b6000610aa3826120f8565b506109ee82612130565b610ab882823361216a565b5050565b600080516020614d2b833981519152610ad481612177565b6000828152600360205260408120805491610aee83614182565b91905055505050565b60008061271083604051602001610b1f9181526552415249545960d01b602082015260260190565b6040516020818303038152906040528051906020012060001c610b4291906141b1565b905060ff83901c600103610b9257611388811015610b635750600192915050565b612328811015610b765750600292915050565b6125e4811015610b895750600392915050565b50600492915050565b611770811015610ba55750600092915050565b612134811015610bb85750600192915050565b61251c811015610bcb5750600292915050565b61267a811015610b895750600392915050565b50919050565b6001600160a01b038216610c1357604051633250574960e11b8152600060048201526024015b60405180910390fd5b6000610c20838333612184565b9050836001600160a01b0316816001600160a01b031614610c6e576040516364283d7b60e01b81526001600160a01b0380861660048301526024820184905282166044820152606401610c0a565b50505050565b6000908152600080516020614d6b833981519152602052604090206001015490565b610c9f82610c74565b610ca881612177565b610c6e838361227d565b6000600080516020614c8b833981519152610ccc8461102d565b8310610cfd5760405163295f44f760e21b81526001600160a01b038516600482015260248101849052604401610c0a565b6001600160a01b0384166000908152602091825260408082208583529092522054905092915050565b6001600160a01b0381163314610d4f5760405163334bd91960e11b815260040160405180910390fd5b610d5982826122c2565b505050565b600080516020614d2b833981519152610d7681612177565b6000828152600260205260408120805491610aee83614182565b610d59838383604051806020016040528060008152506116de565b60606000610db984846141c5565b610dc49060016141d8565b6001600160401b03811115610ddb57610ddb613cd1565b604051908082528060200260200182016040528015610e0e57816020015b6060815260200190600190039081610df95790505b509050835b838111610e6b576000610e268783610cb2565b9050610e3181611868565b83610e3c88856141c5565b81518110610e4c57610e4c6141eb565b6020026020010181905250508080610e6390614182565b915050610e13565b5090505b9392505050565b610e7e6122fe565b610e87826123a5565b610ab882826123cf565b6000600080516020614c8b833981519152610eb8600080516020614d4b8339815191525490565b8310610ee15760405163295f44f760e21b81526000600482015260248101849052604401610c0a565b806002018381548110610ef657610ef66141eb565b9060005260206000200154915050919050565b6000610f1361248c565b50600080516020614ccb83398151915290565b600160205260009081526040902080548190610f4190614138565b80601f0160208091040260200160405190810160405280929190818152602001828054610f6d90614138565b8015610fba5780601f10610f8f57610100808354040283529160200191610fba565b820191906000526020600020905b815481529060010190602001808311610f9d57829003601f168201915b50506040805160c08101825260019096015460ff80821688526101008204811660208901526201000082048116928801929092526301000000810482166060880152640100000000810482166080880152600160281b90041660a08601525091929150839050565b60006109ee826120f8565b6000600080516020614cab8339815191526001600160a01b038316611068576040516322718ad960e21b815260006004820152602401610c0a565b6001600160a01b039092166000908152600390920160205250604090205490565b7f4ddd85e313b1db5c4144000907a5124c34f10d6a5ef9c2cddb8e5f4467c74b536110b381612177565b600383106111035760405162461bcd60e51b815260206004820152601b60248201527f546865427567733a20696e76616c6964207370657369657320494400000000006044820152606401610c0a565b6060820161111961012084016101008501614210565b61112960a0830160808401614210565b6111396080840160608501614210565b6111496060850160408601614210565b6111596040860160208701614210565b6111666020870187614210565b611170919061422d565b61117a919061422d565b611184919061422d565b61118e919061422d565b611198919061422d565b60ff166019146111f55760405162461bcd60e51b815260206004820152602260248201527f54686520427567733a20696e76616c6964206261736520737461747320746f74604482015261185b60f21b6064820152608401610c0a565b6000848152602081905260409020839061120f828261449d565b505050505050565b600080516020614d2b83398151915261122f81612177565b6000828152600460205260408120805491610aee83614182565b7ff0c57e16840df040f15088dc2f81fe391c3923bec73e23a9662efc9c229c6a008054600160401b810460ff1615906001600160401b031660008115801561128e5750825b90506000826001600160401b031660011480156112aa5750303b155b9050811580156112b8575080155b156112d65760405163f92ee8a960e01b815260040160405180910390fd5b845467ffffffffffffffff19166001178555831561130057845460ff60401b1916600160401b1785555b6113086124d5565b6113106124d5565b61135660405180604001604052806008815260200167546865204275677360c01b815250604051806040016040528060048152602001634255475360e01b8152506124dd565b61135e6124d5565b6113666124d5565b61137160003361227d565b5061139c7f4ddd85e313b1db5c4144000907a5124c34f10d6a5ef9c2cddb8e5f4467c74b533361227d565b5083156113e357845460ff60401b19168555604051600181527fc7f505b2f371ae2175ee4913f4499e1f2633a7b5936321eed1cdaeb6115181d29060200160405180910390a15b5050505050565b6000828152600080516020614c6b83398151915260208190526040822061141190846124ef565b949350505050565b6000918252600080516020614d6b833981519152602090815260408084206001600160a01b0393909316845291905290205460ff1690565b7f80bb2b638cc20bc4d0a60d66940f3ab4a00c1d7b313497ca82fb0b4ab00793018054606091600080516020614cab83398151915291610a1490614138565b6000602081905290815260409020805481906114ab90614138565b80601f01602080910402602001604051908101604052809291908181526020018280546114d790614138565b80156115245780601f106114f957610100808354040283529160200191611524565b820191906000526020600020905b81548152906001019060200180831161150757829003601f168201915b50505050509080600101805461153990614138565b80601f016020809104026020016040519081016040528092919081815260200182805461156590614138565b80156115b25780601f10611587576101008083540402835291602001916115b2565b820191906000526020600020905b81548152906001019060200180831161159557829003601f168201915b5050505050908060020180546115c790614138565b80601f01602080910402602001604051908101604052809291908181526020018280546115f390614138565b80156116405780601f1061161557610100808354040283529160200191611640565b820191906000526020600020905b81548152906001019060200180831161162357829003601f168201915b50506040805160c08101825260039096015460ff80821688526101008204811660208901526201000082048116928801929092526301000000810482166060880152640100000000810482166080880152600160281b90041660a08601525091929150859050565b610ab83383836124fb565b6000818152600080516020614c6b8339815191526020819052604090912060609190610e6f906125ac565b6116e9848484610be4565b610c6e33858585856125b9565b6060600082600481111561170c5761170c613b92565b0361173357505060408051808201909152600681526521b7b6b6b7b760d11b602082015290565b600182600481111561174757611747613b92565b036117705750506040805180820190915260088152672ab731b7b6b6b7b760c11b602082015290565b600282600481111561178457611784613b92565b036117a95750506040805180820190915260048152635261726560e01b602082015290565b60038260048111156117bd576117bd613b92565b036117e25750506040805180820190915260048152634570696360e01b602082015290565b60048260048111156117f6576117f6613b92565b036118205750506040805180820190915260098152684c6567656e6461727960b81b602082015290565b60405162461bcd60e51b815260206004820152601760248201527f546865427567733a20696e76616c6964207261726974790000000000000000006044820152606401610c0a565b6060600061187583611ac4565b6000848152600160205260408120919250606090819061189761084888610af7565b90508360000180546118a890614138565b90506000036118e15784516040516118c49183916020016145c4565b60405160208183030381529060405292508460200151915061199b565b835484906118ee90614138565b80601f016020809104026020016040519081016040528092919081815260200182805461191a90614138565b80156119675780601f1061193c57610100808354040283529160200191611967565b820191906000526020600020905b81548152906001019060200180831161194a57829003601f168201915b5050505050925084600001518560200151604051602001611989929190614600565b60405160208183030381529060405291505b60008386600001518488604001516119b489878e6126db565b6040516020016119c895949392919061463d565b60405160208183030381529060405290506119e2816127ff565b6040516020016119f2919061473c565b6040516020818303038152906040529650505050505050919050565b6000818152600080516020614c6b833981519152602081905260408220610e6f90612825565b7f9f2df0fed2c77648de5860a4cc508cd0818c85b8b8a1ab4ceeef8d981c8956a6611a5e81612177565b611a9e8484848080601f01602080910402602001604051908101604052809392919081815260200183838082843760009201919091525061282f92505050565b6113e38585612919565b611ab182610c74565b611aba81612177565b610c6e83836122c2565b611acc613a40565b600080611ad884612933565b8152602001908152602001600020604051806080016040529081600082018054611b0190614138565b80601f0160208091040260200160405190810160405280929190818152602001828054611b2d90614138565b8015611b7a5780601f10611b4f57610100808354040283529160200191611b7a565b820191906000526020600020905b815481529060010190602001808311611b5d57829003601f168201915b50505050508152602001600182018054611b9390614138565b80601f0160208091040260200160405190810160405280929190818152602001828054611bbf90614138565b8015611c0c5780601f10611be157610100808354040283529160200191611c0c565b820191906000526020600020905b815481529060010190602001808311611bef57829003601f168201915b50505050508152602001600282018054611c2590614138565b80601f0160208091040260200160405190810160405280929190818152602001828054611c5190614138565b8015611c9e5780601f10611c7357610100808354040283529160200191611c9e565b820191906000526020600020905b815481529060010190602001808311611c8157829003601f168201915b50505091835250506040805160c0810182526003939093015460ff8082168552610100820481166020868101919091526201000083048216938601939093526301000000820481166060860152640100000000820481166080860152600160281b9091041660a0840152015292915050565b6001600160a01b0391821660009081527f80bb2b638cc20bc4d0a60d66940f3ab4a00c1d7b313497ca82fb0b4ab00793056020908152604080832093909416825291909152205460ff1690565b6040805160c081018252600080825260208201819052918101829052606081018290526080810182905260a0810182905290611d9883610af7565b9050600080826004811115611daf57611daf613b92565b03611dbc57506005611e3c565b6001826004811115611dd057611dd0613b92565b03611ddd57506008611e3c565b6002826004811115611df157611df1613b92565b03611dfe5750600b611e3c565b6003826004811115611e1257611e12613b92565b03611e1f5750600e611e3c565b6004826004811115611e3357611e33613b92565b03611e3c575060115b600084604051602001611e64918152694154545249425554455360b01b6020820152602a0190565b60408051601f198184030181528282528051602091820120600680855260e0850190935293506000929190820160c08036833701905050905060005b83811015611f13576000611eb56006856141b1565b9050828181518110611ec957611ec96141eb565b602002602001018051809190611ede90614781565b60ff1690525060408051602081018690520160408051601f198184030181529190528051602090910120935050600101611ea0565b506000806000611f2289612933565b815260208082019290925260409081016000908120825160c0808201855260039092015460ff808216835261010082048116968301969096526201000081048616828601526301000000810486166060830152640100000000810486166080830152600160281b900490941660a085015282519081019092528451929350909182918591611fb257611fb26141eb565b60200260200101518360000151611fc9919061422d565b60ff16815260200183600181518110611fe457611fe46141eb565b60200260200101518360200151611ffb919061422d565b60ff16815260200183600281518110612016576120166141eb565b6020026020010151836040015161202d919061422d565b60ff16815260200183600381518110612048576120486141eb565b6020026020010151836060015161205f919061422d565b60ff1681526020018360048151811061207a5761207a6141eb565b60200260200101518360800151612091919061422d565b60ff168152602001836005815181106120ac576120ac6141eb565b60200260200101518360a001516120c3919061422d565b60ff169052979650505050505050565b60006001600160e01b0319821663780e9d6360e01b14806109ee57506109ee8261297d565b600080612104836129bd565b90506001600160a01b0381166109ee57604051637e27328960e01b815260048101849052602401610c0a565b60009081527f80bb2b638cc20bc4d0a60d66940f3ab4a00c1d7b313497ca82fb0b4ab007930460205260409020546001600160a01b031690565b610d5983838360016129f7565b6121818133612b0d565b50565b600080612192858585612b46565b90506001600160a01b03811661221b5761221684600080516020614d4b833981519152805460008381527f645e039705490088daad89bae25049a34f4a9072d398537b1ab2425f24cbed0360205260408120829055600182018355919091527fa42f15e5d656f8155fd7419d740a6073999f19cd6e061449ce4a257150545bf20155565b61223e565b846001600160a01b0316816001600160a01b03161461223e5761223e8185612c50565b6001600160a01b03851661225a5761225584612cec565b611411565b846001600160a01b0316816001600160a01b031614611411576114118585612dc3565b6000600080516020614c6b833981519152816122998585612e1e565b905080156114115760008581526020839052604090206122b99085612ec3565b50949350505050565b6000600080516020614c6b833981519152816122de8585612ed8565b905080156114115760008581526020839052604090206122b99085612f54565b306001600160a01b037f000000000000000000000000000000000000000000000000000000000000000016148061238557507f00000000000000000000000000000000000000000000000000000000000000006001600160a01b0316612379600080516020614ccb833981519152546001600160a01b031690565b6001600160a01b031614155b156123a35760405163703e46dd60e11b815260040160405180910390fd5b565b7f189ab7a9244df0848122154315af71fe140f3db0fe014031783b0946b8c9d2e3610ab881612177565b816001600160a01b03166352d1902d6040518163ffffffff1660e01b8152600401602060405180830381865afa925050508015612429575060408051601f3d908101601f19168201909252612426918101906147a0565b60015b61245157604051634c9c8ce360e01b81526001600160a01b0383166004820152602401610c0a565b600080516020614ccb833981519152811461248257604051632a87526960e21b815260048101829052602401610c0a565b610d598383612f69565b306001600160a01b037f000000000000000000000000000000000000000000000000000000000000000016146123a35760405163703e46dd60e11b815260040160405180910390fd5b6123a3612fbf565b6124e5612fbf565b610ab88282613008565b6000610e6f8383613039565b600080516020614cab8339815191526001600160a01b03831661253c57604051630b61174360e31b81526001600160a01b0384166004820152602401610c0a565b6001600160a01b038481166000818152600584016020908152604080832094881680845294825291829020805460ff191687151590811790915591519182527f17307eab39ab6107e8899845ad3d59bd9653f200f220920489ca2b5937696c31910160405180910390a350505050565b60606000610e6f83613063565b6001600160a01b0383163b156113e357604051630a85bd0160e11b81526001600160a01b0384169063150b7a02906125fb9088908890879087906004016147b9565b6020604051808303816000875af1925050508015612636575060408051601f3d908101601f19168201909252612633918101906147f6565b60015b61269f573d808015612664576040519150601f19603f3d011682016040523d82523d6000602084013e612669565b606091505b50805160000361269757604051633250574960e11b81526001600160a01b0385166004820152602401610c0a565b805181602001fd5b6001600160e01b03198116630a85bd0160e11b1461120f57604051633250574960e11b81526001600160a01b0385166004820152602401610c0a565b60606127056040518060400160405280600681526020016552617269747960d01b815250846130bf565b612711856001016130eb565b60408051808201825260048082526352756e7360e01b60208084019190915260008881529181528382205460038252848320546002909252939091205461276b939161275c916141d8565b61276691906141d8565b613252565b6127a46040518060400160405280600481526020016357696e7360e01b8152506002600088815260200190815260200160002054613252565b6040805180820190915260078152665072656d69756d60c81b60208201526127d39060ff88901c60011461326f565b6040516020016127e7959493929190614813565b60405160208183030381529060405290509392505050565b60606109ee82604051806060016040528060408152602001614ceb6040913960016132e2565b60006109ee825490565b600061283a83611d5d565b6040805180820182528481526020808201849052600087815260019091529190912081519293509091819061286f90826148cd565b50602091820151805160019290920180549382015160408301516060840151608085015160a09095015160ff96871661ffff1990981697909717610100938716939093029290921763ffff00001916620100009186169190910263ff0000001916176301000000918516919091021765ffff0000000019166401000000009284169290920265ff0000000000191691909117600160281b9290931691909102919091179055505050565b610ab8828260405180602001604052806000815250613461565b600060038260405160200161295a918152665350454349455360c81b602082015260270190565b6040516020818303038152906040528051906020012060001c6109ee91906141b1565b60006001600160e01b031982166380ac58cd60e01b14806129ae57506001600160e01b03198216635b5e139f60e01b145b806109ee57506109ee82613479565b60009081527f80bb2b638cc20bc4d0a60d66940f3ab4a00c1d7b313497ca82fb0b4ab007930260205260409020546001600160a01b031690565b600080516020614cab8339815191528180612a1a57506001600160a01b03831615155b15612adc576000612a2a856120f8565b90506001600160a01b03841615801590612a565750836001600160a01b0316816001600160a01b031614155b8015612a695750612a678185611d10565b155b15612a925760405163a9fbf51f60e01b81526001600160a01b0385166004820152602401610c0a565b8215612ada5784866001600160a01b0316826001600160a01b03167f8c5be1e5ebec7d5bd14f71427d1e84f3dd0314c0f7b2291e5b200ac8c7c3b92560405160405180910390a45b505b600093845260040160205250506040902080546001600160a01b0319166001600160a01b0392909216919091179055565b612b178282611419565b610ab85760405163e2517d3f60e01b81526001600160a01b038216600482015260248101839052604401610c0a565b6000600080516020614cab83398151915281612b61856129bd565b90506001600160a01b03841615612b7d57612b7d81858761349e565b6001600160a01b03811615612bbd57612b9a6000866000806129f7565b6001600160a01b0381166000908152600383016020526040902080546000190190555b6001600160a01b03861615612bee576001600160a01b03861660009081526003830160205260409020805460010190555b600085815260028301602052604080822080546001600160a01b0319166001600160a01b038a811691821790925591518893918516917fddf252ad1be2c89b69c2b068fc378daa952ba7f163c4a11628f55a4df523b3ef91a495945050505050565b600080516020614c8b8339815191526000612c6a8461102d565b60008481526001840160209081526040808320546001600160a01b03891684529186905290912091925090818314612cc4576000838152602082815260408083205485845281842081905583526001870190915290208290555b6000948552600190930160209081526040808620869055928552929092528220919091555050565b600080516020614d4b83398151915254600080516020614c8b83398151915290600090612d1b906001906141c5565b6000848152600384016020526040812054600285018054939450909284908110612d4757612d476141eb565b9060005260206000200154905080846002018381548110612d6a57612d6a6141eb565b600091825260208083209091019290925582815260038601909152604080822084905586825281205560028401805480612da657612da6614985565b600190038181906000526020600020016000905590555050505050565b600080516020614c8b83398151915260006001612ddf8561102d565b612de991906141c5565b6001600160a01b0390941660009081526020838152604080832087845282528083208690559482526001909301909252502055565b6000600080516020614d6b833981519152612e398484611419565b612eb9576000848152602082815260408083206001600160a01b03871684529091529020805460ff19166001179055612e6f3390565b6001600160a01b0316836001600160a01b0316857f2f8788117e7eff1d82e926ec794901d17c78024a50270940304540a733656f0d60405160405180910390a460019150506109ee565b60009150506109ee565b6000610e6f836001600160a01b038416613502565b6000600080516020614d6b833981519152612ef38484611419565b15612eb9576000848152602082815260408083206001600160a01b0387168085529252808320805460ff1916905551339287917ff6391f5c32d9c69d2a47ea670b442974b53935d1edc7fd64eb21e047a839171b9190a460019150506109ee565b6000610e6f836001600160a01b038416613551565b612f728261363a565b6040516001600160a01b038316907fbc7cd75a20ee27fd9adebab32041f755214dbc6bffa90cc0225b39da2e5c2d3b90600090a2805115612fb757610d59828261369f565b610ab8613715565b7ff0c57e16840df040f15088dc2f81fe391c3923bec73e23a9662efc9c229c6a0054600160401b900460ff166123a357604051631afcd79f60e31b815260040160405180910390fd5b613010612fbf565b600080516020614cab8339815191528061302a84826148cd565b5060018101610c6e83826148cd565b6000826000018281548110613050576130506141eb565b9060005260206000200154905092915050565b6060816000018054806020026020016040519081016040528092919081815260200182805480156130b357602002820191906000526020600020905b81548152602001906001019080831161309f575b50505050509050919050565b606082826040516020016130d492919061499b565b604051602081830303815290604052905092915050565b60408051808201909152600c81526b496e74656c6c6967656e636560a01b6020820152815460609161311f9160ff16613734565b60408051808201909152600a8152694e696d626c656e65737360b01b602082015283546131549190610100900460ff16613734565b6040805180820190915260088152670a6e8e4cadccee8d60c31b60208201528454613188919062010000900460ff16613734565b604080518082019091526009815268456e647572616e636560b81b602082015285546131be91906301000000900460ff16613734565b6040805180820190915260088152674368617269736d6160c01b602082015286546131f49190640100000000900460ff16613734565b60408051808201909152600681526515185b195b9d60d21b602082015287546132279190600160281b900460ff16613734565b60405160200161323c96959493929190614a29565b6040516020818303038152906040529050919050565b60608261325e83613751565b6040516020016130d4929190614af7565b606080821561329957506040805180820190915260048152637472756560e01b60208201526132b7565b5060408051808201909152600581526466616c736560d81b60208201525b83816040516020016132ca929190614ba0565b60405160208183030381529060405291505092915050565b606083516000036133025750604080516020810190915260008152610e6f565b600082613333576003855160046133199190614c23565b6133249060026141d8565b61332e9190614c3a565b613358565b60038551600261334391906141d8565b61334d9190614c3a565b613358906004614c23565b90506000816001600160401b0381111561337457613374613cd1565b6040519080825280601f01601f19166020018201604052801561339e576020820181803683370190505b50905060018501602082018788518901602081018051600082525b82841015613414576003840193508351603f8160121c168701518653600186019550603f81600c1c168701518653600186019550603f8160061c168701518653600186019550603f81168701518653506001850194506133b9565b90525050851561345557600388510660018114613438576002811461344b57613453565b603d6001830353603d6002830353613453565b603d60018303535b505b50909695505050505050565b61346b83836137e4565b610d593360008585856125b9565b60006001600160e01b03198216635a05180f60e01b14806109ee57506109ee82613849565b6134a983838361387e565b610d59576001600160a01b0383166134d757604051637e27328960e01b815260048101829052602401610c0a565b60405163177e802f60e01b81526001600160a01b038316600482015260248101829052604401610c0a565b6000818152600183016020526040812054613549575081546001818101845560008481526020808220909301849055845484825282860190935260409020919091556109ee565b5060006109ee565b60008181526001830160205260408120548015612eb95760006135756001836141c5565b8554909150600090613589906001906141c5565b90508082146135ee5760008660000182815481106135a9576135a96141eb565b90600052602060002001549050808760000184815481106135cc576135cc6141eb565b6000918252602080832090910192909255918252600188019052604090208390555b85548690806135ff576135ff614985565b6001900381819060005260206000200160009055905585600101600086815260200190815260200160002060009055600193505050506109ee565b806001600160a01b03163b60000361367057604051634c9c8ce360e01b81526001600160a01b0382166004820152602401610c0a565b600080516020614ccb83398151915280546001600160a01b0319166001600160a01b0392909216919091179055565b6060600080846001600160a01b0316846040516136bc9190614c4e565b600060405180830381855af49150503d80600081146136f7576040519150601f19603f3d011682016040523d82523d6000602084013e6136fc565b606091505b509150915061370c8583836138e3565b95945050505050565b34156123a35760405163b398979f60e01b815260040160405180910390fd5b60608261374083613751565b6040516020016130d4929190614ba0565b6060600061375e8361393f565b60010190506000816001600160401b0381111561377d5761377d613cd1565b6040519080825280601f01601f1916602001820160405280156137a7576020820181803683370190505b5090508181016020015b600019016f181899199a1a9b1b9c1cb0b131b232b360811b600a86061a8153600a85049450846137b1575b509392505050565b6001600160a01b03821661380e57604051633250574960e11b815260006004820152602401610c0a565b600061381c83836000612184565b90506001600160a01b03811615610d59576040516339e3563760e11b815260006004820152602401610c0a565b60006001600160e01b03198216637965db0b60e01b14806109ee57506301ffc9a760e01b6001600160e01b03198316146109ee565b60006001600160a01b038316158015906114115750826001600160a01b0316846001600160a01b031614806138b857506138b88484611d10565b806114115750826001600160a01b03166138d183612130565b6001600160a01b031614949350505050565b6060826138f8576138f382613a17565b610e6f565b815115801561390f57506001600160a01b0384163b155b1561393857604051639996b31560e01b81526001600160a01b0385166004820152602401610c0a565b5080610e6f565b60008072184f03e93ff9f4daa797ed6e38ed64bf6a1f0160401b831061397e5772184f03e93ff9f4daa797ed6e38ed64bf6a1f0160401b830492506040015b6d04ee2d6d415b85acef810000000083106139aa576d04ee2d6d415b85acef8100000000830492506020015b662386f26fc1000083106139c857662386f26fc10000830492506010015b6305f5e10083106139e0576305f5e100830492506008015b61271083106139f457612710830492506004015b60648310613a06576064830492506002015b600a83106109ee5760010192915050565b805115613a275780518082602001fd5b60405163d6bda27560e01b815260040160405180910390fd5b6040518060800160405280606081526020016060815260200160608152602001613a986040805160c081018252600080825260208201819052918101829052606081018290526080810182905260a081019190915290565b905290565b6001600160e01b03198116811461218157600080fd5b600060208284031215613ac557600080fd5b8135610e6f81613a9d565b600060208284031215613ae257600080fd5b5035919050565b60005b83811015613b04578181015183820152602001613aec565b50506000910152565b60008151808452613b25816020860160208601613ae9565b601f01601f19169290920160200192915050565b602081526000610e6f6020830184613b0d565b80356001600160a01b0381168114613b6357600080fd5b919050565b60008060408385031215613b7b57600080fd5b613b8483613b4c565b946020939093013593505050565b634e487b7160e01b600052602160045260246000fd5b6020810160058310613bca57634e487b7160e01b600052602160045260246000fd5b91905290565b600080600060608486031215613be557600080fd5b613bee84613b4c565b9250613bfc60208501613b4c565b929592945050506040919091013590565b60008060408385031215613c2057600080fd5b82359150613c3060208401613b4c565b90509250929050565b600080600060608486031215613c4e57600080fd5b613c5784613b4c565b95602085013595506040909401359392505050565b6000602082016020835280845180835260408501915060408160051b86010192506020860160005b82811015613cc557603f19878603018452613cb0858351613b0d565b94506020938401939190910190600101613c94565b50929695505050505050565b634e487b7160e01b600052604160045260246000fd5b600082601f830112613cf857600080fd5b81356001600160401b03811115613d1157613d11613cd1565b604051601f8201601f19908116603f011681016001600160401b0381118282101715613d3f57613d3f613cd1565b604052818152838201602001851015613d5757600080fd5b816020850160208301376000918101602001919091529392505050565b60008060408385031215613d8757600080fd5b613d9083613b4c565b915060208301356001600160401b03811115613dab57600080fd5b613db785828601613ce7565b9150509250929050565b60ff815116825260ff602082015116602083015260ff604082015116604083015260ff606082015116606083015260ff608082015116608083015260ff60a08201511660a08301525050565b60e081526000613e2060e0830185613b0d565b9050610e6f6020830184613dc1565b600060208284031215613e4157600080fd5b610e6f82613b4c565b60008060408385031215613e5d57600080fd5b8235915060208301356001600160401b03811115613e7a57600080fd5b83016101208186031215613e8d57600080fd5b809150509250929050565b60008060408385031215613eab57600080fd5b50508035926020909101359150565b61012081526000613ecf610120830187613b0d565b8281036020840152613ee18187613b0d565b90508281036040840152613ef58186613b0d565b91505061370c6060830184613dc1565b60008060408385031215613f1857600080fd5b613f2183613b4c565b915060208301358015158114613e8d57600080fd5b602080825282518282018190526000918401906040840190835b81811015613f775783516001600160a01b0316835260209384019390920191600101613f50565b509095945050505050565b60008060008060808587031215613f9857600080fd5b613fa185613b4c565b9350613faf60208601613b4c565b92506040850135915060608501356001600160401b03811115613fd157600080fd5b613fdd87828801613ce7565b91505092959194509250565b600060208284031215613ffb57600080fd5b813560058110610e6f57600080fd5b6000806000806060858703121561402057600080fd5b61402985613b4c565b93506020850135925060408501356001600160401b0381111561404b57600080fd5b8501601f8101871361405c57600080fd5b80356001600160401b0381111561407257600080fd5b87602082840101111561408457600080fd5b949793965060200194505050565b602081526000825161012060208401526140b0610140840182613b0d565b90506020840151601f198483030160408501526140cd8282613b0d565b9150506040840151601f198483030160608501526140eb8282613b0d565b91505060608401516137dc6080850182613dc1565b6000806040838503121561411357600080fd5b61411c83613b4c565b9150613c3060208401613b4c565b60c081016109ee8284613dc1565b600181811c9082168061414c57607f821691505b602082108103610bde57634e487b7160e01b600052602260045260246000fd5b634e487b7160e01b600052601160045260246000fd5b6000600182016141945761419461416c565b5060010190565b634e487b7160e01b600052601260045260246000fd5b6000826141c0576141c061419b565b500690565b818103818111156109ee576109ee61416c565b808201808211156109ee576109ee61416c565b634e487b7160e01b600052603260045260246000fd5b60ff8116811461218157600080fd5b60006020828403121561422257600080fd5b8135610e6f81614201565b60ff81811683821601908111156109ee576109ee61416c565b6000808335601e1984360301811261425d57600080fd5b8301803591506001600160401b0382111561427757600080fd5b60200191503681900382131561428c57600080fd5b9250929050565b601f821115610d5957806000526020600020601f840160051c810160208510156142ba5750805b601f840160051c820191505b818110156113e357600081556001016142c6565b600019600383901b1c191660019190911b1790565b6001600160401b0383111561430657614306613cd1565b61431a836143148354614138565b83614293565b6000601f84116001811461434857600085156143365750838201355b61434086826142da565b8455506113e3565b600083815260209020601f19861690835b828110156143795786850135825560209485019460019092019101614359565b50868210156143965760001960f88860031b161c19848701351681555b505060018560011b0183555050505050565b600081356109ee81614201565b81356143c081614201565b60ff8116905081548160ff19821617835560208401356143df81614201565b61ff008160081b168361ffff198416171784555050506000604083013561440581614201565b825462ff0000191660109190911b62ff0000161782555061444561442b606084016143a8565b825463ff000000191660189190911b63ff00000016178255565b614470614454608084016143a8565b825464ff00000000191660209190911b64ff0000000016178255565b610ab861447f60a084016143a8565b825465ff0000000000191660289190911b65ff000000000016178255565b6144a78283614246565b6001600160401b038111156144be576144be613cd1565b6144d2816144cc8554614138565b85614293565b6000601f82116001811461450057600083156144ee5750838201355b6144f884826142da565b86555061455a565b600085815260209020601f19841690835b828110156145315786850135825560209485019460019092019101614511565b508482101561454e5760001960f88660031b161c19848701351681555b505060018360011b0185555b5050505061456b6020830183614246565b6145798183600186016142ef565b50506145886040830183614246565b6145968183600286016142ef565b5050610ab860608301600383016143b5565b600081516145ba818560208601613ae9565b9290920192915050565b600083516145d6818460208801613ae9565b600160fd1b90830190815283516145f4816001840160208801613ae9565b01600101949350505050565b60008351614612818460208801613ae9565b6101d160f51b9083019081528351614631816002840160208801613ae9565b01600201949350505050565b607b60f81b815268113730b6b2911d101160b91b6001820152855160009061466c81600a850160208b01613ae9565b61088b60f21b600a918401918201526b1139b832b1b4b2b9911d101160a11b600c82015261469d60188201886145a8565b61088b60f21b815290506f113232b9b1b934b83a34b7b7111d101160811b60028201526146cd60128201876145a8565b61088b60f21b81529050691134b6b0b3b2911d101160b11b60028201526146f7600c8201866145a8565b61088b60f21b815290506c1130ba3a3934b13aba32b9911d60991b6002820152614724600f8201856145a8565b607d60f81b815290505b600101979650505050505050565b7f646174613a6170706c69636174696f6e2f6a736f6e3b6261736536342c00000081526000825161477481601d850160208701613ae9565b91909101601d0192915050565b600060ff821660ff81036147975761479761416c565b60010192915050565b6000602082840312156147b257600080fd5b5051919050565b6001600160a01b03858116825284166020820152604081018390526080606082018190526000906147ec90830184613b0d565b9695505050505050565b60006020828403121561480857600080fd5b8151610e6f81613a9d565b605b60f81b81526000865161482f816001850160208b01613ae9565b600b60fa1b6001918401918201528651614850816002840160208b01613ae9565b600181830101915050600b60fa1b60018201528551614876816002840160208a01613ae9565b600181830101915050600b60fa1b6001820152845161489c816002840160208901613ae9565b0160018101906148b290600201600b60fa1b9052565b6148bf60028201856145a8565b605d60f81b8152905061472e565b81516001600160401b038111156148e6576148e6613cd1565b6148fa816148f48454614138565b84614293565b6020601f82116001811461492857600083156149165750848201515b61492084826142da565b8555506113e3565b600084815260208120601f198516915b828110156149585787850151825560209485019460019092019101614938565b50848210156149765786840151600019600387901b60f8161c191681555b50505050600190811b01905550565b634e487b7160e01b600052603160045260246000fd5b607b60f81b81526e113a3930b4ba2fba3cb832911d101160891b600182015282516000906149d0816010850160208801613ae9565b61088b60f21b60109184019182015269113b30b63ab2911d101160b11b60128201528351614a0581601c840160208801613ae9565b601160f91b601c9290910191820152607d60f81b601d820152601e01949350505050565b60008751614a3b818460208c01613ae9565b600b60fa1b9083019081528751614a59816001840160208c01613ae9565b600b60fa1b600192909101918201528651614a7b816002840160208b01613ae9565b600181830101915050600b60fa1b60018201528551614aa1816002840160208a01613ae9565b600181830101915050600b60fa1b60018201528451614ac7816002840160208901613ae9565b016001810190614add90600201600b60fa1b9052565b614aea60028201856145a8565b9998505050505050505050565b607b60f81b81527f22646973706c61795f74797065223a20226e756d626572222c0000000000000060018201526e113a3930b4ba2fba3cb832911d101160891b601a8201528251600090614b52816029850160208801613ae9565b61088b60f21b602991840191820152680113b30b63ab2911d160bd1b602b8201528351614b86816034840160208801613ae9565b607d60f81b60349290910191820152603501949350505050565b607b60f81b81526e113a3930b4ba2fba3cb832911d101160891b60018201528251600090614bd5816010850160208801613ae9565b61088b60f21b601091840191820152680113b30b63ab2911d160bd1b60128201528351614c0981601b840160208801613ae9565b607d60f81b601b9290910191820152601c01949350505050565b80820281158282048414176109ee576109ee61416c565b600082614c4957614c4961419b565b500490565b60008251614c60818460208701613ae9565b919091019291505056fec1f6fe24621ce81ec5827caf0253cadb74709b061630e6b55e82371705932000645e039705490088daad89bae25049a34f4a9072d398537b1ab2425f24cbed0080bb2b638cc20bc4d0a60d66940f3ab4a00c1d7b313497ca82fb0b4ab0079300360894a13ba1a3210667c828492db98dca3e2076cc3735a920a3ca505d382bbc4142434445464748494a4b4c4d4e4f505152535455565758595a6162636465666768696a6b6c6d6e6f707172737475767778797a303132333435363738392b2f9a1bd8d81ac0ba42ed118addea0a540ed617421043f1e9ed44197db296fd3d49645e039705490088daad89bae25049a34f4a9072d398537b1ab2425f24cbed0202dd7bc7dec4dceedda775e58dd541e08a116c6c53815c0bd028192f7b626800a26469706673582212207dd4e631e67bda736d894417443a58d139203425307b1de2f44d274f3f2bb5ad64736f6c634300081c0033",
  "linkReferences": {},
  "deployedLinkReferences": {}
}