{
  "_format": "hh-sol-artifact-1",
  "contractName": "TheBugs",
  "sourceName": "contracts/TheBugs.sol",
  "abi": [
    {
      "inputs": [],
      "stateMutability": "nonpayable",
      "type": "constructor"
    },
    {
      "inputs": [],
      "name": "AccessControlBadConfirmation",
      "type": "error"
    },
    {
      "inputs": [
        {
          "internalType": "address",
          "name": "account",
          "type": "address"
        },
        {
          "internalType": "bytes32",
          "name": "neededRole",
          "type": "bytes32"
        }
      ],
      "name": "AccessControlUnauthorizedAccount",
      "type": "error"
    },
    {
      "inputs": [
        {
          "internalType": "address",
          "name": "target",
          "type": "address"
        }
      ],
      "name": "AddressEmptyCode",
      "type": "error"
    },
    {
      "inputs": [
        {
          "internalType": "address",
          "name": "implementation",
          "type": "address"
        }
      ],
      "name": "ERC1967InvalidImplementation",
      "type": "error"
    },
    {
      "inputs": [],
      "name": "ERC1967NonPayable",
      "type": "error"
    },
    {
      "inputs": [],
      "name": "ERC721EnumerableForbiddenBatchMint",
      "type": "error"
    },
    {
      "inputs": [
        {
          "internalType": "address",
          "name": "sender",
          "type": "address"
        },
        {
          "internalType": "uint256",
          "name": "tokenId",
          "type": "uint256"
        },
        {
          "internalType": "address",
          "name": "owner",
          "type": "address"
        }
      ],
      "name": "ERC721IncorrectOwner",
      "type": "error"
    },
    {
      "inputs": [
        {
          "internalType": "address",
          "name": "operator",
          "type": "address"
        },
        {
          "internalType": "uint256",
          "name": "tokenId",
          "type": "uint256"
        }
      ],
      "name": "ERC721InsufficientApproval",
      "type": "error"
    },
    {
      "inputs": [
        {
          "internalType": "address",
          "name": "approver",
          "type": "address"
        }
      ],
      "name": "ERC721InvalidApprover",
      "type": "error"
    },
    {
      "inputs": [
        {
          "internalType": "address",
          "name": "operator",
          "type": "address"
        }
      ],
      "name": "ERC721InvalidOperator",
      "type": "error"
    },
    {
      "inputs": [
        {
          "internalType": "address",
          "name": "owner",
          "type": "address"
        }
      ],
      "name": "ERC721InvalidOwner",
      "type": "error"
    },
    {
      "inputs": [
        {
          "internalType": "address",
          "name": "receiver",
          "type": "address"
        }
      ],
      "name": "ERC721InvalidReceiver",
      "type": "error"
    },
    {
      "inputs": [
        {
          "internalType": "address",
          "name": "sender",
          "type": "address"
        }
      ],
      "name": "ERC721InvalidSender",
      "type": "error"
    },
    {
      "inputs": [
        {
          "internalType": "uint256",
          "name": "tokenId",
          "type": "uint256"
        }
      ],
      "name": "ERC721NonexistentToken",
      "type": "error"
    },
    {
      "inputs": [
        {
          "internalType": "address",
          "name": "owner",
          "type": "address"
        },
        {
          "internalType": "uint256",
          "name": "index",
          "type": "uint256"
        }
      ],
      "name": "ERC721OutOfBoundsIndex",
      "type": "error"
    },
    {
      "inputs": [],
      "name": "FailedCall",
      "type": "error"
    },
    {
      "inputs": [],
      "name": "InvalidInitialization",
      "type": "error"
    },
    {
      "inputs": [],
      "name": "NotInitializing",
      "type": "error"
    },
    {
      "inputs": [],
      "name": "UUPSUnauthorizedCallContext",
      "type": "error"
    },
    {
      "inputs": [
        {
          "internalType": "bytes32",
          "name": "slot",
          "type": "bytes32"
        }
      ],
      "name": "UUPSUnsupportedProxiableUUID",
      "type": "error"
    },
    {
      "anonymous": false,
      "inputs": [
        {
          "indexed": true,
          "internalType": "address",
          "name": "owner",
          "type": "address"
        },
        {
          "indexed": true,
          "internalType": "address",
          "name": "approved",
          "type": "address"
        },
        {
          "indexed": true,
          "internalType": "uint256",
          "name": "tokenId",
          "type": "uint256"
        }
      ],
      "name": "Approval",
      "type": "event"
    },
    {
      "anonymous": false,
      "inputs": [
        {
          "indexed": true,
          "internalType": "address",
          "name": "owner",
          "type": "address"
        },
        {
          "indexed": true,
          "internalType": "address",
          "name": "operator",
          "type": "address"
        },
        {
          "indexed": false,
          "internalType": "bool",
          "name": "approved",
          "type": "bool"
        }
      ],
      "name": "ApprovalForAll",
      "type": "event"
    },
    {
      "anonymous": false,
      "inputs": [
        {
          "indexed": false,
          "internalType": "uint64",
          "name": "version",
          "type": "uint64"
        }
      ],
      "name": "Initialized",
      "type": "event"
    },
    {
      "anonymous": false,
      "inputs": [
        {
          "indexed": true,
          "internalType": "bytes32",
          "name": "role",
          "type": "bytes32"
        },
        {
          "indexed": true,
          "internalType": "bytes32",
          "name": "previousAdminRole",
          "type": "bytes32"
        },
        {
          "indexed": true,
          "internalType": "bytes32",
          "name": "newAdminRole",
          "type": "bytes32"
        }
      ],
      "name": "RoleAdminChanged",
      "type": "event"
    },
    {
      "anonymous": false,
      "inputs": [
        {
          "indexed": true,
          "internalType": "bytes32",
          "name": "role",
          "type": "bytes32"
        },
        {
          "indexed": true,
          "internalType": "address",
          "name": "account",
          "type": "address"
        },
        {
          "indexed": true,
          "internalType": "address",
          "name": "sender",
          "type": "address"
        }
      ],
      "name": "RoleGranted",
      "type": "event"
    },
    {
      "anonymous": false,
      "inputs": [
        {
          "indexed": true,
          "internalType": "bytes32",
          "name": "role",
          "type": "bytes32"
        },
        {
          "indexed": true,
          "internalType": "address",
          "name": "account",
          "type": "address"
        },
        {
          "indexed": true,
          "internalType": "address",
          "name": "sender",
          "type": "address"
        }
      ],
      "name": "RoleRevoked",
      "type": "event"
    },
    {
      "anonymous": false,
      "inputs": [
        {
          "indexed": true,
          "internalType": "address",
          "name": "from",
          "type": "address"
        },
        {
          "indexed": true,
          "internalType": "address",
          "name": "to",
          "type": "address"
        },
        {
          "indexed": true,
          "internalType": "uint256",
          "name": "tokenId",
          "type": "uint256"
        }
      ],
      "name": "Transfer",
      "type": "event"
    },
    {
      "anonymous": false,
      "inputs": [
        {
          "indexed": true,
          "internalType": "address",
          "name": "implementation",
          "type": "address"
        }
      ],
      "name": "Upgraded",
      "type": "event"
    },
    {
      "inputs": [],
      "name": "COMPETITION_ROLE",
      "outputs": [
        {
          "internalType": "bytes32",
          "name": "",
          "type": "bytes32"
        }
      ],
      "stateMutability": "view",
      "type": "function"
    },
    {
      "inputs": [],
      "name": "DATA_SETTER_ROLE",
      "outputs": [
        {
          "internalType": "bytes32",
          "name": "",
          "type": "bytes32"
        }
      ],
      "stateMutability": "view",
      "type": "function"
    },
    {
      "inputs": [],
      "name": "DEFAULT_ADMIN_ROLE",
      "outputs": [
        {
          "internalType": "bytes32",
          "name": "",
          "type": "bytes32"
        }
      ],
      "stateMutability": "view",
      "type": "function"
    },
    {
      "inputs": [],
      "name": "MINTER_ROLE",
      "outputs": [
        {
          "internalType": "bytes32",
          "name": "",
          "type": "bytes32"
        }
      ],
      "stateMutability": "view",
      "type": "function"
    },
    {
      "inputs": [],
      "name": "SPECIES_COUNT",
      "outputs": [
        {
          "internalType": "uint256",
          "name": "",
          "type": "uint256"
        }
      ],
      "stateMutability": "view",
      "type": "function"
    },
    {
      "inputs": [],
      "name": "UPGRADER_ROLE",
      "outputs": [
        {
          "internalType": "bytes32",
          "name": "",
          "type": "bytes32"
        }
      ],
      "stateMutability": "view",
      "type": "function"
    },
    {
      "inputs": [],
      "name": "UPGRADE_INTERFACE_VERSION",
      "outputs": [
        {
          "internalType": "string",
          "name": "",
          "type": "string"
        }
      ],
      "stateMutability": "view",
      "type": "function"
    },
    {
      "inputs": [
        {
          "internalType": "address",
          "name": "to",
          "type": "address"
        },
        {
          "internalType": "uint256",
          "name": "tokenId",
          "type": "uint256"
        }
      ],
      "name": "approve",
      "outputs": [],
      "stateMutability": "nonpayable",
      "type": "function"
    },
    {
      "inputs": [
        {
          "internalType": "address",
          "name": "owner",
          "type": "address"
        }
      ],
      "name": "balanceOf",
      "outputs": [
        {
          "internalType": "uint256",
          "name": "",
          "type": "uint256"
        }
      ],
      "stateMutability": "view",
      "type": "function"
    },
    {
      "inputs": [
        {
          "internalType": "uint256",
          "name": "",
          "type": "uint256"
        }
      ],
      "name": "bugDatas",
      "outputs": [
        {
          "internalType": "string",
          "name": "name",
          "type": "string"
        },
        {
          "components": [
            {
              "internalType": "uint8",
              "name": "intelligence",
              "type": "uint8"
            },
            {
              "internalType": "uint8",
              "name": "nimbleness",
              "type": "uint8"
            },
            {
              "internalType": "uint8",
              "name": "strength",
              "type": "uint8"
            },
            {
              "internalType": "uint8",
              "name": "endurance",
              "type": "uint8"
            },
            {
              "internalType": "uint8",
              "name": "charisma",
              "type": "uint8"
            },
            {
              "internalType": "uint8",
              "name": "talent",
              "type": "uint8"
            }
          ],
          "internalType": "struct TheBugs.Attributes",
          "name": "attributes",
          "type": "tuple"
        }
      ],
      "stateMutability": "view",
      "type": "function"
    },
    {
      "inputs": [
        {
          "internalType": "uint256",
          "name": "tokenId",
          "type": "uint256"
        }
      ],
      "name": "calculateAttributes",
      "outputs": [
        {
          "components": [
            {
              "internalType": "uint8",
              "name": "intelligence",
              "type": "uint8"
            },
            {
              "internalType": "uint8",
              "name": "nimbleness",
              "type": "uint8"
            },
            {
              "internalType": "uint8",
              "name": "strength",
              "type": "uint8"
            },
            {
              "internalType": "uint8",
              "name": "endurance",
              "type": "uint8"
            },
            {
              "internalType": "uint8",
              "name": "charisma",
              "type": "uint8"
            },
            {
              "internalType": "uint8",
              "name": "talent",
              "type": "uint8"
            }
          ],
          "internalType": "struct TheBugs.Attributes",
          "name": "",
          "type": "tuple"
        }
      ],
      "stateMutability": "view",
      "type": "function"
    },
    {
      "inputs": [
        {
          "internalType": "uint256",
          "name": "tokenId",
          "type": "uint256"
        }
      ],
      "name": "calculateRarity",
      "outputs": [
        {
          "internalType": "enum TheBugs.Rarity",
          "name": "",
          "type": "uint8"
        }
      ],
      "stateMutability": "pure",
      "type": "function"
    },
    {
      "inputs": [
        {
          "internalType": "uint256",
          "name": "",
          "type": "uint256"
        }
      ],
      "name": "draws",
      "outputs": [
        {
          "internalType": "uint256",
          "name": "",
          "type": "uint256"
        }
      ],
      "stateMutability": "view",
      "type": "function"
    },
    {
      "inputs": [
        {
          "internalType": "uint256",
          "name": "tokenId",
          "type": "uint256"
        }
      ],
      "name": "getApproved",
      "outputs": [
        {
          "internalType": "address",
          "name": "",
          "type": "address"
        }
      ],
      "stateMutability": "view",
      "type": "function"
    },
    {
      "inputs": [
        {
          "internalType": "bytes32",
          "name": "role",
          "type": "bytes32"
        }
      ],
      "name": "getRoleAdmin",
      "outputs": [
        {
          "internalType": "bytes32",
          "name": "",
          "type": "bytes32"
        }
      ],
      "stateMutability": "view",
      "type": "function"
    },
    {
      "inputs": [
        {
          "internalType": "bytes32",
          "name": "role",
          "type": "bytes32"
        },
        {
          "internalType": "uint256",
          "name": "index",
          "type": "uint256"
        }
      ],
      "name": "getRoleMember",
      "outputs": [
        {
          "internalType": "address",
          "name": "",
          "type": "address"
        }
      ],
      "stateMutability": "view",
      "type": "function"
    },
    {
      "inputs": [
        {
          "internalType": "bytes32",
          "name": "role",
          "type": "bytes32"
        }
      ],
      "name": "getRoleMemberCount",
      "outputs": [
        {
          "internalType": "uint256",
          "name": "",
          "type": "uint256"
        }
      ],
      "stateMutability": "view",
      "type": "function"
    },
    {
      "inputs": [
        {
          "internalType": "bytes32",
          "name": "role",
          "type": "bytes32"
        }
      ],
      "name": "getRoleMembers",
      "outputs": [
        {
          "internalType": "address[]",
          "name": "",
          "type": "address[]"
        }
      ],
      "stateMutability": "view",
      "type": "function"
    },
    {
      "inputs": [
        {
          "internalType": "uint256",
          "name": "tokenId",
          "type": "uint256"
        }
      ],
      "name": "getSpeciesData",
      "outputs": [
        {
          "components": [
            {
              "internalType": "string",
              "name": "name",
              "type": "string"
            },
            {
              "internalType": "string",
              "name": "description",
              "type": "string"
            },
            {
              "internalType": "string",
              "name": "image",
              "type": "string"
            },
            {
              "components": [
                {
                  "internalType": "uint8",
                  "name": "intelligence",
                  "type": "uint8"
                },
                {
                  "internalType": "uint8",
                  "name": "nimbleness",
                  "type": "uint8"
                },
                {
                  "internalType": "uint8",
                  "name": "strength",
                  "type": "uint8"
                },
                {
                  "internalType": "uint8",
                  "name": "endurance",
                  "type": "uint8"
                },
                {
                  "internalType": "uint8",
                  "name": "charisma",
                  "type": "uint8"
                },
                {
                  "internalType": "uint8",
                  "name": "talent",
                  "type": "uint8"
                }
              ],
              "internalType": "struct TheBugs.Attributes",
              "name": "baseAttributes",
              "type": "tuple"
            }
          ],
          "internalType": "struct TheBugs.SpeciesData",
          "name": "",
          "type": "tuple"
        }
      ],
      "stateMutability": "view",
      "type": "function"
    },
    {
      "inputs": [
        {
          "internalType": "bytes32",
          "name": "role",
          "type": "bytes32"
        },
        {
          "internalType": "address",
          "name": "account",
          "type": "address"
        }
      ],
      "name": "grantRole",
      "outputs": [],
      "stateMutability": "nonpayable",
      "type": "function"
    },
    {
      "inputs": [
        {
          "internalType": "bytes32",
          "name": "role",
          "type": "bytes32"
        },
        {
          "internalType": "address",
          "name": "account",
          "type": "address"
        }
      ],
      "name": "hasRole",
      "outputs": [
        {
          "internalType": "bool",
          "name": "",
          "type": "bool"
        }
      ],
      "stateMutability": "view",
      "type": "function"
    },
    {
      "inputs": [
        {
          "internalType": "uint256",
          "name": "tokenId",
          "type": "uint256"
        }
      ],
      "name": "incrementDraws",
      "outputs": [],
      "stateMutability": "nonpayable",
      "type": "function"
    },
    {
      "inputs": [
        {
          "internalType": "uint256",
          "name": "tokenId",
          "type": "uint256"
        }
      ],
      "name": "incrementLosses",
      "outputs": [],
      "stateMutability": "nonpayable",
      "type": "function"
    },
    {
      "inputs": [
        {
          "internalType": "uint256",
          "name": "tokenId",
          "type": "uint256"
        }
      ],
      "name": "incrementWins",
      "outputs": [],
      "stateMutability": "nonpayable",
      "type": "function"
    },
    {
      "inputs": [],
      "name": "initialize",
      "outputs": [],
      "stateMutability": "nonpayable",
      "type": "function"
    },
    {
      "inputs": [
        {
          "internalType": "address",
          "name": "owner",
          "type": "address"
        },
        {
          "internalType": "address",
          "name": "operator",
          "type": "address"
        }
      ],
      "name": "isApprovedForAll",
      "outputs": [
        {
          "internalType": "bool",
          "name": "",
          "type": "bool"
        }
      ],
      "stateMutability": "view",
      "type": "function"
    },
    {
      "inputs": [
        {
          "internalType": "uint256",
          "name": "tokenId",
          "type": "uint256"
        }
      ],
      "name": "isPremium",
      "outputs": [
        {
          "internalType": "bool",
          "name": "",
          "type": "bool"
        }
      ],
      "stateMutability": "pure",
      "type": "function"
    },
    {
      "inputs": [
        {
          "internalType": "uint256",
          "name": "",
          "type": "uint256"
        }
      ],
      "name": "losses",
      "outputs": [
        {
          "internalType": "uint256",
          "name": "",
          "type": "uint256"
        }
      ],
      "stateMutability": "view",
      "type": "function"
    },
    {
      "inputs": [
        {
          "internalType": "address",
          "name": "to",
          "type": "address"
        },
        {
          "internalType": "uint256",
          "name": "tokenId",
          "type": "uint256"
        },
        {
          "internalType": "string",
          "name": "name",
          "type": "string"
        }
      ],
      "name": "mint",
      "outputs": [],
      "stateMutability": "nonpayable",
      "type": "function"
    },
    {
      "inputs": [],
      "name": "name",
      "outputs": [
        {
          "internalType": "string",
          "name": "",
          "type": "string"
        }
      ],
      "stateMutability": "view",
      "type": "function"
    },
    {
      "inputs": [
        {
          "internalType": "uint256",
          "name": "tokenId",
          "type": "uint256"
        }
      ],
      "name": "ownerOf",
      "outputs": [
        {
          "internalType": "address",
          "name": "",
          "type": "address"
        }
      ],
      "stateMutability": "view",
      "type": "function"
    },
    {
      "inputs": [],
      "name": "proxiableUUID",
      "outputs": [
        {
          "internalType": "bytes32",
          "name": "",
          "type": "bytes32"
        }
      ],
      "stateMutability": "view",
      "type": "function"
    },
    {
      "inputs": [
        {
          "internalType": "enum TheBugs.Rarity",
          "name": "rarity",
          "type": "uint8"
        }
      ],
      "name": "rarityToString",
      "outputs": [
        {
          "internalType": "string",
          "name": "",
          "type": "string"
        }
      ],
      "stateMutability": "pure",
      "type": "function"
    },
    {
      "inputs": [
        {
          "internalType": "bytes32",
          "name": "role",
          "type": "bytes32"
        },
        {
          "internalType": "address",
          "name": "callerConfirmation",
          "type": "address"
        }
      ],
      "name": "renounceRole",
      "outputs": [],
      "stateMutability": "nonpayable",
      "type": "function"
    },
    {
      "inputs": [
        {
          "internalType": "bytes32",
          "name": "role",
          "type": "bytes32"
        },
        {
          "internalType": "address",
          "name": "account",
          "type": "address"
        }
      ],
      "name": "revokeRole",
      "outputs": [],
      "stateMutability": "nonpayable",
      "type": "function"
    },
    {
      "inputs": [
        {
          "internalType": "address",
          "name": "from",
          "type": "address"
        },
        {
          "internalType": "address",
          "name": "to",
          "type": "address"
        },
        {
          "internalType": "uint256",
          "name": "tokenId",
          "type": "uint256"
        }
      ],
      "name": "safeTransferFrom",
      "outputs": [],
      "stateMutability": "nonpayable",
      "type": "function"
    },
    {
      "inputs": [
        {
          "internalType": "address",
          "name": "from",
          "type": "address"
        },
        {
          "internalType": "address",
          "name": "to",
          "type": "address"
        },
        {
          "internalType": "uint256",
          "name": "tokenId",
          "type": "uint256"
        },
        {
          "internalType": "bytes",
          "name": "data",
          "type": "bytes"
        }
      ],
      "name": "safeTransferFrom",
      "outputs": [],
      "stateMutability": "nonpayable",
      "type": "function"
    },
    {
      "inputs": [
        {
          "internalType": "address",
          "name": "operator",
          "type": "address"
        },
        {
          "internalType": "bool",
          "name": "approved",
          "type": "bool"
        }
      ],
      "name": "setApprovalForAll",
      "outputs": [],
      "stateMutability": "nonpayable",
      "type": "function"
    },
    {
      "inputs": [
        {
          "internalType": "uint256",
          "name": "speciesID",
          "type": "uint256"
        },
        {
          "components": [
            {
              "internalType": "string",
              "name": "name",
              "type": "string"
            },
            {
              "internalType": "string",
              "name": "description",
              "type": "string"
            },
            {
              "internalType": "string",
              "name": "image",
              "type": "string"
            },
            {
              "components": [
                {
                  "internalType": "uint8",
                  "name": "intelligence",
                  "type": "uint8"
                },
                {
                  "internalType": "uint8",
                  "name": "nimbleness",
                  "type": "uint8"
                },
                {
                  "internalType": "uint8",
                  "name": "strength",
                  "type": "uint8"
                },
                {
                  "internalType": "uint8",
                  "name": "endurance",
                  "type": "uint8"
                },
                {
                  "internalType": "uint8",
                  "name": "charisma",
                  "type": "uint8"
                },
                {
                  "internalType": "uint8",
                  "name": "talent",
                  "type": "uint8"
                }
              ],
              "internalType": "struct TheBugs.Attributes",
              "name": "baseAttributes",
              "type": "tuple"
            }
          ],
          "internalType": "struct TheBugs.SpeciesData",
          "name": "speciesData",
          "type": "tuple"
        }
      ],
      "name": "setSpeciesData",
      "outputs": [],
      "stateMutability": "nonpayable",
      "type": "function"
    },
    {
      "inputs": [
        {
          "internalType": "uint256",
          "name": "",
          "type": "uint256"
        }
      ],
      "name": "speciesDatas",
      "outputs": [
        {
          "internalType": "string",
          "name": "name",
          "type": "string"
        },
        {
          "internalType": "string",
          "name": "description",
          "type": "string"
        },
        {
          "internalType": "string",
          "name": "image",
          "type": "string"
        },
        {
          "components": [
            {
              "internalType": "uint8",
              "name": "intelligence",
              "type": "uint8"
            },
            {
              "internalType": "uint8",
              "name": "nimbleness",
              "type": "uint8"
            },
            {
              "internalType": "uint8",
              "name": "strength",
              "type": "uint8"
            },
            {
              "internalType": "uint8",
              "name": "endurance",
              "type": "uint8"
            },
            {
              "internalType": "uint8",
              "name": "charisma",
              "type": "uint8"
            },
            {
              "internalType": "uint8",
              "name": "talent",
              "type": "uint8"
            }
          ],
          "internalType": "struct TheBugs.Attributes",
          "name": "baseAttributes",
          "type": "tuple"
        }
      ],
      "stateMutability": "view",
      "type": "function"
    },
    {
      "inputs": [
        {
          "internalType": "bytes4",
          "name": "interfaceId",
          "type": "bytes4"
        }
      ],
      "name": "supportsInterface",
      "outputs": [
        {
          "internalType": "bool",
          "name": "",
          "type": "bool"
        }
      ],
      "stateMutability": "view",
      "type": "function"
    },
    {
      "inputs": [],
      "name": "symbol",
      "outputs": [
        {
          "internalType": "string",
          "name": "",
          "type": "string"
        }
      ],
      "stateMutability": "view",
      "type": "function"
    },
    {
      "inputs": [
        {
          "internalType": "uint256",
          "name": "index",
          "type": "uint256"
        }
      ],
      "name": "tokenByIndex",
      "outputs": [
        {
          "internalType": "uint256",
          "name": "",
          "type": "uint256"
        }
      ],
      "stateMutability": "view",
      "type": "function"
    },
    {
      "inputs": [
        {
          "internalType": "address",
          "name": "owner",
          "type": "address"
        },
        {
          "internalType": "uint256",
          "name": "index",
          "type": "uint256"
        }
      ],
      "name": "tokenOfOwnerByIndex",
      "outputs": [
        {
          "internalType": "uint256",
          "name": "",
          "type": "uint256"
        }
      ],
      "stateMutability": "view",
      "type": "function"
    },
    {
      "inputs": [
        {
          "internalType": "uint256",
          "name": "tokenId",
          "type": "uint256"
        }
      ],
      "name": "tokenURI",
      "outputs": [
        {
          "internalType": "string",
          "name": "",
          "type": "string"
        }
      ],
      "stateMutability": "view",
      "type": "function"
    },
    {
      "inputs": [
        {
          "internalType": "address",
          "name": "owner",
          "type": "address"
        },
        {
          "internalType": "uint256",
          "name": "fromIndex",
          "type": "uint256"
        },
        {
          "internalType": "uint256",
          "name": "toIndex",
          "type": "uint256"
        }
      ],
      "name": "tokenURIsByOwnerAndIndexRange",
      "outputs": [
        {
          "internalType": "string[]",
          "name": "",
          "type": "string[]"
        }
      ],
      "stateMutability": "view",
      "type": "function"
    },
    {
      "inputs": [],
      "name": "totalSupply",
      "outputs": [
        {
          "internalType": "uint256",
          "name": "",
          "type": "uint256"
        }
      ],
      "stateMutability": "view",
      "type": "function"
    },
    {
      "inputs": [
        {
          "internalType": "address",
          "name": "from",
          "type": "address"
        },
        {
          "internalType": "address",
          "name": "to",
          "type": "address"
        },
        {
          "internalType": "uint256",
          "name": "tokenId",
          "type": "uint256"
        }
      ],
      "name": "transferFrom",
      "outputs": [],
      "stateMutability": "nonpayable",
      "type": "function"
    },
    {
      "inputs": [
        {
          "internalType": "address",
          "name": "newImplementation",
          "type": "address"
        },
        {
          "internalType": "bytes",
          "name": "data",
          "type": "bytes"
        }
      ],
      "name": "upgradeToAndCall",
      "outputs": [],
      "stateMutability": "payable",
      "type": "function"
    },
    {
      "inputs": [
        {
          "internalType": "uint256",
          "name": "",
          "type": "uint256"
        }
      ],
      "name": "wins",
      "outputs": [
        {
          "internalType": "uint256",
          "name": "",
          "type": "uint256"
        }
      ],
      "stateMutability": "view",
      "type": "function"
    }
  ],
  "bytecode": "0x60a06040523060805234801561001457600080fd5b507ff0c57e16840df040f15088dc2f81fe391c3923bec73e23a9662efc9c229c6a00805468010000000000000000810460ff1615906001600160401b031660008115801561005f5750825b90506000826001600160401b0316600114801561007b5750303b155b905081158015610089575080155b156100a75760405163f92ee8a960e01b815260040160405180910390fd5b84546001600160401b031916600117855583156100d557845460ff60401b1916680100000000000000001785555b831561011b57845460ff60401b19168555604051600181527fc7f505b2f371ae2175ee4913f4499e1f2633a7b5936321eed1cdaeb6115181d29060200160405180910390a15b5050505050608051614c6f6101496000396000818161230e01528181612337015261249c0152614c6f6000f3fe6080604052600436106102c85760003560e01c806375e58d1611610175578063a3246ad3116100dc578063d3fc986411610095578063d956087d1161006f578063d956087d1461092e578063dfb638bf14610962578063e985e9c51461098f578063f72c0d8b146109af57600080fd5b8063d3fc9864146108ba578063d5391393146108da578063d547741f1461090e57600080fd5b8063a3246ad3146107dc578063ad3cb1cc14610809578063b88d4fde1461083a578063bbeff99a1461085a578063c87b56dd1461087a578063ca15c8731461089a57600080fd5b806395d89b411161012e57806395d89b411461070857806399bb52151461071d578063a01413871461074a578063a2168d0714610777578063a217fddf146107a7578063a22cb465146107bc57600080fd5b806375e58d16146106465780637b0e4ab41461066657806380bfe883146106865780638129fc1c146106b35780639010d07c146106c857806391d14854146106e857600080fd5b80632f2ff15d116102345780634f1ef286116101ed57806357edac82116101c757806357edac82146105c357806359797d8a146105d85780636352211e1461060657806370a082311461062657600080fd5b80634f1ef2861461057b5780634f6ccce71461058e57806352d1902d146105ae57600080fd5b80632f2ff15d146104ae5780632f745c59146104ce57806336568abe146104ee578063406091e31461050e57806342842e0e1461052e5780634a167f6d1461054e57600080fd5b80630cc36c36116102865780630cc36c36146103d25780630d89aeec146103ff5780630e25272d1461041f57806318160ddd1461044c57806323b872dd1461046e578063248a9ca31461048e57600080fd5b8062508da7146102cd57806301ffc9a714610302578063029bca781461033257806306fdde0314610356578063081812fc14610378578063095ea7b3146103b0575b600080fd5b3480156102d957600080fd5b506102ef600080516020614bda83398151915281565b6040519081526020015b60405180910390f35b34801561030e57600080fd5b5061032261031d3660046139f3565b6109e3565b60405190151581526020016102f9565b34801561033e57600080fd5b5061032261034d366004613a10565b60ff1c60011490565b34801561036257600080fd5b5061036b6109f4565b6040516102f99190613a79565b34801561038457600080fd5b50610398610393366004613a10565b610a98565b6040516001600160a01b0390911681526020016102f9565b3480156103bc57600080fd5b506103d06103cb366004613aa8565b610aad565b005b3480156103de57600080fd5b506102ef6103ed366004613a10565b60046020526000908152604090205481565b34801561040b57600080fd5b506103d061041a366004613a10565b610abc565b34801561042b57600080fd5b5061043f61043a366004613a10565b610af7565b6040516102f99190613ae8565b34801561045857600080fd5b50600080516020614bfa833981519152546102ef565b34801561047a57600080fd5b506103d0610489366004613b10565b610be4565b34801561049a57600080fd5b506102ef6104a9366004613a10565b610c74565b3480156104ba57600080fd5b506103d06104c9366004613b4d565b610c96565b3480156104da57600080fd5b506102ef6104e9366004613aa8565b610cb2565b3480156104fa57600080fd5b506103d0610509366004613b4d565b610d26565b34801561051a57600080fd5b506103d0610529366004613a10565b610d5e565b34801561053a57600080fd5b506103d0610549366004613b10565b610d90565b34801561055a57600080fd5b5061056e610569366004613b79565b610dab565b6040516102f99190613bac565b6103d0610589366004613cb4565b610e76565b34801561059a57600080fd5b506102ef6105a9366004613a10565b610e91565b3480156105ba57600080fd5b506102ef610f09565b3480156105cf57600080fd5b506102ef600381565b3480156105e457600080fd5b506105f86105f3366004613a10565b610f26565b6040516102f9929190613d4d565b34801561061257600080fd5b50610398610621366004613a10565b611022565b34801561063257600080fd5b506102ef610641366004613d6f565b61102d565b34801561065257600080fd5b506103d0610661366004613d8a565b611089565b34801561067257600080fd5b506103d0610681366004613a10565b61121c565b34801561069257600080fd5b506102ef6106a1366004613a10565b60026020526000908152604090205481565b3480156106bf57600080fd5b506103d061124e565b3480156106d457600080fd5b506103986106e3366004613dd8565b6113ef565b3480156106f457600080fd5b50610322610703366004613b4d565b61141e565b34801561071457600080fd5b5061036b611456565b34801561072957600080fd5b506102ef610738366004613a10565b60036020526000908152604090205481565b34801561075657600080fd5b5061076a610765366004613a10565b611495565b6040516102f99190613dfa565b34801561078357600080fd5b50610797610792366004613a10565b61180b565b6040516102f99493929190613e08565b3480156107b357600080fd5b506102ef600081565b3480156107c857600080fd5b506103d06107d7366004613e53565b611a23565b3480156107e857600080fd5b506107fc6107f7366004613a10565b611a2e565b6040516102f99190613e84565b34801561081557600080fd5b5061036b604051806040016040528060058152602001640352e302e360dc1b81525081565b34801561084657600080fd5b506103d0610855366004613ed0565b611a59565b34801561086657600080fd5b5061036b610875366004613f37565b611a71565b34801561088657600080fd5b5061036b610895366004613a10565b611be3565b3480156108a657600080fd5b506102ef6108b5366004613a10565b611d89565b3480156108c657600080fd5b506103d06108d5366004613f58565b611daf565b3480156108e657600080fd5b506102ef7f9f2df0fed2c77648de5860a4cc508cd0818c85b8b8a1ab4ceeef8d981c8956a681565b34801561091a57600080fd5b506103d0610929366004613b4d565b611e23565b34801561093a57600080fd5b506102ef7f4ddd85e313b1db5c4144000907a5124c34f10d6a5ef9c2cddb8e5f4467c74b5381565b34801561096e57600080fd5b5061098261097d366004613a10565b611e3f565b6040516102f99190613fe0565b34801561099b57600080fd5b506103226109aa36600461404e565b61208b565b3480156109bb57600080fd5b506102ef7f189ab7a9244df0848122154315af71fe140f3db0fe014031783b0946b8c9d2e381565b60006109ee826120d8565b92915050565b600080516020614b5a8339815191528054606091908190610a1490614078565b80601f0160208091040260200160405190810160405280929190818152602001828054610a4090614078565b8015610a8d5780601f10610a6257610100808354040283529160200191610a8d565b820191906000526020600020905b815481529060010190602001808311610a7057829003601f168201915b505050505091505090565b6000610aa3826120fd565b506109ee82612135565b610ab882823361216f565b5050565b600080516020614bda833981519152610ad48161217c565b6000828152600360205260408120805491610aee836140c2565b91905055505050565b60008061271083604051602001610b1f9181526552415249545960d01b602082015260260190565b6040516020818303038152906040528051906020012060001c610b4291906140f1565b905060ff83901c600103610b9257611388811015610b635750600192915050565b612328811015610b765750600292915050565b6125e4811015610b895750600392915050565b50600492915050565b611770811015610ba55750600092915050565b612134811015610bb85750600192915050565b61251c811015610bcb5750600292915050565b61267a811015610b895750600392915050565b50919050565b6001600160a01b038216610c1357604051633250574960e11b8152600060048201526024015b60405180910390fd5b6000610c20838333612189565b9050836001600160a01b0316816001600160a01b031614610c6e576040516364283d7b60e01b81526001600160a01b0380861660048301526024820184905282166044820152606401610c0a565b50505050565b6000908152600080516020614c1a833981519152602052604090206001015490565b610c9f82610c74565b610ca88161217c565b610c6e8383612282565b6000600080516020614b3a833981519152610ccc8461102d565b8310610cfd5760405163295f44f760e21b81526001600160a01b038516600482015260248101849052604401610c0a565b6001600160a01b0384166000908152602091825260408082208583529092522054905092915050565b6001600160a01b0381163314610d4f5760405163334bd91960e11b815260040160405180910390fd5b610d5982826122c7565b505050565b600080516020614bda833981519152610d768161217c565b6000828152600260205260408120805491610aee836140c2565b610d5983838360405180602001604052806000815250611a59565b60606000610db98484614105565b610dc4906001614118565b6001600160401b03811115610ddb57610ddb613c11565b604051908082528060200260200182016040528015610e0e57816020015b6060815260200190600190039081610df95790505b509050835b838111610e6b576000610e268783610cb2565b9050610e3181611be3565b83610e3c8885614105565b81518110610e4c57610e4c61412b565b6020026020010181905250508080610e63906140c2565b915050610e13565b5090505b9392505050565b610e7e612303565b610e87826123aa565b610ab882826123d4565b6000600080516020614b3a833981519152610eb8600080516020614bfa8339815191525490565b8310610ee15760405163295f44f760e21b81526000600482015260248101849052604401610c0a565b806002018381548110610ef657610ef661412b565b9060005260206000200154915050919050565b6000610f13612491565b50600080516020614b7a83398151915290565b600160205260009081526040902080548190610f4190614078565b80601f0160208091040260200160405190810160405280929190818152602001828054610f6d90614078565b8015610fba5780601f10610f8f57610100808354040283529160200191610fba565b820191906000526020600020905b815481529060010190602001808311610f9d57829003601f168201915b50506040805160c08101825260019096015460ff80821688526101008204811660208901526201000082048116928801929092526301000000810482166060880152640100000000810482166080880152600160281b90041660a08601525091929150839050565b60006109ee826120fd565b6000600080516020614b5a8339815191526001600160a01b038316611068576040516322718ad960e21b815260006004820152602401610c0a565b6001600160a01b039092166000908152600390920160205250604090205490565b7f4ddd85e313b1db5c4144000907a5124c34f10d6a5ef9c2cddb8e5f4467c74b536110b38161217c565b600383106111035760405162461bcd60e51b815260206004820152601b60248201527f546865427567733a20696e76616c6964207370657369657320494400000000006044820152606401610c0a565b6060820161111961012084016101008501614150565b61112960a0830160808401614150565b6111396080840160608501614150565b6111496060850160408601614150565b6111596040860160208701614150565b6111666020870187614150565b611170919061416d565b61117a919061416d565b611184919061416d565b61118e919061416d565b611198919061416d565b60ff166019146111fa5760405162461bcd60e51b815260206004820152602760248201527f54686520427567733a20696e76616c69642062617365206174747269627574656044820152661cc81d1bdd185b60ca1b6064820152608401610c0a565b6000848152602081905260409020839061121482826143dd565b505050505050565b600080516020614bda8339815191526112348161217c565b6000828152600460205260408120805491610aee836140c2565b7ff0c57e16840df040f15088dc2f81fe391c3923bec73e23a9662efc9c229c6a008054600160401b810460ff1615906001600160401b03166000811580156112935750825b90506000826001600160401b031660011480156112af5750303b155b9050811580156112bd575080155b156112db5760405163f92ee8a960e01b815260040160405180910390fd5b845467ffffffffffffffff19166001178555831561130557845460ff60401b1916600160401b1785555b61130d6124da565b6113156124da565b61135b60405180604001604052806008815260200167546865204275677360c01b815250604051806040016040528060048152602001634255475360e01b8152506124e2565b6113636124da565b61136b6124da565b611376600033612282565b506113a17f4ddd85e313b1db5c4144000907a5124c34f10d6a5ef9c2cddb8e5f4467c74b5333612282565b5083156113e857845460ff60401b19168555604051600181527fc7f505b2f371ae2175ee4913f4499e1f2633a7b5936321eed1cdaeb6115181d29060200160405180910390a15b5050505050565b6000828152600080516020614b1a83398151915260208190526040822061141690846124f4565b949350505050565b6000918252600080516020614c1a833981519152602090815260408084206001600160a01b0393909316845291905290205460ff1690565b7f80bb2b638cc20bc4d0a60d66940f3ab4a00c1d7b313497ca82fb0b4ab00793018054606091600080516020614b5a83398151915291610a1490614078565b6040805160c081018252600080825260208201819052918101829052606081018290526080810182905260a08101829052906114d083610af7565b90506000808260048111156114e7576114e7613ad2565b036114f457506005611574565b600182600481111561150857611508613ad2565b0361151557506008611574565b600282600481111561152957611529613ad2565b036115365750600b611574565b600382600481111561154a5761154a613ad2565b036115575750600e611574565b600482600481111561156b5761156b613ad2565b03611574575060115b60008460405160200161159c918152694154545249425554455360b01b6020820152602a0190565b60408051601f198184030181528282528051602091820120600680855260e0850190935293506000929190820160c08036833701905050905060005b8381101561164b5760006115ed6006856140f1565b90508281815181106116015761160161412b565b602002602001018051809190611616906144e8565b60ff1690525060408051602081018690520160408051601f1981840301815291905280516020909101209350506001016115d8565b50600080600061165a89612500565b815260208082019290925260409081016000908120825160c0808201855260039092015460ff808216835261010082048116968301969096526201000081048616828601526301000000810486166060830152640100000000810486166080830152600160281b900490941660a0850152825190810190925284519293509091829185916116ea576116ea61412b565b60200260200101518360000151611701919061416d565b60ff1681526020018360018151811061171c5761171c61412b565b60200260200101518360200151611733919061416d565b60ff1681526020018360028151811061174e5761174e61412b565b60200260200101518360400151611765919061416d565b60ff168152602001836003815181106117805761178061412b565b60200260200101518360600151611797919061416d565b60ff168152602001836004815181106117b2576117b261412b565b602002602001015183608001516117c9919061416d565b60ff168152602001836005815181106117e4576117e461412b565b60200260200101518360a001516117fb919061416d565b60ff169052979650505050505050565b60006020819052908152604090208054819061182690614078565b80601f016020809104026020016040519081016040528092919081815260200182805461185290614078565b801561189f5780601f106118745761010080835404028352916020019161189f565b820191906000526020600020905b81548152906001019060200180831161188257829003601f168201915b5050505050908060010180546118b490614078565b80601f01602080910402602001604051908101604052809291908181526020018280546118e090614078565b801561192d5780601f106119025761010080835404028352916020019161192d565b820191906000526020600020905b81548152906001019060200180831161191057829003601f168201915b50505050509080600201805461194290614078565b80601f016020809104026020016040519081016040528092919081815260200182805461196e90614078565b80156119bb5780601f10611990576101008083540402835291602001916119bb565b820191906000526020600020905b81548152906001019060200180831161199e57829003601f168201915b50506040805160c08101825260039096015460ff80821688526101008204811660208901526201000082048116928801929092526301000000810482166060880152640100000000810482166080880152600160281b90041660a08601525091929150859050565b610ab833838361254a565b6000818152600080516020614b1a8339815191526020819052604090912060609190610e6f906125fb565b611a64848484610be4565b610c6e3385858585612608565b60606000826004811115611a8757611a87613ad2565b03611aae57505060408051808201909152600681526521b7b6b6b7b760d11b602082015290565b6001826004811115611ac257611ac2613ad2565b03611aeb5750506040805180820190915260088152672ab731b7b6b6b7b760c11b602082015290565b6002826004811115611aff57611aff613ad2565b03611b245750506040805180820190915260048152635261726560e01b602082015290565b6003826004811115611b3857611b38613ad2565b03611b5d5750506040805180820190915260048152634570696360e01b602082015290565b6004826004811115611b7157611b71613ad2565b03611b9b5750506040805180820190915260098152684c6567656e6461727960b81b602082015290565b60405162461bcd60e51b815260206004820152601760248201527f546865427567733a20696e76616c6964207261726974790000000000000000006044820152606401610c0a565b60606000611bf083611e3f565b60008481526001602052604081209192506060908190611c1261087588610af7565b9050836000018054611c2390614078565b9050600003611c5c578451604051611c3f918391602001614523565b604051602081830303815290604052925084602001519150611d16565b83548490611c6990614078565b80601f0160208091040260200160405190810160405280929190818152602001828054611c9590614078565b8015611ce25780601f10611cb757610100808354040283529160200191611ce2565b820191906000526020600020905b815481529060010190602001808311611cc557829003601f168201915b5050505050925084600001518560200151604051602001611d0492919061455f565b60405160208183030381529060405291505b6000838660000151848860400151611d2f89878e61272a565b604051602001611d4395949392919061459c565b6040516020818303038152906040529050611d5d81612963565b604051602001611d6d9190614699565b6040516020818303038152906040529650505050505050919050565b6000818152600080516020614b1a833981519152602081905260408220610e6f90612989565b7f9f2df0fed2c77648de5860a4cc508cd0818c85b8b8a1ab4ceeef8d981c8956a6611dd98161217c565b611e198484848080601f01602080910402602001604051908101604052809392919081815260200183838082843760009201919091525061299392505050565b6113e88585612a7d565b611e2c82610c74565b611e358161217c565b610c6e83836122c7565b611e47613980565b600080611e5384612500565b8152602001908152602001600020604051806080016040529081600082018054611e7c90614078565b80601f0160208091040260200160405190810160405280929190818152602001828054611ea890614078565b8015611ef55780601f10611eca57610100808354040283529160200191611ef5565b820191906000526020600020905b815481529060010190602001808311611ed857829003601f168201915b50505050508152602001600182018054611f0e90614078565b80601f0160208091040260200160405190810160405280929190818152602001828054611f3a90614078565b8015611f875780601f10611f5c57610100808354040283529160200191611f87565b820191906000526020600020905b815481529060010190602001808311611f6a57829003601f168201915b50505050508152602001600282018054611fa090614078565b80601f0160208091040260200160405190810160405280929190818152602001828054611fcc90614078565b80156120195780601f10611fee57610100808354040283529160200191612019565b820191906000526020600020905b815481529060010190602001808311611ffc57829003601f168201915b50505091835250506040805160c0810182526003939093015460ff8082168552610100820481166020868101919091526201000083048216938601939093526301000000820481166060860152640100000000820481166080860152600160281b9091041660a0840152015292915050565b6001600160a01b0391821660009081527f80bb2b638cc20bc4d0a60d66940f3ab4a00c1d7b313497ca82fb0b4ab00793056020908152604080832093909416825291909152205460ff1690565b60006001600160e01b0319821663780e9d6360e01b14806109ee57506109ee82612a97565b60008061210983612ad7565b90506001600160a01b0381166109ee57604051637e27328960e01b815260048101849052602401610c0a565b60009081527f80bb2b638cc20bc4d0a60d66940f3ab4a00c1d7b313497ca82fb0b4ab007930460205260409020546001600160a01b031690565b610d598383836001612b11565b6121868133612c27565b50565b600080612197858585612c60565b90506001600160a01b0381166122205761221b84600080516020614bfa833981519152805460008381527f645e039705490088daad89bae25049a34f4a9072d398537b1ab2425f24cbed0360205260408120829055600182018355919091527fa42f15e5d656f8155fd7419d740a6073999f19cd6e061449ce4a257150545bf20155565b612243565b846001600160a01b0316816001600160a01b031614612243576122438185612d6a565b6001600160a01b03851661225f5761225a84612e06565b611416565b846001600160a01b0316816001600160a01b031614611416576114168585612edd565b6000600080516020614b1a8339815191528161229e8585612f38565b905080156114165760008581526020839052604090206122be9085612fdd565b50949350505050565b6000600080516020614b1a833981519152816122e38585612ff2565b905080156114165760008581526020839052604090206122be908561306e565b306001600160a01b037f000000000000000000000000000000000000000000000000000000000000000016148061238a57507f00000000000000000000000000000000000000000000000000000000000000006001600160a01b031661237e600080516020614b7a833981519152546001600160a01b031690565b6001600160a01b031614155b156123a85760405163703e46dd60e11b815260040160405180910390fd5b565b7f189ab7a9244df0848122154315af71fe140f3db0fe014031783b0946b8c9d2e3610ab88161217c565b816001600160a01b03166352d1902d6040518163ffffffff1660e01b8152600401602060405180830381865afa92505050801561242e575060408051601f3d908101601f1916820190925261242b918101906146de565b60015b61245657604051634c9c8ce360e01b81526001600160a01b0383166004820152602401610c0a565b600080516020614b7a833981519152811461248757604051632a87526960e21b815260048101829052602401610c0a565b610d598383613083565b306001600160a01b037f000000000000000000000000000000000000000000000000000000000000000016146123a85760405163703e46dd60e11b815260040160405180910390fd5b6123a86130d9565b6124ea6130d9565b610ab88282613122565b6000610e6f8383613153565b6000600382604051602001612527918152665350454349455360c81b602082015260270190565b6040516020818303038152906040528051906020012060001c6109ee91906140f1565b600080516020614b5a8339815191526001600160a01b03831661258b57604051630b61174360e31b81526001600160a01b0384166004820152602401610c0a565b6001600160a01b038481166000818152600584016020908152604080832094881680845294825291829020805460ff191687151590811790915591519182527f17307eab39ab6107e8899845ad3d59bd9653f200f220920489ca2b5937696c31910160405180910390a350505050565b60606000610e6f8361317d565b6001600160a01b0383163b156113e857604051630a85bd0160e11b81526001600160a01b0384169063150b7a029061264a9088908890879087906004016146f7565b6020604051808303816000875af1925050508015612685575060408051601f3d908101601f1916820190925261268291810190614734565b60015b6126ee573d8080156126b3576040519150601f19603f3d011682016040523d82523d6000602084013e6126b8565b606091505b5080516000036126e657604051633250574960e11b81526001600160a01b0385166004820152602401610c0a565b805181602001fd5b6001600160e01b03198116630a85bd0160e11b1461121457604051633250574960e11b81526001600160a01b0385166004820152602401610c0a565b60606127546040518060400160405280600681526020016552617269747960d01b815250846131d9565b60408051808201909152600c81526b496e74656c6c6967656e636560a01b60208201526001860154612789919060ff16613205565b60408051808201909152600a8152694e696d626c656e65737360b01b602082015260018701546127c19190610100900460ff16613205565b6040805180820190915260088152670a6e8e4cadccee8d60c31b602082015260018801546127f8919062010000900460ff16613205565b604080518082019091526009815268456e647572616e636560b81b6020820152600189015461283191906301000000900460ff16613205565b6040805180820190915260088152674368617269736d6160c01b602082015260018a015461286a9190640100000000900460ff16613205565b60408051808201909152600681526515185b195b9d60d21b602082015260018b01546128a09190600160281b900460ff16613205565b60408051808201825260048082526352756e7360e01b60208084019190915260008d8152918152838220546003825284832054600290925293909120546128fa93916128eb91614118565b6128f59190614118565b613222565b6129336040518060400160405280600481526020016357696e7360e01b815250600260008d815260200190815260200160002054613222565b60405160200161294b99989796959493929190614751565b60405160208183030381529060405290509392505050565b60606109ee82604051806060016040528060408152602001614b9a60409139600161323f565b60006109ee825490565b600061299e83611495565b604080518082018252848152602080820184905260008781526001909152919091208151929350909181906129d3908261484c565b50602091820151805160019290920180549382015160408301516060840151608085015160a09095015160ff96871661ffff1990981697909717610100938716939093029290921763ffff00001916620100009186169190910263ff0000001916176301000000918516919091021765ffff0000000019166401000000009284169290920265ff0000000000191691909117600160281b9290931691909102919091179055505050565b610ab88282604051806020016040528060008152506133be565b60006001600160e01b031982166380ac58cd60e01b1480612ac857506001600160e01b03198216635b5e139f60e01b145b806109ee57506109ee826133d6565b60009081527f80bb2b638cc20bc4d0a60d66940f3ab4a00c1d7b313497ca82fb0b4ab007930260205260409020546001600160a01b031690565b600080516020614b5a8339815191528180612b3457506001600160a01b03831615155b15612bf6576000612b44856120fd565b90506001600160a01b03841615801590612b705750836001600160a01b0316816001600160a01b031614155b8015612b835750612b81818561208b565b155b15612bac5760405163a9fbf51f60e01b81526001600160a01b0385166004820152602401610c0a565b8215612bf45784866001600160a01b0316826001600160a01b03167f8c5be1e5ebec7d5bd14f71427d1e84f3dd0314c0f7b2291e5b200ac8c7c3b92560405160405180910390a45b505b600093845260040160205250506040902080546001600160a01b0319166001600160a01b0392909216919091179055565b612c31828261141e565b610ab85760405163e2517d3f60e01b81526001600160a01b038216600482015260248101839052604401610c0a565b6000600080516020614b5a83398151915281612c7b85612ad7565b90506001600160a01b03841615612c9757612c978185876133fb565b6001600160a01b03811615612cd757612cb4600086600080612b11565b6001600160a01b0381166000908152600383016020526040902080546000190190555b6001600160a01b03861615612d08576001600160a01b03861660009081526003830160205260409020805460010190555b600085815260028301602052604080822080546001600160a01b0319166001600160a01b038a811691821790925591518893918516917fddf252ad1be2c89b69c2b068fc378daa952ba7f163c4a11628f55a4df523b3ef91a495945050505050565b600080516020614b3a8339815191526000612d848461102d565b60008481526001840160209081526040808320546001600160a01b03891684529186905290912091925090818314612dde576000838152602082815260408083205485845281842081905583526001870190915290208290555b6000948552600190930160209081526040808620869055928552929092528220919091555050565b600080516020614bfa83398151915254600080516020614b3a83398151915290600090612e3590600190614105565b6000848152600384016020526040812054600285018054939450909284908110612e6157612e6161412b565b9060005260206000200154905080846002018381548110612e8457612e8461412b565b600091825260208083209091019290925582815260038601909152604080822084905586825281205560028401805480612ec057612ec0614904565b600190038181906000526020600020016000905590555050505050565b600080516020614b3a83398151915260006001612ef98561102d565b612f039190614105565b6001600160a01b0390941660009081526020838152604080832087845282528083208690559482526001909301909252502055565b6000600080516020614c1a833981519152612f53848461141e565b612fd3576000848152602082815260408083206001600160a01b03871684529091529020805460ff19166001179055612f893390565b6001600160a01b0316836001600160a01b0316857f2f8788117e7eff1d82e926ec794901d17c78024a50270940304540a733656f0d60405160405180910390a460019150506109ee565b60009150506109ee565b6000610e6f836001600160a01b03841661345f565b6000600080516020614c1a83398151915261300d848461141e565b15612fd3576000848152602082815260408083206001600160a01b0387168085529252808320805460ff1916905551339287917ff6391f5c32d9c69d2a47ea670b442974b53935d1edc7fd64eb21e047a839171b9190a460019150506109ee565b6000610e6f836001600160a01b0384166134ae565b61308c82613597565b6040516001600160a01b038316907fbc7cd75a20ee27fd9adebab32041f755214dbc6bffa90cc0225b39da2e5c2d3b90600090a28051156130d157610d5982826135fc565b610ab8613672565b7ff0c57e16840df040f15088dc2f81fe391c3923bec73e23a9662efc9c229c6a0054600160401b900460ff166123a857604051631afcd79f60e31b815260040160405180910390fd5b61312a6130d9565b600080516020614b5a83398151915280613144848261484c565b5060018101610c6e838261484c565b600082600001828154811061316a5761316a61412b565b9060005260206000200154905092915050565b6060816000018054806020026020016040519081016040528092919081815260200182805480156131cd57602002820191906000526020600020905b8154815260200190600101908083116131b9575b50505050509050919050565b606082826040516020016131ee92919061491a565b604051602081830303815290604052905092915050565b60608261321183613691565b6040516020016131ee9291906149a8565b60608261322e83613691565b6040516020016131ee929190614a2a565b6060835160000361325f5750604080516020810190915260008152610e6f565b600082613290576003855160046132769190614ad2565b613281906002614118565b61328b9190614ae9565b6132b5565b6003855160026132a09190614118565b6132aa9190614ae9565b6132b5906004614ad2565b90506000816001600160401b038111156132d1576132d1613c11565b6040519080825280601f01601f1916602001820160405280156132fb576020820181803683370190505b50905060018501602082018788518901602081018051600082525b82841015613371576003840193508351603f8160121c168701518653600186019550603f81600c1c168701518653600186019550603f8160061c168701518653600186019550603f8116870151865350600185019450613316565b9052505085156133b25760038851066001811461339557600281146133a8576133b0565b603d6001830353603d60028303536133b0565b603d60018303535b505b50909695505050505050565b6133c88383613724565b610d59336000858585612608565b60006001600160e01b03198216635a05180f60e01b14806109ee57506109ee82613789565b6134068383836137be565b610d59576001600160a01b03831661343457604051637e27328960e01b815260048101829052602401610c0a565b60405163177e802f60e01b81526001600160a01b038316600482015260248101829052604401610c0a565b60008181526001830160205260408120546134a6575081546001818101845560008481526020808220909301849055845484825282860190935260409020919091556109ee565b5060006109ee565b60008181526001830160205260408120548015612fd35760006134d2600183614105565b85549091506000906134e690600190614105565b905080821461354b5760008660000182815481106135065761350661412b565b90600052602060002001549050808760000184815481106135295761352961412b565b6000918252602080832090910192909255918252600188019052604090208390555b855486908061355c5761355c614904565b6001900381819060005260206000200160009055905585600101600086815260200190815260200160002060009055600193505050506109ee565b806001600160a01b03163b6000036135cd57604051634c9c8ce360e01b81526001600160a01b0382166004820152602401610c0a565b600080516020614b7a83398151915280546001600160a01b0319166001600160a01b0392909216919091179055565b6060600080846001600160a01b0316846040516136199190614afd565b600060405180830381855af49150503d8060008114613654576040519150601f19603f3d011682016040523d82523d6000602084013e613659565b606091505b5091509150613669858383613823565b95945050505050565b34156123a85760405163b398979f60e01b815260040160405180910390fd5b6060600061369e8361387f565b60010190506000816001600160401b038111156136bd576136bd613c11565b6040519080825280601f01601f1916602001820160405280156136e7576020820181803683370190505b5090508181016020015b600019016f181899199a1a9b1b9c1cb0b131b232b360811b600a86061a8153600a85049450846136f1575b509392505050565b6001600160a01b03821661374e57604051633250574960e11b815260006004820152602401610c0a565b600061375c83836000612189565b90506001600160a01b03811615610d59576040516339e3563760e11b815260006004820152602401610c0a565b60006001600160e01b03198216637965db0b60e01b14806109ee57506301ffc9a760e01b6001600160e01b03198316146109ee565b60006001600160a01b038316158015906114165750826001600160a01b0316846001600160a01b031614806137f857506137f8848461208b565b806114165750826001600160a01b031661381183612135565b6001600160a01b031614949350505050565b6060826138385761383382613957565b610e6f565b815115801561384f57506001600160a01b0384163b155b1561387857604051639996b31560e01b81526001600160a01b0385166004820152602401610c0a565b5080610e6f565b60008072184f03e93ff9f4daa797ed6e38ed64bf6a1f0160401b83106138be5772184f03e93ff9f4daa797ed6e38ed64bf6a1f0160401b830492506040015b6d04ee2d6d415b85acef810000000083106138ea576d04ee2d6d415b85acef8100000000830492506020015b662386f26fc10000831061390857662386f26fc10000830492506010015b6305f5e1008310613920576305f5e100830492506008015b612710831061393457612710830492506004015b60648310613946576064830492506002015b600a83106109ee5760010192915050565b8051156139675780518082602001fd5b60405163d6bda27560e01b815260040160405180910390fd5b60405180608001604052806060815260200160608152602001606081526020016139d86040805160c081018252600080825260208201819052918101829052606081018290526080810182905260a081019190915290565b905290565b6001600160e01b03198116811461218657600080fd5b600060208284031215613a0557600080fd5b8135610e6f816139dd565b600060208284031215613a2257600080fd5b5035919050565b60005b83811015613a44578181015183820152602001613a2c565b50506000910152565b60008151808452613a65816020860160208601613a29565b601f01601f19169290920160200192915050565b602081526000610e6f6020830184613a4d565b80356001600160a01b0381168114613aa357600080fd5b919050565b60008060408385031215613abb57600080fd5b613ac483613a8c565b946020939093013593505050565b634e487b7160e01b600052602160045260246000fd5b6020810160058310613b0a57634e487b7160e01b600052602160045260246000fd5b91905290565b600080600060608486031215613b2557600080fd5b613b2e84613a8c565b9250613b3c60208501613a8c565b929592945050506040919091013590565b60008060408385031215613b6057600080fd5b82359150613b7060208401613a8c565b90509250929050565b600080600060608486031215613b8e57600080fd5b613b9784613a8c565b95602085013595506040909401359392505050565b6000602082016020835280845180835260408501915060408160051b86010192506020860160005b82811015613c0557603f19878603018452613bf0858351613a4d565b94506020938401939190910190600101613bd4565b50929695505050505050565b634e487b7160e01b600052604160045260246000fd5b600082601f830112613c3857600080fd5b81356001600160401b03811115613c5157613c51613c11565b604051601f8201601f19908116603f011681016001600160401b0381118282101715613c7f57613c7f613c11565b604052818152838201602001851015613c9757600080fd5b816020850160208301376000918101602001919091529392505050565b60008060408385031215613cc757600080fd5b613cd083613a8c565b915060208301356001600160401b03811115613ceb57600080fd5b613cf785828601613c27565b9150509250929050565b60ff815116825260ff602082015116602083015260ff604082015116604083015260ff606082015116606083015260ff608082015116608083015260ff60a08201511660a08301525050565b60e081526000613d6060e0830185613a4d565b9050610e6f6020830184613d01565b600060208284031215613d8157600080fd5b610e6f82613a8c565b60008060408385031215613d9d57600080fd5b8235915060208301356001600160401b03811115613dba57600080fd5b83016101208186031215613dcd57600080fd5b809150509250929050565b60008060408385031215613deb57600080fd5b50508035926020909101359150565b60c081016109ee8284613d01565b61012081526000613e1d610120830187613a4d565b8281036020840152613e2f8187613a4d565b90508281036040840152613e438186613a4d565b9150506136696060830184613d01565b60008060408385031215613e6657600080fd5b613e6f83613a8c565b915060208301358015158114613dcd57600080fd5b602080825282518282018190526000918401906040840190835b81811015613ec55783516001600160a01b0316835260209384019390920191600101613e9e565b509095945050505050565b60008060008060808587031215613ee657600080fd5b613eef85613a8c565b9350613efd60208601613a8c565b92506040850135915060608501356001600160401b03811115613f1f57600080fd5b613f2b87828801613c27565b91505092959194509250565b600060208284031215613f4957600080fd5b813560058110610e6f57600080fd5b60008060008060608587031215613f6e57600080fd5b613f7785613a8c565b93506020850135925060408501356001600160401b03811115613f9957600080fd5b8501601f81018713613faa57600080fd5b80356001600160401b03811115613fc057600080fd5b876020828401011115613fd257600080fd5b949793965060200194505050565b60208152600082516101206020840152613ffe610140840182613a4d565b90506020840151601f1984830301604085015261401b8282613a4d565b9150506040840151601f198483030160608501526140398282613a4d565b915050606084015161371c6080850182613d01565b6000806040838503121561406157600080fd5b61406a83613a8c565b9150613b7060208401613a8c565b600181811c9082168061408c57607f821691505b602082108103610bde57634e487b7160e01b600052602260045260246000fd5b634e487b7160e01b600052601160045260246000fd5b6000600182016140d4576140d46140ac565b5060010190565b634e487b7160e01b600052601260045260246000fd5b600082614100576141006140db565b500690565b818103818111156109ee576109ee6140ac565b808201808211156109ee576109ee6140ac565b634e487b7160e01b600052603260045260246000fd5b60ff8116811461218657600080fd5b60006020828403121561416257600080fd5b8135610e6f81614141565b60ff81811683821601908111156109ee576109ee6140ac565b6000808335601e1984360301811261419d57600080fd5b8301803591506001600160401b038211156141b757600080fd5b6020019150368190038213156141cc57600080fd5b9250929050565b601f821115610d5957806000526020600020601f840160051c810160208510156141fa5750805b601f840160051c820191505b818110156113e85760008155600101614206565b600019600383901b1c191660019190911b1790565b6001600160401b0383111561424657614246613c11565b61425a836142548354614078565b836141d3565b6000601f84116001811461428857600085156142765750838201355b614280868261421a565b8455506113e8565b600083815260209020601f19861690835b828110156142b95786850135825560209485019460019092019101614299565b50868210156142d65760001960f88860031b161c19848701351681555b505060018560011b0183555050505050565b600081356109ee81614141565b813561430081614141565b60ff8116905081548160ff198216178355602084013561431f81614141565b61ff008160081b168361ffff198416171784555050506000604083013561434581614141565b825462ff0000191660109190911b62ff0000161782555061438561436b606084016142e8565b825463ff000000191660189190911b63ff00000016178255565b6143b0614394608084016142e8565b825464ff00000000191660209190911b64ff0000000016178255565b610ab86143bf60a084016142e8565b825465ff0000000000191660289190911b65ff000000000016178255565b6143e78283614186565b6001600160401b038111156143fe576143fe613c11565b6144128161440c8554614078565b856141d3565b6000601f821160018114614440576000831561442e5750838201355b614438848261421a565b86555061449a565b600085815260209020601f19841690835b828110156144715786850135825560209485019460019092019101614451565b508482101561448e5760001960f88660031b161c19848701351681555b505060018360011b0185555b505050506144ab6020830183614186565b6144b981836001860161422f565b50506144c86040830183614186565b6144d681836002860161422f565b5050610ab860608301600383016142f5565b600060ff821660ff81036144fe576144fe6140ac565b60010192915050565b60008151614519818560208601613a29565b9290920192915050565b60008351614535818460208801613a29565b600160fd1b9083019081528351614553816001840160208801613a29565b01600101949350505050565b60008351614571818460208801613a29565b6101d160f51b9083019081528351614590816002840160208801613a29565b01600201949350505050565b607b60f81b815268113730b6b2911d101160b91b600182015285516000906145cb81600a850160208b01613a29565b61088b60f21b600a918401918201526b1139b832b1b4b2b9911d101160a11b600c8201526145fc6018820188614507565b61088b60f21b815290506f113232b9b1b934b83a34b7b7111d101160811b600282015261462c6012820187614507565b61088b60f21b81529050691134b6b0b3b2911d101160b11b6002820152614656600c820186614507565b61088b60f21b815290506c1130ba3a3934b13aba32b9911d60991b6002820152614683600f820185614507565b607d60f81b815260010198975050505050505050565b7f646174613a6170706c69636174696f6e2f6a736f6e3b6261736536342c0000008152600082516146d181601d850160208701613a29565b91909101601d0192915050565b6000602082840312156146f057600080fd5b5051919050565b6001600160a01b038581168252841660208201526040810183905260806060820181905260009061472a90830184613a4d565b9695505050505050565b60006020828403121561474657600080fd5b8151610e6f816139dd565b605b60f81b815260008a5161476d816001850160208f01613a29565b600b60fa1b6001918401918201528a5161478e816002840160208f01613a29565b600181830101915050600b60fa1b60018201526147ae600282018b614507565b600b60fa1b815290506147c4600182018a614507565b600b60fa1b815290506147da6001820189614507565b600b60fa1b815290506147f06001820188614507565b600b60fa1b815290506148066001820187614507565b600b60fa1b8152905061481c6001820186614507565b600b60fa1b815290506148326001820185614507565b605d60f81b81526001019c9b505050505050505050505050565b81516001600160401b0381111561486557614865613c11565b614879816148738454614078565b846141d3565b6020601f8211600181146148a757600083156148955750848201515b61489f848261421a565b8555506113e8565b600084815260208120601f198516915b828110156148d757878501518255602094850194600190920191016148b7565b50848210156148f55786840151600019600387901b60f8161c191681555b50505050600190811b01905550565b634e487b7160e01b600052603160045260246000fd5b607b60f81b81526e113a3930b4ba2fba3cb832911d101160891b6001820152825160009061494f816010850160208801613a29565b61088b60f21b60109184019182015269113b30b63ab2911d101160b11b6012820152835161498481601c840160208801613a29565b601160f91b601c9290910191820152607d60f81b601d820152601e01949350505050565b607b60f81b81526e113a3930b4ba2fba3cb832911d101160891b600182015282516000906149dd816010850160208801613a29565b61088b60f21b60109184019182015267113b30b63ab2911d60c11b60128201528351614a1081601a840160208801613a29565b607d60f81b601a9290910191820152601b01949350505050565b607b60f81b81527f22646973706c61795f74797065223a20226e756d626572222c0000000000000060018201526e113a3930b4ba2fba3cb832911d101160891b601a8201528251600090614a85816029850160208801613a29565b61088b60f21b60299184019182015267113b30b63ab2911d60c11b602b8201528351614ab8816033840160208801613a29565b607d60f81b60339290910191820152603401949350505050565b80820281158282048414176109ee576109ee6140ac565b600082614af857614af86140db565b500490565b60008251614b0f818460208701613a29565b919091019291505056fec1f6fe24621ce81ec5827caf0253cadb74709b061630e6b55e82371705932000645e039705490088daad89bae25049a34f4a9072d398537b1ab2425f24cbed0080bb2b638cc20bc4d0a60d66940f3ab4a00c1d7b313497ca82fb0b4ab0079300360894a13ba1a3210667c828492db98dca3e2076cc3735a920a3ca505d382bbc4142434445464748494a4b4c4d4e4f505152535455565758595a6162636465666768696a6b6c6d6e6f707172737475767778797a303132333435363738392b2f9a1bd8d81ac0ba42ed118addea0a540ed617421043f1e9ed44197db296fd3d49645e039705490088daad89bae25049a34f4a9072d398537b1ab2425f24cbed0202dd7bc7dec4dceedda775e58dd541e08a116c6c53815c0bd028192f7b626800a26469706673582212207cd54b04999212644e040bba4696022d16b4b47c5993b031977c47f6322a5bfe64736f6c634300081c0033",
  "linkReferences": {},
  "deployedLinkReferences": {}
}