{
  "_format": "hh-sol-artifact-1",
  "contractName": "TheBugs",
  "sourceName": "contracts/TheBugs.sol",
  "abi": [
    {
      "inputs": [],
      "stateMutability": "nonpayable",
      "type": "constructor"
    },
    {
      "inputs": [],
      "name": "AccessControlBadConfirmation",
      "type": "error"
    },
    {
      "inputs": [
        {
          "internalType": "address",
          "name": "account",
          "type": "address"
        },
        {
          "internalType": "bytes32",
          "name": "neededRole",
          "type": "bytes32"
        }
      ],
      "name": "AccessControlUnauthorizedAccount",
      "type": "error"
    },
    {
      "inputs": [
        {
          "internalType": "address",
          "name": "target",
          "type": "address"
        }
      ],
      "name": "AddressEmptyCode",
      "type": "error"
    },
    {
      "inputs": [
        {
          "internalType": "address",
          "name": "implementation",
          "type": "address"
        }
      ],
      "name": "ERC1967InvalidImplementation",
      "type": "error"
    },
    {
      "inputs": [],
      "name": "ERC1967NonPayable",
      "type": "error"
    },
    {
      "inputs": [],
      "name": "ERC721EnumerableForbiddenBatchMint",
      "type": "error"
    },
    {
      "inputs": [
        {
          "internalType": "address",
          "name": "sender",
          "type": "address"
        },
        {
          "internalType": "uint256",
          "name": "tokenId",
          "type": "uint256"
        },
        {
          "internalType": "address",
          "name": "owner",
          "type": "address"
        }
      ],
      "name": "ERC721IncorrectOwner",
      "type": "error"
    },
    {
      "inputs": [
        {
          "internalType": "address",
          "name": "operator",
          "type": "address"
        },
        {
          "internalType": "uint256",
          "name": "tokenId",
          "type": "uint256"
        }
      ],
      "name": "ERC721InsufficientApproval",
      "type": "error"
    },
    {
      "inputs": [
        {
          "internalType": "address",
          "name": "approver",
          "type": "address"
        }
      ],
      "name": "ERC721InvalidApprover",
      "type": "error"
    },
    {
      "inputs": [
        {
          "internalType": "address",
          "name": "operator",
          "type": "address"
        }
      ],
      "name": "ERC721InvalidOperator",
      "type": "error"
    },
    {
      "inputs": [
        {
          "internalType": "address",
          "name": "owner",
          "type": "address"
        }
      ],
      "name": "ERC721InvalidOwner",
      "type": "error"
    },
    {
      "inputs": [
        {
          "internalType": "address",
          "name": "receiver",
          "type": "address"
        }
      ],
      "name": "ERC721InvalidReceiver",
      "type": "error"
    },
    {
      "inputs": [
        {
          "internalType": "address",
          "name": "sender",
          "type": "address"
        }
      ],
      "name": "ERC721InvalidSender",
      "type": "error"
    },
    {
      "inputs": [
        {
          "internalType": "uint256",
          "name": "tokenId",
          "type": "uint256"
        }
      ],
      "name": "ERC721NonexistentToken",
      "type": "error"
    },
    {
      "inputs": [
        {
          "internalType": "address",
          "name": "owner",
          "type": "address"
        },
        {
          "internalType": "uint256",
          "name": "index",
          "type": "uint256"
        }
      ],
      "name": "ERC721OutOfBoundsIndex",
      "type": "error"
    },
    {
      "inputs": [],
      "name": "FailedCall",
      "type": "error"
    },
    {
      "inputs": [],
      "name": "InvalidInitialization",
      "type": "error"
    },
    {
      "inputs": [],
      "name": "NotInitializing",
      "type": "error"
    },
    {
      "inputs": [],
      "name": "UUPSUnauthorizedCallContext",
      "type": "error"
    },
    {
      "inputs": [
        {
          "internalType": "bytes32",
          "name": "slot",
          "type": "bytes32"
        }
      ],
      "name": "UUPSUnsupportedProxiableUUID",
      "type": "error"
    },
    {
      "anonymous": false,
      "inputs": [
        {
          "indexed": true,
          "internalType": "address",
          "name": "owner",
          "type": "address"
        },
        {
          "indexed": true,
          "internalType": "address",
          "name": "approved",
          "type": "address"
        },
        {
          "indexed": true,
          "internalType": "uint256",
          "name": "tokenId",
          "type": "uint256"
        }
      ],
      "name": "Approval",
      "type": "event"
    },
    {
      "anonymous": false,
      "inputs": [
        {
          "indexed": true,
          "internalType": "address",
          "name": "owner",
          "type": "address"
        },
        {
          "indexed": true,
          "internalType": "address",
          "name": "operator",
          "type": "address"
        },
        {
          "indexed": false,
          "internalType": "bool",
          "name": "approved",
          "type": "bool"
        }
      ],
      "name": "ApprovalForAll",
      "type": "event"
    },
    {
      "anonymous": false,
      "inputs": [
        {
          "indexed": false,
          "internalType": "uint64",
          "name": "version",
          "type": "uint64"
        }
      ],
      "name": "Initialized",
      "type": "event"
    },
    {
      "anonymous": false,
      "inputs": [
        {
          "indexed": true,
          "internalType": "bytes32",
          "name": "role",
          "type": "bytes32"
        },
        {
          "indexed": true,
          "internalType": "bytes32",
          "name": "previousAdminRole",
          "type": "bytes32"
        },
        {
          "indexed": true,
          "internalType": "bytes32",
          "name": "newAdminRole",
          "type": "bytes32"
        }
      ],
      "name": "RoleAdminChanged",
      "type": "event"
    },
    {
      "anonymous": false,
      "inputs": [
        {
          "indexed": true,
          "internalType": "bytes32",
          "name": "role",
          "type": "bytes32"
        },
        {
          "indexed": true,
          "internalType": "address",
          "name": "account",
          "type": "address"
        },
        {
          "indexed": true,
          "internalType": "address",
          "name": "sender",
          "type": "address"
        }
      ],
      "name": "RoleGranted",
      "type": "event"
    },
    {
      "anonymous": false,
      "inputs": [
        {
          "indexed": true,
          "internalType": "bytes32",
          "name": "role",
          "type": "bytes32"
        },
        {
          "indexed": true,
          "internalType": "address",
          "name": "account",
          "type": "address"
        },
        {
          "indexed": true,
          "internalType": "address",
          "name": "sender",
          "type": "address"
        }
      ],
      "name": "RoleRevoked",
      "type": "event"
    },
    {
      "anonymous": false,
      "inputs": [
        {
          "indexed": true,
          "internalType": "address",
          "name": "from",
          "type": "address"
        },
        {
          "indexed": true,
          "internalType": "address",
          "name": "to",
          "type": "address"
        },
        {
          "indexed": true,
          "internalType": "uint256",
          "name": "tokenId",
          "type": "uint256"
        }
      ],
      "name": "Transfer",
      "type": "event"
    },
    {
      "anonymous": false,
      "inputs": [
        {
          "indexed": true,
          "internalType": "address",
          "name": "implementation",
          "type": "address"
        }
      ],
      "name": "Upgraded",
      "type": "event"
    },
    {
      "inputs": [],
      "name": "COMPETITION_ROLE",
      "outputs": [
        {
          "internalType": "bytes32",
          "name": "",
          "type": "bytes32"
        }
      ],
      "stateMutability": "view",
      "type": "function"
    },
    {
      "inputs": [],
      "name": "DATA_SETTER_ROLE",
      "outputs": [
        {
          "internalType": "bytes32",
          "name": "",
          "type": "bytes32"
        }
      ],
      "stateMutability": "view",
      "type": "function"
    },
    {
      "inputs": [],
      "name": "DEFAULT_ADMIN_ROLE",
      "outputs": [
        {
          "internalType": "bytes32",
          "name": "",
          "type": "bytes32"
        }
      ],
      "stateMutability": "view",
      "type": "function"
    },
    {
      "inputs": [],
      "name": "MINTER_ROLE",
      "outputs": [
        {
          "internalType": "bytes32",
          "name": "",
          "type": "bytes32"
        }
      ],
      "stateMutability": "view",
      "type": "function"
    },
    {
      "inputs": [],
      "name": "SPECIES_COUNT",
      "outputs": [
        {
          "internalType": "uint256",
          "name": "",
          "type": "uint256"
        }
      ],
      "stateMutability": "view",
      "type": "function"
    },
    {
      "inputs": [],
      "name": "UPGRADER_ROLE",
      "outputs": [
        {
          "internalType": "bytes32",
          "name": "",
          "type": "bytes32"
        }
      ],
      "stateMutability": "view",
      "type": "function"
    },
    {
      "inputs": [],
      "name": "UPGRADE_INTERFACE_VERSION",
      "outputs": [
        {
          "internalType": "string",
          "name": "",
          "type": "string"
        }
      ],
      "stateMutability": "view",
      "type": "function"
    },
    {
      "inputs": [
        {
          "internalType": "address",
          "name": "to",
          "type": "address"
        },
        {
          "internalType": "uint256",
          "name": "tokenId",
          "type": "uint256"
        }
      ],
      "name": "approve",
      "outputs": [],
      "stateMutability": "nonpayable",
      "type": "function"
    },
    {
      "inputs": [
        {
          "internalType": "address",
          "name": "owner",
          "type": "address"
        }
      ],
      "name": "balanceOf",
      "outputs": [
        {
          "internalType": "uint256",
          "name": "",
          "type": "uint256"
        }
      ],
      "stateMutability": "view",
      "type": "function"
    },
    {
      "inputs": [
        {
          "internalType": "uint256",
          "name": "",
          "type": "uint256"
        }
      ],
      "name": "bugDatas",
      "outputs": [
        {
          "internalType": "string",
          "name": "name",
          "type": "string"
        },
        {
          "components": [
            {
              "internalType": "uint8",
              "name": "intelligence",
              "type": "uint8"
            },
            {
              "internalType": "uint8",
              "name": "nimbleness",
              "type": "uint8"
            },
            {
              "internalType": "uint8",
              "name": "strength",
              "type": "uint8"
            },
            {
              "internalType": "uint8",
              "name": "endurance",
              "type": "uint8"
            },
            {
              "internalType": "uint8",
              "name": "charisma",
              "type": "uint8"
            },
            {
              "internalType": "uint8",
              "name": "talent",
              "type": "uint8"
            }
          ],
          "internalType": "struct TheBugs.Attributes",
          "name": "attributes",
          "type": "tuple"
        }
      ],
      "stateMutability": "view",
      "type": "function"
    },
    {
      "inputs": [
        {
          "internalType": "uint256",
          "name": "tokenId",
          "type": "uint256"
        }
      ],
      "name": "calculateAttributes",
      "outputs": [
        {
          "components": [
            {
              "internalType": "uint8",
              "name": "intelligence",
              "type": "uint8"
            },
            {
              "internalType": "uint8",
              "name": "nimbleness",
              "type": "uint8"
            },
            {
              "internalType": "uint8",
              "name": "strength",
              "type": "uint8"
            },
            {
              "internalType": "uint8",
              "name": "endurance",
              "type": "uint8"
            },
            {
              "internalType": "uint8",
              "name": "charisma",
              "type": "uint8"
            },
            {
              "internalType": "uint8",
              "name": "talent",
              "type": "uint8"
            }
          ],
          "internalType": "struct TheBugs.Attributes",
          "name": "",
          "type": "tuple"
        }
      ],
      "stateMutability": "view",
      "type": "function"
    },
    {
      "inputs": [
        {
          "internalType": "uint256",
          "name": "tokenId",
          "type": "uint256"
        }
      ],
      "name": "calculateRarity",
      "outputs": [
        {
          "internalType": "enum TheBugs.Rarity",
          "name": "",
          "type": "uint8"
        }
      ],
      "stateMutability": "pure",
      "type": "function"
    },
    {
      "inputs": [
        {
          "internalType": "uint256",
          "name": "",
          "type": "uint256"
        }
      ],
      "name": "draws",
      "outputs": [
        {
          "internalType": "uint256",
          "name": "",
          "type": "uint256"
        }
      ],
      "stateMutability": "view",
      "type": "function"
    },
    {
      "inputs": [
        {
          "internalType": "uint256",
          "name": "tokenId",
          "type": "uint256"
        }
      ],
      "name": "getApproved",
      "outputs": [
        {
          "internalType": "address",
          "name": "",
          "type": "address"
        }
      ],
      "stateMutability": "view",
      "type": "function"
    },
    {
      "inputs": [
        {
          "internalType": "bytes32",
          "name": "role",
          "type": "bytes32"
        }
      ],
      "name": "getRoleAdmin",
      "outputs": [
        {
          "internalType": "bytes32",
          "name": "",
          "type": "bytes32"
        }
      ],
      "stateMutability": "view",
      "type": "function"
    },
    {
      "inputs": [
        {
          "internalType": "bytes32",
          "name": "role",
          "type": "bytes32"
        },
        {
          "internalType": "uint256",
          "name": "index",
          "type": "uint256"
        }
      ],
      "name": "getRoleMember",
      "outputs": [
        {
          "internalType": "address",
          "name": "",
          "type": "address"
        }
      ],
      "stateMutability": "view",
      "type": "function"
    },
    {
      "inputs": [
        {
          "internalType": "bytes32",
          "name": "role",
          "type": "bytes32"
        }
      ],
      "name": "getRoleMemberCount",
      "outputs": [
        {
          "internalType": "uint256",
          "name": "",
          "type": "uint256"
        }
      ],
      "stateMutability": "view",
      "type": "function"
    },
    {
      "inputs": [
        {
          "internalType": "bytes32",
          "name": "role",
          "type": "bytes32"
        }
      ],
      "name": "getRoleMembers",
      "outputs": [
        {
          "internalType": "address[]",
          "name": "",
          "type": "address[]"
        }
      ],
      "stateMutability": "view",
      "type": "function"
    },
    {
      "inputs": [
        {
          "internalType": "uint256",
          "name": "tokenId",
          "type": "uint256"
        }
      ],
      "name": "getSpeciesData",
      "outputs": [
        {
          "components": [
            {
              "internalType": "string",
              "name": "name",
              "type": "string"
            },
            {
              "internalType": "string",
              "name": "description",
              "type": "string"
            },
            {
              "internalType": "string",
              "name": "image",
              "type": "string"
            },
            {
              "components": [
                {
                  "internalType": "uint8",
                  "name": "intelligence",
                  "type": "uint8"
                },
                {
                  "internalType": "uint8",
                  "name": "nimbleness",
                  "type": "uint8"
                },
                {
                  "internalType": "uint8",
                  "name": "strength",
                  "type": "uint8"
                },
                {
                  "internalType": "uint8",
                  "name": "endurance",
                  "type": "uint8"
                },
                {
                  "internalType": "uint8",
                  "name": "charisma",
                  "type": "uint8"
                },
                {
                  "internalType": "uint8",
                  "name": "talent",
                  "type": "uint8"
                }
              ],
              "internalType": "struct TheBugs.Attributes",
              "name": "baseAttributes",
              "type": "tuple"
            }
          ],
          "internalType": "struct TheBugs.SpeciesData",
          "name": "",
          "type": "tuple"
        }
      ],
      "stateMutability": "view",
      "type": "function"
    },
    {
      "inputs": [
        {
          "internalType": "bytes32",
          "name": "role",
          "type": "bytes32"
        },
        {
          "internalType": "address",
          "name": "account",
          "type": "address"
        }
      ],
      "name": "grantRole",
      "outputs": [],
      "stateMutability": "nonpayable",
      "type": "function"
    },
    {
      "inputs": [
        {
          "internalType": "bytes32",
          "name": "role",
          "type": "bytes32"
        },
        {
          "internalType": "address",
          "name": "account",
          "type": "address"
        }
      ],
      "name": "hasRole",
      "outputs": [
        {
          "internalType": "bool",
          "name": "",
          "type": "bool"
        }
      ],
      "stateMutability": "view",
      "type": "function"
    },
    {
      "inputs": [
        {
          "internalType": "uint256",
          "name": "tokenId",
          "type": "uint256"
        }
      ],
      "name": "incrementDraws",
      "outputs": [],
      "stateMutability": "nonpayable",
      "type": "function"
    },
    {
      "inputs": [
        {
          "internalType": "uint256",
          "name": "tokenId",
          "type": "uint256"
        }
      ],
      "name": "incrementLosses",
      "outputs": [],
      "stateMutability": "nonpayable",
      "type": "function"
    },
    {
      "inputs": [
        {
          "internalType": "uint256",
          "name": "tokenId",
          "type": "uint256"
        }
      ],
      "name": "incrementWins",
      "outputs": [],
      "stateMutability": "nonpayable",
      "type": "function"
    },
    {
      "inputs": [],
      "name": "initialize",
      "outputs": [],
      "stateMutability": "nonpayable",
      "type": "function"
    },
    {
      "inputs": [
        {
          "internalType": "address",
          "name": "owner",
          "type": "address"
        },
        {
          "internalType": "address",
          "name": "operator",
          "type": "address"
        }
      ],
      "name": "isApprovedForAll",
      "outputs": [
        {
          "internalType": "bool",
          "name": "",
          "type": "bool"
        }
      ],
      "stateMutability": "view",
      "type": "function"
    },
    {
      "inputs": [
        {
          "internalType": "uint256",
          "name": "",
          "type": "uint256"
        }
      ],
      "name": "losses",
      "outputs": [
        {
          "internalType": "uint256",
          "name": "",
          "type": "uint256"
        }
      ],
      "stateMutability": "view",
      "type": "function"
    },
    {
      "inputs": [
        {
          "internalType": "address",
          "name": "to",
          "type": "address"
        },
        {
          "internalType": "uint256",
          "name": "tokenId",
          "type": "uint256"
        },
        {
          "internalType": "string",
          "name": "name",
          "type": "string"
        }
      ],
      "name": "mint",
      "outputs": [],
      "stateMutability": "nonpayable",
      "type": "function"
    },
    {
      "inputs": [],
      "name": "name",
      "outputs": [
        {
          "internalType": "string",
          "name": "",
          "type": "string"
        }
      ],
      "stateMutability": "view",
      "type": "function"
    },
    {
      "inputs": [
        {
          "internalType": "uint256",
          "name": "tokenId",
          "type": "uint256"
        }
      ],
      "name": "ownerOf",
      "outputs": [
        {
          "internalType": "address",
          "name": "",
          "type": "address"
        }
      ],
      "stateMutability": "view",
      "type": "function"
    },
    {
      "inputs": [],
      "name": "proxiableUUID",
      "outputs": [
        {
          "internalType": "bytes32",
          "name": "",
          "type": "bytes32"
        }
      ],
      "stateMutability": "view",
      "type": "function"
    },
    {
      "inputs": [
        {
          "internalType": "enum TheBugs.Rarity",
          "name": "rarity",
          "type": "uint8"
        }
      ],
      "name": "rarityToString",
      "outputs": [
        {
          "internalType": "string",
          "name": "",
          "type": "string"
        }
      ],
      "stateMutability": "pure",
      "type": "function"
    },
    {
      "inputs": [
        {
          "internalType": "bytes32",
          "name": "role",
          "type": "bytes32"
        },
        {
          "internalType": "address",
          "name": "callerConfirmation",
          "type": "address"
        }
      ],
      "name": "renounceRole",
      "outputs": [],
      "stateMutability": "nonpayable",
      "type": "function"
    },
    {
      "inputs": [
        {
          "internalType": "bytes32",
          "name": "role",
          "type": "bytes32"
        },
        {
          "internalType": "address",
          "name": "account",
          "type": "address"
        }
      ],
      "name": "revokeRole",
      "outputs": [],
      "stateMutability": "nonpayable",
      "type": "function"
    },
    {
      "inputs": [
        {
          "internalType": "address",
          "name": "from",
          "type": "address"
        },
        {
          "internalType": "address",
          "name": "to",
          "type": "address"
        },
        {
          "internalType": "uint256",
          "name": "tokenId",
          "type": "uint256"
        }
      ],
      "name": "safeTransferFrom",
      "outputs": [],
      "stateMutability": "nonpayable",
      "type": "function"
    },
    {
      "inputs": [
        {
          "internalType": "address",
          "name": "from",
          "type": "address"
        },
        {
          "internalType": "address",
          "name": "to",
          "type": "address"
        },
        {
          "internalType": "uint256",
          "name": "tokenId",
          "type": "uint256"
        },
        {
          "internalType": "bytes",
          "name": "data",
          "type": "bytes"
        }
      ],
      "name": "safeTransferFrom",
      "outputs": [],
      "stateMutability": "nonpayable",
      "type": "function"
    },
    {
      "inputs": [
        {
          "internalType": "address",
          "name": "operator",
          "type": "address"
        },
        {
          "internalType": "bool",
          "name": "approved",
          "type": "bool"
        }
      ],
      "name": "setApprovalForAll",
      "outputs": [],
      "stateMutability": "nonpayable",
      "type": "function"
    },
    {
      "inputs": [
        {
          "internalType": "uint256",
          "name": "speciesID",
          "type": "uint256"
        },
        {
          "components": [
            {
              "internalType": "string",
              "name": "name",
              "type": "string"
            },
            {
              "internalType": "string",
              "name": "description",
              "type": "string"
            },
            {
              "internalType": "string",
              "name": "image",
              "type": "string"
            },
            {
              "components": [
                {
                  "internalType": "uint8",
                  "name": "intelligence",
                  "type": "uint8"
                },
                {
                  "internalType": "uint8",
                  "name": "nimbleness",
                  "type": "uint8"
                },
                {
                  "internalType": "uint8",
                  "name": "strength",
                  "type": "uint8"
                },
                {
                  "internalType": "uint8",
                  "name": "endurance",
                  "type": "uint8"
                },
                {
                  "internalType": "uint8",
                  "name": "charisma",
                  "type": "uint8"
                },
                {
                  "internalType": "uint8",
                  "name": "talent",
                  "type": "uint8"
                }
              ],
              "internalType": "struct TheBugs.Attributes",
              "name": "baseAttributes",
              "type": "tuple"
            }
          ],
          "internalType": "struct TheBugs.SpeciesData",
          "name": "speciesData",
          "type": "tuple"
        }
      ],
      "name": "setSpeciesData",
      "outputs": [],
      "stateMutability": "nonpayable",
      "type": "function"
    },
    {
      "inputs": [
        {
          "internalType": "uint256",
          "name": "",
          "type": "uint256"
        }
      ],
      "name": "speciesDatas",
      "outputs": [
        {
          "internalType": "string",
          "name": "name",
          "type": "string"
        },
        {
          "internalType": "string",
          "name": "description",
          "type": "string"
        },
        {
          "internalType": "string",
          "name": "image",
          "type": "string"
        },
        {
          "components": [
            {
              "internalType": "uint8",
              "name": "intelligence",
              "type": "uint8"
            },
            {
              "internalType": "uint8",
              "name": "nimbleness",
              "type": "uint8"
            },
            {
              "internalType": "uint8",
              "name": "strength",
              "type": "uint8"
            },
            {
              "internalType": "uint8",
              "name": "endurance",
              "type": "uint8"
            },
            {
              "internalType": "uint8",
              "name": "charisma",
              "type": "uint8"
            },
            {
              "internalType": "uint8",
              "name": "talent",
              "type": "uint8"
            }
          ],
          "internalType": "struct TheBugs.Attributes",
          "name": "baseAttributes",
          "type": "tuple"
        }
      ],
      "stateMutability": "view",
      "type": "function"
    },
    {
      "inputs": [
        {
          "internalType": "bytes4",
          "name": "interfaceId",
          "type": "bytes4"
        }
      ],
      "name": "supportsInterface",
      "outputs": [
        {
          "internalType": "bool",
          "name": "",
          "type": "bool"
        }
      ],
      "stateMutability": "view",
      "type": "function"
    },
    {
      "inputs": [],
      "name": "symbol",
      "outputs": [
        {
          "internalType": "string",
          "name": "",
          "type": "string"
        }
      ],
      "stateMutability": "view",
      "type": "function"
    },
    {
      "inputs": [
        {
          "internalType": "uint256",
          "name": "index",
          "type": "uint256"
        }
      ],
      "name": "tokenByIndex",
      "outputs": [
        {
          "internalType": "uint256",
          "name": "",
          "type": "uint256"
        }
      ],
      "stateMutability": "view",
      "type": "function"
    },
    {
      "inputs": [
        {
          "internalType": "address",
          "name": "owner",
          "type": "address"
        },
        {
          "internalType": "uint256",
          "name": "index",
          "type": "uint256"
        }
      ],
      "name": "tokenOfOwnerByIndex",
      "outputs": [
        {
          "internalType": "uint256",
          "name": "",
          "type": "uint256"
        }
      ],
      "stateMutability": "view",
      "type": "function"
    },
    {
      "inputs": [
        {
          "internalType": "uint256",
          "name": "tokenId",
          "type": "uint256"
        }
      ],
      "name": "tokenURI",
      "outputs": [
        {
          "internalType": "string",
          "name": "",
          "type": "string"
        }
      ],
      "stateMutability": "view",
      "type": "function"
    },
    {
      "inputs": [],
      "name": "totalSupply",
      "outputs": [
        {
          "internalType": "uint256",
          "name": "",
          "type": "uint256"
        }
      ],
      "stateMutability": "view",
      "type": "function"
    },
    {
      "inputs": [
        {
          "internalType": "address",
          "name": "from",
          "type": "address"
        },
        {
          "internalType": "address",
          "name": "to",
          "type": "address"
        },
        {
          "internalType": "uint256",
          "name": "tokenId",
          "type": "uint256"
        }
      ],
      "name": "transferFrom",
      "outputs": [],
      "stateMutability": "nonpayable",
      "type": "function"
    },
    {
      "inputs": [
        {
          "internalType": "address",
          "name": "newImplementation",
          "type": "address"
        },
        {
          "internalType": "bytes",
          "name": "data",
          "type": "bytes"
        }
      ],
      "name": "upgradeToAndCall",
      "outputs": [],
      "stateMutability": "payable",
      "type": "function"
    },
    {
      "inputs": [
        {
          "internalType": "uint256",
          "name": "",
          "type": "uint256"
        }
      ],
      "name": "wins",
      "outputs": [
        {
          "internalType": "uint256",
          "name": "",
          "type": "uint256"
        }
      ],
      "stateMutability": "view",
      "type": "function"
    }
  ],
  "bytecode": "0x60a06040523060805234801561001457600080fd5b507ff0c57e16840df040f15088dc2f81fe391c3923bec73e23a9662efc9c229c6a00805468010000000000000000810460ff1615906001600160401b031660008115801561005f5750825b90506000826001600160401b0316600114801561007b5750303b155b905081158015610089575080155b156100a75760405163f92ee8a960e01b815260040160405180910390fd5b84546001600160401b031916600117855583156100d557845460ff60401b1916680100000000000000001785555b831561011b57845460ff60401b19168555604051600181527fc7f505b2f371ae2175ee4913f4499e1f2633a7b5936321eed1cdaeb6115181d29060200160405180910390a15b5050505050608051614a4761014960003960008181612178015281816121a101526123060152614a476000f3fe6080604052600436106102925760003560e01c80637b0e4ab41161015a578063ad3cb1cc116100c1578063d53913931161007a578063d539139314610853578063d547741f14610887578063d956087d146108a7578063dfb638bf146108db578063e985e9c514610908578063f72c0d8b1461092857600080fd5b8063ad3cb1cc14610782578063b88d4fde146107b3578063bbeff99a146107d3578063c87b56dd146107f3578063ca15c87314610813578063d3fc98641461083357600080fd5b806399bb52151161011357806399bb521514610696578063a0141387146106c3578063a2168d07146106f0578063a217fddf14610720578063a22cb46514610735578063a3246ad31461075557600080fd5b80637b0e4ab4146105df57806380bfe883146105ff5780638129fc1c1461062c5780639010d07c1461064157806391d148541461066157806395d89b411461068157600080fd5b80632f745c59116101fe57806352d1902d116101b757806352d1902d1461052757806357edac821461053c57806359797d8a146105515780636352211e1461057f57806370a082311461059f57806375e58d16146105bf57600080fd5b80632f745c591461047457806336568abe14610494578063406091e3146104b457806342842e0e146104d45780634f1ef286146104f45780634f6ccce71461050757600080fd5b80630d89aeec116102505780630d89aeec146103a55780630e25272d146103c557806318160ddd146103f257806323b872dd14610414578063248a9ca3146104345780632f2ff15d1461045457600080fd5b8062508da71461029757806301ffc9a7146102cc57806306fdde03146102fc578063081812fc1461031e578063095ea7b3146103565780630cc36c3614610378575b600080fd5b3480156102a357600080fd5b506102b96000805160206149b283398151915281565b6040519081526020015b60405180910390f35b3480156102d857600080fd5b506102ec6102e736600461385d565b61095c565b60405190151581526020016102c3565b34801561030857600080fd5b5061031161096d565b6040516102c391906138ca565b34801561032a57600080fd5b5061033e6103393660046138dd565b610a11565b6040516001600160a01b0390911681526020016102c3565b34801561036257600080fd5b50610376610371366004613912565b610a26565b005b34801561038457600080fd5b506102b96103933660046138dd565b60046020526000908152604090205481565b3480156103b157600080fd5b506103766103c03660046138dd565b610a35565b3480156103d157600080fd5b506103e56103e03660046138dd565b610a70565b6040516102c39190613952565b3480156103fe57600080fd5b506000805160206149d2833981519152546102b9565b34801561042057600080fd5b5061037661042f36600461397a565b610b12565b34801561044057600080fd5b506102b961044f3660046138dd565b610ba2565b34801561046057600080fd5b5061037661046f3660046139b7565b610bc4565b34801561048057600080fd5b506102b961048f366004613912565b610be0565b3480156104a057600080fd5b506103766104af3660046139b7565b610c54565b3480156104c057600080fd5b506103766104cf3660046138dd565b610c8c565b3480156104e057600080fd5b506103766104ef36600461397a565b610cbe565b610376610502366004613a86565b610cd9565b34801561051357600080fd5b506102b96105223660046138dd565b610cf4565b34801561053357600080fd5b506102b9610d6c565b34801561054857600080fd5b506102b9600381565b34801561055d57600080fd5b5061057161056c3660046138dd565b610d89565b6040516102c3929190613b1f565b34801561058b57600080fd5b5061033e61059a3660046138dd565b610e85565b3480156105ab57600080fd5b506102b96105ba366004613b41565b610e90565b3480156105cb57600080fd5b506103766105da366004613b5c565b610eec565b3480156105eb57600080fd5b506103766105fa3660046138dd565b61107f565b34801561060b57600080fd5b506102b961061a3660046138dd565b60026020526000908152604090205481565b34801561063857600080fd5b506103766110b1565b34801561064d57600080fd5b5061033e61065c366004613baa565b611252565b34801561066d57600080fd5b506102ec61067c3660046139b7565b611281565b34801561068d57600080fd5b506103116112b9565b3480156106a257600080fd5b506102b96106b13660046138dd565b60036020526000908152604090205481565b3480156106cf57600080fd5b506106e36106de3660046138dd565b6112f8565b6040516102c39190613bcc565b3480156106fc57600080fd5b5061071061070b3660046138dd565b61166e565b6040516102c39493929190613bda565b34801561072c57600080fd5b506102b9600081565b34801561074157600080fd5b50610376610750366004613c25565b611886565b34801561076157600080fd5b506107756107703660046138dd565b611891565b6040516102c39190613c56565b34801561078e57600080fd5b50610311604051806040016040528060058152602001640352e302e360dc1b81525081565b3480156107bf57600080fd5b506103766107ce366004613ca2565b6118c3565b3480156107df57600080fd5b506103116107ee366004613d09565b6118db565b3480156107ff57600080fd5b5061031161080e3660046138dd565b611a4d565b34801561081f57600080fd5b506102b961082e3660046138dd565b611bf3565b34801561083f57600080fd5b5061037661084e366004613d2a565b611c19565b34801561085f57600080fd5b506102b97f9f2df0fed2c77648de5860a4cc508cd0818c85b8b8a1ab4ceeef8d981c8956a681565b34801561089357600080fd5b506103766108a23660046139b7565b611c8d565b3480156108b357600080fd5b506102b97f4ddd85e313b1db5c4144000907a5124c34f10d6a5ef9c2cddb8e5f4467c74b5381565b3480156108e757600080fd5b506108fb6108f63660046138dd565b611ca9565b6040516102c39190613db2565b34801561091457600080fd5b506102ec610923366004613e20565b611ef5565b34801561093457600080fd5b506102b97f189ab7a9244df0848122154315af71fe140f3db0fe014031783b0946b8c9d2e381565b600061096782611f42565b92915050565b600080516020614932833981519152805460609190819061098d90613e4a565b80601f01602080910402602001604051908101604052809291908181526020018280546109b990613e4a565b8015610a065780601f106109db57610100808354040283529160200191610a06565b820191906000526020600020905b8154815290600101906020018083116109e957829003601f168201915b505050505091505090565b6000610a1c82611f67565b5061096782611f9f565b610a31828233611fd9565b5050565b6000805160206149b2833981519152610a4d81611fe6565b6000828152600360205260408120805491610a6783613e9a565b91905055505050565b60008061271083604051602001610a989181526552415249545960d01b602082015260260190565b6040516020818303038152906040528051906020012060001c610abb9190613ec9565b9050611770811015610ad05750600092915050565b612134811015610ae35750600192915050565b61251c811015610af65750600292915050565b61267a811015610b095750600392915050565b50600492915050565b6001600160a01b038216610b4157604051633250574960e11b8152600060048201526024015b60405180910390fd5b6000610b4e838333611ff3565b9050836001600160a01b0316816001600160a01b031614610b9c576040516364283d7b60e01b81526001600160a01b0380861660048301526024820184905282166044820152606401610b38565b50505050565b60009081526000805160206149f2833981519152602052604090206001015490565b610bcd82610ba2565b610bd681611fe6565b610b9c83836120ec565b6000600080516020614912833981519152610bfa84610e90565b8310610c2b5760405163295f44f760e21b81526001600160a01b038516600482015260248101849052604401610b38565b6001600160a01b0384166000908152602091825260408082208583529092522054905092915050565b6001600160a01b0381163314610c7d5760405163334bd91960e11b815260040160405180910390fd5b610c878282612131565b505050565b6000805160206149b2833981519152610ca481611fe6565b6000828152600260205260408120805491610a6783613e9a565b610c87838383604051806020016040528060008152506118c3565b610ce161216d565b610cea82612214565b610a31828261223e565b6000600080516020614912833981519152610d1b6000805160206149d28339815191525490565b8310610d445760405163295f44f760e21b81526000600482015260248101849052604401610b38565b806002018381548110610d5957610d59613edd565b9060005260206000200154915050919050565b6000610d766122fb565b5060008051602061495283398151915290565b600160205260009081526040902080548190610da490613e4a565b80601f0160208091040260200160405190810160405280929190818152602001828054610dd090613e4a565b8015610e1d5780601f10610df257610100808354040283529160200191610e1d565b820191906000526020600020905b815481529060010190602001808311610e0057829003601f168201915b50506040805160c08101825260019096015460ff80821688526101008204811660208901526201000082048116928801929092526301000000810482166060880152640100000000810482166080880152600160281b90041660a08601525091929150839050565b600061096782611f67565b60006000805160206149328339815191526001600160a01b038316610ecb576040516322718ad960e21b815260006004820152602401610b38565b6001600160a01b039092166000908152600390920160205250604090205490565b7f4ddd85e313b1db5c4144000907a5124c34f10d6a5ef9c2cddb8e5f4467c74b53610f1681611fe6565b60038310610f665760405162461bcd60e51b815260206004820152601b60248201527f546865427567733a20696e76616c6964207370657369657320494400000000006044820152606401610b38565b60608201610f7c61012084016101008501613f02565b610f8c60a0830160808401613f02565b610f9c6080840160608501613f02565b610fac6060850160408601613f02565b610fbc6040860160208701613f02565b610fc96020870187613f02565b610fd39190613f1f565b610fdd9190613f1f565b610fe79190613f1f565b610ff19190613f1f565b610ffb9190613f1f565b60ff1660191461105d5760405162461bcd60e51b815260206004820152602760248201527f54686520427567733a20696e76616c69642062617365206174747269627574656044820152661cc81d1bdd185b60ca1b6064820152608401610b38565b60008481526020819052604090208390611077828261418f565b505050505050565b6000805160206149b283398151915261109781611fe6565b6000828152600460205260408120805491610a6783613e9a565b7ff0c57e16840df040f15088dc2f81fe391c3923bec73e23a9662efc9c229c6a008054600160401b810460ff1615906001600160401b03166000811580156110f65750825b90506000826001600160401b031660011480156111125750303b155b905081158015611120575080155b1561113e5760405163f92ee8a960e01b815260040160405180910390fd5b845467ffffffffffffffff19166001178555831561116857845460ff60401b1916600160401b1785555b611170612344565b611178612344565b6111be60405180604001604052806008815260200167546865204275677360c01b815250604051806040016040528060048152602001634255475360e01b81525061234c565b6111c6612344565b6111ce612344565b6111d96000336120ec565b506112047f4ddd85e313b1db5c4144000907a5124c34f10d6a5ef9c2cddb8e5f4467c74b53336120ec565b50831561124b57845460ff60401b19168555604051600181527fc7f505b2f371ae2175ee4913f4499e1f2633a7b5936321eed1cdaeb6115181d29060200160405180910390a15b5050505050565b60008281526000805160206148f2833981519152602081905260408220611279908461235e565b949350505050565b60009182526000805160206149f2833981519152602090815260408084206001600160a01b0393909316845291905290205460ff1690565b7f80bb2b638cc20bc4d0a60d66940f3ab4a00c1d7b313497ca82fb0b4ab007930180546060916000805160206149328339815191529161098d90613e4a565b6040805160c081018252600080825260208201819052918101829052606081018290526080810182905260a081018290529061133383610a70565b905060008082600481111561134a5761134a61393c565b03611357575060056113d7565b600182600481111561136b5761136b61393c565b03611378575060086113d7565b600282600481111561138c5761138c61393c565b036113995750600b6113d7565b60038260048111156113ad576113ad61393c565b036113ba5750600e6113d7565b60048260048111156113ce576113ce61393c565b036113d7575060115b6000846040516020016113ff918152694154545249425554455360b01b6020820152602a0190565b60408051601f198184030181528282528051602091820120600680855260e0850190935293506000929190820160c08036833701905050905060005b838110156114ae576000611450600685613ec9565b905082818151811061146457611464613edd565b6020026020010180518091906114799061429a565b60ff1690525060408051602081018690520160408051601f19818403018152919052805160209091012093505060010161143b565b5060008060006114bd8961236a565b815260208082019290925260409081016000908120825160c0808201855260039092015460ff808216835261010082048116968301969096526201000081048616828601526301000000810486166060830152640100000000810486166080830152600160281b900490941660a08501528251908101909252845192935090918291859161154d5761154d613edd565b602002602001015183600001516115649190613f1f565b60ff1681526020018360018151811061157f5761157f613edd565b602002602001015183602001516115969190613f1f565b60ff168152602001836002815181106115b1576115b1613edd565b602002602001015183604001516115c89190613f1f565b60ff168152602001836003815181106115e3576115e3613edd565b602002602001015183606001516115fa9190613f1f565b60ff1681526020018360048151811061161557611615613edd565b6020026020010151836080015161162c9190613f1f565b60ff1681526020018360058151811061164757611647613edd565b60200260200101518360a0015161165e9190613f1f565b60ff169052979650505050505050565b60006020819052908152604090208054819061168990613e4a565b80601f01602080910402602001604051908101604052809291908181526020018280546116b590613e4a565b80156117025780601f106116d757610100808354040283529160200191611702565b820191906000526020600020905b8154815290600101906020018083116116e557829003601f168201915b50505050509080600101805461171790613e4a565b80601f016020809104026020016040519081016040528092919081815260200182805461174390613e4a565b80156117905780601f1061176557610100808354040283529160200191611790565b820191906000526020600020905b81548152906001019060200180831161177357829003601f168201915b5050505050908060020180546117a590613e4a565b80601f01602080910402602001604051908101604052809291908181526020018280546117d190613e4a565b801561181e5780601f106117f35761010080835404028352916020019161181e565b820191906000526020600020905b81548152906001019060200180831161180157829003601f168201915b50506040805160c08101825260039096015460ff80821688526101008204811660208901526201000082048116928801929092526301000000810482166060880152640100000000810482166080880152600160281b90041660a08601525091929150859050565b610a313383836123b4565b60008181526000805160206148f283398151915260208190526040909120606091906118bc90612465565b9392505050565b6118ce848484610b12565b610b9c3385858585612472565b606060008260048111156118f1576118f161393c565b0361191857505060408051808201909152600681526521b7b6b6b7b760d11b602082015290565b600182600481111561192c5761192c61393c565b036119555750506040805180820190915260088152672ab731b7b6b6b7b760c11b602082015290565b60028260048111156119695761196961393c565b0361198e5750506040805180820190915260048152635261726560e01b602082015290565b60038260048111156119a2576119a261393c565b036119c75750506040805180820190915260048152634570696360e01b602082015290565b60048260048111156119db576119db61393c565b03611a055750506040805180820190915260098152684c6567656e6461727960b81b602082015290565b60405162461bcd60e51b815260206004820152601760248201527f546865427567733a20696e76616c6964207261726974790000000000000000006044820152606401610b38565b60606000611a5a83611ca9565b60008481526001602052604081209192506060908190611a7c6107ee88610a70565b9050836000018054611a8d90613e4a565b9050600003611ac6578451604051611aa99183916020016142d5565b604051602081830303815290604052925084602001519150611b80565b83548490611ad390613e4a565b80601f0160208091040260200160405190810160405280929190818152602001828054611aff90613e4a565b8015611b4c5780601f10611b2157610100808354040283529160200191611b4c565b820191906000526020600020905b815481529060010190602001808311611b2f57829003601f168201915b5050505050925084600001518560200151604051602001611b6e929190614311565b60405160208183030381529060405291505b6000838660000151848860400151611b9989878e612594565b604051602001611bad95949392919061434e565b6040516020818303038152906040529050611bc7816127cd565b604051602001611bd7919061444b565b6040516020818303038152906040529650505050505050919050565b60008181526000805160206148f28339815191526020819052604082206118bc906127f3565b7f9f2df0fed2c77648de5860a4cc508cd0818c85b8b8a1ab4ceeef8d981c8956a6611c4381611fe6565b611c838484848080601f0160208091040260200160405190810160405280939291908181526020018383808284376000920191909152506127fd92505050565b61124b85856128e7565b611c9682610ba2565b611c9f81611fe6565b610b9c8383612131565b611cb16137ea565b600080611cbd8461236a565b8152602001908152602001600020604051806080016040529081600082018054611ce690613e4a565b80601f0160208091040260200160405190810160405280929190818152602001828054611d1290613e4a565b8015611d5f5780601f10611d3457610100808354040283529160200191611d5f565b820191906000526020600020905b815481529060010190602001808311611d4257829003601f168201915b50505050508152602001600182018054611d7890613e4a565b80601f0160208091040260200160405190810160405280929190818152602001828054611da490613e4a565b8015611df15780601f10611dc657610100808354040283529160200191611df1565b820191906000526020600020905b815481529060010190602001808311611dd457829003601f168201915b50505050508152602001600282018054611e0a90613e4a565b80601f0160208091040260200160405190810160405280929190818152602001828054611e3690613e4a565b8015611e835780601f10611e5857610100808354040283529160200191611e83565b820191906000526020600020905b815481529060010190602001808311611e6657829003601f168201915b50505091835250506040805160c0810182526003939093015460ff8082168552610100820481166020868101919091526201000083048216938601939093526301000000820481166060860152640100000000820481166080860152600160281b9091041660a0840152015292915050565b6001600160a01b0391821660009081527f80bb2b638cc20bc4d0a60d66940f3ab4a00c1d7b313497ca82fb0b4ab00793056020908152604080832093909416825291909152205460ff1690565b60006001600160e01b0319821663780e9d6360e01b1480610967575061096782612901565b600080611f7383612941565b90506001600160a01b03811661096757604051637e27328960e01b815260048101849052602401610b38565b60009081527f80bb2b638cc20bc4d0a60d66940f3ab4a00c1d7b313497ca82fb0b4ab007930460205260409020546001600160a01b031690565b610c87838383600161297b565b611ff08133612a91565b50565b600080612001858585612aca565b90506001600160a01b03811661208a57612085846000805160206149d2833981519152805460008381527f645e039705490088daad89bae25049a34f4a9072d398537b1ab2425f24cbed0360205260408120829055600182018355919091527fa42f15e5d656f8155fd7419d740a6073999f19cd6e061449ce4a257150545bf20155565b6120ad565b846001600160a01b0316816001600160a01b0316146120ad576120ad8185612bd4565b6001600160a01b0385166120c9576120c484612c70565b611279565b846001600160a01b0316816001600160a01b031614611279576112798585612d47565b60006000805160206148f2833981519152816121088585612da2565b905080156112795760008581526020839052604090206121289085612e47565b50949350505050565b60006000805160206148f28339815191528161214d8585612e5c565b905080156112795760008581526020839052604090206121289085612ed8565b306001600160a01b037f00000000000000000000000000000000000000000000000000000000000000001614806121f457507f00000000000000000000000000000000000000000000000000000000000000006001600160a01b03166121e8600080516020614952833981519152546001600160a01b031690565b6001600160a01b031614155b156122125760405163703e46dd60e11b815260040160405180910390fd5b565b7f189ab7a9244df0848122154315af71fe140f3db0fe014031783b0946b8c9d2e3610a3181611fe6565b816001600160a01b03166352d1902d6040518163ffffffff1660e01b8152600401602060405180830381865afa925050508015612298575060408051601f3d908101601f1916820190925261229591810190614490565b60015b6122c057604051634c9c8ce360e01b81526001600160a01b0383166004820152602401610b38565b60008051602061495283398151915281146122f157604051632a87526960e21b815260048101829052602401610b38565b610c878383612eed565b306001600160a01b037f000000000000000000000000000000000000000000000000000000000000000016146122125760405163703e46dd60e11b815260040160405180910390fd5b612212612f43565b612354612f43565b610a318282612f8c565b60006118bc8383612fbd565b6000600382604051602001612391918152665350454349455360c81b602082015260270190565b6040516020818303038152906040528051906020012060001c6109679190613ec9565b6000805160206149328339815191526001600160a01b0383166123f557604051630b61174360e31b81526001600160a01b0384166004820152602401610b38565b6001600160a01b038481166000818152600584016020908152604080832094881680845294825291829020805460ff191687151590811790915591519182527f17307eab39ab6107e8899845ad3d59bd9653f200f220920489ca2b5937696c31910160405180910390a350505050565b606060006118bc83612fe7565b6001600160a01b0383163b1561124b57604051630a85bd0160e11b81526001600160a01b0384169063150b7a02906124b49088908890879087906004016144a9565b6020604051808303816000875af19250505080156124ef575060408051601f3d908101601f191682019092526124ec918101906144e6565b60015b612558573d80801561251d576040519150601f19603f3d011682016040523d82523d6000602084013e612522565b606091505b50805160000361255057604051633250574960e11b81526001600160a01b0385166004820152602401610b38565b805181602001fd5b6001600160e01b03198116630a85bd0160e11b1461107757604051633250574960e11b81526001600160a01b0385166004820152602401610b38565b60606125be6040518060400160405280600681526020016552617269747960d01b81525084613043565b60408051808201909152600c81526b496e74656c6c6967656e636560a01b602082015260018601546125f3919060ff1661306f565b60408051808201909152600a8152694e696d626c656e65737360b01b6020820152600187015461262b9190610100900460ff1661306f565b6040805180820190915260088152670a6e8e4cadccee8d60c31b60208201526001880154612662919062010000900460ff1661306f565b604080518082019091526009815268456e647572616e636560b81b6020820152600189015461269b91906301000000900460ff1661306f565b6040805180820190915260088152674368617269736d6160c01b602082015260018a01546126d49190640100000000900460ff1661306f565b60408051808201909152600681526515185b195b9d60d21b602082015260018b015461270a9190600160281b900460ff1661306f565b60408051808201825260048082526352756e7360e01b60208084019190915260008d815291815283822054600382528483205460029092529390912054612764939161275591614503565b61275f9190614503565b61308c565b61279d6040518060400160405280600481526020016357696e7360e01b815250600260008d81526020019081526020016000205461308c565b6040516020016127b599989796959493929190614516565b60405160208183030381529060405290509392505050565b6060610967826040518060600160405280604081526020016149726040913960016130a9565b6000610967825490565b6000612808836112f8565b6040805180820182528481526020808201849052600087815260019091529190912081519293509091819061283d9082614611565b50602091820151805160019290920180549382015160408301516060840151608085015160a09095015160ff96871661ffff1990981697909717610100938716939093029290921763ffff00001916620100009186169190910263ff0000001916176301000000918516919091021765ffff0000000019166401000000009284169290920265ff0000000000191691909117600160281b9290931691909102919091179055505050565b610a31828260405180602001604052806000815250613228565b60006001600160e01b031982166380ac58cd60e01b148061293257506001600160e01b03198216635b5e139f60e01b145b80610967575061096782613240565b60009081527f80bb2b638cc20bc4d0a60d66940f3ab4a00c1d7b313497ca82fb0b4ab007930260205260409020546001600160a01b031690565b600080516020614932833981519152818061299e57506001600160a01b03831615155b15612a605760006129ae85611f67565b90506001600160a01b038416158015906129da5750836001600160a01b0316816001600160a01b031614155b80156129ed57506129eb8185611ef5565b155b15612a165760405163a9fbf51f60e01b81526001600160a01b0385166004820152602401610b38565b8215612a5e5784866001600160a01b0316826001600160a01b03167f8c5be1e5ebec7d5bd14f71427d1e84f3dd0314c0f7b2291e5b200ac8c7c3b92560405160405180910390a45b505b600093845260040160205250506040902080546001600160a01b0319166001600160a01b0392909216919091179055565b612a9b8282611281565b610a315760405163e2517d3f60e01b81526001600160a01b038216600482015260248101839052604401610b38565b600060008051602061493283398151915281612ae585612941565b90506001600160a01b03841615612b0157612b01818587613265565b6001600160a01b03811615612b4157612b1e60008660008061297b565b6001600160a01b0381166000908152600383016020526040902080546000190190555b6001600160a01b03861615612b72576001600160a01b03861660009081526003830160205260409020805460010190555b600085815260028301602052604080822080546001600160a01b0319166001600160a01b038a811691821790925591518893918516917fddf252ad1be2c89b69c2b068fc378daa952ba7f163c4a11628f55a4df523b3ef91a495945050505050565b6000805160206149128339815191526000612bee84610e90565b60008481526001840160209081526040808320546001600160a01b03891684529186905290912091925090818314612c48576000838152602082815260408083205485845281842081905583526001870190915290208290555b6000948552600190930160209081526040808620869055928552929092528220919091555050565b6000805160206149d28339815191525460008051602061491283398151915290600090612c9f906001906146c9565b6000848152600384016020526040812054600285018054939450909284908110612ccb57612ccb613edd565b9060005260206000200154905080846002018381548110612cee57612cee613edd565b600091825260208083209091019290925582815260038601909152604080822084905586825281205560028401805480612d2a57612d2a6146dc565b600190038181906000526020600020016000905590555050505050565b60008051602061491283398151915260006001612d6385610e90565b612d6d91906146c9565b6001600160a01b0390941660009081526020838152604080832087845282528083208690559482526001909301909252502055565b60006000805160206149f2833981519152612dbd8484611281565b612e3d576000848152602082815260408083206001600160a01b03871684529091529020805460ff19166001179055612df33390565b6001600160a01b0316836001600160a01b0316857f2f8788117e7eff1d82e926ec794901d17c78024a50270940304540a733656f0d60405160405180910390a46001915050610967565b6000915050610967565b60006118bc836001600160a01b0384166132c9565b60006000805160206149f2833981519152612e778484611281565b15612e3d576000848152602082815260408083206001600160a01b0387168085529252808320805460ff1916905551339287917ff6391f5c32d9c69d2a47ea670b442974b53935d1edc7fd64eb21e047a839171b9190a46001915050610967565b60006118bc836001600160a01b038416613318565b612ef682613401565b6040516001600160a01b038316907fbc7cd75a20ee27fd9adebab32041f755214dbc6bffa90cc0225b39da2e5c2d3b90600090a2805115612f3b57610c878282613466565b610a316134dc565b7ff0c57e16840df040f15088dc2f81fe391c3923bec73e23a9662efc9c229c6a0054600160401b900460ff1661221257604051631afcd79f60e31b815260040160405180910390fd5b612f94612f43565b60008051602061493283398151915280612fae8482614611565b5060018101610b9c8382614611565b6000826000018281548110612fd457612fd4613edd565b9060005260206000200154905092915050565b60608160000180548060200260200160405190810160405280929190818152602001828054801561303757602002820191906000526020600020905b815481526020019060010190808311613023575b50505050509050919050565b606082826040516020016130589291906146f2565b604051602081830303815290604052905092915050565b60608261307b836134fb565b604051602001613058929190614780565b606082613098836134fb565b604051602001613058929190614802565b606083516000036130c957506040805160208101909152600081526118bc565b6000826130fa576003855160046130e091906148aa565b6130eb906002614503565b6130f591906148c1565b61311f565b60038551600261310a9190614503565b61311491906148c1565b61311f9060046148aa565b90506000816001600160401b0381111561313b5761313b6139e3565b6040519080825280601f01601f191660200182016040528015613165576020820181803683370190505b50905060018501602082018788518901602081018051600082525b828410156131db576003840193508351603f8160121c168701518653600186019550603f81600c1c168701518653600186019550603f8160061c168701518653600186019550603f8116870151865350600185019450613180565b90525050851561321c576003885106600181146131ff57600281146132125761321a565b603d6001830353603d600283035361321a565b603d60018303535b505b50909695505050505050565b613232838361358e565b610c87336000858585612472565b60006001600160e01b03198216635a05180f60e01b14806109675750610967826135f3565b613270838383613628565b610c87576001600160a01b03831661329e57604051637e27328960e01b815260048101829052602401610b38565b60405163177e802f60e01b81526001600160a01b038316600482015260248101829052604401610b38565b600081815260018301602052604081205461331057508154600181810184556000848152602080822090930184905584548482528286019093526040902091909155610967565b506000610967565b60008181526001830160205260408120548015612e3d57600061333c6001836146c9565b8554909150600090613350906001906146c9565b90508082146133b557600086600001828154811061337057613370613edd565b906000526020600020015490508087600001848154811061339357613393613edd565b6000918252602080832090910192909255918252600188019052604090208390555b85548690806133c6576133c66146dc565b600190038181906000526020600020016000905590558560010160008681526020019081526020016000206000905560019350505050610967565b806001600160a01b03163b60000361343757604051634c9c8ce360e01b81526001600160a01b0382166004820152602401610b38565b60008051602061495283398151915280546001600160a01b0319166001600160a01b0392909216919091179055565b6060600080846001600160a01b03168460405161348391906148d5565b600060405180830381855af49150503d80600081146134be576040519150601f19603f3d011682016040523d82523d6000602084013e6134c3565b606091505b50915091506134d385838361368d565b95945050505050565b34156122125760405163b398979f60e01b815260040160405180910390fd5b60606000613508836136e9565b60010190506000816001600160401b03811115613527576135276139e3565b6040519080825280601f01601f191660200182016040528015613551576020820181803683370190505b5090508181016020015b600019016f181899199a1a9b1b9c1cb0b131b232b360811b600a86061a8153600a850494508461355b575b509392505050565b6001600160a01b0382166135b857604051633250574960e11b815260006004820152602401610b38565b60006135c683836000611ff3565b90506001600160a01b03811615610c87576040516339e3563760e11b815260006004820152602401610b38565b60006001600160e01b03198216637965db0b60e01b148061096757506301ffc9a760e01b6001600160e01b0319831614610967565b60006001600160a01b038316158015906112795750826001600160a01b0316846001600160a01b0316148061366257506136628484611ef5565b806112795750826001600160a01b031661367b83611f9f565b6001600160a01b031614949350505050565b6060826136a25761369d826137c1565b6118bc565b81511580156136b957506001600160a01b0384163b155b156136e257604051639996b31560e01b81526001600160a01b0385166004820152602401610b38565b50806118bc565b60008072184f03e93ff9f4daa797ed6e38ed64bf6a1f0160401b83106137285772184f03e93ff9f4daa797ed6e38ed64bf6a1f0160401b830492506040015b6d04ee2d6d415b85acef81000000008310613754576d04ee2d6d415b85acef8100000000830492506020015b662386f26fc10000831061377257662386f26fc10000830492506010015b6305f5e100831061378a576305f5e100830492506008015b612710831061379e57612710830492506004015b606483106137b0576064830492506002015b600a83106109675760010192915050565b8051156137d15780518082602001fd5b60405163d6bda27560e01b815260040160405180910390fd5b60405180608001604052806060815260200160608152602001606081526020016138426040805160c081018252600080825260208201819052918101829052606081018290526080810182905260a081019190915290565b905290565b6001600160e01b031981168114611ff057600080fd5b60006020828403121561386f57600080fd5b81356118bc81613847565b60005b8381101561389557818101518382015260200161387d565b50506000910152565b600081518084526138b681602086016020860161387a565b601f01601f19169290920160200192915050565b6020815260006118bc602083018461389e565b6000602082840312156138ef57600080fd5b5035919050565b80356001600160a01b038116811461390d57600080fd5b919050565b6000806040838503121561392557600080fd5b61392e836138f6565b946020939093013593505050565b634e487b7160e01b600052602160045260246000fd5b602081016005831061397457634e487b7160e01b600052602160045260246000fd5b91905290565b60008060006060848603121561398f57600080fd5b613998846138f6565b92506139a6602085016138f6565b929592945050506040919091013590565b600080604083850312156139ca57600080fd5b823591506139da602084016138f6565b90509250929050565b634e487b7160e01b600052604160045260246000fd5b600082601f830112613a0a57600080fd5b81356001600160401b03811115613a2357613a236139e3565b604051601f8201601f19908116603f011681016001600160401b0381118282101715613a5157613a516139e3565b604052818152838201602001851015613a6957600080fd5b816020850160208301376000918101602001919091529392505050565b60008060408385031215613a9957600080fd5b613aa2836138f6565b915060208301356001600160401b03811115613abd57600080fd5b613ac9858286016139f9565b9150509250929050565b60ff815116825260ff602082015116602083015260ff604082015116604083015260ff606082015116606083015260ff608082015116608083015260ff60a08201511660a08301525050565b60e081526000613b3260e083018561389e565b90506118bc6020830184613ad3565b600060208284031215613b5357600080fd5b6118bc826138f6565b60008060408385031215613b6f57600080fd5b8235915060208301356001600160401b03811115613b8c57600080fd5b83016101208186031215613b9f57600080fd5b809150509250929050565b60008060408385031215613bbd57600080fd5b50508035926020909101359150565b60c081016109678284613ad3565b61012081526000613bef61012083018761389e565b8281036020840152613c01818761389e565b90508281036040840152613c15818661389e565b9150506134d36060830184613ad3565b60008060408385031215613c3857600080fd5b613c41836138f6565b915060208301358015158114613b9f57600080fd5b602080825282518282018190526000918401906040840190835b81811015613c975783516001600160a01b0316835260209384019390920191600101613c70565b509095945050505050565b60008060008060808587031215613cb857600080fd5b613cc1856138f6565b9350613ccf602086016138f6565b92506040850135915060608501356001600160401b03811115613cf157600080fd5b613cfd878288016139f9565b91505092959194509250565b600060208284031215613d1b57600080fd5b8135600581106118bc57600080fd5b60008060008060608587031215613d4057600080fd5b613d49856138f6565b93506020850135925060408501356001600160401b03811115613d6b57600080fd5b8501601f81018713613d7c57600080fd5b80356001600160401b03811115613d9257600080fd5b876020828401011115613da457600080fd5b949793965060200194505050565b60208152600082516101206020840152613dd061014084018261389e565b90506020840151601f19848303016040850152613ded828261389e565b9150506040840151601f19848303016060850152613e0b828261389e565b91505060608401516135866080850182613ad3565b60008060408385031215613e3357600080fd5b613e3c836138f6565b91506139da602084016138f6565b600181811c90821680613e5e57607f821691505b602082108103613e7e57634e487b7160e01b600052602260045260246000fd5b50919050565b634e487b7160e01b600052601160045260246000fd5b600060018201613eac57613eac613e84565b5060010190565b634e487b7160e01b600052601260045260246000fd5b600082613ed857613ed8613eb3565b500690565b634e487b7160e01b600052603260045260246000fd5b60ff81168114611ff057600080fd5b600060208284031215613f1457600080fd5b81356118bc81613ef3565b60ff818116838216019081111561096757610967613e84565b6000808335601e19843603018112613f4f57600080fd5b8301803591506001600160401b03821115613f6957600080fd5b602001915036819003821315613f7e57600080fd5b9250929050565b601f821115610c8757806000526020600020601f840160051c81016020851015613fac5750805b601f840160051c820191505b8181101561124b5760008155600101613fb8565b600019600383901b1c191660019190911b1790565b6001600160401b03831115613ff857613ff86139e3565b61400c836140068354613e4a565b83613f85565b6000601f84116001811461403a57600085156140285750838201355b6140328682613fcc565b84555061124b565b600083815260209020601f19861690835b8281101561406b578685013582556020948501946001909201910161404b565b50868210156140885760001960f88860031b161c19848701351681555b505060018560011b0183555050505050565b6000813561096781613ef3565b81356140b281613ef3565b60ff8116905081548160ff19821617835560208401356140d181613ef3565b61ff008160081b168361ffff19841617178455505050600060408301356140f781613ef3565b825462ff0000191660109190911b62ff0000161782555061413761411d6060840161409a565b825463ff000000191660189190911b63ff00000016178255565b6141626141466080840161409a565b825464ff00000000191660209190911b64ff0000000016178255565b610a3161417160a0840161409a565b825465ff0000000000191660289190911b65ff000000000016178255565b6141998283613f38565b6001600160401b038111156141b0576141b06139e3565b6141c4816141be8554613e4a565b85613f85565b6000601f8211600181146141f257600083156141e05750838201355b6141ea8482613fcc565b86555061424c565b600085815260209020601f19841690835b828110156142235786850135825560209485019460019092019101614203565b50848210156142405760001960f88660031b161c19848701351681555b505060018360011b0185555b5050505061425d6020830183613f38565b61426b818360018601613fe1565b505061427a6040830183613f38565b614288818360028601613fe1565b5050610a3160608301600383016140a7565b600060ff821660ff81036142b0576142b0613e84565b60010192915050565b600081516142cb81856020860161387a565b9290920192915050565b600083516142e781846020880161387a565b600160fd1b908301908152835161430581600184016020880161387a565b01600101949350505050565b6000835161432381846020880161387a565b6101d160f51b908301908152835161434281600284016020880161387a565b01600201949350505050565b607b60f81b815268113730b6b2911d101160b91b6001820152855160009061437d81600a850160208b0161387a565b61088b60f21b600a918401918201526b1139b832b1b4b2b9911d101160a11b600c8201526143ae60188201886142b9565b61088b60f21b815290506f113232b9b1b934b83a34b7b7111d101160811b60028201526143de60128201876142b9565b61088b60f21b81529050691134b6b0b3b2911d101160b11b6002820152614408600c8201866142b9565b61088b60f21b815290506c1130ba3a3934b13aba32b9911d60991b6002820152614435600f8201856142b9565b607d60f81b815260010198975050505050505050565b7f646174613a6170706c69636174696f6e2f6a736f6e3b6261736536342c00000081526000825161448381601d85016020870161387a565b91909101601d0192915050565b6000602082840312156144a257600080fd5b5051919050565b6001600160a01b03858116825284166020820152604081018390526080606082018190526000906144dc9083018461389e565b9695505050505050565b6000602082840312156144f857600080fd5b81516118bc81613847565b8082018082111561096757610967613e84565b605b60f81b815260008a51614532816001850160208f0161387a565b600b60fa1b6001918401918201528a51614553816002840160208f0161387a565b600181830101915050600b60fa1b6001820152614573600282018b6142b9565b600b60fa1b81529050614589600182018a6142b9565b600b60fa1b8152905061459f60018201896142b9565b600b60fa1b815290506145b560018201886142b9565b600b60fa1b815290506145cb60018201876142b9565b600b60fa1b815290506145e160018201866142b9565b600b60fa1b815290506145f760018201856142b9565b605d60f81b81526001019c9b505050505050505050505050565b81516001600160401b0381111561462a5761462a6139e3565b61463e816146388454613e4a565b84613f85565b6020601f82116001811461466c576000831561465a5750848201515b6146648482613fcc565b85555061124b565b600084815260208120601f198516915b8281101561469c578785015182556020948501946001909201910161467c565b50848210156146ba5786840151600019600387901b60f8161c191681555b50505050600190811b01905550565b8181038181111561096757610967613e84565b634e487b7160e01b600052603160045260246000fd5b607b60f81b81526e113a3930b4ba2fba3cb832911d101160891b6001820152825160009061472781601085016020880161387a565b61088b60f21b60109184019182015269113b30b63ab2911d101160b11b6012820152835161475c81601c84016020880161387a565b601160f91b601c9290910191820152607d60f81b601d820152601e01949350505050565b607b60f81b81526e113a3930b4ba2fba3cb832911d101160891b600182015282516000906147b581601085016020880161387a565b61088b60f21b60109184019182015267113b30b63ab2911d60c11b601282015283516147e881601a84016020880161387a565b607d60f81b601a9290910191820152601b01949350505050565b607b60f81b81527f22646973706c61795f74797065223a20226e756d626572222c0000000000000060018201526e113a3930b4ba2fba3cb832911d101160891b601a820152825160009061485d81602985016020880161387a565b61088b60f21b60299184019182015267113b30b63ab2911d60c11b602b820152835161489081603384016020880161387a565b607d60f81b60339290910191820152603401949350505050565b808202811582820484141761096757610967613e84565b6000826148d0576148d0613eb3565b500490565b600082516148e781846020870161387a565b919091019291505056fec1f6fe24621ce81ec5827caf0253cadb74709b061630e6b55e82371705932000645e039705490088daad89bae25049a34f4a9072d398537b1ab2425f24cbed0080bb2b638cc20bc4d0a60d66940f3ab4a00c1d7b313497ca82fb0b4ab0079300360894a13ba1a3210667c828492db98dca3e2076cc3735a920a3ca505d382bbc4142434445464748494a4b4c4d4e4f505152535455565758595a6162636465666768696a6b6c6d6e6f707172737475767778797a303132333435363738392b2f9a1bd8d81ac0ba42ed118addea0a540ed617421043f1e9ed44197db296fd3d49645e039705490088daad89bae25049a34f4a9072d398537b1ab2425f24cbed0202dd7bc7dec4dceedda775e58dd541e08a116c6c53815c0bd028192f7b626800a2646970667358221220d228ad9cb9a5d2cab1de2d651a25c2af92d8ed5a634d60d9461cfb6e39867dda64736f6c634300081c0033",
  "linkReferences": {},
  "deployedLinkReferences": {}
}