{
  "_format": "hh-sol-artifact-1",
  "contractName": "BugMinter",
  "sourceName": "contracts/BugMinter.sol",
  "abi": [
    {
      "inputs": [],
      "stateMutability": "nonpayable",
      "type": "constructor"
    },
    {
      "inputs": [],
      "name": "AccessControlBadConfirmation",
      "type": "error"
    },
    {
      "inputs": [
        {
          "internalType": "address",
          "name": "account",
          "type": "address"
        },
        {
          "internalType": "bytes32",
          "name": "neededRole",
          "type": "bytes32"
        }
      ],
      "name": "AccessControlUnauthorizedAccount",
      "type": "error"
    },
    {
      "inputs": [
        {
          "internalType": "address",
          "name": "target",
          "type": "address"
        }
      ],
      "name": "AddressEmptyCode",
      "type": "error"
    },
    {
      "inputs": [
        {
          "internalType": "address",
          "name": "implementation",
          "type": "address"
        }
      ],
      "name": "ERC1967InvalidImplementation",
      "type": "error"
    },
    {
      "inputs": [],
      "name": "ERC1967NonPayable",
      "type": "error"
    },
    {
      "inputs": [],
      "name": "FailedCall",
      "type": "error"
    },
    {
      "inputs": [],
      "name": "InvalidInitialization",
      "type": "error"
    },
    {
      "inputs": [],
      "name": "NotInitializing",
      "type": "error"
    },
    {
      "inputs": [],
      "name": "UUPSUnauthorizedCallContext",
      "type": "error"
    },
    {
      "inputs": [
        {
          "internalType": "bytes32",
          "name": "slot",
          "type": "bytes32"
        }
      ],
      "name": "UUPSUnsupportedProxiableUUID",
      "type": "error"
    },
    {
      "anonymous": false,
      "inputs": [
        {
          "indexed": true,
          "internalType": "address",
          "name": "catcher",
          "type": "address"
        },
        {
          "indexed": false,
          "internalType": "uint256",
          "name": "tokenId",
          "type": "uint256"
        }
      ],
      "name": "CatchCompleted",
      "type": "event"
    },
    {
      "anonymous": false,
      "inputs": [
        {
          "indexed": true,
          "internalType": "address",
          "name": "catcher",
          "type": "address"
        },
        {
          "indexed": false,
          "internalType": "uint256",
          "name": "randomSeedBlock",
          "type": "uint256"
        },
        {
          "indexed": false,
          "internalType": "bool",
          "name": "premium",
          "type": "bool"
        }
      ],
      "name": "CatchInitiated",
      "type": "event"
    },
    {
      "anonymous": false,
      "inputs": [
        {
          "indexed": false,
          "internalType": "uint64",
          "name": "version",
          "type": "uint64"
        }
      ],
      "name": "Initialized",
      "type": "event"
    },
    {
      "anonymous": false,
      "inputs": [
        {
          "indexed": true,
          "internalType": "bytes32",
          "name": "role",
          "type": "bytes32"
        },
        {
          "indexed": true,
          "internalType": "bytes32",
          "name": "previousAdminRole",
          "type": "bytes32"
        },
        {
          "indexed": true,
          "internalType": "bytes32",
          "name": "newAdminRole",
          "type": "bytes32"
        }
      ],
      "name": "RoleAdminChanged",
      "type": "event"
    },
    {
      "anonymous": false,
      "inputs": [
        {
          "indexed": true,
          "internalType": "bytes32",
          "name": "role",
          "type": "bytes32"
        },
        {
          "indexed": true,
          "internalType": "address",
          "name": "account",
          "type": "address"
        },
        {
          "indexed": true,
          "internalType": "address",
          "name": "sender",
          "type": "address"
        }
      ],
      "name": "RoleGranted",
      "type": "event"
    },
    {
      "anonymous": false,
      "inputs": [
        {
          "indexed": true,
          "internalType": "bytes32",
          "name": "role",
          "type": "bytes32"
        },
        {
          "indexed": true,
          "internalType": "address",
          "name": "account",
          "type": "address"
        },
        {
          "indexed": true,
          "internalType": "address",
          "name": "sender",
          "type": "address"
        }
      ],
      "name": "RoleRevoked",
      "type": "event"
    },
    {
      "anonymous": false,
      "inputs": [
        {
          "indexed": true,
          "internalType": "address",
          "name": "implementation",
          "type": "address"
        }
      ],
      "name": "Upgraded",
      "type": "event"
    },
    {
      "inputs": [],
      "name": "CATCH_TIMEOUT",
      "outputs": [
        {
          "internalType": "uint256",
          "name": "",
          "type": "uint256"
        }
      ],
      "stateMutability": "view",
      "type": "function"
    },
    {
      "inputs": [],
      "name": "DEFAULT_ADMIN_ROLE",
      "outputs": [
        {
          "internalType": "bytes32",
          "name": "",
          "type": "bytes32"
        }
      ],
      "stateMutability": "view",
      "type": "function"
    },
    {
      "inputs": [],
      "name": "PREMIUM_CATCH_PRICE",
      "outputs": [
        {
          "internalType": "uint256",
          "name": "",
          "type": "uint256"
        }
      ],
      "stateMutability": "view",
      "type": "function"
    },
    {
      "inputs": [],
      "name": "UPGRADER_ROLE",
      "outputs": [
        {
          "internalType": "bytes32",
          "name": "",
          "type": "bytes32"
        }
      ],
      "stateMutability": "view",
      "type": "function"
    },
    {
      "inputs": [],
      "name": "UPGRADE_INTERFACE_VERSION",
      "outputs": [
        {
          "internalType": "string",
          "name": "",
          "type": "string"
        }
      ],
      "stateMutability": "view",
      "type": "function"
    },
    {
      "inputs": [
        {
          "internalType": "address",
          "name": "",
          "type": "address"
        }
      ],
      "name": "catchesInProgress",
      "outputs": [
        {
          "internalType": "uint128",
          "name": "randomSeedBlock",
          "type": "uint128"
        },
        {
          "internalType": "bool",
          "name": "premium",
          "type": "bool"
        }
      ],
      "stateMutability": "view",
      "type": "function"
    },
    {
      "inputs": [
        {
          "internalType": "string",
          "name": "name",
          "type": "string"
        }
      ],
      "name": "completeCatch",
      "outputs": [],
      "stateMutability": "nonpayable",
      "type": "function"
    },
    {
      "inputs": [
        {
          "internalType": "address",
          "name": "catcher",
          "type": "address"
        }
      ],
      "name": "getCatchInProgressTokenId",
      "outputs": [
        {
          "internalType": "uint256",
          "name": "",
          "type": "uint256"
        }
      ],
      "stateMutability": "view",
      "type": "function"
    },
    {
      "inputs": [
        {
          "internalType": "bytes32",
          "name": "role",
          "type": "bytes32"
        }
      ],
      "name": "getRoleAdmin",
      "outputs": [
        {
          "internalType": "bytes32",
          "name": "",
          "type": "bytes32"
        }
      ],
      "stateMutability": "view",
      "type": "function"
    },
    {
      "inputs": [
        {
          "internalType": "bytes32",
          "name": "role",
          "type": "bytes32"
        },
        {
          "internalType": "uint256",
          "name": "index",
          "type": "uint256"
        }
      ],
      "name": "getRoleMember",
      "outputs": [
        {
          "internalType": "address",
          "name": "",
          "type": "address"
        }
      ],
      "stateMutability": "view",
      "type": "function"
    },
    {
      "inputs": [
        {
          "internalType": "bytes32",
          "name": "role",
          "type": "bytes32"
        }
      ],
      "name": "getRoleMemberCount",
      "outputs": [
        {
          "internalType": "uint256",
          "name": "",
          "type": "uint256"
        }
      ],
      "stateMutability": "view",
      "type": "function"
    },
    {
      "inputs": [
        {
          "internalType": "bytes32",
          "name": "role",
          "type": "bytes32"
        }
      ],
      "name": "getRoleMembers",
      "outputs": [
        {
          "internalType": "address[]",
          "name": "",
          "type": "address[]"
        }
      ],
      "stateMutability": "view",
      "type": "function"
    },
    {
      "inputs": [
        {
          "internalType": "bytes32",
          "name": "role",
          "type": "bytes32"
        },
        {
          "internalType": "address",
          "name": "account",
          "type": "address"
        }
      ],
      "name": "grantRole",
      "outputs": [],
      "stateMutability": "nonpayable",
      "type": "function"
    },
    {
      "inputs": [
        {
          "internalType": "bytes32",
          "name": "role",
          "type": "bytes32"
        },
        {
          "internalType": "address",
          "name": "account",
          "type": "address"
        }
      ],
      "name": "hasRole",
      "outputs": [
        {
          "internalType": "bool",
          "name": "",
          "type": "bool"
        }
      ],
      "stateMutability": "view",
      "type": "function"
    },
    {
      "inputs": [
        {
          "internalType": "address",
          "name": "theBugs_",
          "type": "address"
        },
        {
          "internalType": "address",
          "name": "paymentReceiver_",
          "type": "address"
        }
      ],
      "name": "initialize",
      "outputs": [],
      "stateMutability": "nonpayable",
      "type": "function"
    },
    {
      "inputs": [],
      "name": "initiateFreeCatch",
      "outputs": [],
      "stateMutability": "nonpayable",
      "type": "function"
    },
    {
      "inputs": [],
      "name": "initiatePremiumCatch",
      "outputs": [],
      "stateMutability": "payable",
      "type": "function"
    },
    {
      "inputs": [],
      "name": "lastCatch",
      "outputs": [
        {
          "internalType": "address",
          "name": "catcher",
          "type": "address"
        },
        {
          "internalType": "uint256",
          "name": "tokenId",
          "type": "uint256"
        }
      ],
      "stateMutability": "view",
      "type": "function"
    },
    {
      "inputs": [
        {
          "internalType": "address",
          "name": "",
          "type": "address"
        }
      ],
      "name": "lastFreeCatchTimestamps",
      "outputs": [
        {
          "internalType": "uint256",
          "name": "",
          "type": "uint256"
        }
      ],
      "stateMutability": "view",
      "type": "function"
    },
    {
      "inputs": [],
      "name": "proxiableUUID",
      "outputs": [
        {
          "internalType": "bytes32",
          "name": "",
          "type": "bytes32"
        }
      ],
      "stateMutability": "view",
      "type": "function"
    },
    {
      "inputs": [
        {
          "internalType": "bytes32",
          "name": "role",
          "type": "bytes32"
        },
        {
          "internalType": "address",
          "name": "callerConfirmation",
          "type": "address"
        }
      ],
      "name": "renounceRole",
      "outputs": [],
      "stateMutability": "nonpayable",
      "type": "function"
    },
    {
      "inputs": [
        {
          "internalType": "bytes32",
          "name": "role",
          "type": "bytes32"
        },
        {
          "internalType": "address",
          "name": "account",
          "type": "address"
        }
      ],
      "name": "revokeRole",
      "outputs": [],
      "stateMutability": "nonpayable",
      "type": "function"
    },
    {
      "inputs": [
        {
          "internalType": "bytes4",
          "name": "interfaceId",
          "type": "bytes4"
        }
      ],
      "name": "supportsInterface",
      "outputs": [
        {
          "internalType": "bool",
          "name": "",
          "type": "bool"
        }
      ],
      "stateMutability": "view",
      "type": "function"
    },
    {
      "inputs": [],
      "name": "theBugs",
      "outputs": [
        {
          "internalType": "contract TheBugs",
          "name": "",
          "type": "address"
        }
      ],
      "stateMutability": "view",
      "type": "function"
    },
    {
      "inputs": [
        {
          "internalType": "address",
          "name": "newImplementation",
          "type": "address"
        },
        {
          "internalType": "bytes",
          "name": "data",
          "type": "bytes"
        }
      ],
      "name": "upgradeToAndCall",
      "outputs": [],
      "stateMutability": "payable",
      "type": "function"
    }
  ],
  "bytecode": "0x60a06040523060805234801561001457600080fd5b507ff0c57e16840df040f15088dc2f81fe391c3923bec73e23a9662efc9c229c6a00805468010000000000000000810460ff1615906001600160401b031660008115801561005f5750825b90506000826001600160401b0316600114801561007b5750303b155b905081158015610089575080155b156100a75760405163f92ee8a960e01b815260040160405180910390fd5b84546001600160401b031916600117855583156100d557845460ff60401b1916680100000000000000001785555b831561011b57845460ff60401b19168555604051600181527fc7f505b2f371ae2175ee4913f4499e1f2633a7b5936321eed1cdaeb6115181d29060200160405180910390a15b50505050506080516117d261014960003960008181610c2101528181610c4a0152610dad01526117d26000f3fe6080604052600436106101665760003560e01c8063894e5cd4116100d1578063ad3cb1cc1161008a578063d547741f11610064578063d547741f1461045e578063d88759041461047e578063ed497b37146104c1578063f72c0d8b146104ee57600080fd5b8063ad3cb1cc146103e0578063c9c9ef1b1461041e578063ca15c8731461043e57600080fd5b8063894e5cd4146103065780639010d07c1461032657806391d148541461035e578063a217fddf1461037e578063a3246ad314610393578063ab66ce4e146103c057600080fd5b806336568abe1161012357806336568abe14610274578063485cc955146102945780634892aec8146102b45780634f1ef286146102c957806352d1902d146102dc5780636d763464146102f157600080fd5b80630104cb4e1461016b57806301ffc9a714610199578063248a9ca3146101c95780632f2ff15d146101e9578063313886cd1461020b57806335af61b014610213575b600080fd5b34801561017757600080fd5b5061018666038d7ea4c6800081565b6040519081526020015b60405180910390f35b3480156101a557600080fd5b506101b96101b436600461136e565b610522565b6040519015158152602001610190565b3480156101d557600080fd5b506101866101e4366004611398565b61054d565b3480156101f557600080fd5b506102096102043660046113cd565b61056f565b005b610209610591565b34801561021f57600080fd5b5061025561022e3660046113f9565b6000602081905290815260409020546001600160801b03811690600160801b900460ff1682565b604080516001600160801b039093168352901515602083015201610190565b34801561028057600080fd5b5061020961028f3660046113cd565b6105b3565b3480156102a057600080fd5b506102096102af366004611414565b6105eb565b3480156102c057600080fd5b50610186603c81565b6102096102d7366004611454565b610747565b3480156102e857600080fd5b50610186610766565b3480156102fd57600080fd5b50610209610783565b34801561031257600080fd5b506101866103213660046113f9565b6107b7565b34801561033257600080fd5b5061034661034136600461151e565b6108c0565b6040516001600160a01b039091168152602001610190565b34801561036a57600080fd5b506101b96103793660046113cd565b6108ef565b34801561038a57600080fd5b50610186600081565b34801561039f57600080fd5b506103b36103ae366004611398565b610927565b6040516101909190611540565b3480156103cc57600080fd5b506102096103db36600461158c565b610959565b3480156103ec57600080fd5b50610411604051806040016040528060058152602001640352e302e360dc1b81525081565b6040516101909190611624565b34801561042a57600080fd5b50600254610346906001600160a01b031681565b34801561044a57600080fd5b50610186610459366004611398565b610a2c565b34801561046a57600080fd5b506102096104793660046113cd565b610a52565b34801561048a57600080fd5b506003546004546104a2916001600160a01b03169082565b604080516001600160a01b039093168352602083019190915201610190565b3480156104cd57600080fd5b506101866104dc3660046113f9565b60016020526000908152604090205481565b3480156104fa57600080fd5b506101867f189ab7a9244df0848122154315af71fe140f3db0fe014031783b0946b8c9d2e381565b60006001600160e01b03198216635a05180f60e01b1480610547575061054782610a6e565b92915050565b600090815260008051602061177d833981519152602052604090206001015490565b6105788261054d565b61058181610aa3565b61058b8383610aad565b50505050565b333466038d7ea4c68000146105a557600080fd5b6105b0816001610af2565b50565b6001600160a01b03811633146105dc5760405163334bd91960e11b815260040160405180910390fd5b6105e68282610bd0565b505050565b7ff0c57e16840df040f15088dc2f81fe391c3923bec73e23a9662efc9c229c6a008054600160401b810460ff16159067ffffffffffffffff166000811580156106315750825b905060008267ffffffffffffffff16600114801561064e5750303b155b90508115801561065c575080155b1561067a5760405163f92ee8a960e01b815260040160405180910390fd5b845467ffffffffffffffff1916600117855583156106a457845460ff60401b1916600160401b1785555b6106ac610c0c565b6106b4610c0c565b6106bc610c0c565b600280546001600160a01b03808a166001600160a01b03199283161790925560058054928916929091169190911790556106f7600033610aad565b50831561073e57845460ff60401b19168555604051600181527fc7f505b2f371ae2175ee4913f4499e1f2633a7b5936321eed1cdaeb6115181d29060200160405180910390a15b50505050505050565b61074f610c16565b61075882610cbb565b6107628282610ce5565b5050565b6000610770610da2565b5060008051602061175d83398151915290565b3360008181526001602052604090205442906107a190603c9061166d565b11156107ac57600080fd5b6105b0816000610af2565b6001600160a01b038116600090815260208190526040812080546001600160801b03164080830361082f5760405162461bcd60e51b815260206004820152601860248201527f4275674d696e7465723a2063617463682065787069726564000000000000000060448201526064015b60405180910390fd5b8154600090600160801b900460ff1661084957600061084c565b60015b6002546040805160208082018790526bffffffffffffffffffffffff1960608b811b82168486015230811b821660548501529490941b90931660688201528151605c818303018152607c909101909152805191012060ff91909116915060011c6108b6818361166d565b9695505050505050565b600082815260008051602061173d8339815191526020819052604082206108e79084610deb565b949350505050565b600091825260008051602061177d833981519152602090815260408084206001600160a01b0393909316845291905290205460ff1690565b600081815260008051602061173d833981519152602081905260409091206060919061095290610df7565b9392505050565b336000610965826107b7565b6002546040516334ff261960e21b81529192506001600160a01b03169063d3fc98649061099c908590859089908990600401611680565b600060405180830381600087803b1580156109b657600080fd5b505af11580156109ca573d6000803e3d6000fd5b505050506001600160a01b0382166000818152602081815260409182902080546001600160881b031916905590518381527f3e0a25483a2e5b4eac43569ad6be33a6729d90349275defcb15953f7a5d27b9f910160405180910390a250505050565b600081815260008051602061173d83398151915260208190526040822061095290610e04565b610a5b8261054d565b610a6481610aa3565b61058b8383610bd0565b60006001600160e01b03198216637965db0b60e01b148061054757506301ffc9a760e01b6001600160e01b0319831614610547565b6105b08133610e0e565b600060008051602061173d83398151915281610ac98585610e47565b905080156108e7576000858152602083905260409020610ae99085610eec565b50949350505050565b6000610aff43600161166d565b6040805180820182526001600160801b03808416825285151560208084019182526001600160a01b038916600090815290819052939093209151825493511515600160801b026001600160881b0319909416911617919091179055905081610b7d576001600160a01b03831660009081526001602052604090204290555b604080516001600160801b038316815283151560208201526001600160a01b038516917fb74bb0703fd2042b20d17988dad7a83349c7d02bdb88ea668b69269cefd74e4c910160405180910390a2505050565b600060008051602061173d83398151915281610bec8585610f01565b905080156108e7576000858152602083905260409020610ae99085610f7d565b610c14610f92565b565b306001600160a01b037f0000000000000000000000000000000000000000000000000000000000000000161480610c9d57507f00000000000000000000000000000000000000000000000000000000000000006001600160a01b0316610c9160008051602061175d833981519152546001600160a01b031690565b6001600160a01b031614155b15610c145760405163703e46dd60e11b815260040160405180910390fd5b7f189ab7a9244df0848122154315af71fe140f3db0fe014031783b0946b8c9d2e361076281610aa3565b816001600160a01b03166352d1902d6040518163ffffffff1660e01b8152600401602060405180830381865afa925050508015610d3f575060408051601f3d908101601f19168201909252610d3c918101906116c8565b60015b610d6757604051634c9c8ce360e01b81526001600160a01b0383166004820152602401610826565b60008051602061175d8339815191528114610d9857604051632a87526960e21b815260048101829052602401610826565b6105e68383610fdb565b306001600160a01b037f00000000000000000000000000000000000000000000000000000000000000001614610c145760405163703e46dd60e11b815260040160405180910390fd5b60006109528383611031565b606060006109528361105b565b6000610547825490565b610e1882826108ef565b6107625760405163e2517d3f60e01b81526001600160a01b038216600482015260248101839052604401610826565b600060008051602061177d833981519152610e6284846108ef565b610ee2576000848152602082815260408083206001600160a01b03871684529091529020805460ff19166001179055610e983390565b6001600160a01b0316836001600160a01b0316857f2f8788117e7eff1d82e926ec794901d17c78024a50270940304540a733656f0d60405160405180910390a46001915050610547565b6000915050610547565b6000610952836001600160a01b0384166110b7565b600060008051602061177d833981519152610f1c84846108ef565b15610ee2576000848152602082815260408083206001600160a01b0387168085529252808320805460ff1916905551339287917ff6391f5c32d9c69d2a47ea670b442974b53935d1edc7fd64eb21e047a839171b9190a46001915050610547565b6000610952836001600160a01b038416611106565b7ff0c57e16840df040f15088dc2f81fe391c3923bec73e23a9662efc9c229c6a0054600160401b900460ff16610c1457604051631afcd79f60e31b815260040160405180910390fd5b610fe4826111ef565b6040516001600160a01b038316907fbc7cd75a20ee27fd9adebab32041f755214dbc6bffa90cc0225b39da2e5c2d3b90600090a2805115611029576105e68282611254565b6107626112ca565b6000826000018281548110611048576110486116e1565b9060005260206000200154905092915050565b6060816000018054806020026020016040519081016040528092919081815260200182805480156110ab57602002820191906000526020600020905b815481526020019060010190808311611097575b50505050509050919050565b60008181526001830160205260408120546110fe57508154600181810184556000848152602080822090930184905584548482528286019093526040902091909155610547565b506000610547565b60008181526001830160205260408120548015610ee257600061112a6001836116f7565b855490915060009061113e906001906116f7565b90508082146111a357600086600001828154811061115e5761115e6116e1565b9060005260206000200154905080876000018481548110611181576111816116e1565b6000918252602080832090910192909255918252600188019052604090208390555b85548690806111b4576111b461170a565b600190038181906000526020600020016000905590558560010160008681526020019081526020016000206000905560019350505050610547565b806001600160a01b03163b60000361122557604051634c9c8ce360e01b81526001600160a01b0382166004820152602401610826565b60008051602061175d83398151915280546001600160a01b0319166001600160a01b0392909216919091179055565b6060600080846001600160a01b0316846040516112719190611720565b600060405180830381855af49150503d80600081146112ac576040519150601f19603f3d011682016040523d82523d6000602084013e6112b1565b606091505b50915091506112c18583836112e9565b95945050505050565b3415610c145760405163b398979f60e01b815260040160405180910390fd5b6060826112fe576112f982611345565b610952565b815115801561131557506001600160a01b0384163b155b1561133e57604051639996b31560e01b81526001600160a01b0385166004820152602401610826565b5092915050565b8051156113555780518082602001fd5b60405163d6bda27560e01b815260040160405180910390fd5b60006020828403121561138057600080fd5b81356001600160e01b03198116811461095257600080fd5b6000602082840312156113aa57600080fd5b5035919050565b80356001600160a01b03811681146113c857600080fd5b919050565b600080604083850312156113e057600080fd5b823591506113f0602084016113b1565b90509250929050565b60006020828403121561140b57600080fd5b610952826113b1565b6000806040838503121561142757600080fd5b611430836113b1565b91506113f0602084016113b1565b634e487b7160e01b600052604160045260246000fd5b6000806040838503121561146757600080fd5b611470836113b1565b9150602083013567ffffffffffffffff81111561148c57600080fd5b8301601f8101851361149d57600080fd5b803567ffffffffffffffff8111156114b7576114b761143e565b604051601f8201601f19908116603f0116810167ffffffffffffffff811182821017156114e6576114e661143e565b6040528181528282016020018710156114fe57600080fd5b816020840160208301376000602083830101528093505050509250929050565b6000806040838503121561153157600080fd5b50508035926020909101359150565b602080825282518282018190526000918401906040840190835b818110156115815783516001600160a01b031683526020938401939092019160010161155a565b509095945050505050565b6000806020838503121561159f57600080fd5b823567ffffffffffffffff8111156115b657600080fd5b8301601f810185136115c757600080fd5b803567ffffffffffffffff8111156115de57600080fd5b8560208284010111156115f057600080fd5b6020919091019590945092505050565b60005b8381101561161b578181015183820152602001611603565b50506000910152565b6020815260008251806020840152611643816040850160208701611600565b601f01601f19169190910160400192915050565b634e487b7160e01b600052601160045260246000fd5b8082018082111561054757610547611657565b6001600160a01b0385168152602081018490526060604082018190528101829052818360808301376000818301608090810191909152601f909201601f191601019392505050565b6000602082840312156116da57600080fd5b5051919050565b634e487b7160e01b600052603260045260246000fd5b8181038181111561054757610547611657565b634e487b7160e01b600052603160045260246000fd5b60008251611732818460208701611600565b919091019291505056fec1f6fe24621ce81ec5827caf0253cadb74709b061630e6b55e82371705932000360894a13ba1a3210667c828492db98dca3e2076cc3735a920a3ca505d382bbc02dd7bc7dec4dceedda775e58dd541e08a116c6c53815c0bd028192f7b626800a264697066735822122066daf513bf9d49233faf8592faea830d46129ae4f6f39850b2f2d2befa793d8364736f6c634300081c0033",
  "linkReferences": {},
  "deployedLinkReferences": {}
}