{
  "_format": "hh-sol-artifact-1",
  "contractName": "BugMinter",
  "sourceName": "contracts/BugMinter.sol",
  "abi": [
    {
      "inputs": [],
      "stateMutability": "nonpayable",
      "type": "constructor"
    },
    {
      "inputs": [],
      "name": "AccessControlBadConfirmation",
      "type": "error"
    },
    {
      "inputs": [
        {
          "internalType": "address",
          "name": "account",
          "type": "address"
        },
        {
          "internalType": "bytes32",
          "name": "neededRole",
          "type": "bytes32"
        }
      ],
      "name": "AccessControlUnauthorizedAccount",
      "type": "error"
    },
    {
      "inputs": [
        {
          "internalType": "address",
          "name": "target",
          "type": "address"
        }
      ],
      "name": "AddressEmptyCode",
      "type": "error"
    },
    {
      "inputs": [
        {
          "internalType": "address",
          "name": "implementation",
          "type": "address"
        }
      ],
      "name": "ERC1967InvalidImplementation",
      "type": "error"
    },
    {
      "inputs": [],
      "name": "ERC1967NonPayable",
      "type": "error"
    },
    {
      "inputs": [],
      "name": "FailedCall",
      "type": "error"
    },
    {
      "inputs": [],
      "name": "InvalidInitialization",
      "type": "error"
    },
    {
      "inputs": [],
      "name": "NotInitializing",
      "type": "error"
    },
    {
      "inputs": [],
      "name": "UUPSUnauthorizedCallContext",
      "type": "error"
    },
    {
      "inputs": [
        {
          "internalType": "bytes32",
          "name": "slot",
          "type": "bytes32"
        }
      ],
      "name": "UUPSUnsupportedProxiableUUID",
      "type": "error"
    },
    {
      "anonymous": false,
      "inputs": [
        {
          "indexed": true,
          "internalType": "address",
          "name": "catcher",
          "type": "address"
        },
        {
          "indexed": false,
          "internalType": "uint256",
          "name": "randomSeedBlock",
          "type": "uint256"
        }
      ],
      "name": "CatchInitiated",
      "type": "event"
    },
    {
      "anonymous": false,
      "inputs": [
        {
          "indexed": false,
          "internalType": "uint64",
          "name": "version",
          "type": "uint64"
        }
      ],
      "name": "Initialized",
      "type": "event"
    },
    {
      "anonymous": false,
      "inputs": [
        {
          "indexed": true,
          "internalType": "bytes32",
          "name": "role",
          "type": "bytes32"
        },
        {
          "indexed": true,
          "internalType": "bytes32",
          "name": "previousAdminRole",
          "type": "bytes32"
        },
        {
          "indexed": true,
          "internalType": "bytes32",
          "name": "newAdminRole",
          "type": "bytes32"
        }
      ],
      "name": "RoleAdminChanged",
      "type": "event"
    },
    {
      "anonymous": false,
      "inputs": [
        {
          "indexed": true,
          "internalType": "bytes32",
          "name": "role",
          "type": "bytes32"
        },
        {
          "indexed": true,
          "internalType": "address",
          "name": "account",
          "type": "address"
        },
        {
          "indexed": true,
          "internalType": "address",
          "name": "sender",
          "type": "address"
        }
      ],
      "name": "RoleGranted",
      "type": "event"
    },
    {
      "anonymous": false,
      "inputs": [
        {
          "indexed": true,
          "internalType": "bytes32",
          "name": "role",
          "type": "bytes32"
        },
        {
          "indexed": true,
          "internalType": "address",
          "name": "account",
          "type": "address"
        },
        {
          "indexed": true,
          "internalType": "address",
          "name": "sender",
          "type": "address"
        }
      ],
      "name": "RoleRevoked",
      "type": "event"
    },
    {
      "anonymous": false,
      "inputs": [
        {
          "indexed": true,
          "internalType": "address",
          "name": "implementation",
          "type": "address"
        }
      ],
      "name": "Upgraded",
      "type": "event"
    },
    {
      "inputs": [],
      "name": "DEFAULT_ADMIN_ROLE",
      "outputs": [
        {
          "internalType": "bytes32",
          "name": "",
          "type": "bytes32"
        }
      ],
      "stateMutability": "view",
      "type": "function"
    },
    {
      "inputs": [],
      "name": "UPGRADER_ROLE",
      "outputs": [
        {
          "internalType": "bytes32",
          "name": "",
          "type": "bytes32"
        }
      ],
      "stateMutability": "view",
      "type": "function"
    },
    {
      "inputs": [],
      "name": "UPGRADE_INTERFACE_VERSION",
      "outputs": [
        {
          "internalType": "string",
          "name": "",
          "type": "string"
        }
      ],
      "stateMutability": "view",
      "type": "function"
    },
    {
      "inputs": [],
      "name": "catchTimeout",
      "outputs": [
        {
          "internalType": "uint256",
          "name": "",
          "type": "uint256"
        }
      ],
      "stateMutability": "view",
      "type": "function"
    },
    {
      "inputs": [
        {
          "internalType": "string",
          "name": "name",
          "type": "string"
        }
      ],
      "name": "completeCatch",
      "outputs": [],
      "stateMutability": "nonpayable",
      "type": "function"
    },
    {
      "inputs": [
        {
          "internalType": "bytes32",
          "name": "role",
          "type": "bytes32"
        }
      ],
      "name": "getRoleAdmin",
      "outputs": [
        {
          "internalType": "bytes32",
          "name": "",
          "type": "bytes32"
        }
      ],
      "stateMutability": "view",
      "type": "function"
    },
    {
      "inputs": [
        {
          "internalType": "bytes32",
          "name": "role",
          "type": "bytes32"
        },
        {
          "internalType": "uint256",
          "name": "index",
          "type": "uint256"
        }
      ],
      "name": "getRoleMember",
      "outputs": [
        {
          "internalType": "address",
          "name": "",
          "type": "address"
        }
      ],
      "stateMutability": "view",
      "type": "function"
    },
    {
      "inputs": [
        {
          "internalType": "bytes32",
          "name": "role",
          "type": "bytes32"
        }
      ],
      "name": "getRoleMemberCount",
      "outputs": [
        {
          "internalType": "uint256",
          "name": "",
          "type": "uint256"
        }
      ],
      "stateMutability": "view",
      "type": "function"
    },
    {
      "inputs": [
        {
          "internalType": "bytes32",
          "name": "role",
          "type": "bytes32"
        }
      ],
      "name": "getRoleMembers",
      "outputs": [
        {
          "internalType": "address[]",
          "name": "",
          "type": "address[]"
        }
      ],
      "stateMutability": "view",
      "type": "function"
    },
    {
      "inputs": [
        {
          "internalType": "bytes32",
          "name": "role",
          "type": "bytes32"
        },
        {
          "internalType": "address",
          "name": "account",
          "type": "address"
        }
      ],
      "name": "grantRole",
      "outputs": [],
      "stateMutability": "nonpayable",
      "type": "function"
    },
    {
      "inputs": [
        {
          "internalType": "bytes32",
          "name": "role",
          "type": "bytes32"
        },
        {
          "internalType": "address",
          "name": "account",
          "type": "address"
        }
      ],
      "name": "hasRole",
      "outputs": [
        {
          "internalType": "bool",
          "name": "",
          "type": "bool"
        }
      ],
      "stateMutability": "view",
      "type": "function"
    },
    {
      "inputs": [
        {
          "internalType": "address",
          "name": "theBugs_",
          "type": "address"
        }
      ],
      "name": "initialize",
      "outputs": [],
      "stateMutability": "nonpayable",
      "type": "function"
    },
    {
      "inputs": [],
      "name": "initiateCatch",
      "outputs": [],
      "stateMutability": "nonpayable",
      "type": "function"
    },
    {
      "inputs": [
        {
          "internalType": "address",
          "name": "",
          "type": "address"
        }
      ],
      "name": "lastCatch",
      "outputs": [
        {
          "internalType": "uint256",
          "name": "",
          "type": "uint256"
        }
      ],
      "stateMutability": "view",
      "type": "function"
    },
    {
      "inputs": [],
      "name": "proxiableUUID",
      "outputs": [
        {
          "internalType": "bytes32",
          "name": "",
          "type": "bytes32"
        }
      ],
      "stateMutability": "view",
      "type": "function"
    },
    {
      "inputs": [
        {
          "internalType": "address",
          "name": "",
          "type": "address"
        }
      ],
      "name": "randomSeedBlocks",
      "outputs": [
        {
          "internalType": "uint256",
          "name": "",
          "type": "uint256"
        }
      ],
      "stateMutability": "view",
      "type": "function"
    },
    {
      "inputs": [
        {
          "internalType": "bytes32",
          "name": "role",
          "type": "bytes32"
        },
        {
          "internalType": "address",
          "name": "callerConfirmation",
          "type": "address"
        }
      ],
      "name": "renounceRole",
      "outputs": [],
      "stateMutability": "nonpayable",
      "type": "function"
    },
    {
      "inputs": [
        {
          "internalType": "bytes32",
          "name": "role",
          "type": "bytes32"
        },
        {
          "internalType": "address",
          "name": "account",
          "type": "address"
        }
      ],
      "name": "revokeRole",
      "outputs": [],
      "stateMutability": "nonpayable",
      "type": "function"
    },
    {
      "inputs": [
        {
          "internalType": "bytes4",
          "name": "interfaceId",
          "type": "bytes4"
        }
      ],
      "name": "supportsInterface",
      "outputs": [
        {
          "internalType": "bool",
          "name": "",
          "type": "bool"
        }
      ],
      "stateMutability": "view",
      "type": "function"
    },
    {
      "inputs": [],
      "name": "theBugs",
      "outputs": [
        {
          "internalType": "contract TheBugs",
          "name": "",
          "type": "address"
        }
      ],
      "stateMutability": "view",
      "type": "function"
    },
    {
      "inputs": [
        {
          "internalType": "address",
          "name": "newImplementation",
          "type": "address"
        },
        {
          "internalType": "bytes",
          "name": "data",
          "type": "bytes"
        }
      ],
      "name": "upgradeToAndCall",
      "outputs": [],
      "stateMutability": "payable",
      "type": "function"
    }
  ],
  "bytecode": "0x60a06040523060805234801561001457600080fd5b507ff0c57e16840df040f15088dc2f81fe391c3923bec73e23a9662efc9c229c6a00805468010000000000000000810460ff1615906001600160401b031660008115801561005f5750825b90506000826001600160401b0316600114801561007b5750303b155b905081158015610089575080155b156100a75760405163f92ee8a960e01b815260040160405180910390fd5b84546001600160401b031916600117855583156100d557845460ff60401b1916680100000000000000001785555b831561011b57845460ff60401b19168555604051600181527fc7f505b2f371ae2175ee4913f4499e1f2633a7b5936321eed1cdaeb6115181d29060200160405180910390a15b505050505060805161156d610149600039600081816109dc01528181610a050152610b6a015261156d6000f3fe60806040526004361061012a5760003560e01c806391d14854116100ab578063ad3cb1cc1161006f578063ad3cb1cc1461033c578063c4d66de81461037a578063c9c9ef1b1461039a578063ca15c873146103ba578063d547741f146103da578063f72c0d8b146103fa57600080fd5b806391d148541461028d578063a0c08acd146102ad578063a217fddf146102da578063a3246ad3146102ef578063ab66ce4e1461031c57600080fd5b806336568abe116100f257806336568abe146101f85780634f1ef2861461021857806352d1902d1461022b578063756c0f8f146102405780639010d07c1461025557600080fd5b806301ffc9a71461012f578063099246411461016457806318e16c4b14610189578063248a9ca3146101b65780632f2ff15d146101d6575b600080fd5b34801561013b57600080fd5b5061014f61014a366004611133565b61042e565b60405190151581526020015b60405180910390f35b34801561017057600080fd5b5061017b6201518081565b60405190815260200161015b565b34801561019557600080fd5b5061017b6101a4366004611179565b60006020819052908152604090205481565b3480156101c257600080fd5b5061017b6101d1366004611194565b610459565b3480156101e257600080fd5b506101f66101f13660046111ad565b61047b565b005b34801561020457600080fd5b506101f66102133660046111ad565b61049d565b6101f66102263660046111ef565b6104d5565b34801561023757600080fd5b5061017b6104f4565b34801561024c57600080fd5b506101f6610511565b34801561026157600080fd5b506102756102703660046112b9565b6105a9565b6040516001600160a01b03909116815260200161015b565b34801561029957600080fd5b5061014f6102a83660046111ad565b6105d8565b3480156102b957600080fd5b5061017b6102c8366004611179565b60016020526000908152604090205481565b3480156102e657600080fd5b5061017b600081565b3480156102fb57600080fd5b5061030f61030a366004611194565b610610565b60405161015b91906112db565b34801561032857600080fd5b506101f6610337366004611327565b610642565b34801561034857600080fd5b5061036d604051806040016040528060058152602001640352e302e360dc1b81525081565b60405161015b91906113bf565b34801561038657600080fd5b506101f6610395366004611179565b610786565b3480156103a657600080fd5b50600254610275906001600160a01b031681565b3480156103c657600080fd5b5061017b6103d5366004611194565b6108cc565b3480156103e657600080fd5b506101f66103f53660046111ad565b6108f2565b34801561040657600080fd5b5061017b7f189ab7a9244df0848122154315af71fe140f3db0fe014031783b0946b8c9d2e381565b60006001600160e01b03198216635a05180f60e01b148061045357506104538261090e565b92915050565b6000908152600080516020611518833981519152602052604090206001015490565b61048482610459565b61048d81610943565b6104978383610950565b50505050565b6001600160a01b03811633146104c65760405163334bd91960e11b815260040160405180910390fd5b6104d08282610995565b505050565b6104dd6109d1565b6104e682610a78565b6104f08282610aa2565b5050565b60006104fe610b5f565b506000805160206114f883398151915290565b336000818152600160205260409020544290610531906201518090611408565b111561053c57600080fd5b6000610549436001611408565b6001600160a01b0383166000818152602081815260408083208590556001825291829020429055905183815292935090917fc570989c1a907f5034bab53a5da8f76300119528bcf97c89737f27eb3db5f7bd910160405180910390a25050565b60008281526000805160206114d88339815191526020819052604082206105d09084610ba8565b949350505050565b6000918252600080516020611518833981519152602090815260408084206001600160a01b0393909316845291905290205460ff1690565b60008181526000805160206114d8833981519152602081905260409091206060919061063b90610bb4565b9392505050565b3360008181526020819052604081205440908190036106a85760405162461bcd60e51b815260206004820152601860248201527f4275674d696e7465723a2063617463682065787069726564000000000000000060448201526064015b60405180910390fd5b6001600160a01b03821660009081526020818152604080832083905560025481519283018590526bffffffffffffffffffffffff19606087811b82169385019390935230831b81166054850152911b166068820152607c0160408051601f198184030181529082905280516020909101206002546334ff261960e21b83529092506001600160a01b03169063d3fc98649061074d90869085908a908a9060040161141b565b600060405180830381600087803b15801561076757600080fd5b505af115801561077b573d6000803e3d6000fd5b505050505050505050565b7ff0c57e16840df040f15088dc2f81fe391c3923bec73e23a9662efc9c229c6a008054600160401b810460ff16159067ffffffffffffffff166000811580156107cc5750825b905060008267ffffffffffffffff1660011480156107e95750303b155b9050811580156107f7575080155b156108155760405163f92ee8a960e01b815260040160405180910390fd5b845467ffffffffffffffff19166001178555831561083f57845460ff60401b1916600160401b1785555b610847610bc1565b61084f610bc1565b610857610bc1565b600280546001600160a01b0319166001600160a01b03881617905561087d600033610950565b5083156108c457845460ff60401b19168555604051600181527fc7f505b2f371ae2175ee4913f4499e1f2633a7b5936321eed1cdaeb6115181d29060200160405180910390a15b505050505050565b60008181526000805160206114d883398151915260208190526040822061063b90610bc9565b6108fb82610459565b61090481610943565b6104978383610995565b60006001600160e01b03198216637965db0b60e01b148061045357506301ffc9a760e01b6001600160e01b0319831614610453565b61094d8133610bd3565b50565b60006000805160206114d88339815191528161096c8585610c0c565b905080156105d057600085815260208390526040902061098c9085610cb1565b50949350505050565b60006000805160206114d8833981519152816109b18585610cc6565b905080156105d057600085815260208390526040902061098c9085610d42565b306001600160a01b037f0000000000000000000000000000000000000000000000000000000000000000161480610a5857507f00000000000000000000000000000000000000000000000000000000000000006001600160a01b0316610a4c6000805160206114f8833981519152546001600160a01b031690565b6001600160a01b031614155b15610a765760405163703e46dd60e11b815260040160405180910390fd5b565b7f189ab7a9244df0848122154315af71fe140f3db0fe014031783b0946b8c9d2e36104f081610943565b816001600160a01b03166352d1902d6040518163ffffffff1660e01b8152600401602060405180830381865afa925050508015610afc575060408051601f3d908101601f19168201909252610af991810190611463565b60015b610b2457604051634c9c8ce360e01b81526001600160a01b038316600482015260240161069f565b6000805160206114f88339815191528114610b5557604051632a87526960e21b81526004810182905260240161069f565b6104d08383610d57565b306001600160a01b037f00000000000000000000000000000000000000000000000000000000000000001614610a765760405163703e46dd60e11b815260040160405180910390fd5b600061063b8383610dad565b6060600061063b83610dd7565b610a76610e33565b6000610453825490565b610bdd82826105d8565b6104f05760405163e2517d3f60e01b81526001600160a01b03821660048201526024810183905260440161069f565b6000600080516020611518833981519152610c2784846105d8565b610ca7576000848152602082815260408083206001600160a01b03871684529091529020805460ff19166001179055610c5d3390565b6001600160a01b0316836001600160a01b0316857f2f8788117e7eff1d82e926ec794901d17c78024a50270940304540a733656f0d60405160405180910390a46001915050610453565b6000915050610453565b600061063b836001600160a01b038416610e7c565b6000600080516020611518833981519152610ce184846105d8565b15610ca7576000848152602082815260408083206001600160a01b0387168085529252808320805460ff1916905551339287917ff6391f5c32d9c69d2a47ea670b442974b53935d1edc7fd64eb21e047a839171b9190a46001915050610453565b600061063b836001600160a01b038416610ecb565b610d6082610fb4565b6040516001600160a01b038316907fbc7cd75a20ee27fd9adebab32041f755214dbc6bffa90cc0225b39da2e5c2d3b90600090a2805115610da5576104d08282611019565b6104f061108f565b6000826000018281548110610dc457610dc461147c565b9060005260206000200154905092915050565b606081600001805480602002602001604051908101604052809291908181526020018280548015610e2757602002820191906000526020600020905b815481526020019060010190808311610e13575b50505050509050919050565b7ff0c57e16840df040f15088dc2f81fe391c3923bec73e23a9662efc9c229c6a0054600160401b900460ff16610a7657604051631afcd79f60e31b815260040160405180910390fd5b6000818152600183016020526040812054610ec357508154600181810184556000848152602080822090930184905584548482528286019093526040902091909155610453565b506000610453565b60008181526001830160205260408120548015610ca7576000610eef600183611492565b8554909150600090610f0390600190611492565b9050808214610f68576000866000018281548110610f2357610f2361147c565b9060005260206000200154905080876000018481548110610f4657610f4661147c565b6000918252602080832090910192909255918252600188019052604090208390555b8554869080610f7957610f796114a5565b600190038181906000526020600020016000905590558560010160008681526020019081526020016000206000905560019350505050610453565b806001600160a01b03163b600003610fea57604051634c9c8ce360e01b81526001600160a01b038216600482015260240161069f565b6000805160206114f883398151915280546001600160a01b0319166001600160a01b0392909216919091179055565b6060600080846001600160a01b03168460405161103691906114bb565b600060405180830381855af49150503d8060008114611071576040519150601f19603f3d011682016040523d82523d6000602084013e611076565b606091505b50915091506110868583836110ae565b95945050505050565b3415610a765760405163b398979f60e01b815260040160405180910390fd5b6060826110c3576110be8261110a565b61063b565b81511580156110da57506001600160a01b0384163b155b1561110357604051639996b31560e01b81526001600160a01b038516600482015260240161069f565b5092915050565b80511561111a5780518082602001fd5b60405163d6bda27560e01b815260040160405180910390fd5b60006020828403121561114557600080fd5b81356001600160e01b03198116811461063b57600080fd5b80356001600160a01b038116811461117457600080fd5b919050565b60006020828403121561118b57600080fd5b61063b8261115d565b6000602082840312156111a657600080fd5b5035919050565b600080604083850312156111c057600080fd5b823591506111d06020840161115d565b90509250929050565b634e487b7160e01b600052604160045260246000fd5b6000806040838503121561120257600080fd5b61120b8361115d565b9150602083013567ffffffffffffffff81111561122757600080fd5b8301601f8101851361123857600080fd5b803567ffffffffffffffff811115611252576112526111d9565b604051601f8201601f19908116603f0116810167ffffffffffffffff81118282101715611281576112816111d9565b60405281815282820160200187101561129957600080fd5b816020840160208301376000602083830101528093505050509250929050565b600080604083850312156112cc57600080fd5b50508035926020909101359150565b602080825282518282018190526000918401906040840190835b8181101561131c5783516001600160a01b03168352602093840193909201916001016112f5565b509095945050505050565b6000806020838503121561133a57600080fd5b823567ffffffffffffffff81111561135157600080fd5b8301601f8101851361136257600080fd5b803567ffffffffffffffff81111561137957600080fd5b85602082840101111561138b57600080fd5b6020919091019590945092505050565b60005b838110156113b657818101518382015260200161139e565b50506000910152565b60208152600082518060208401526113de81604085016020870161139b565b601f01601f19169190910160400192915050565b634e487b7160e01b600052601160045260246000fd5b80820180821115610453576104536113f2565b6001600160a01b0385168152602081018490526060604082018190528101829052818360808301376000818301608090810191909152601f909201601f191601019392505050565b60006020828403121561147557600080fd5b5051919050565b634e487b7160e01b600052603260045260246000fd5b81810381811115610453576104536113f2565b634e487b7160e01b600052603160045260246000fd5b600082516114cd81846020870161139b565b919091019291505056fec1f6fe24621ce81ec5827caf0253cadb74709b061630e6b55e82371705932000360894a13ba1a3210667c828492db98dca3e2076cc3735a920a3ca505d382bbc02dd7bc7dec4dceedda775e58dd541e08a116c6c53815c0bd028192f7b626800a2646970667358221220244f05bf174e9f6c8a09c833306afeb67d517bb31ede769f4e07a8742210c5e764736f6c634300081c0033",
  "linkReferences": {},
  "deployedLinkReferences": {}
}