{
  "_format": "hh-sol-artifact-1",
  "contractName": "BugMinter",
  "sourceName": "contracts/BugMinter.sol",
  "abi": [
    {
      "inputs": [],
      "stateMutability": "nonpayable",
      "type": "constructor"
    },
    {
      "inputs": [],
      "name": "AccessControlBadConfirmation",
      "type": "error"
    },
    {
      "inputs": [
        {
          "internalType": "address",
          "name": "account",
          "type": "address"
        },
        {
          "internalType": "bytes32",
          "name": "neededRole",
          "type": "bytes32"
        }
      ],
      "name": "AccessControlUnauthorizedAccount",
      "type": "error"
    },
    {
      "inputs": [
        {
          "internalType": "address",
          "name": "target",
          "type": "address"
        }
      ],
      "name": "AddressEmptyCode",
      "type": "error"
    },
    {
      "inputs": [
        {
          "internalType": "address",
          "name": "implementation",
          "type": "address"
        }
      ],
      "name": "ERC1967InvalidImplementation",
      "type": "error"
    },
    {
      "inputs": [],
      "name": "ERC1967NonPayable",
      "type": "error"
    },
    {
      "inputs": [],
      "name": "FailedCall",
      "type": "error"
    },
    {
      "inputs": [],
      "name": "InvalidInitialization",
      "type": "error"
    },
    {
      "inputs": [],
      "name": "NotInitializing",
      "type": "error"
    },
    {
      "inputs": [],
      "name": "UUPSUnauthorizedCallContext",
      "type": "error"
    },
    {
      "inputs": [
        {
          "internalType": "bytes32",
          "name": "slot",
          "type": "bytes32"
        }
      ],
      "name": "UUPSUnsupportedProxiableUUID",
      "type": "error"
    },
    {
      "anonymous": false,
      "inputs": [
        {
          "indexed": true,
          "internalType": "address",
          "name": "catcher",
          "type": "address"
        },
        {
          "indexed": false,
          "internalType": "uint256",
          "name": "tokenId",
          "type": "uint256"
        }
      ],
      "name": "CatchCompleted",
      "type": "event"
    },
    {
      "anonymous": false,
      "inputs": [
        {
          "indexed": true,
          "internalType": "address",
          "name": "catcher",
          "type": "address"
        },
        {
          "indexed": false,
          "internalType": "uint256",
          "name": "randomSeedBlock",
          "type": "uint256"
        },
        {
          "indexed": false,
          "internalType": "bool",
          "name": "premium",
          "type": "bool"
        }
      ],
      "name": "CatchInitiated",
      "type": "event"
    },
    {
      "anonymous": false,
      "inputs": [
        {
          "indexed": false,
          "internalType": "uint64",
          "name": "version",
          "type": "uint64"
        }
      ],
      "name": "Initialized",
      "type": "event"
    },
    {
      "anonymous": false,
      "inputs": [
        {
          "indexed": true,
          "internalType": "bytes32",
          "name": "role",
          "type": "bytes32"
        },
        {
          "indexed": true,
          "internalType": "bytes32",
          "name": "previousAdminRole",
          "type": "bytes32"
        },
        {
          "indexed": true,
          "internalType": "bytes32",
          "name": "newAdminRole",
          "type": "bytes32"
        }
      ],
      "name": "RoleAdminChanged",
      "type": "event"
    },
    {
      "anonymous": false,
      "inputs": [
        {
          "indexed": true,
          "internalType": "bytes32",
          "name": "role",
          "type": "bytes32"
        },
        {
          "indexed": true,
          "internalType": "address",
          "name": "account",
          "type": "address"
        },
        {
          "indexed": true,
          "internalType": "address",
          "name": "sender",
          "type": "address"
        }
      ],
      "name": "RoleGranted",
      "type": "event"
    },
    {
      "anonymous": false,
      "inputs": [
        {
          "indexed": true,
          "internalType": "bytes32",
          "name": "role",
          "type": "bytes32"
        },
        {
          "indexed": true,
          "internalType": "address",
          "name": "account",
          "type": "address"
        },
        {
          "indexed": true,
          "internalType": "address",
          "name": "sender",
          "type": "address"
        }
      ],
      "name": "RoleRevoked",
      "type": "event"
    },
    {
      "anonymous": false,
      "inputs": [
        {
          "indexed": true,
          "internalType": "address",
          "name": "implementation",
          "type": "address"
        }
      ],
      "name": "Upgraded",
      "type": "event"
    },
    {
      "inputs": [],
      "name": "CATCH_TIMEOUT",
      "outputs": [
        {
          "internalType": "uint256",
          "name": "",
          "type": "uint256"
        }
      ],
      "stateMutability": "view",
      "type": "function"
    },
    {
      "inputs": [],
      "name": "DEFAULT_ADMIN_ROLE",
      "outputs": [
        {
          "internalType": "bytes32",
          "name": "",
          "type": "bytes32"
        }
      ],
      "stateMutability": "view",
      "type": "function"
    },
    {
      "inputs": [],
      "name": "PREMIUM_CATCH_PRICE",
      "outputs": [
        {
          "internalType": "uint256",
          "name": "",
          "type": "uint256"
        }
      ],
      "stateMutability": "view",
      "type": "function"
    },
    {
      "inputs": [],
      "name": "UPGRADER_ROLE",
      "outputs": [
        {
          "internalType": "bytes32",
          "name": "",
          "type": "bytes32"
        }
      ],
      "stateMutability": "view",
      "type": "function"
    },
    {
      "inputs": [],
      "name": "UPGRADE_INTERFACE_VERSION",
      "outputs": [
        {
          "internalType": "string",
          "name": "",
          "type": "string"
        }
      ],
      "stateMutability": "view",
      "type": "function"
    },
    {
      "inputs": [
        {
          "internalType": "address",
          "name": "",
          "type": "address"
        }
      ],
      "name": "catchesInProgress",
      "outputs": [
        {
          "internalType": "uint128",
          "name": "randomSeedBlock",
          "type": "uint128"
        },
        {
          "internalType": "bool",
          "name": "premium",
          "type": "bool"
        }
      ],
      "stateMutability": "view",
      "type": "function"
    },
    {
      "inputs": [
        {
          "internalType": "string",
          "name": "name",
          "type": "string"
        }
      ],
      "name": "completeCatch",
      "outputs": [],
      "stateMutability": "nonpayable",
      "type": "function"
    },
    {
      "inputs": [
        {
          "internalType": "address",
          "name": "catcher",
          "type": "address"
        }
      ],
      "name": "getCatchInProgressTokenId",
      "outputs": [
        {
          "internalType": "uint256",
          "name": "",
          "type": "uint256"
        }
      ],
      "stateMutability": "view",
      "type": "function"
    },
    {
      "inputs": [
        {
          "internalType": "bytes32",
          "name": "role",
          "type": "bytes32"
        }
      ],
      "name": "getRoleAdmin",
      "outputs": [
        {
          "internalType": "bytes32",
          "name": "",
          "type": "bytes32"
        }
      ],
      "stateMutability": "view",
      "type": "function"
    },
    {
      "inputs": [
        {
          "internalType": "bytes32",
          "name": "role",
          "type": "bytes32"
        },
        {
          "internalType": "uint256",
          "name": "index",
          "type": "uint256"
        }
      ],
      "name": "getRoleMember",
      "outputs": [
        {
          "internalType": "address",
          "name": "",
          "type": "address"
        }
      ],
      "stateMutability": "view",
      "type": "function"
    },
    {
      "inputs": [
        {
          "internalType": "bytes32",
          "name": "role",
          "type": "bytes32"
        }
      ],
      "name": "getRoleMemberCount",
      "outputs": [
        {
          "internalType": "uint256",
          "name": "",
          "type": "uint256"
        }
      ],
      "stateMutability": "view",
      "type": "function"
    },
    {
      "inputs": [
        {
          "internalType": "bytes32",
          "name": "role",
          "type": "bytes32"
        }
      ],
      "name": "getRoleMembers",
      "outputs": [
        {
          "internalType": "address[]",
          "name": "",
          "type": "address[]"
        }
      ],
      "stateMutability": "view",
      "type": "function"
    },
    {
      "inputs": [
        {
          "internalType": "bytes32",
          "name": "role",
          "type": "bytes32"
        },
        {
          "internalType": "address",
          "name": "account",
          "type": "address"
        }
      ],
      "name": "grantRole",
      "outputs": [],
      "stateMutability": "nonpayable",
      "type": "function"
    },
    {
      "inputs": [
        {
          "internalType": "bytes32",
          "name": "role",
          "type": "bytes32"
        },
        {
          "internalType": "address",
          "name": "account",
          "type": "address"
        }
      ],
      "name": "hasRole",
      "outputs": [
        {
          "internalType": "bool",
          "name": "",
          "type": "bool"
        }
      ],
      "stateMutability": "view",
      "type": "function"
    },
    {
      "inputs": [
        {
          "internalType": "address",
          "name": "theBugs_",
          "type": "address"
        },
        {
          "internalType": "address",
          "name": "paymentReceiver_",
          "type": "address"
        }
      ],
      "name": "initialize",
      "outputs": [],
      "stateMutability": "nonpayable",
      "type": "function"
    },
    {
      "inputs": [],
      "name": "initiateFreeCatch",
      "outputs": [],
      "stateMutability": "nonpayable",
      "type": "function"
    },
    {
      "inputs": [],
      "name": "initiatePremiumCatch",
      "outputs": [],
      "stateMutability": "payable",
      "type": "function"
    },
    {
      "inputs": [],
      "name": "lastCatchedBug",
      "outputs": [
        {
          "internalType": "uint256",
          "name": "",
          "type": "uint256"
        }
      ],
      "stateMutability": "view",
      "type": "function"
    },
    {
      "inputs": [
        {
          "internalType": "address",
          "name": "",
          "type": "address"
        }
      ],
      "name": "lastFreeCatchTimestamps",
      "outputs": [
        {
          "internalType": "uint256",
          "name": "",
          "type": "uint256"
        }
      ],
      "stateMutability": "view",
      "type": "function"
    },
    {
      "inputs": [],
      "name": "proxiableUUID",
      "outputs": [
        {
          "internalType": "bytes32",
          "name": "",
          "type": "bytes32"
        }
      ],
      "stateMutability": "view",
      "type": "function"
    },
    {
      "inputs": [
        {
          "internalType": "bytes32",
          "name": "role",
          "type": "bytes32"
        },
        {
          "internalType": "address",
          "name": "callerConfirmation",
          "type": "address"
        }
      ],
      "name": "renounceRole",
      "outputs": [],
      "stateMutability": "nonpayable",
      "type": "function"
    },
    {
      "inputs": [
        {
          "internalType": "bytes32",
          "name": "role",
          "type": "bytes32"
        },
        {
          "internalType": "address",
          "name": "account",
          "type": "address"
        }
      ],
      "name": "revokeRole",
      "outputs": [],
      "stateMutability": "nonpayable",
      "type": "function"
    },
    {
      "inputs": [
        {
          "internalType": "bytes4",
          "name": "interfaceId",
          "type": "bytes4"
        }
      ],
      "name": "supportsInterface",
      "outputs": [
        {
          "internalType": "bool",
          "name": "",
          "type": "bool"
        }
      ],
      "stateMutability": "view",
      "type": "function"
    },
    {
      "inputs": [],
      "name": "theBugs",
      "outputs": [
        {
          "internalType": "contract TheBugs",
          "name": "",
          "type": "address"
        }
      ],
      "stateMutability": "view",
      "type": "function"
    },
    {
      "inputs": [
        {
          "internalType": "address",
          "name": "newImplementation",
          "type": "address"
        },
        {
          "internalType": "bytes",
          "name": "data",
          "type": "bytes"
        }
      ],
      "name": "upgradeToAndCall",
      "outputs": [],
      "stateMutability": "payable",
      "type": "function"
    }
  ],
  "bytecode": "0x60a06040523060805234801561001457600080fd5b507ff0c57e16840df040f15088dc2f81fe391c3923bec73e23a9662efc9c229c6a00805468010000000000000000810460ff1615906001600160401b031660008115801561005f5750825b90506000826001600160401b0316600114801561007b5750303b155b905081158015610089575080155b156100a75760405163f92ee8a960e01b815260040160405180910390fd5b84546001600160401b031916600117855583156100d557845460ff60401b1916680100000000000000001785555b831561011b57845460ff60401b19168555604051600181527fc7f505b2f371ae2175ee4913f4499e1f2633a7b5936321eed1cdaeb6115181d29060200160405180910390a15b50505050506080516117e461014960003960008181610c3301528181610c5c0152610dbf01526117e46000f3fe6080604052600436106101665760003560e01c8063894e5cd4116100d1578063ab66ce4e1161008a578063ca15c87311610064578063ca15c87314610454578063d547741f14610474578063ed497b3714610494578063f72c0d8b146104c157600080fd5b8063ab66ce4e146103d6578063ad3cb1cc146103f6578063c9c9ef1b1461043457600080fd5b8063894e5cd4146103065780639010d07c1461032657806391d148541461035e578063a217fddf1461037e578063a3246ad314610393578063a42911fc146103c057600080fd5b806336568abe1161012357806336568abe14610274578063485cc955146102945780634892aec8146102b45780634f1ef286146102c957806352d1902d146102dc5780636d763464146102f157600080fd5b80630104cb4e1461016b57806301ffc9a714610199578063248a9ca3146101c95780632f2ff15d146101e9578063313886cd1461020b57806335af61b014610213575b600080fd5b34801561017757600080fd5b5061018666038d7ea4c6800081565b6040519081526020015b60405180910390f35b3480156101a557600080fd5b506101b96101b4366004611380565b6104f5565b6040519015158152602001610190565b3480156101d557600080fd5b506101866101e43660046113aa565b610520565b3480156101f557600080fd5b506102096102043660046113df565b610542565b005b610209610564565b34801561021f57600080fd5b5061025561022e36600461140b565b6000602081905290815260409020546001600160801b03811690600160801b900460ff1682565b604080516001600160801b039093168352901515602083015201610190565b34801561028057600080fd5b5061020961028f3660046113df565b6105c0565b3480156102a057600080fd5b506102096102af366004611426565b6105f8565b3480156102c057600080fd5b50610186603c81565b6102096102d7366004611466565b610754565b3480156102e857600080fd5b50610186610773565b3480156102fd57600080fd5b50610209610790565b34801561031257600080fd5b5061018661032136600461140b565b6107c4565b34801561033257600080fd5b50610346610341366004611530565b6108cd565b6040516001600160a01b039091168152602001610190565b34801561036a57600080fd5b506101b96103793660046113df565b6108fc565b34801561038a57600080fd5b50610186600081565b34801561039f57600080fd5b506103b36103ae3660046113aa565b610934565b6040516101909190611552565b3480156103cc57600080fd5b5061018660035481565b3480156103e257600080fd5b506102096103f136600461159e565b610966565b34801561040257600080fd5b50610427604051806040016040528060058152602001640352e302e360dc1b81525081565b6040516101909190611636565b34801561044057600080fd5b50600254610346906001600160a01b031681565b34801561046057600080fd5b5061018661046f3660046113aa565b610a3e565b34801561048057600080fd5b5061020961048f3660046113df565b610a64565b3480156104a057600080fd5b506101866104af36600461140b565b60016020526000908152604090205481565b3480156104cd57600080fd5b506101867f189ab7a9244df0848122154315af71fe140f3db0fe014031783b0946b8c9d2e381565b60006001600160e01b03198216635a05180f60e01b148061051a575061051a82610a80565b92915050565b600090815260008051602061178f833981519152602052604090206001015490565b61054b82610520565b61055481610ab5565b61055e8383610abf565b50505050565b333466038d7ea4c680001461057857600080fd5b6004546040516001600160a01b03909116903480156108fc02916000818181858888f193505050501580156105b1573d6000803e3d6000fd5b506105bd816001610b04565b50565b6001600160a01b03811633146105e95760405163334bd91960e11b815260040160405180910390fd5b6105f38282610be2565b505050565b7ff0c57e16840df040f15088dc2f81fe391c3923bec73e23a9662efc9c229c6a008054600160401b810460ff16159067ffffffffffffffff1660008115801561063e5750825b905060008267ffffffffffffffff16600114801561065b5750303b155b905081158015610669575080155b156106875760405163f92ee8a960e01b815260040160405180910390fd5b845467ffffffffffffffff1916600117855583156106b157845460ff60401b1916600160401b1785555b6106b9610c1e565b6106c1610c1e565b6106c9610c1e565b600280546001600160a01b03808a166001600160a01b0319928316179092556004805492891692909116919091179055610704600033610abf565b50831561074b57845460ff60401b19168555604051600181527fc7f505b2f371ae2175ee4913f4499e1f2633a7b5936321eed1cdaeb6115181d29060200160405180910390a15b50505050505050565b61075c610c28565b61076582610ccd565b61076f8282610cf7565b5050565b600061077d610db4565b5060008051602061176f83398151915290565b3360008181526001602052604090205442906107ae90603c9061167f565b11156107b957600080fd5b6105bd816000610b04565b6001600160a01b038116600090815260208190526040812080546001600160801b03164080830361083c5760405162461bcd60e51b815260206004820152601860248201527f4275674d696e7465723a2063617463682065787069726564000000000000000060448201526064015b60405180910390fd5b8154600090600160801b900460ff16610856576000610859565b60015b6002546040805160208082018790526bffffffffffffffffffffffff1960608b811b82168486015230811b821660548501529490941b90931660688201528151605c818303018152607c909101909152805191012060ff91909116915060011c6108c3818361167f565b9695505050505050565b600082815260008051602061174f8339815191526020819052604082206108f49084610dfd565b949350505050565b600091825260008051602061178f833981519152602090815260408084206001600160a01b0393909316845291905290205460ff1690565b600081815260008051602061174f833981519152602081905260409091206060919061095f90610e09565b9392505050565b336000610972826107c4565b6002546040516334ff261960e21b81529192506001600160a01b03169063d3fc9864906109a9908590859089908990600401611692565b600060405180830381600087803b1580156109c357600080fd5b505af11580156109d7573d6000803e3d6000fd5b505050506001600160a01b0382166000818152602081815260409182902080546001600160881b0319169055600384905590518381527f3e0a25483a2e5b4eac43569ad6be33a6729d90349275defcb15953f7a5d27b9f910160405180910390a250505050565b600081815260008051602061174f83398151915260208190526040822061095f90610e16565b610a6d82610520565b610a7681610ab5565b61055e8383610be2565b60006001600160e01b03198216637965db0b60e01b148061051a57506301ffc9a760e01b6001600160e01b031983161461051a565b6105bd8133610e20565b600060008051602061174f83398151915281610adb8585610e59565b905080156108f4576000858152602083905260409020610afb9085610efe565b50949350505050565b6000610b1143600161167f565b6040805180820182526001600160801b03808416825285151560208084019182526001600160a01b038916600090815290819052939093209151825493511515600160801b026001600160881b0319909416911617919091179055905081610b8f576001600160a01b03831660009081526001602052604090204290555b604080516001600160801b038316815283151560208201526001600160a01b038516917fb74bb0703fd2042b20d17988dad7a83349c7d02bdb88ea668b69269cefd74e4c910160405180910390a2505050565b600060008051602061174f83398151915281610bfe8585610f13565b905080156108f4576000858152602083905260409020610afb9085610f8f565b610c26610fa4565b565b306001600160a01b037f0000000000000000000000000000000000000000000000000000000000000000161480610caf57507f00000000000000000000000000000000000000000000000000000000000000006001600160a01b0316610ca360008051602061176f833981519152546001600160a01b031690565b6001600160a01b031614155b15610c265760405163703e46dd60e11b815260040160405180910390fd5b7f189ab7a9244df0848122154315af71fe140f3db0fe014031783b0946b8c9d2e361076f81610ab5565b816001600160a01b03166352d1902d6040518163ffffffff1660e01b8152600401602060405180830381865afa925050508015610d51575060408051601f3d908101601f19168201909252610d4e918101906116da565b60015b610d7957604051634c9c8ce360e01b81526001600160a01b0383166004820152602401610833565b60008051602061176f8339815191528114610daa57604051632a87526960e21b815260048101829052602401610833565b6105f38383610fed565b306001600160a01b037f00000000000000000000000000000000000000000000000000000000000000001614610c265760405163703e46dd60e11b815260040160405180910390fd5b600061095f8383611043565b6060600061095f8361106d565b600061051a825490565b610e2a82826108fc565b61076f5760405163e2517d3f60e01b81526001600160a01b038216600482015260248101839052604401610833565b600060008051602061178f833981519152610e7484846108fc565b610ef4576000848152602082815260408083206001600160a01b03871684529091529020805460ff19166001179055610eaa3390565b6001600160a01b0316836001600160a01b0316857f2f8788117e7eff1d82e926ec794901d17c78024a50270940304540a733656f0d60405160405180910390a4600191505061051a565b600091505061051a565b600061095f836001600160a01b0384166110c9565b600060008051602061178f833981519152610f2e84846108fc565b15610ef4576000848152602082815260408083206001600160a01b0387168085529252808320805460ff1916905551339287917ff6391f5c32d9c69d2a47ea670b442974b53935d1edc7fd64eb21e047a839171b9190a4600191505061051a565b600061095f836001600160a01b038416611118565b7ff0c57e16840df040f15088dc2f81fe391c3923bec73e23a9662efc9c229c6a0054600160401b900460ff16610c2657604051631afcd79f60e31b815260040160405180910390fd5b610ff682611201565b6040516001600160a01b038316907fbc7cd75a20ee27fd9adebab32041f755214dbc6bffa90cc0225b39da2e5c2d3b90600090a280511561103b576105f38282611266565b61076f6112dc565b600082600001828154811061105a5761105a6116f3565b9060005260206000200154905092915050565b6060816000018054806020026020016040519081016040528092919081815260200182805480156110bd57602002820191906000526020600020905b8154815260200190600101908083116110a9575b50505050509050919050565b60008181526001830160205260408120546111105750815460018181018455600084815260208082209093018490558454848252828601909352604090209190915561051a565b50600061051a565b60008181526001830160205260408120548015610ef457600061113c600183611709565b855490915060009061115090600190611709565b90508082146111b5576000866000018281548110611170576111706116f3565b9060005260206000200154905080876000018481548110611193576111936116f3565b6000918252602080832090910192909255918252600188019052604090208390555b85548690806111c6576111c661171c565b60019003818190600052602060002001600090559055856001016000868152602001908152602001600020600090556001935050505061051a565b806001600160a01b03163b60000361123757604051634c9c8ce360e01b81526001600160a01b0382166004820152602401610833565b60008051602061176f83398151915280546001600160a01b0319166001600160a01b0392909216919091179055565b6060600080846001600160a01b0316846040516112839190611732565b600060405180830381855af49150503d80600081146112be576040519150601f19603f3d011682016040523d82523d6000602084013e6112c3565b606091505b50915091506112d38583836112fb565b95945050505050565b3415610c265760405163b398979f60e01b815260040160405180910390fd5b6060826113105761130b82611357565b61095f565b815115801561132757506001600160a01b0384163b155b1561135057604051639996b31560e01b81526001600160a01b0385166004820152602401610833565b5092915050565b8051156113675780518082602001fd5b60405163d6bda27560e01b815260040160405180910390fd5b60006020828403121561139257600080fd5b81356001600160e01b03198116811461095f57600080fd5b6000602082840312156113bc57600080fd5b5035919050565b80356001600160a01b03811681146113da57600080fd5b919050565b600080604083850312156113f257600080fd5b82359150611402602084016113c3565b90509250929050565b60006020828403121561141d57600080fd5b61095f826113c3565b6000806040838503121561143957600080fd5b611442836113c3565b9150611402602084016113c3565b634e487b7160e01b600052604160045260246000fd5b6000806040838503121561147957600080fd5b611482836113c3565b9150602083013567ffffffffffffffff81111561149e57600080fd5b8301601f810185136114af57600080fd5b803567ffffffffffffffff8111156114c9576114c9611450565b604051601f8201601f19908116603f0116810167ffffffffffffffff811182821017156114f8576114f8611450565b60405281815282820160200187101561151057600080fd5b816020840160208301376000602083830101528093505050509250929050565b6000806040838503121561154357600080fd5b50508035926020909101359150565b602080825282518282018190526000918401906040840190835b818110156115935783516001600160a01b031683526020938401939092019160010161156c565b509095945050505050565b600080602083850312156115b157600080fd5b823567ffffffffffffffff8111156115c857600080fd5b8301601f810185136115d957600080fd5b803567ffffffffffffffff8111156115f057600080fd5b85602082840101111561160257600080fd5b6020919091019590945092505050565b60005b8381101561162d578181015183820152602001611615565b50506000910152565b6020815260008251806020840152611655816040850160208701611612565b601f01601f19169190910160400192915050565b634e487b7160e01b600052601160045260246000fd5b8082018082111561051a5761051a611669565b6001600160a01b0385168152602081018490526060604082018190528101829052818360808301376000818301608090810191909152601f909201601f191601019392505050565b6000602082840312156116ec57600080fd5b5051919050565b634e487b7160e01b600052603260045260246000fd5b8181038181111561051a5761051a611669565b634e487b7160e01b600052603160045260246000fd5b60008251611744818460208701611612565b919091019291505056fec1f6fe24621ce81ec5827caf0253cadb74709b061630e6b55e82371705932000360894a13ba1a3210667c828492db98dca3e2076cc3735a920a3ca505d382bbc02dd7bc7dec4dceedda775e58dd541e08a116c6c53815c0bd028192f7b626800a26469706673582212205bb2fa654aec977b5cd94acba0714345a74571ddd894124d748369b0b9274f0664736f6c634300081c0033",
  "linkReferences": {},
  "deployedLinkReferences": {}
}