{
  "_format": "hh-sol-artifact-1",
  "contractName": "BugMinter",
  "sourceName": "contracts/BugMinter.sol",
  "abi": [
    {
      "inputs": [],
      "stateMutability": "nonpayable",
      "type": "constructor"
    },
    {
      "inputs": [],
      "name": "AccessControlBadConfirmation",
      "type": "error"
    },
    {
      "inputs": [
        {
          "internalType": "address",
          "name": "account",
          "type": "address"
        },
        {
          "internalType": "bytes32",
          "name": "neededRole",
          "type": "bytes32"
        }
      ],
      "name": "AccessControlUnauthorizedAccount",
      "type": "error"
    },
    {
      "inputs": [
        {
          "internalType": "address",
          "name": "target",
          "type": "address"
        }
      ],
      "name": "AddressEmptyCode",
      "type": "error"
    },
    {
      "inputs": [
        {
          "internalType": "address",
          "name": "implementation",
          "type": "address"
        }
      ],
      "name": "ERC1967InvalidImplementation",
      "type": "error"
    },
    {
      "inputs": [],
      "name": "ERC1967NonPayable",
      "type": "error"
    },
    {
      "inputs": [],
      "name": "FailedCall",
      "type": "error"
    },
    {
      "inputs": [],
      "name": "InvalidInitialization",
      "type": "error"
    },
    {
      "inputs": [],
      "name": "NotInitializing",
      "type": "error"
    },
    {
      "inputs": [],
      "name": "UUPSUnauthorizedCallContext",
      "type": "error"
    },
    {
      "inputs": [
        {
          "internalType": "bytes32",
          "name": "slot",
          "type": "bytes32"
        }
      ],
      "name": "UUPSUnsupportedProxiableUUID",
      "type": "error"
    },
    {
      "anonymous": false,
      "inputs": [
        {
          "indexed": true,
          "internalType": "address",
          "name": "catcher",
          "type": "address"
        },
        {
          "indexed": false,
          "internalType": "uint256",
          "name": "randomSeedBlock",
          "type": "uint256"
        }
      ],
      "name": "CatchInitiated",
      "type": "event"
    },
    {
      "anonymous": false,
      "inputs": [
        {
          "indexed": false,
          "internalType": "uint64",
          "name": "version",
          "type": "uint64"
        }
      ],
      "name": "Initialized",
      "type": "event"
    },
    {
      "anonymous": false,
      "inputs": [
        {
          "indexed": true,
          "internalType": "bytes32",
          "name": "role",
          "type": "bytes32"
        },
        {
          "indexed": true,
          "internalType": "bytes32",
          "name": "previousAdminRole",
          "type": "bytes32"
        },
        {
          "indexed": true,
          "internalType": "bytes32",
          "name": "newAdminRole",
          "type": "bytes32"
        }
      ],
      "name": "RoleAdminChanged",
      "type": "event"
    },
    {
      "anonymous": false,
      "inputs": [
        {
          "indexed": true,
          "internalType": "bytes32",
          "name": "role",
          "type": "bytes32"
        },
        {
          "indexed": true,
          "internalType": "address",
          "name": "account",
          "type": "address"
        },
        {
          "indexed": true,
          "internalType": "address",
          "name": "sender",
          "type": "address"
        }
      ],
      "name": "RoleGranted",
      "type": "event"
    },
    {
      "anonymous": false,
      "inputs": [
        {
          "indexed": true,
          "internalType": "bytes32",
          "name": "role",
          "type": "bytes32"
        },
        {
          "indexed": true,
          "internalType": "address",
          "name": "account",
          "type": "address"
        },
        {
          "indexed": true,
          "internalType": "address",
          "name": "sender",
          "type": "address"
        }
      ],
      "name": "RoleRevoked",
      "type": "event"
    },
    {
      "anonymous": false,
      "inputs": [
        {
          "indexed": true,
          "internalType": "address",
          "name": "implementation",
          "type": "address"
        }
      ],
      "name": "Upgraded",
      "type": "event"
    },
    {
      "inputs": [],
      "name": "DEFAULT_ADMIN_ROLE",
      "outputs": [
        {
          "internalType": "bytes32",
          "name": "",
          "type": "bytes32"
        }
      ],
      "stateMutability": "view",
      "type": "function"
    },
    {
      "inputs": [],
      "name": "UPGRADER_ROLE",
      "outputs": [
        {
          "internalType": "bytes32",
          "name": "",
          "type": "bytes32"
        }
      ],
      "stateMutability": "view",
      "type": "function"
    },
    {
      "inputs": [],
      "name": "UPGRADE_INTERFACE_VERSION",
      "outputs": [
        {
          "internalType": "string",
          "name": "",
          "type": "string"
        }
      ],
      "stateMutability": "view",
      "type": "function"
    },
    {
      "inputs": [],
      "name": "catchTimeout",
      "outputs": [
        {
          "internalType": "uint256",
          "name": "",
          "type": "uint256"
        }
      ],
      "stateMutability": "view",
      "type": "function"
    },
    {
      "inputs": [
        {
          "internalType": "string",
          "name": "name",
          "type": "string"
        }
      ],
      "name": "completeCatch",
      "outputs": [],
      "stateMutability": "nonpayable",
      "type": "function"
    },
    {
      "inputs": [
        {
          "internalType": "bytes32",
          "name": "role",
          "type": "bytes32"
        }
      ],
      "name": "getRoleAdmin",
      "outputs": [
        {
          "internalType": "bytes32",
          "name": "",
          "type": "bytes32"
        }
      ],
      "stateMutability": "view",
      "type": "function"
    },
    {
      "inputs": [
        {
          "internalType": "bytes32",
          "name": "role",
          "type": "bytes32"
        },
        {
          "internalType": "uint256",
          "name": "index",
          "type": "uint256"
        }
      ],
      "name": "getRoleMember",
      "outputs": [
        {
          "internalType": "address",
          "name": "",
          "type": "address"
        }
      ],
      "stateMutability": "view",
      "type": "function"
    },
    {
      "inputs": [
        {
          "internalType": "bytes32",
          "name": "role",
          "type": "bytes32"
        }
      ],
      "name": "getRoleMemberCount",
      "outputs": [
        {
          "internalType": "uint256",
          "name": "",
          "type": "uint256"
        }
      ],
      "stateMutability": "view",
      "type": "function"
    },
    {
      "inputs": [
        {
          "internalType": "bytes32",
          "name": "role",
          "type": "bytes32"
        }
      ],
      "name": "getRoleMembers",
      "outputs": [
        {
          "internalType": "address[]",
          "name": "",
          "type": "address[]"
        }
      ],
      "stateMutability": "view",
      "type": "function"
    },
    {
      "inputs": [
        {
          "internalType": "bytes32",
          "name": "role",
          "type": "bytes32"
        },
        {
          "internalType": "address",
          "name": "account",
          "type": "address"
        }
      ],
      "name": "grantRole",
      "outputs": [],
      "stateMutability": "nonpayable",
      "type": "function"
    },
    {
      "inputs": [
        {
          "internalType": "bytes32",
          "name": "role",
          "type": "bytes32"
        },
        {
          "internalType": "address",
          "name": "account",
          "type": "address"
        }
      ],
      "name": "hasRole",
      "outputs": [
        {
          "internalType": "bool",
          "name": "",
          "type": "bool"
        }
      ],
      "stateMutability": "view",
      "type": "function"
    },
    {
      "inputs": [
        {
          "internalType": "address",
          "name": "theBugs_",
          "type": "address"
        }
      ],
      "name": "initialize",
      "outputs": [],
      "stateMutability": "nonpayable",
      "type": "function"
    },
    {
      "inputs": [],
      "name": "initiateCatch",
      "outputs": [],
      "stateMutability": "nonpayable",
      "type": "function"
    },
    {
      "inputs": [
        {
          "internalType": "address",
          "name": "",
          "type": "address"
        }
      ],
      "name": "lastCatch",
      "outputs": [
        {
          "internalType": "uint256",
          "name": "",
          "type": "uint256"
        }
      ],
      "stateMutability": "view",
      "type": "function"
    },
    {
      "inputs": [],
      "name": "proxiableUUID",
      "outputs": [
        {
          "internalType": "bytes32",
          "name": "",
          "type": "bytes32"
        }
      ],
      "stateMutability": "view",
      "type": "function"
    },
    {
      "inputs": [
        {
          "internalType": "address",
          "name": "",
          "type": "address"
        }
      ],
      "name": "randomSeedBlocks",
      "outputs": [
        {
          "internalType": "uint256",
          "name": "",
          "type": "uint256"
        }
      ],
      "stateMutability": "view",
      "type": "function"
    },
    {
      "inputs": [
        {
          "internalType": "bytes32",
          "name": "role",
          "type": "bytes32"
        },
        {
          "internalType": "address",
          "name": "callerConfirmation",
          "type": "address"
        }
      ],
      "name": "renounceRole",
      "outputs": [],
      "stateMutability": "nonpayable",
      "type": "function"
    },
    {
      "inputs": [
        {
          "internalType": "bytes32",
          "name": "role",
          "type": "bytes32"
        },
        {
          "internalType": "address",
          "name": "account",
          "type": "address"
        }
      ],
      "name": "revokeRole",
      "outputs": [],
      "stateMutability": "nonpayable",
      "type": "function"
    },
    {
      "inputs": [
        {
          "internalType": "bytes4",
          "name": "interfaceId",
          "type": "bytes4"
        }
      ],
      "name": "supportsInterface",
      "outputs": [
        {
          "internalType": "bool",
          "name": "",
          "type": "bool"
        }
      ],
      "stateMutability": "view",
      "type": "function"
    },
    {
      "inputs": [],
      "name": "theBugs",
      "outputs": [
        {
          "internalType": "contract TheBugs",
          "name": "",
          "type": "address"
        }
      ],
      "stateMutability": "view",
      "type": "function"
    },
    {
      "inputs": [
        {
          "internalType": "address",
          "name": "newImplementation",
          "type": "address"
        },
        {
          "internalType": "bytes",
          "name": "data",
          "type": "bytes"
        }
      ],
      "name": "upgradeToAndCall",
      "outputs": [],
      "stateMutability": "payable",
      "type": "function"
    }
  ],
  "bytecode": "0x60a06040523060805234801561001457600080fd5b507ff0c57e16840df040f15088dc2f81fe391c3923bec73e23a9662efc9c229c6a00805468010000000000000000810460ff1615906001600160401b031660008115801561005f5750825b90506000826001600160401b0316600114801561007b5750303b155b905081158015610089575080155b156100a75760405163f92ee8a960e01b815260040160405180910390fd5b84546001600160401b031916600117855583156100d557845460ff60401b1916680100000000000000001785555b831561011b57845460ff60401b19168555604051600181527fc7f505b2f371ae2175ee4913f4499e1f2633a7b5936321eed1cdaeb6115181d29060200160405180910390a15b50505050506080516115026101496000396000818161096c015281816109950152610aff01526115026000f3fe60806040526004361061012a5760003560e01c806391d14854116100ab578063ad3cb1cc1161006f578063ad3cb1cc1461033c578063c4d66de81461037a578063c9c9ef1b1461039a578063ca15c873146103ba578063d547741f146103da578063f72c0d8b146103fa57600080fd5b806391d148541461028d578063a0c08acd146102ad578063a217fddf146102da578063a3246ad3146102ef578063ab66ce4e1461031c57600080fd5b806336568abe116100f257806336568abe146101f85780634f1ef2861461021857806352d1902d1461022b578063756c0f8f146102405780639010d07c1461025557600080fd5b806301ffc9a71461012f578063099246411461016457806318e16c4b14610189578063248a9ca3146101b65780632f2ff15d146101d6575b600080fd5b34801561013b57600080fd5b5061014f61014a3660046110c8565b61042e565b60405190151581526020015b60405180910390f35b34801561017057600080fd5b5061017b6201518081565b60405190815260200161015b565b34801561019557600080fd5b5061017b6101a436600461110e565b60006020819052908152604090205481565b3480156101c257600080fd5b5061017b6101d1366004611129565b610459565b3480156101e257600080fd5b506101f66101f1366004611142565b61047b565b005b34801561020457600080fd5b506101f6610213366004611142565b61049d565b6101f6610226366004611184565b6104d5565b34801561023757600080fd5b5061017b6104f4565b34801561024c57600080fd5b506101f6610511565b34801561026157600080fd5b5061027561027036600461124e565b6105a9565b6040516001600160a01b03909116815260200161015b565b34801561029957600080fd5b5061014f6102a8366004611142565b6105d8565b3480156102b957600080fd5b5061017b6102c836600461110e565b60016020526000908152604090205481565b3480156102e657600080fd5b5061017b600081565b3480156102fb57600080fd5b5061030f61030a366004611129565b610610565b60405161015b9190611270565b34801561032857600080fd5b506101f66103373660046112bc565b610642565b34801561034857600080fd5b5061036d604051806040016040528060058152602001640352e302e360dc1b81525081565b60405161015b9190611354565b34801561038657600080fd5b506101f661039536600461110e565b610716565b3480156103a657600080fd5b50600254610275906001600160a01b031681565b3480156103c657600080fd5b5061017b6103d5366004611129565b61085c565b3480156103e657600080fd5b506101f66103f5366004611142565b610882565b34801561040657600080fd5b5061017b7f189ab7a9244df0848122154315af71fe140f3db0fe014031783b0946b8c9d2e381565b60006001600160e01b03198216635a05180f60e01b148061045357506104538261089e565b92915050565b60009081526000805160206114ad833981519152602052604090206001015490565b61048482610459565b61048d816108d3565b61049783836108e0565b50505050565b6001600160a01b03811633146104c65760405163334bd91960e11b815260040160405180910390fd5b6104d08282610925565b505050565b6104dd610961565b6104e682610a08565b6104f08282610a32565b5050565b60006104fe610af4565b5060008051602061148d83398151915290565b33600081815260016020526040902054429061053190620151809061139d565b111561053c57600080fd5b600061054943600161139d565b6001600160a01b0383166000818152602081815260408083208590556001825291829020429055905183815292935090917fc570989c1a907f5034bab53a5da8f76300119528bcf97c89737f27eb3db5f7bd910160405180910390a25050565b600082815260008051602061146d8339815191526020819052604082206105d09084610b3d565b949350505050565b60009182526000805160206114ad833981519152602090815260408084206001600160a01b0393909316845291905290205460ff1690565b600081815260008051602061146d833981519152602081905260409091206060919061063b90610b49565b9392505050565b336000818152602081815260408083208054939055600254815193408484018190526bffffffffffffffffffffffff19606087811b82168786015230811b8216605488015283901b1660688601528251808603605c018152607c86019384905280519401939093206334ff261960e21b909252919290916001600160a01b03169063d3fc9864906106dd90869085908a908a906080016113b0565b600060405180830381600087803b1580156106f757600080fd5b505af115801561070b573d6000803e3d6000fd5b505050505050505050565b7ff0c57e16840df040f15088dc2f81fe391c3923bec73e23a9662efc9c229c6a008054600160401b810460ff16159067ffffffffffffffff1660008115801561075c5750825b905060008267ffffffffffffffff1660011480156107795750303b155b905081158015610787575080155b156107a55760405163f92ee8a960e01b815260040160405180910390fd5b845467ffffffffffffffff1916600117855583156107cf57845460ff60401b1916600160401b1785555b6107d7610b56565b6107df610b56565b6107e7610b56565b600280546001600160a01b0319166001600160a01b03881617905561080d6000336108e0565b50831561085457845460ff60401b19168555604051600181527fc7f505b2f371ae2175ee4913f4499e1f2633a7b5936321eed1cdaeb6115181d29060200160405180910390a15b505050505050565b600081815260008051602061146d83398151915260208190526040822061063b90610b5e565b61088b82610459565b610894816108d3565b6104978383610925565b60006001600160e01b03198216637965db0b60e01b148061045357506301ffc9a760e01b6001600160e01b0319831614610453565b6108dd8133610b68565b50565b600060008051602061146d833981519152816108fc8585610ba1565b905080156105d057600085815260208390526040902061091c9085610c46565b50949350505050565b600060008051602061146d833981519152816109418585610c5b565b905080156105d057600085815260208390526040902061091c9085610cd7565b306001600160a01b037f00000000000000000000000000000000000000000000000000000000000000001614806109e857507f00000000000000000000000000000000000000000000000000000000000000006001600160a01b03166109dc60008051602061148d833981519152546001600160a01b031690565b6001600160a01b031614155b15610a065760405163703e46dd60e11b815260040160405180910390fd5b565b7f189ab7a9244df0848122154315af71fe140f3db0fe014031783b0946b8c9d2e36104f0816108d3565b816001600160a01b03166352d1902d6040518163ffffffff1660e01b8152600401602060405180830381865afa925050508015610a8c575060408051601f3d908101601f19168201909252610a89918101906113f8565b60015b610ab957604051634c9c8ce360e01b81526001600160a01b03831660048201526024015b60405180910390fd5b60008051602061148d8339815191528114610aea57604051632a87526960e21b815260048101829052602401610ab0565b6104d08383610cec565b306001600160a01b037f00000000000000000000000000000000000000000000000000000000000000001614610a065760405163703e46dd60e11b815260040160405180910390fd5b600061063b8383610d42565b6060600061063b83610d6c565b610a06610dc8565b6000610453825490565b610b7282826105d8565b6104f05760405163e2517d3f60e01b81526001600160a01b038216600482015260248101839052604401610ab0565b60006000805160206114ad833981519152610bbc84846105d8565b610c3c576000848152602082815260408083206001600160a01b03871684529091529020805460ff19166001179055610bf23390565b6001600160a01b0316836001600160a01b0316857f2f8788117e7eff1d82e926ec794901d17c78024a50270940304540a733656f0d60405160405180910390a46001915050610453565b6000915050610453565b600061063b836001600160a01b038416610e11565b60006000805160206114ad833981519152610c7684846105d8565b15610c3c576000848152602082815260408083206001600160a01b0387168085529252808320805460ff1916905551339287917ff6391f5c32d9c69d2a47ea670b442974b53935d1edc7fd64eb21e047a839171b9190a46001915050610453565b600061063b836001600160a01b038416610e60565b610cf582610f49565b6040516001600160a01b038316907fbc7cd75a20ee27fd9adebab32041f755214dbc6bffa90cc0225b39da2e5c2d3b90600090a2805115610d3a576104d08282610fae565b6104f0611024565b6000826000018281548110610d5957610d59611411565b9060005260206000200154905092915050565b606081600001805480602002602001604051908101604052809291908181526020018280548015610dbc57602002820191906000526020600020905b815481526020019060010190808311610da8575b50505050509050919050565b7ff0c57e16840df040f15088dc2f81fe391c3923bec73e23a9662efc9c229c6a0054600160401b900460ff16610a0657604051631afcd79f60e31b815260040160405180910390fd5b6000818152600183016020526040812054610e5857508154600181810184556000848152602080822090930184905584548482528286019093526040902091909155610453565b506000610453565b60008181526001830160205260408120548015610c3c576000610e84600183611427565b8554909150600090610e9890600190611427565b9050808214610efd576000866000018281548110610eb857610eb8611411565b9060005260206000200154905080876000018481548110610edb57610edb611411565b6000918252602080832090910192909255918252600188019052604090208390555b8554869080610f0e57610f0e61143a565b600190038181906000526020600020016000905590558560010160008681526020019081526020016000206000905560019350505050610453565b806001600160a01b03163b600003610f7f57604051634c9c8ce360e01b81526001600160a01b0382166004820152602401610ab0565b60008051602061148d83398151915280546001600160a01b0319166001600160a01b0392909216919091179055565b6060600080846001600160a01b031684604051610fcb9190611450565b600060405180830381855af49150503d8060008114611006576040519150601f19603f3d011682016040523d82523d6000602084013e61100b565b606091505b509150915061101b858383611043565b95945050505050565b3415610a065760405163b398979f60e01b815260040160405180910390fd5b606082611058576110538261109f565b61063b565b815115801561106f57506001600160a01b0384163b155b1561109857604051639996b31560e01b81526001600160a01b0385166004820152602401610ab0565b5092915050565b8051156110af5780518082602001fd5b60405163d6bda27560e01b815260040160405180910390fd5b6000602082840312156110da57600080fd5b81356001600160e01b03198116811461063b57600080fd5b80356001600160a01b038116811461110957600080fd5b919050565b60006020828403121561112057600080fd5b61063b826110f2565b60006020828403121561113b57600080fd5b5035919050565b6000806040838503121561115557600080fd5b82359150611165602084016110f2565b90509250929050565b634e487b7160e01b600052604160045260246000fd5b6000806040838503121561119757600080fd5b6111a0836110f2565b9150602083013567ffffffffffffffff8111156111bc57600080fd5b8301601f810185136111cd57600080fd5b803567ffffffffffffffff8111156111e7576111e761116e565b604051601f8201601f19908116603f0116810167ffffffffffffffff811182821017156112165761121661116e565b60405281815282820160200187101561122e57600080fd5b816020840160208301376000602083830101528093505050509250929050565b6000806040838503121561126157600080fd5b50508035926020909101359150565b602080825282518282018190526000918401906040840190835b818110156112b15783516001600160a01b031683526020938401939092019160010161128a565b509095945050505050565b600080602083850312156112cf57600080fd5b823567ffffffffffffffff8111156112e657600080fd5b8301601f810185136112f757600080fd5b803567ffffffffffffffff81111561130e57600080fd5b85602082840101111561132057600080fd5b6020919091019590945092505050565b60005b8381101561134b578181015183820152602001611333565b50506000910152565b6020815260008251806020840152611373816040850160208701611330565b601f01601f19169190910160400192915050565b634e487b7160e01b600052601160045260246000fd5b8082018082111561045357610453611387565b6001600160a01b0385168152602081018490526060604082018190528101829052818360808301376000818301608090810191909152601f909201601f191601019392505050565b60006020828403121561140a57600080fd5b5051919050565b634e487b7160e01b600052603260045260246000fd5b8181038181111561045357610453611387565b634e487b7160e01b600052603160045260246000fd5b60008251611462818460208701611330565b919091019291505056fec1f6fe24621ce81ec5827caf0253cadb74709b061630e6b55e82371705932000360894a13ba1a3210667c828492db98dca3e2076cc3735a920a3ca505d382bbc02dd7bc7dec4dceedda775e58dd541e08a116c6c53815c0bd028192f7b626800a2646970667358221220bcb75619dbce1cff04c8b8725cd4abf81057f39a0d5dec82f16445f1fd88c6db64736f6c634300081c0033",
  "linkReferences": {},
  "deployedLinkReferences": {}
}