{
  "_format": "hh-sol-artifact-1",
  "contractName": "BugMinter",
  "sourceName": "contracts/BugMinter.sol",
  "abi": [
    {
      "inputs": [],
      "stateMutability": "nonpayable",
      "type": "constructor"
    },
    {
      "inputs": [],
      "name": "AccessControlBadConfirmation",
      "type": "error"
    },
    {
      "inputs": [
        {
          "internalType": "address",
          "name": "account",
          "type": "address"
        },
        {
          "internalType": "bytes32",
          "name": "neededRole",
          "type": "bytes32"
        }
      ],
      "name": "AccessControlUnauthorizedAccount",
      "type": "error"
    },
    {
      "inputs": [
        {
          "internalType": "address",
          "name": "target",
          "type": "address"
        }
      ],
      "name": "AddressEmptyCode",
      "type": "error"
    },
    {
      "inputs": [
        {
          "internalType": "address",
          "name": "implementation",
          "type": "address"
        }
      ],
      "name": "ERC1967InvalidImplementation",
      "type": "error"
    },
    {
      "inputs": [],
      "name": "ERC1967NonPayable",
      "type": "error"
    },
    {
      "inputs": [],
      "name": "FailedCall",
      "type": "error"
    },
    {
      "inputs": [],
      "name": "InvalidInitialization",
      "type": "error"
    },
    {
      "inputs": [],
      "name": "NotInitializing",
      "type": "error"
    },
    {
      "inputs": [],
      "name": "UUPSUnauthorizedCallContext",
      "type": "error"
    },
    {
      "inputs": [
        {
          "internalType": "bytes32",
          "name": "slot",
          "type": "bytes32"
        }
      ],
      "name": "UUPSUnsupportedProxiableUUID",
      "type": "error"
    },
    {
      "anonymous": false,
      "inputs": [
        {
          "indexed": true,
          "internalType": "address",
          "name": "catcher",
          "type": "address"
        },
        {
          "indexed": false,
          "internalType": "uint256",
          "name": "randomSeedBlock",
          "type": "uint256"
        }
      ],
      "name": "CatchInitiated",
      "type": "event"
    },
    {
      "anonymous": false,
      "inputs": [
        {
          "indexed": false,
          "internalType": "uint64",
          "name": "version",
          "type": "uint64"
        }
      ],
      "name": "Initialized",
      "type": "event"
    },
    {
      "anonymous": false,
      "inputs": [
        {
          "indexed": true,
          "internalType": "bytes32",
          "name": "role",
          "type": "bytes32"
        },
        {
          "indexed": true,
          "internalType": "bytes32",
          "name": "previousAdminRole",
          "type": "bytes32"
        },
        {
          "indexed": true,
          "internalType": "bytes32",
          "name": "newAdminRole",
          "type": "bytes32"
        }
      ],
      "name": "RoleAdminChanged",
      "type": "event"
    },
    {
      "anonymous": false,
      "inputs": [
        {
          "indexed": true,
          "internalType": "bytes32",
          "name": "role",
          "type": "bytes32"
        },
        {
          "indexed": true,
          "internalType": "address",
          "name": "account",
          "type": "address"
        },
        {
          "indexed": true,
          "internalType": "address",
          "name": "sender",
          "type": "address"
        }
      ],
      "name": "RoleGranted",
      "type": "event"
    },
    {
      "anonymous": false,
      "inputs": [
        {
          "indexed": true,
          "internalType": "bytes32",
          "name": "role",
          "type": "bytes32"
        },
        {
          "indexed": true,
          "internalType": "address",
          "name": "account",
          "type": "address"
        },
        {
          "indexed": true,
          "internalType": "address",
          "name": "sender",
          "type": "address"
        }
      ],
      "name": "RoleRevoked",
      "type": "event"
    },
    {
      "anonymous": false,
      "inputs": [
        {
          "indexed": true,
          "internalType": "address",
          "name": "implementation",
          "type": "address"
        }
      ],
      "name": "Upgraded",
      "type": "event"
    },
    {
      "inputs": [],
      "name": "DEFAULT_ADMIN_ROLE",
      "outputs": [
        {
          "internalType": "bytes32",
          "name": "",
          "type": "bytes32"
        }
      ],
      "stateMutability": "view",
      "type": "function"
    },
    {
      "inputs": [],
      "name": "UPGRADER_ROLE",
      "outputs": [
        {
          "internalType": "bytes32",
          "name": "",
          "type": "bytes32"
        }
      ],
      "stateMutability": "view",
      "type": "function"
    },
    {
      "inputs": [],
      "name": "UPGRADE_INTERFACE_VERSION",
      "outputs": [
        {
          "internalType": "string",
          "name": "",
          "type": "string"
        }
      ],
      "stateMutability": "view",
      "type": "function"
    },
    {
      "inputs": [],
      "name": "catchTimeout",
      "outputs": [
        {
          "internalType": "uint256",
          "name": "",
          "type": "uint256"
        }
      ],
      "stateMutability": "view",
      "type": "function"
    },
    {
      "inputs": [
        {
          "internalType": "string",
          "name": "name",
          "type": "string"
        }
      ],
      "name": "completeCatch",
      "outputs": [],
      "stateMutability": "nonpayable",
      "type": "function"
    },
    {
      "inputs": [
        {
          "internalType": "address",
          "name": "catcher",
          "type": "address"
        }
      ],
      "name": "getCatchInProgressTokenId",
      "outputs": [
        {
          "internalType": "uint256",
          "name": "",
          "type": "uint256"
        }
      ],
      "stateMutability": "view",
      "type": "function"
    },
    {
      "inputs": [
        {
          "internalType": "bytes32",
          "name": "role",
          "type": "bytes32"
        }
      ],
      "name": "getRoleAdmin",
      "outputs": [
        {
          "internalType": "bytes32",
          "name": "",
          "type": "bytes32"
        }
      ],
      "stateMutability": "view",
      "type": "function"
    },
    {
      "inputs": [
        {
          "internalType": "bytes32",
          "name": "role",
          "type": "bytes32"
        },
        {
          "internalType": "uint256",
          "name": "index",
          "type": "uint256"
        }
      ],
      "name": "getRoleMember",
      "outputs": [
        {
          "internalType": "address",
          "name": "",
          "type": "address"
        }
      ],
      "stateMutability": "view",
      "type": "function"
    },
    {
      "inputs": [
        {
          "internalType": "bytes32",
          "name": "role",
          "type": "bytes32"
        }
      ],
      "name": "getRoleMemberCount",
      "outputs": [
        {
          "internalType": "uint256",
          "name": "",
          "type": "uint256"
        }
      ],
      "stateMutability": "view",
      "type": "function"
    },
    {
      "inputs": [
        {
          "internalType": "bytes32",
          "name": "role",
          "type": "bytes32"
        }
      ],
      "name": "getRoleMembers",
      "outputs": [
        {
          "internalType": "address[]",
          "name": "",
          "type": "address[]"
        }
      ],
      "stateMutability": "view",
      "type": "function"
    },
    {
      "inputs": [
        {
          "internalType": "bytes32",
          "name": "role",
          "type": "bytes32"
        },
        {
          "internalType": "address",
          "name": "account",
          "type": "address"
        }
      ],
      "name": "grantRole",
      "outputs": [],
      "stateMutability": "nonpayable",
      "type": "function"
    },
    {
      "inputs": [
        {
          "internalType": "bytes32",
          "name": "role",
          "type": "bytes32"
        },
        {
          "internalType": "address",
          "name": "account",
          "type": "address"
        }
      ],
      "name": "hasRole",
      "outputs": [
        {
          "internalType": "bool",
          "name": "",
          "type": "bool"
        }
      ],
      "stateMutability": "view",
      "type": "function"
    },
    {
      "inputs": [
        {
          "internalType": "address",
          "name": "theBugs_",
          "type": "address"
        }
      ],
      "name": "initialize",
      "outputs": [],
      "stateMutability": "nonpayable",
      "type": "function"
    },
    {
      "inputs": [],
      "name": "initiateCatch",
      "outputs": [],
      "stateMutability": "nonpayable",
      "type": "function"
    },
    {
      "inputs": [
        {
          "internalType": "address",
          "name": "",
          "type": "address"
        }
      ],
      "name": "lastCatch",
      "outputs": [
        {
          "internalType": "uint256",
          "name": "",
          "type": "uint256"
        }
      ],
      "stateMutability": "view",
      "type": "function"
    },
    {
      "inputs": [],
      "name": "proxiableUUID",
      "outputs": [
        {
          "internalType": "bytes32",
          "name": "",
          "type": "bytes32"
        }
      ],
      "stateMutability": "view",
      "type": "function"
    },
    {
      "inputs": [
        {
          "internalType": "address",
          "name": "",
          "type": "address"
        }
      ],
      "name": "randomSeedBlocks",
      "outputs": [
        {
          "internalType": "uint256",
          "name": "",
          "type": "uint256"
        }
      ],
      "stateMutability": "view",
      "type": "function"
    },
    {
      "inputs": [
        {
          "internalType": "bytes32",
          "name": "role",
          "type": "bytes32"
        },
        {
          "internalType": "address",
          "name": "callerConfirmation",
          "type": "address"
        }
      ],
      "name": "renounceRole",
      "outputs": [],
      "stateMutability": "nonpayable",
      "type": "function"
    },
    {
      "inputs": [
        {
          "internalType": "bytes32",
          "name": "role",
          "type": "bytes32"
        },
        {
          "internalType": "address",
          "name": "account",
          "type": "address"
        }
      ],
      "name": "revokeRole",
      "outputs": [],
      "stateMutability": "nonpayable",
      "type": "function"
    },
    {
      "inputs": [
        {
          "internalType": "bytes4",
          "name": "interfaceId",
          "type": "bytes4"
        }
      ],
      "name": "supportsInterface",
      "outputs": [
        {
          "internalType": "bool",
          "name": "",
          "type": "bool"
        }
      ],
      "stateMutability": "view",
      "type": "function"
    },
    {
      "inputs": [],
      "name": "theBugs",
      "outputs": [
        {
          "internalType": "contract TheBugs",
          "name": "",
          "type": "address"
        }
      ],
      "stateMutability": "view",
      "type": "function"
    },
    {
      "inputs": [
        {
          "internalType": "address",
          "name": "newImplementation",
          "type": "address"
        },
        {
          "internalType": "bytes",
          "name": "data",
          "type": "bytes"
        }
      ],
      "name": "upgradeToAndCall",
      "outputs": [],
      "stateMutability": "payable",
      "type": "function"
    }
  ],
  "bytecode": "0x60a06040523060805234801561001457600080fd5b507ff0c57e16840df040f15088dc2f81fe391c3923bec73e23a9662efc9c229c6a00805468010000000000000000810460ff1615906001600160401b031660008115801561005f5750825b90506000826001600160401b0316600114801561007b5750303b155b905081158015610089575080155b156100a75760405163f92ee8a960e01b815260040160405180910390fd5b84546001600160401b031916600117855583156100d557845460ff60401b1916680100000000000000001785555b831561011b57845460ff60401b19168555604051600181527fc7f505b2f371ae2175ee4913f4499e1f2633a7b5936321eed1cdaeb6115181d29060200160405180910390a15b505050505060805161159661014960003960008181610a0501528181610a2e0152610b9301526115966000f3fe6080604052600436106101355760003560e01c806391d14854116100ab578063ad3cb1cc1161006f578063ad3cb1cc14610365578063c4d66de8146103a3578063c9c9ef1b146103c3578063ca15c873146103e3578063d547741f14610403578063f72c0d8b1461042357600080fd5b806391d14854146102b6578063a0c08acd146102d6578063a217fddf14610303578063a3246ad314610318578063ab66ce4e1461034557600080fd5b806336568abe116100fd57806336568abe146102015780634f1ef2861461022157806352d1902d14610234578063756c0f8f14610249578063894e5cd41461025e5780639010d07c1461027e57600080fd5b806301ffc9a71461013a578063099246411461016f57806318e16c4b14610192578063248a9ca3146101bf5780632f2ff15d146101df575b600080fd5b34801561014657600080fd5b5061015a61015536600461115c565b610457565b60405190151581526020015b60405180910390f35b34801561017b57600080fd5b50610184603c81565b604051908152602001610166565b34801561019e57600080fd5b506101846101ad3660046111a2565b60006020819052908152604090205481565b3480156101cb57600080fd5b506101846101da3660046111bd565b610482565b3480156101eb57600080fd5b506101ff6101fa3660046111d6565b6104a4565b005b34801561020d57600080fd5b506101ff61021c3660046111d6565b6104c6565b6101ff61022f366004611218565b6104fe565b34801561024057600080fd5b5061018461051d565b34801561025557600080fd5b506101ff61053a565b34801561026a57600080fd5b506101846102793660046111a2565b6105d0565b34801561028a57600080fd5b5061029e6102993660046112e2565b61069b565b6040516001600160a01b039091168152602001610166565b3480156102c257600080fd5b5061015a6102d13660046111d6565b6106ca565b3480156102e257600080fd5b506101846102f13660046111a2565b60016020526000908152604090205481565b34801561030f57600080fd5b50610184600081565b34801561032457600080fd5b506103386103333660046111bd565b610702565b6040516101669190611304565b34801561035157600080fd5b506101ff610360366004611350565b610734565b34801561037157600080fd5b50610396604051806040016040528060058152602001640352e302e360dc1b81525081565b60405161016691906113e8565b3480156103af57600080fd5b506101ff6103be3660046111a2565b6107af565b3480156103cf57600080fd5b5060025461029e906001600160a01b031681565b3480156103ef57600080fd5b506101846103fe3660046111bd565b6108f5565b34801561040f57600080fd5b506101ff61041e3660046111d6565b61091b565b34801561042f57600080fd5b506101847f189ab7a9244df0848122154315af71fe140f3db0fe014031783b0946b8c9d2e381565b60006001600160e01b03198216635a05180f60e01b148061047c575061047c82610937565b92915050565b6000908152600080516020611541833981519152602052604090206001015490565b6104ad82610482565b6104b68161096c565b6104c08383610979565b50505050565b6001600160a01b03811633146104ef5760405163334bd91960e11b815260040160405180910390fd5b6104f982826109be565b505050565b6105066109fa565b61050f82610aa1565b6105198282610acb565b5050565b6000610527610b88565b5060008051602061152183398151915290565b33600081815260016020526040902054429061055890603c90611431565b111561056357600080fd5b6000610570436001611431565b6001600160a01b0383166000818152602081815260408083208590556001825291829020429055905183815292935090917fc570989c1a907f5034bab53a5da8f76300119528bcf97c89737f27eb3db5f7bd910160405180910390a25050565b6001600160a01b0381166000908152602081905260408120544080820361063e5760405162461bcd60e51b815260206004820152601860248201527f4275674d696e7465723a2063617463682065787069726564000000000000000060448201526064015b60405180910390fd5b600254604080516020808201949094526bffffffffffffffffffffffff19606096871b81168284015230871b811660548301529290951b90911660688501528051605c818603018152607c90940190528251920191909120919050565b60008281526000805160206115018339815191526020819052604082206106c29084610bd1565b949350505050565b6000918252600080516020611541833981519152602090815260408084206001600160a01b0393909316845291905290205460ff1690565b6000818152600080516020611501833981519152602081905260409091206060919061072d90610bdd565b9392505050565b336000610740826105d0565b6002546040516334ff261960e21b81529192506001600160a01b03169063d3fc986490610777908590859089908990600401611444565b600060405180830381600087803b15801561079157600080fd5b505af11580156107a5573d6000803e3d6000fd5b5050505050505050565b7ff0c57e16840df040f15088dc2f81fe391c3923bec73e23a9662efc9c229c6a008054600160401b810460ff16159067ffffffffffffffff166000811580156107f55750825b905060008267ffffffffffffffff1660011480156108125750303b155b905081158015610820575080155b1561083e5760405163f92ee8a960e01b815260040160405180910390fd5b845467ffffffffffffffff19166001178555831561086857845460ff60401b1916600160401b1785555b610870610bea565b610878610bea565b610880610bea565b600280546001600160a01b0319166001600160a01b0388161790556108a6600033610979565b5083156108ed57845460ff60401b19168555604051600181527fc7f505b2f371ae2175ee4913f4499e1f2633a7b5936321eed1cdaeb6115181d29060200160405180910390a15b505050505050565b600081815260008051602061150183398151915260208190526040822061072d90610bf2565b61092482610482565b61092d8161096c565b6104c083836109be565b60006001600160e01b03198216637965db0b60e01b148061047c57506301ffc9a760e01b6001600160e01b031983161461047c565b6109768133610bfc565b50565b6000600080516020611501833981519152816109958585610c35565b905080156106c25760008581526020839052604090206109b59085610cda565b50949350505050565b6000600080516020611501833981519152816109da8585610cef565b905080156106c25760008581526020839052604090206109b59085610d6b565b306001600160a01b037f0000000000000000000000000000000000000000000000000000000000000000161480610a8157507f00000000000000000000000000000000000000000000000000000000000000006001600160a01b0316610a75600080516020611521833981519152546001600160a01b031690565b6001600160a01b031614155b15610a9f5760405163703e46dd60e11b815260040160405180910390fd5b565b7f189ab7a9244df0848122154315af71fe140f3db0fe014031783b0946b8c9d2e36105198161096c565b816001600160a01b03166352d1902d6040518163ffffffff1660e01b8152600401602060405180830381865afa925050508015610b25575060408051601f3d908101601f19168201909252610b229181019061148c565b60015b610b4d57604051634c9c8ce360e01b81526001600160a01b0383166004820152602401610635565b6000805160206115218339815191528114610b7e57604051632a87526960e21b815260048101829052602401610635565b6104f98383610d80565b306001600160a01b037f00000000000000000000000000000000000000000000000000000000000000001614610a9f5760405163703e46dd60e11b815260040160405180910390fd5b600061072d8383610dd6565b6060600061072d83610e00565b610a9f610e5c565b600061047c825490565b610c0682826106ca565b6105195760405163e2517d3f60e01b81526001600160a01b038216600482015260248101839052604401610635565b6000600080516020611541833981519152610c5084846106ca565b610cd0576000848152602082815260408083206001600160a01b03871684529091529020805460ff19166001179055610c863390565b6001600160a01b0316836001600160a01b0316857f2f8788117e7eff1d82e926ec794901d17c78024a50270940304540a733656f0d60405160405180910390a4600191505061047c565b600091505061047c565b600061072d836001600160a01b038416610ea5565b6000600080516020611541833981519152610d0a84846106ca565b15610cd0576000848152602082815260408083206001600160a01b0387168085529252808320805460ff1916905551339287917ff6391f5c32d9c69d2a47ea670b442974b53935d1edc7fd64eb21e047a839171b9190a4600191505061047c565b600061072d836001600160a01b038416610ef4565b610d8982610fdd565b6040516001600160a01b038316907fbc7cd75a20ee27fd9adebab32041f755214dbc6bffa90cc0225b39da2e5c2d3b90600090a2805115610dce576104f98282611042565b6105196110b8565b6000826000018281548110610ded57610ded6114a5565b9060005260206000200154905092915050565b606081600001805480602002602001604051908101604052809291908181526020018280548015610e5057602002820191906000526020600020905b815481526020019060010190808311610e3c575b50505050509050919050565b7ff0c57e16840df040f15088dc2f81fe391c3923bec73e23a9662efc9c229c6a0054600160401b900460ff16610a9f57604051631afcd79f60e31b815260040160405180910390fd5b6000818152600183016020526040812054610eec5750815460018181018455600084815260208082209093018490558454848252828601909352604090209190915561047c565b50600061047c565b60008181526001830160205260408120548015610cd0576000610f186001836114bb565b8554909150600090610f2c906001906114bb565b9050808214610f91576000866000018281548110610f4c57610f4c6114a5565b9060005260206000200154905080876000018481548110610f6f57610f6f6114a5565b6000918252602080832090910192909255918252600188019052604090208390555b8554869080610fa257610fa26114ce565b60019003818190600052602060002001600090559055856001016000868152602001908152602001600020600090556001935050505061047c565b806001600160a01b03163b60000361101357604051634c9c8ce360e01b81526001600160a01b0382166004820152602401610635565b60008051602061152183398151915280546001600160a01b0319166001600160a01b0392909216919091179055565b6060600080846001600160a01b03168460405161105f91906114e4565b600060405180830381855af49150503d806000811461109a576040519150601f19603f3d011682016040523d82523d6000602084013e61109f565b606091505b50915091506110af8583836110d7565b95945050505050565b3415610a9f5760405163b398979f60e01b815260040160405180910390fd5b6060826110ec576110e782611133565b61072d565b815115801561110357506001600160a01b0384163b155b1561112c57604051639996b31560e01b81526001600160a01b0385166004820152602401610635565b5092915050565b8051156111435780518082602001fd5b60405163d6bda27560e01b815260040160405180910390fd5b60006020828403121561116e57600080fd5b81356001600160e01b03198116811461072d57600080fd5b80356001600160a01b038116811461119d57600080fd5b919050565b6000602082840312156111b457600080fd5b61072d82611186565b6000602082840312156111cf57600080fd5b5035919050565b600080604083850312156111e957600080fd5b823591506111f960208401611186565b90509250929050565b634e487b7160e01b600052604160045260246000fd5b6000806040838503121561122b57600080fd5b61123483611186565b9150602083013567ffffffffffffffff81111561125057600080fd5b8301601f8101851361126157600080fd5b803567ffffffffffffffff81111561127b5761127b611202565b604051601f8201601f19908116603f0116810167ffffffffffffffff811182821017156112aa576112aa611202565b6040528181528282016020018710156112c257600080fd5b816020840160208301376000602083830101528093505050509250929050565b600080604083850312156112f557600080fd5b50508035926020909101359150565b602080825282518282018190526000918401906040840190835b818110156113455783516001600160a01b031683526020938401939092019160010161131e565b509095945050505050565b6000806020838503121561136357600080fd5b823567ffffffffffffffff81111561137a57600080fd5b8301601f8101851361138b57600080fd5b803567ffffffffffffffff8111156113a257600080fd5b8560208284010111156113b457600080fd5b6020919091019590945092505050565b60005b838110156113df5781810151838201526020016113c7565b50506000910152565b60208152600082518060208401526114078160408501602087016113c4565b601f01601f19169190910160400192915050565b634e487b7160e01b600052601160045260246000fd5b8082018082111561047c5761047c61141b565b6001600160a01b0385168152602081018490526060604082018190528101829052818360808301376000818301608090810191909152601f909201601f191601019392505050565b60006020828403121561149e57600080fd5b5051919050565b634e487b7160e01b600052603260045260246000fd5b8181038181111561047c5761047c61141b565b634e487b7160e01b600052603160045260246000fd5b600082516114f68184602087016113c4565b919091019291505056fec1f6fe24621ce81ec5827caf0253cadb74709b061630e6b55e82371705932000360894a13ba1a3210667c828492db98dca3e2076cc3735a920a3ca505d382bbc02dd7bc7dec4dceedda775e58dd541e08a116c6c53815c0bd028192f7b626800a26469706673582212207cedbb1d5ca3c4f1b82f610d5e33b8ca6f483d91d3c608141fb2e7f0f0e339c964736f6c634300081c0033",
  "linkReferences": {},
  "deployedLinkReferences": {}
}