{
  "_format": "hh-sol-artifact-1",
  "contractName": "BugMinter",
  "sourceName": "contracts/BugMinter.sol",
  "abi": [
    {
      "inputs": [],
      "stateMutability": "nonpayable",
      "type": "constructor"
    },
    {
      "inputs": [],
      "name": "AccessControlBadConfirmation",
      "type": "error"
    },
    {
      "inputs": [
        {
          "internalType": "address",
          "name": "account",
          "type": "address"
        },
        {
          "internalType": "bytes32",
          "name": "neededRole",
          "type": "bytes32"
        }
      ],
      "name": "AccessControlUnauthorizedAccount",
      "type": "error"
    },
    {
      "inputs": [
        {
          "internalType": "address",
          "name": "target",
          "type": "address"
        }
      ],
      "name": "AddressEmptyCode",
      "type": "error"
    },
    {
      "inputs": [
        {
          "internalType": "address",
          "name": "implementation",
          "type": "address"
        }
      ],
      "name": "ERC1967InvalidImplementation",
      "type": "error"
    },
    {
      "inputs": [],
      "name": "ERC1967NonPayable",
      "type": "error"
    },
    {
      "inputs": [],
      "name": "FailedInnerCall",
      "type": "error"
    },
    {
      "inputs": [],
      "name": "InvalidInitialization",
      "type": "error"
    },
    {
      "inputs": [],
      "name": "NotInitializing",
      "type": "error"
    },
    {
      "inputs": [],
      "name": "UUPSUnauthorizedCallContext",
      "type": "error"
    },
    {
      "inputs": [
        {
          "internalType": "bytes32",
          "name": "slot",
          "type": "bytes32"
        }
      ],
      "name": "UUPSUnsupportedProxiableUUID",
      "type": "error"
    },
    {
      "anonymous": false,
      "inputs": [
        {
          "indexed": false,
          "internalType": "address",
          "name": "catcher",
          "type": "address"
        },
        {
          "indexed": false,
          "internalType": "uint256",
          "name": "randomSeedBlock",
          "type": "uint256"
        }
      ],
      "name": "CatchInitiated",
      "type": "event"
    },
    {
      "anonymous": false,
      "inputs": [
        {
          "indexed": false,
          "internalType": "uint64",
          "name": "version",
          "type": "uint64"
        }
      ],
      "name": "Initialized",
      "type": "event"
    },
    {
      "anonymous": false,
      "inputs": [
        {
          "indexed": true,
          "internalType": "bytes32",
          "name": "role",
          "type": "bytes32"
        },
        {
          "indexed": true,
          "internalType": "bytes32",
          "name": "previousAdminRole",
          "type": "bytes32"
        },
        {
          "indexed": true,
          "internalType": "bytes32",
          "name": "newAdminRole",
          "type": "bytes32"
        }
      ],
      "name": "RoleAdminChanged",
      "type": "event"
    },
    {
      "anonymous": false,
      "inputs": [
        {
          "indexed": true,
          "internalType": "bytes32",
          "name": "role",
          "type": "bytes32"
        },
        {
          "indexed": true,
          "internalType": "address",
          "name": "account",
          "type": "address"
        },
        {
          "indexed": true,
          "internalType": "address",
          "name": "sender",
          "type": "address"
        }
      ],
      "name": "RoleGranted",
      "type": "event"
    },
    {
      "anonymous": false,
      "inputs": [
        {
          "indexed": true,
          "internalType": "bytes32",
          "name": "role",
          "type": "bytes32"
        },
        {
          "indexed": true,
          "internalType": "address",
          "name": "account",
          "type": "address"
        },
        {
          "indexed": true,
          "internalType": "address",
          "name": "sender",
          "type": "address"
        }
      ],
      "name": "RoleRevoked",
      "type": "event"
    },
    {
      "anonymous": false,
      "inputs": [
        {
          "indexed": true,
          "internalType": "address",
          "name": "implementation",
          "type": "address"
        }
      ],
      "name": "Upgraded",
      "type": "event"
    },
    {
      "inputs": [],
      "name": "DEFAULT_ADMIN_ROLE",
      "outputs": [
        {
          "internalType": "bytes32",
          "name": "",
          "type": "bytes32"
        }
      ],
      "stateMutability": "view",
      "type": "function"
    },
    {
      "inputs": [],
      "name": "UPGRADER_ROLE",
      "outputs": [
        {
          "internalType": "bytes32",
          "name": "",
          "type": "bytes32"
        }
      ],
      "stateMutability": "view",
      "type": "function"
    },
    {
      "inputs": [],
      "name": "UPGRADE_INTERFACE_VERSION",
      "outputs": [
        {
          "internalType": "string",
          "name": "",
          "type": "string"
        }
      ],
      "stateMutability": "view",
      "type": "function"
    },
    {
      "inputs": [],
      "name": "catchTimeout",
      "outputs": [
        {
          "internalType": "uint256",
          "name": "",
          "type": "uint256"
        }
      ],
      "stateMutability": "view",
      "type": "function"
    },
    {
      "inputs": [],
      "name": "completeCatch",
      "outputs": [],
      "stateMutability": "nonpayable",
      "type": "function"
    },
    {
      "inputs": [
        {
          "internalType": "bytes32",
          "name": "role",
          "type": "bytes32"
        }
      ],
      "name": "getRoleAdmin",
      "outputs": [
        {
          "internalType": "bytes32",
          "name": "",
          "type": "bytes32"
        }
      ],
      "stateMutability": "view",
      "type": "function"
    },
    {
      "inputs": [
        {
          "internalType": "bytes32",
          "name": "role",
          "type": "bytes32"
        },
        {
          "internalType": "uint256",
          "name": "index",
          "type": "uint256"
        }
      ],
      "name": "getRoleMember",
      "outputs": [
        {
          "internalType": "address",
          "name": "",
          "type": "address"
        }
      ],
      "stateMutability": "view",
      "type": "function"
    },
    {
      "inputs": [
        {
          "internalType": "bytes32",
          "name": "role",
          "type": "bytes32"
        }
      ],
      "name": "getRoleMemberCount",
      "outputs": [
        {
          "internalType": "uint256",
          "name": "",
          "type": "uint256"
        }
      ],
      "stateMutability": "view",
      "type": "function"
    },
    {
      "inputs": [
        {
          "internalType": "bytes32",
          "name": "role",
          "type": "bytes32"
        },
        {
          "internalType": "address",
          "name": "account",
          "type": "address"
        }
      ],
      "name": "grantRole",
      "outputs": [],
      "stateMutability": "nonpayable",
      "type": "function"
    },
    {
      "inputs": [
        {
          "internalType": "bytes32",
          "name": "role",
          "type": "bytes32"
        },
        {
          "internalType": "address",
          "name": "account",
          "type": "address"
        }
      ],
      "name": "hasRole",
      "outputs": [
        {
          "internalType": "bool",
          "name": "",
          "type": "bool"
        }
      ],
      "stateMutability": "view",
      "type": "function"
    },
    {
      "inputs": [
        {
          "internalType": "address",
          "name": "theBugs_",
          "type": "address"
        }
      ],
      "name": "initialize",
      "outputs": [],
      "stateMutability": "nonpayable",
      "type": "function"
    },
    {
      "inputs": [],
      "name": "initiateCatch",
      "outputs": [],
      "stateMutability": "nonpayable",
      "type": "function"
    },
    {
      "inputs": [
        {
          "internalType": "address",
          "name": "",
          "type": "address"
        }
      ],
      "name": "lastCatch",
      "outputs": [
        {
          "internalType": "uint256",
          "name": "",
          "type": "uint256"
        }
      ],
      "stateMutability": "view",
      "type": "function"
    },
    {
      "inputs": [],
      "name": "proxiableUUID",
      "outputs": [
        {
          "internalType": "bytes32",
          "name": "",
          "type": "bytes32"
        }
      ],
      "stateMutability": "view",
      "type": "function"
    },
    {
      "inputs": [
        {
          "internalType": "address",
          "name": "",
          "type": "address"
        }
      ],
      "name": "randomSeedBlocks",
      "outputs": [
        {
          "internalType": "uint256",
          "name": "",
          "type": "uint256"
        }
      ],
      "stateMutability": "view",
      "type": "function"
    },
    {
      "inputs": [
        {
          "internalType": "bytes32",
          "name": "role",
          "type": "bytes32"
        },
        {
          "internalType": "address",
          "name": "callerConfirmation",
          "type": "address"
        }
      ],
      "name": "renounceRole",
      "outputs": [],
      "stateMutability": "nonpayable",
      "type": "function"
    },
    {
      "inputs": [
        {
          "internalType": "bytes32",
          "name": "role",
          "type": "bytes32"
        },
        {
          "internalType": "address",
          "name": "account",
          "type": "address"
        }
      ],
      "name": "revokeRole",
      "outputs": [],
      "stateMutability": "nonpayable",
      "type": "function"
    },
    {
      "inputs": [
        {
          "internalType": "bytes4",
          "name": "interfaceId",
          "type": "bytes4"
        }
      ],
      "name": "supportsInterface",
      "outputs": [
        {
          "internalType": "bool",
          "name": "",
          "type": "bool"
        }
      ],
      "stateMutability": "view",
      "type": "function"
    },
    {
      "inputs": [],
      "name": "theBugs",
      "outputs": [
        {
          "internalType": "contract TheBugs",
          "name": "",
          "type": "address"
        }
      ],
      "stateMutability": "view",
      "type": "function"
    },
    {
      "inputs": [
        {
          "internalType": "address",
          "name": "newImplementation",
          "type": "address"
        },
        {
          "internalType": "bytes",
          "name": "data",
          "type": "bytes"
        }
      ],
      "name": "upgradeToAndCall",
      "outputs": [],
      "stateMutability": "payable",
      "type": "function"
    }
  ],
  "bytecode": "0x60a06040523060805234801561001457600080fd5b507ff0c57e16840df040f15088dc2f81fe391c3923bec73e23a9662efc9c229c6a00805468010000000000000000810460ff1615906001600160401b031660008115801561005f5750825b90506000826001600160401b0316600114801561007b5750303b155b905081158015610089575080155b156100a75760405163f92ee8a960e01b815260040160405180910390fd5b84546001600160401b031916600117855583156100d557845460ff60401b1916680100000000000000001785555b831561011b57845460ff60401b19168555604051600181527fc7f505b2f371ae2175ee4913f4499e1f2633a7b5936321eed1cdaeb6115181d29060200160405180910390a15b505050505060805161139861014960003960008181610978015281816109a10152610b0601526113986000f3fe60806040526004361061011f5760003560e01c80639010d07c116100a0578063c4d66de811610064578063c4d66de814610337578063c9c9ef1b14610357578063ca15c87314610377578063d547741f14610397578063f72c0d8b146103b757600080fd5b80639010d07c1461025f57806391d1485414610297578063a0c08acd146102b7578063a217fddf146102e4578063ad3cb1cc146102f957600080fd5b806336568abe116100e757806336568abe146101ed5780634f1ef2861461020d57806352d1902d146102205780635d1483af14610235578063756c0f8f1461024a57600080fd5b806301ffc9a714610124578063099246411461015957806318e16c4b1461017e578063248a9ca3146101ab5780632f2ff15d146101cb575b600080fd5b34801561013057600080fd5b5061014461013f366004611066565b6103eb565b60405190151581526020015b60405180910390f35b34801561016557600080fd5b506101706201518081565b604051908152602001610150565b34801561018a57600080fd5b506101706101993660046110ac565b60006020819052908152604090205481565b3480156101b757600080fd5b506101706101c63660046110c7565b610416565b3480156101d757600080fd5b506101eb6101e63660046110e0565b610438565b005b3480156101f957600080fd5b506101eb6102083660046110e0565b61045a565b6101eb61021b366004611122565b610492565b34801561022c57600080fd5b506101706104b1565b34801561024157600080fd5b506101eb6104ce565b34801561025657600080fd5b506101eb6105a8565b34801561026b57600080fd5b5061027f61027a3660046111ec565b6106b4565b6040516001600160a01b039091168152602001610150565b3480156102a357600080fd5b506101446102b23660046110e0565b6106e3565b3480156102c357600080fd5b506101706102d23660046110ac565b60016020526000908152604090205481565b3480156102f057600080fd5b50610170600081565b34801561030557600080fd5b5061032a604051806040016040528060058152602001640352e302e360dc1b81525081565b6040516101509190611232565b34801561034357600080fd5b506101eb6103523660046110ac565b61071b565b34801561036357600080fd5b5060025461027f906001600160a01b031681565b34801561038357600080fd5b506101706103923660046110c7565b610861565b3480156103a357600080fd5b506101eb6103b23660046110e0565b61088e565b3480156103c357600080fd5b506101707f189ab7a9244df0848122154315af71fe140f3db0fe014031783b0946b8c9d2e381565b60006001600160e01b03198216635a05180f60e01b14806104105750610410826108aa565b92915050565b6000908152600080516020611343833981519152602052604090206001015490565b61044182610416565b61044a816108df565b61045483836108ec565b50505050565b6001600160a01b03811633146104835760405163334bd91960e11b815260040160405180910390fd5b61048d8282610931565b505050565b61049a61096d565b6104a382610a14565b6104ad8282610a3e565b5050565b60006104bb610afb565b5060008051602061132383398151915290565b3360008181526020818152604080832080549084905560018352818420429055600254825191408285018190526bffffffffffffffffffffffff19606088811b82168587015230811b8216605486015283901b1660688401528351808403605c018152607c840180865281519190960120632851206560e21b9095526080830187905260a08301859052925192946001600160a01b039091169263a14481949260c080820193929182900301818387803b15801561058b57600080fd5b505af115801561059f573d6000803e3d6000fd5b50505050505050565b336000818152602081815260408083205460019092529091205442906105d290620151809061127b565b11156105dd57600080fd5b8015806105e957508040155b61064d5760405162461bcd60e51b815260206004820152602a60248201527f4275674d696e7465723a20636174636820697320616c726561647920696e207460448201526968652070726f6365737360b01b60648201526084015b60405180910390fd5b600061065a43600161127b565b6001600160a01b03841660008181526020818152604091829020849055815192835282018390529192507fc570989c1a907f5034bab53a5da8f76300119528bcf97c89737f27eb3db5f7bd910160405180910390a1505050565b60008281526000805160206113038339815191526020819052604082206106db9084610b44565b949350505050565b6000918252600080516020611343833981519152602090815260408084206001600160a01b0393909316845291905290205460ff1690565b7ff0c57e16840df040f15088dc2f81fe391c3923bec73e23a9662efc9c229c6a008054600160401b810460ff16159067ffffffffffffffff166000811580156107615750825b905060008267ffffffffffffffff16600114801561077e5750303b155b90508115801561078c575080155b156107aa5760405163f92ee8a960e01b815260040160405180910390fd5b845467ffffffffffffffff1916600117855583156107d457845460ff60401b1916600160401b1785555b6107dc610b50565b6107e4610b50565b6107ec610b50565b600280546001600160a01b0319166001600160a01b0388161790556108126000336108ec565b50831561085957845460ff60401b19168555604051600181527fc7f505b2f371ae2175ee4913f4499e1f2633a7b5936321eed1cdaeb6115181d29060200160405180910390a15b505050505050565b600081815260008051602061130383398151915260208190526040822061088790610b58565b9392505050565b61089782610416565b6108a0816108df565b6104548383610931565b60006001600160e01b03198216637965db0b60e01b148061041057506301ffc9a760e01b6001600160e01b0319831614610410565b6108e98133610b62565b50565b6000600080516020611303833981519152816109088585610b9b565b905080156106db5760008581526020839052604090206109289085610c40565b50949350505050565b60006000805160206113038339815191528161094d8585610c55565b905080156106db5760008581526020839052604090206109289085610cd1565b306001600160a01b037f00000000000000000000000000000000000000000000000000000000000000001614806109f457507f00000000000000000000000000000000000000000000000000000000000000006001600160a01b03166109e8600080516020611323833981519152546001600160a01b031690565b6001600160a01b031614155b15610a125760405163703e46dd60e11b815260040160405180910390fd5b565b7f189ab7a9244df0848122154315af71fe140f3db0fe014031783b0946b8c9d2e36104ad816108df565b816001600160a01b03166352d1902d6040518163ffffffff1660e01b8152600401602060405180830381865afa925050508015610a98575060408051601f3d908101601f19168201909252610a959181019061128e565b60015b610ac057604051634c9c8ce360e01b81526001600160a01b0383166004820152602401610644565b6000805160206113238339815191528114610af157604051632a87526960e21b815260048101829052602401610644565b61048d8383610ce6565b306001600160a01b037f00000000000000000000000000000000000000000000000000000000000000001614610a125760405163703e46dd60e11b815260040160405180910390fd5b60006108878383610d3c565b610a12610d66565b6000610410825490565b610b6c82826106e3565b6104ad5760405163e2517d3f60e01b81526001600160a01b038216600482015260248101839052604401610644565b6000600080516020611343833981519152610bb684846106e3565b610c36576000848152602082815260408083206001600160a01b03871684529091529020805460ff19166001179055610bec3390565b6001600160a01b0316836001600160a01b0316857f2f8788117e7eff1d82e926ec794901d17c78024a50270940304540a733656f0d60405160405180910390a46001915050610410565b6000915050610410565b6000610887836001600160a01b038416610daf565b6000600080516020611343833981519152610c7084846106e3565b15610c36576000848152602082815260408083206001600160a01b0387168085529252808320805460ff1916905551339287917ff6391f5c32d9c69d2a47ea670b442974b53935d1edc7fd64eb21e047a839171b9190a46001915050610410565b6000610887836001600160a01b038416610dfe565b610cef82610ee7565b6040516001600160a01b038316907fbc7cd75a20ee27fd9adebab32041f755214dbc6bffa90cc0225b39da2e5c2d3b90600090a2805115610d345761048d8282610f4c565b6104ad610fc2565b6000826000018281548110610d5357610d536112a7565b9060005260206000200154905092915050565b7ff0c57e16840df040f15088dc2f81fe391c3923bec73e23a9662efc9c229c6a0054600160401b900460ff16610a1257604051631afcd79f60e31b815260040160405180910390fd5b6000818152600183016020526040812054610df657508154600181810184556000848152602080822090930184905584548482528286019093526040902091909155610410565b506000610410565b60008181526001830160205260408120548015610c36576000610e226001836112bd565b8554909150600090610e36906001906112bd565b9050808214610e9b576000866000018281548110610e5657610e566112a7565b9060005260206000200154905080876000018481548110610e7957610e796112a7565b6000918252602080832090910192909255918252600188019052604090208390555b8554869080610eac57610eac6112d0565b600190038181906000526020600020016000905590558560010160008681526020019081526020016000206000905560019350505050610410565b806001600160a01b03163b600003610f1d57604051634c9c8ce360e01b81526001600160a01b0382166004820152602401610644565b60008051602061132383398151915280546001600160a01b0319166001600160a01b0392909216919091179055565b6060600080846001600160a01b031684604051610f6991906112e6565b600060405180830381855af49150503d8060008114610fa4576040519150601f19603f3d011682016040523d82523d6000602084013e610fa9565b606091505b5091509150610fb9858383610fe1565b95945050505050565b3415610a125760405163b398979f60e01b815260040160405180910390fd5b606082610ff657610ff18261103d565b610887565b815115801561100d57506001600160a01b0384163b155b1561103657604051639996b31560e01b81526001600160a01b0385166004820152602401610644565b5092915050565b80511561104d5780518082602001fd5b604051630a12f52160e11b815260040160405180910390fd5b60006020828403121561107857600080fd5b81356001600160e01b03198116811461088757600080fd5b80356001600160a01b03811681146110a757600080fd5b919050565b6000602082840312156110be57600080fd5b61088782611090565b6000602082840312156110d957600080fd5b5035919050565b600080604083850312156110f357600080fd5b8235915061110360208401611090565b90509250929050565b634e487b7160e01b600052604160045260246000fd5b6000806040838503121561113557600080fd5b61113e83611090565b9150602083013567ffffffffffffffff81111561115a57600080fd5b8301601f8101851361116b57600080fd5b803567ffffffffffffffff8111156111855761118561110c565b604051601f8201601f19908116603f0116810167ffffffffffffffff811182821017156111b4576111b461110c565b6040528181528282016020018710156111cc57600080fd5b816020840160208301376000602083830101528093505050509250929050565b600080604083850312156111ff57600080fd5b50508035926020909101359150565b60005b83811015611229578181015183820152602001611211565b50506000910152565b602081526000825180602084015261125181604085016020870161120e565b601f01601f19169190910160400192915050565b634e487b7160e01b600052601160045260246000fd5b8082018082111561041057610410611265565b6000602082840312156112a057600080fd5b5051919050565b634e487b7160e01b600052603260045260246000fd5b8181038181111561041057610410611265565b634e487b7160e01b600052603160045260246000fd5b600082516112f881846020870161120e565b919091019291505056fec1f6fe24621ce81ec5827caf0253cadb74709b061630e6b55e82371705932000360894a13ba1a3210667c828492db98dca3e2076cc3735a920a3ca505d382bbc02dd7bc7dec4dceedda775e58dd541e08a116c6c53815c0bd028192f7b626800a26469706673582212201d5736c29a2d3f0db9d9bf50023b160e79242f73b6112eebe2a81a1bcf63c55564736f6c634300081a0033",
  "linkReferences": {},
  "deployedLinkReferences": {}
}