{
  "_format": "hh-sol-artifact-1",
  "contractName": "BugMinter",
  "sourceName": "contracts/BugMinter.sol",
  "abi": [
    {
      "inputs": [],
      "stateMutability": "nonpayable",
      "type": "constructor"
    },
    {
      "inputs": [],
      "name": "AccessControlBadConfirmation",
      "type": "error"
    },
    {
      "inputs": [
        {
          "internalType": "address",
          "name": "account",
          "type": "address"
        },
        {
          "internalType": "bytes32",
          "name": "neededRole",
          "type": "bytes32"
        }
      ],
      "name": "AccessControlUnauthorizedAccount",
      "type": "error"
    },
    {
      "inputs": [
        {
          "internalType": "address",
          "name": "target",
          "type": "address"
        }
      ],
      "name": "AddressEmptyCode",
      "type": "error"
    },
    {
      "inputs": [
        {
          "internalType": "address",
          "name": "implementation",
          "type": "address"
        }
      ],
      "name": "ERC1967InvalidImplementation",
      "type": "error"
    },
    {
      "inputs": [],
      "name": "ERC1967NonPayable",
      "type": "error"
    },
    {
      "inputs": [],
      "name": "FailedCall",
      "type": "error"
    },
    {
      "inputs": [],
      "name": "InvalidInitialization",
      "type": "error"
    },
    {
      "inputs": [],
      "name": "NotInitializing",
      "type": "error"
    },
    {
      "inputs": [],
      "name": "UUPSUnauthorizedCallContext",
      "type": "error"
    },
    {
      "inputs": [
        {
          "internalType": "bytes32",
          "name": "slot",
          "type": "bytes32"
        }
      ],
      "name": "UUPSUnsupportedProxiableUUID",
      "type": "error"
    },
    {
      "anonymous": false,
      "inputs": [
        {
          "indexed": true,
          "internalType": "address",
          "name": "catcher",
          "type": "address"
        },
        {
          "indexed": false,
          "internalType": "uint256",
          "name": "tokenId",
          "type": "uint256"
        }
      ],
      "name": "CatchCompleted",
      "type": "event"
    },
    {
      "anonymous": false,
      "inputs": [
        {
          "indexed": true,
          "internalType": "address",
          "name": "catcher",
          "type": "address"
        },
        {
          "indexed": false,
          "internalType": "uint256",
          "name": "randomSeedBlock",
          "type": "uint256"
        },
        {
          "indexed": false,
          "internalType": "bool",
          "name": "premium",
          "type": "bool"
        }
      ],
      "name": "CatchInitiated",
      "type": "event"
    },
    {
      "anonymous": false,
      "inputs": [
        {
          "indexed": false,
          "internalType": "uint64",
          "name": "version",
          "type": "uint64"
        }
      ],
      "name": "Initialized",
      "type": "event"
    },
    {
      "anonymous": false,
      "inputs": [
        {
          "indexed": true,
          "internalType": "bytes32",
          "name": "role",
          "type": "bytes32"
        },
        {
          "indexed": true,
          "internalType": "bytes32",
          "name": "previousAdminRole",
          "type": "bytes32"
        },
        {
          "indexed": true,
          "internalType": "bytes32",
          "name": "newAdminRole",
          "type": "bytes32"
        }
      ],
      "name": "RoleAdminChanged",
      "type": "event"
    },
    {
      "anonymous": false,
      "inputs": [
        {
          "indexed": true,
          "internalType": "bytes32",
          "name": "role",
          "type": "bytes32"
        },
        {
          "indexed": true,
          "internalType": "address",
          "name": "account",
          "type": "address"
        },
        {
          "indexed": true,
          "internalType": "address",
          "name": "sender",
          "type": "address"
        }
      ],
      "name": "RoleGranted",
      "type": "event"
    },
    {
      "anonymous": false,
      "inputs": [
        {
          "indexed": true,
          "internalType": "bytes32",
          "name": "role",
          "type": "bytes32"
        },
        {
          "indexed": true,
          "internalType": "address",
          "name": "account",
          "type": "address"
        },
        {
          "indexed": true,
          "internalType": "address",
          "name": "sender",
          "type": "address"
        }
      ],
      "name": "RoleRevoked",
      "type": "event"
    },
    {
      "anonymous": false,
      "inputs": [
        {
          "indexed": true,
          "internalType": "address",
          "name": "implementation",
          "type": "address"
        }
      ],
      "name": "Upgraded",
      "type": "event"
    },
    {
      "inputs": [],
      "name": "CATCH_TIMEOUT",
      "outputs": [
        {
          "internalType": "uint256",
          "name": "",
          "type": "uint256"
        }
      ],
      "stateMutability": "view",
      "type": "function"
    },
    {
      "inputs": [],
      "name": "DEFAULT_ADMIN_ROLE",
      "outputs": [
        {
          "internalType": "bytes32",
          "name": "",
          "type": "bytes32"
        }
      ],
      "stateMutability": "view",
      "type": "function"
    },
    {
      "inputs": [],
      "name": "PREMIUM_CATCH_PRICE",
      "outputs": [
        {
          "internalType": "uint256",
          "name": "",
          "type": "uint256"
        }
      ],
      "stateMutability": "view",
      "type": "function"
    },
    {
      "inputs": [],
      "name": "UPGRADER_ROLE",
      "outputs": [
        {
          "internalType": "bytes32",
          "name": "",
          "type": "bytes32"
        }
      ],
      "stateMutability": "view",
      "type": "function"
    },
    {
      "inputs": [],
      "name": "UPGRADE_INTERFACE_VERSION",
      "outputs": [
        {
          "internalType": "string",
          "name": "",
          "type": "string"
        }
      ],
      "stateMutability": "view",
      "type": "function"
    },
    {
      "inputs": [
        {
          "internalType": "address",
          "name": "",
          "type": "address"
        }
      ],
      "name": "catchesInProgress",
      "outputs": [
        {
          "internalType": "uint128",
          "name": "randomSeedBlock",
          "type": "uint128"
        },
        {
          "internalType": "bool",
          "name": "premium",
          "type": "bool"
        }
      ],
      "stateMutability": "view",
      "type": "function"
    },
    {
      "inputs": [
        {
          "internalType": "string",
          "name": "name",
          "type": "string"
        }
      ],
      "name": "completeCatch",
      "outputs": [],
      "stateMutability": "nonpayable",
      "type": "function"
    },
    {
      "inputs": [
        {
          "internalType": "address",
          "name": "catcher",
          "type": "address"
        }
      ],
      "name": "getCatchInProgressTokenId",
      "outputs": [
        {
          "internalType": "uint256",
          "name": "",
          "type": "uint256"
        }
      ],
      "stateMutability": "view",
      "type": "function"
    },
    {
      "inputs": [
        {
          "internalType": "bytes32",
          "name": "role",
          "type": "bytes32"
        }
      ],
      "name": "getRoleAdmin",
      "outputs": [
        {
          "internalType": "bytes32",
          "name": "",
          "type": "bytes32"
        }
      ],
      "stateMutability": "view",
      "type": "function"
    },
    {
      "inputs": [
        {
          "internalType": "bytes32",
          "name": "role",
          "type": "bytes32"
        },
        {
          "internalType": "uint256",
          "name": "index",
          "type": "uint256"
        }
      ],
      "name": "getRoleMember",
      "outputs": [
        {
          "internalType": "address",
          "name": "",
          "type": "address"
        }
      ],
      "stateMutability": "view",
      "type": "function"
    },
    {
      "inputs": [
        {
          "internalType": "bytes32",
          "name": "role",
          "type": "bytes32"
        }
      ],
      "name": "getRoleMemberCount",
      "outputs": [
        {
          "internalType": "uint256",
          "name": "",
          "type": "uint256"
        }
      ],
      "stateMutability": "view",
      "type": "function"
    },
    {
      "inputs": [
        {
          "internalType": "bytes32",
          "name": "role",
          "type": "bytes32"
        }
      ],
      "name": "getRoleMembers",
      "outputs": [
        {
          "internalType": "address[]",
          "name": "",
          "type": "address[]"
        }
      ],
      "stateMutability": "view",
      "type": "function"
    },
    {
      "inputs": [
        {
          "internalType": "bytes32",
          "name": "role",
          "type": "bytes32"
        },
        {
          "internalType": "address",
          "name": "account",
          "type": "address"
        }
      ],
      "name": "grantRole",
      "outputs": [],
      "stateMutability": "nonpayable",
      "type": "function"
    },
    {
      "inputs": [
        {
          "internalType": "bytes32",
          "name": "role",
          "type": "bytes32"
        },
        {
          "internalType": "address",
          "name": "account",
          "type": "address"
        }
      ],
      "name": "hasRole",
      "outputs": [
        {
          "internalType": "bool",
          "name": "",
          "type": "bool"
        }
      ],
      "stateMutability": "view",
      "type": "function"
    },
    {
      "inputs": [
        {
          "internalType": "address",
          "name": "theBugs_",
          "type": "address"
        },
        {
          "internalType": "address",
          "name": "paymentReceiver_",
          "type": "address"
        }
      ],
      "name": "initialize",
      "outputs": [],
      "stateMutability": "nonpayable",
      "type": "function"
    },
    {
      "inputs": [],
      "name": "initiateFreeCatch",
      "outputs": [],
      "stateMutability": "nonpayable",
      "type": "function"
    },
    {
      "inputs": [],
      "name": "initiatePremiumCatch",
      "outputs": [],
      "stateMutability": "payable",
      "type": "function"
    },
    {
      "inputs": [],
      "name": "lastCatchedBug",
      "outputs": [
        {
          "internalType": "uint256",
          "name": "",
          "type": "uint256"
        }
      ],
      "stateMutability": "view",
      "type": "function"
    },
    {
      "inputs": [
        {
          "internalType": "address",
          "name": "",
          "type": "address"
        }
      ],
      "name": "lastFreeCatchTimestamps",
      "outputs": [
        {
          "internalType": "uint256",
          "name": "",
          "type": "uint256"
        }
      ],
      "stateMutability": "view",
      "type": "function"
    },
    {
      "inputs": [],
      "name": "proxiableUUID",
      "outputs": [
        {
          "internalType": "bytes32",
          "name": "",
          "type": "bytes32"
        }
      ],
      "stateMutability": "view",
      "type": "function"
    },
    {
      "inputs": [
        {
          "internalType": "bytes32",
          "name": "role",
          "type": "bytes32"
        },
        {
          "internalType": "address",
          "name": "callerConfirmation",
          "type": "address"
        }
      ],
      "name": "renounceRole",
      "outputs": [],
      "stateMutability": "nonpayable",
      "type": "function"
    },
    {
      "inputs": [
        {
          "internalType": "bytes32",
          "name": "role",
          "type": "bytes32"
        },
        {
          "internalType": "address",
          "name": "account",
          "type": "address"
        }
      ],
      "name": "revokeRole",
      "outputs": [],
      "stateMutability": "nonpayable",
      "type": "function"
    },
    {
      "inputs": [
        {
          "internalType": "bytes4",
          "name": "interfaceId",
          "type": "bytes4"
        }
      ],
      "name": "supportsInterface",
      "outputs": [
        {
          "internalType": "bool",
          "name": "",
          "type": "bool"
        }
      ],
      "stateMutability": "view",
      "type": "function"
    },
    {
      "inputs": [],
      "name": "theBugs",
      "outputs": [
        {
          "internalType": "contract TheBugs",
          "name": "",
          "type": "address"
        }
      ],
      "stateMutability": "view",
      "type": "function"
    },
    {
      "inputs": [
        {
          "internalType": "address",
          "name": "newImplementation",
          "type": "address"
        },
        {
          "internalType": "bytes",
          "name": "data",
          "type": "bytes"
        }
      ],
      "name": "upgradeToAndCall",
      "outputs": [],
      "stateMutability": "payable",
      "type": "function"
    }
  ],
  "bytecode": "0x60a06040523060805234801561001457600080fd5b507ff0c57e16840df040f15088dc2f81fe391c3923bec73e23a9662efc9c229c6a00805468010000000000000000810460ff1615906001600160401b031660008115801561005f5750825b90506000826001600160401b0316600114801561007b5750303b155b905081158015610089575080155b156100a75760405163f92ee8a960e01b815260040160405180910390fd5b84546001600160401b031916600117855583156100d557845460ff60401b1916680100000000000000001785555b831561011b57845460ff60401b19168555604051600181527fc7f505b2f371ae2175ee4913f4499e1f2633a7b5936321eed1cdaeb6115181d29060200160405180910390a15b50505050506080516117aa61014960003960008181610bf901528181610c220152610d8501526117aa6000f3fe6080604052600436106101665760003560e01c8063894e5cd4116100d1578063ab66ce4e1161008a578063ca15c87311610064578063ca15c87314610454578063d547741f14610474578063ed497b3714610494578063f72c0d8b146104c157600080fd5b8063ab66ce4e146103d6578063ad3cb1cc146103f6578063c9c9ef1b1461043457600080fd5b8063894e5cd4146103065780639010d07c1461032657806391d148541461035e578063a217fddf1461037e578063a3246ad314610393578063a42911fc146103c057600080fd5b806336568abe1161012357806336568abe14610274578063485cc955146102945780634892aec8146102b45780634f1ef286146102c957806352d1902d146102dc5780636d763464146102f157600080fd5b80630104cb4e1461016b57806301ffc9a714610199578063248a9ca3146101c95780632f2ff15d146101e9578063313886cd1461020b57806335af61b014610213575b600080fd5b34801561017757600080fd5b5061018666038d7ea4c6800081565b6040519081526020015b60405180910390f35b3480156101a557600080fd5b506101b96101b4366004611346565b6104f5565b6040519015158152602001610190565b3480156101d557600080fd5b506101866101e4366004611370565b610520565b3480156101f557600080fd5b506102096102043660046113a5565b610542565b005b610209610564565b34801561021f57600080fd5b5061025561022e3660046113d1565b6000602081905290815260409020546001600160801b03811690600160801b900460ff1682565b604080516001600160801b039093168352901515602083015201610190565b34801561028057600080fd5b5061020961028f3660046113a5565b610586565b3480156102a057600080fd5b506102096102af3660046113ec565b6105be565b3480156102c057600080fd5b50610186603c81565b6102096102d736600461142c565b61071a565b3480156102e857600080fd5b50610186610739565b3480156102fd57600080fd5b50610209610756565b34801561031257600080fd5b506101866103213660046113d1565b61078a565b34801561033257600080fd5b506103466103413660046114f6565b610893565b6040516001600160a01b039091168152602001610190565b34801561036a57600080fd5b506101b96103793660046113a5565b6108c2565b34801561038a57600080fd5b50610186600081565b34801561039f57600080fd5b506103b36103ae366004611370565b6108fa565b6040516101909190611518565b3480156103cc57600080fd5b5061018660035481565b3480156103e257600080fd5b506102096103f1366004611564565b61092c565b34801561040257600080fd5b50610427604051806040016040528060058152602001640352e302e360dc1b81525081565b60405161019091906115fc565b34801561044057600080fd5b50600254610346906001600160a01b031681565b34801561046057600080fd5b5061018661046f366004611370565b610a04565b34801561048057600080fd5b5061020961048f3660046113a5565b610a2a565b3480156104a057600080fd5b506101866104af3660046113d1565b60016020526000908152604090205481565b3480156104cd57600080fd5b506101867f189ab7a9244df0848122154315af71fe140f3db0fe014031783b0946b8c9d2e381565b60006001600160e01b03198216635a05180f60e01b148061051a575061051a82610a46565b92915050565b6000908152600080516020611755833981519152602052604090206001015490565b61054b82610520565b61055481610a7b565b61055e8383610a85565b50505050565b333466038d7ea4c680001461057857600080fd5b610583816001610aca565b50565b6001600160a01b03811633146105af5760405163334bd91960e11b815260040160405180910390fd5b6105b98282610ba8565b505050565b7ff0c57e16840df040f15088dc2f81fe391c3923bec73e23a9662efc9c229c6a008054600160401b810460ff16159067ffffffffffffffff166000811580156106045750825b905060008267ffffffffffffffff1660011480156106215750303b155b90508115801561062f575080155b1561064d5760405163f92ee8a960e01b815260040160405180910390fd5b845467ffffffffffffffff19166001178555831561067757845460ff60401b1916600160401b1785555b61067f610be4565b610687610be4565b61068f610be4565b600280546001600160a01b03808a166001600160a01b03199283161790925560048054928916929091169190911790556106ca600033610a85565b50831561071157845460ff60401b19168555604051600181527fc7f505b2f371ae2175ee4913f4499e1f2633a7b5936321eed1cdaeb6115181d29060200160405180910390a15b50505050505050565b610722610bee565b61072b82610c93565b6107358282610cbd565b5050565b6000610743610d7a565b5060008051602061173583398151915290565b33600081815260016020526040902054429061077490603c90611645565b111561077f57600080fd5b610583816000610aca565b6001600160a01b038116600090815260208190526040812080546001600160801b0316408083036108025760405162461bcd60e51b815260206004820152601860248201527f4275674d696e7465723a2063617463682065787069726564000000000000000060448201526064015b60405180910390fd5b8154600090600160801b900460ff1661081c57600061081f565b60015b6002546040805160208082018790526bffffffffffffffffffffffff1960608b811b82168486015230811b821660548501529490941b90931660688201528151605c818303018152607c909101909152805191012060ff91909116915060011c6108898183611645565b9695505050505050565b60008281526000805160206117158339815191526020819052604082206108ba9084610dc3565b949350505050565b6000918252600080516020611755833981519152602090815260408084206001600160a01b0393909316845291905290205460ff1690565b6000818152600080516020611715833981519152602081905260409091206060919061092590610dcf565b9392505050565b3360006109388261078a565b6002546040516334ff261960e21b81529192506001600160a01b03169063d3fc98649061096f908590859089908990600401611658565b600060405180830381600087803b15801561098957600080fd5b505af115801561099d573d6000803e3d6000fd5b505050506001600160a01b0382166000818152602081815260409182902080546001600160881b0319169055600384905590518381527f3e0a25483a2e5b4eac43569ad6be33a6729d90349275defcb15953f7a5d27b9f910160405180910390a250505050565b600081815260008051602061171583398151915260208190526040822061092590610ddc565b610a3382610520565b610a3c81610a7b565b61055e8383610ba8565b60006001600160e01b03198216637965db0b60e01b148061051a57506301ffc9a760e01b6001600160e01b031983161461051a565b6105838133610de6565b600060008051602061171583398151915281610aa18585610e1f565b905080156108ba576000858152602083905260409020610ac19085610ec4565b50949350505050565b6000610ad7436001611645565b6040805180820182526001600160801b03808416825285151560208084019182526001600160a01b038916600090815290819052939093209151825493511515600160801b026001600160881b0319909416911617919091179055905081610b55576001600160a01b03831660009081526001602052604090204290555b604080516001600160801b038316815283151560208201526001600160a01b038516917fb74bb0703fd2042b20d17988dad7a83349c7d02bdb88ea668b69269cefd74e4c910160405180910390a2505050565b600060008051602061171583398151915281610bc48585610ed9565b905080156108ba576000858152602083905260409020610ac19085610f55565b610bec610f6a565b565b306001600160a01b037f0000000000000000000000000000000000000000000000000000000000000000161480610c7557507f00000000000000000000000000000000000000000000000000000000000000006001600160a01b0316610c69600080516020611735833981519152546001600160a01b031690565b6001600160a01b031614155b15610bec5760405163703e46dd60e11b815260040160405180910390fd5b7f189ab7a9244df0848122154315af71fe140f3db0fe014031783b0946b8c9d2e361073581610a7b565b816001600160a01b03166352d1902d6040518163ffffffff1660e01b8152600401602060405180830381865afa925050508015610d17575060408051601f3d908101601f19168201909252610d14918101906116a0565b60015b610d3f57604051634c9c8ce360e01b81526001600160a01b03831660048201526024016107f9565b6000805160206117358339815191528114610d7057604051632a87526960e21b8152600481018290526024016107f9565b6105b98383610fb3565b306001600160a01b037f00000000000000000000000000000000000000000000000000000000000000001614610bec5760405163703e46dd60e11b815260040160405180910390fd5b60006109258383611009565b6060600061092583611033565b600061051a825490565b610df082826108c2565b6107355760405163e2517d3f60e01b81526001600160a01b0382166004820152602481018390526044016107f9565b6000600080516020611755833981519152610e3a84846108c2565b610eba576000848152602082815260408083206001600160a01b03871684529091529020805460ff19166001179055610e703390565b6001600160a01b0316836001600160a01b0316857f2f8788117e7eff1d82e926ec794901d17c78024a50270940304540a733656f0d60405160405180910390a4600191505061051a565b600091505061051a565b6000610925836001600160a01b03841661108f565b6000600080516020611755833981519152610ef484846108c2565b15610eba576000848152602082815260408083206001600160a01b0387168085529252808320805460ff1916905551339287917ff6391f5c32d9c69d2a47ea670b442974b53935d1edc7fd64eb21e047a839171b9190a4600191505061051a565b6000610925836001600160a01b0384166110de565b7ff0c57e16840df040f15088dc2f81fe391c3923bec73e23a9662efc9c229c6a0054600160401b900460ff16610bec57604051631afcd79f60e31b815260040160405180910390fd5b610fbc826111c7565b6040516001600160a01b038316907fbc7cd75a20ee27fd9adebab32041f755214dbc6bffa90cc0225b39da2e5c2d3b90600090a2805115611001576105b9828261122c565b6107356112a2565b6000826000018281548110611020576110206116b9565b9060005260206000200154905092915050565b60608160000180548060200260200160405190810160405280929190818152602001828054801561108357602002820191906000526020600020905b81548152602001906001019080831161106f575b50505050509050919050565b60008181526001830160205260408120546110d65750815460018181018455600084815260208082209093018490558454848252828601909352604090209190915561051a565b50600061051a565b60008181526001830160205260408120548015610eba5760006111026001836116cf565b8554909150600090611116906001906116cf565b905080821461117b576000866000018281548110611136576111366116b9565b9060005260206000200154905080876000018481548110611159576111596116b9565b6000918252602080832090910192909255918252600188019052604090208390555b855486908061118c5761118c6116e2565b60019003818190600052602060002001600090559055856001016000868152602001908152602001600020600090556001935050505061051a565b806001600160a01b03163b6000036111fd57604051634c9c8ce360e01b81526001600160a01b03821660048201526024016107f9565b60008051602061173583398151915280546001600160a01b0319166001600160a01b0392909216919091179055565b6060600080846001600160a01b03168460405161124991906116f8565b600060405180830381855af49150503d8060008114611284576040519150601f19603f3d011682016040523d82523d6000602084013e611289565b606091505b50915091506112998583836112c1565b95945050505050565b3415610bec5760405163b398979f60e01b815260040160405180910390fd5b6060826112d6576112d18261131d565b610925565b81511580156112ed57506001600160a01b0384163b155b1561131657604051639996b31560e01b81526001600160a01b03851660048201526024016107f9565b5092915050565b80511561132d5780518082602001fd5b60405163d6bda27560e01b815260040160405180910390fd5b60006020828403121561135857600080fd5b81356001600160e01b03198116811461092557600080fd5b60006020828403121561138257600080fd5b5035919050565b80356001600160a01b03811681146113a057600080fd5b919050565b600080604083850312156113b857600080fd5b823591506113c860208401611389565b90509250929050565b6000602082840312156113e357600080fd5b61092582611389565b600080604083850312156113ff57600080fd5b61140883611389565b91506113c860208401611389565b634e487b7160e01b600052604160045260246000fd5b6000806040838503121561143f57600080fd5b61144883611389565b9150602083013567ffffffffffffffff81111561146457600080fd5b8301601f8101851361147557600080fd5b803567ffffffffffffffff81111561148f5761148f611416565b604051601f8201601f19908116603f0116810167ffffffffffffffff811182821017156114be576114be611416565b6040528181528282016020018710156114d657600080fd5b816020840160208301376000602083830101528093505050509250929050565b6000806040838503121561150957600080fd5b50508035926020909101359150565b602080825282518282018190526000918401906040840190835b818110156115595783516001600160a01b0316835260209384019390920191600101611532565b509095945050505050565b6000806020838503121561157757600080fd5b823567ffffffffffffffff81111561158e57600080fd5b8301601f8101851361159f57600080fd5b803567ffffffffffffffff8111156115b657600080fd5b8560208284010111156115c857600080fd5b6020919091019590945092505050565b60005b838110156115f35781810151838201526020016115db565b50506000910152565b602081526000825180602084015261161b8160408501602087016115d8565b601f01601f19169190910160400192915050565b634e487b7160e01b600052601160045260246000fd5b8082018082111561051a5761051a61162f565b6001600160a01b0385168152602081018490526060604082018190528101829052818360808301376000818301608090810191909152601f909201601f191601019392505050565b6000602082840312156116b257600080fd5b5051919050565b634e487b7160e01b600052603260045260246000fd5b8181038181111561051a5761051a61162f565b634e487b7160e01b600052603160045260246000fd5b6000825161170a8184602087016115d8565b919091019291505056fec1f6fe24621ce81ec5827caf0253cadb74709b061630e6b55e82371705932000360894a13ba1a3210667c828492db98dca3e2076cc3735a920a3ca505d382bbc02dd7bc7dec4dceedda775e58dd541e08a116c6c53815c0bd028192f7b626800a2646970667358221220fd316cb0921873970cc1f45ae25b1d3e11f1065e96c47f6e994ce5542f70f09764736f6c634300081c0033",
  "linkReferences": {},
  "deployedLinkReferences": {}
}